:020000040800F2
:10000000108F01205D0200084B570008AF4B00081D
:1000100049570008ED120008557A0008000000005A
:100020000000000000000000000000009D0100082A
:100030000714000800000000F9010008F17500082D
:1000400077020008770200087702000877020008AC
:10005000770200087702000877020008770200089C
:10006000770200087702000877020008770200088C
:1000700077020008770200087702000829130008B9
:10008000770200087702000877020008770200086C
:1000900077020008770200087702000819140008A8
:1000A000770200087702000877020008770200084C
:1000B0007702000877020008B1760008770200088E
:1000C000770200087702000877020008770200082C
:1000D000770200087702000877020008770200081C
:1000E000770200087702000877020008770200080C
:1000F00077020008770200087702000877020008FC
:1001000077020008396A00087702000877020008C1
:1001100077020008770200087702000877020008DB
:100120007702000877020008770200082D13000804
:1001300077020008770200087702000877020008BB
:1001400077020008770200087702000877020008AB
:1001500077020008391300087702000877020008C8
:10016000770200087702000877020008770200088B
:1001700077020008770200087702000800000000FC
:100180007702000877020008DFF80CD000F026F9AB
:1001900000480047BD820208108F01202C4B1968CF
:1001A0000868B0E8F04F80F30988BFF36F8F4FF015
:1001B000000080F3118870470000000008480068C4
:1001C000006880F308884FF0000080F3148862B65E
:1001D00061B6BFF34F8FBFF36F8F00DF00BF00BF6B
:1001E00008ED00E0DFF80C00016841F470010160E7
:1001F000704700BF88ED00E0EFF30980BFF36F8F19
:10020000134B1A681EF0100F08BF20ED108A20E96A
:10021000F04F106009B44FF0500080F31188BFF325
:100220004F8FBFF36F8F2DF0A1FC4FF0000080F3D4
:10023000118809BC19680868B0E8F04F1EF0100F6B
:1002400008BFB0EC108A80F30988BFF36F8F704746
:1002500020C00120EFF3058070470000064880476A
:1002600006480047FEE7FEE7FEE7FEE7FEE7FEE79B
:10027000FEE7FEE7FEE7FEE7A17600088901000839
:100280002DE9F05F0546002092469B4688460646CB
:10029000814640241BE0284641464746224600F05E
:1002A0008CF853465A46C01A914110D3114618464D
:1002B000224600F073F82D1A67EB01084F462246DC
:1002C0000120002100F06AF817EB00094E41201EC2
:1002D000A4F10104DFDC484631462A464346BDE826
:1002E000F09F10B5431A934209D28318881803E08F
:1002F00010F8011D03F8011D521EF9D210BD40EA8D
:1003000001039B0703D009E008C9121F08C0042A93
:10031000FAD203E011F8013B00F8013B521EF9D27A
:1003200010BDD2B201E000F8012B491EFBD270478C
:100330000022F6E710B513460A4604461946FFF7B1
:10034000F0FF204610BD421C10F8011B0029FBD114
:10035000801A704710B5002200E0521C835C8C5C50
:10036000A34201D1002BF8D1D8B2E1B2401A10BD9E
:1003700030B504460020034600E05B1C934203D2E4
:10038000E05CCD5C401BF8D030BD034611F8012B7A
:1003900000F8012B002AF9D118467047202A04DB07
:1003A000203A00FA02F1002070479140C2F1200388
:1003B00020FA03F3194390407047202A04DB203AC7
:1003C00021FA02F00021704721FA02F3D040C2F175
:1003D000200291400843194670470000064C074D23
:1003E00006E0E06840F0010394E807009847103405
:1003F000AC42F6D3FFF7CCFEE0E3050820E40508A5
:1004000070B58C1810F8015B15F0070301D110F8D6
:10041000013B2A1106D110F8012B03E010F8016B03
:1004200001F8016B5B1EF9D12B0705D40023521E86
:100430000DD401F8013BFAE710F8013BCB1A921CEE
:1004400003E013F8015B01F8015B521EF9D5A142EC
:10045000D8D3002070BD00002DE9F04156A02DED4D
:10046000048B07F0F9FA61A007F0F6FA52A007F042
:10047000F3FA68A007F0F0FA2DF0C6FD0A202DF07F
:1004800031FA6EA007F0E8FA74A007F0E5FA03214C
:1004900010202DF089FC7CA007F0DEFA88A007F080
:1004A000DBFA2D202DF0CCFD8EA007F0D5FA95A01B
:1004B00007F0D2FA102100202DF056FC9DA007F085
:1004C000CBFAA6A007F0C8FA04F062FE04F07EFDA5
:1004D000AEA007F0C1FAB6A007F0BEFA00214AF6B6
:1004E0004442084604F08CFEBCA007F0B5FAC6A052
:1004F00007F0B2FA9FEDD08ADFEDD08A0024DFED5D
:10050000D09AD04DD04E9FEDD19A4FF4906700BF56
:10051000B0EE480A07F0D4FA20EE290A05EB4401B0
:1005200038EE288ABDEEC00A10EE100A25F8140035
:10053000A1F8000918EE100AB04201DD38EE498A30
:10054000641CBC42E4DBC2A007F086FACEA007F030
:1005500083FA3A46D849BB4804F086FED7A007F094
:100560007BFADDA007F078FA04F002FEE4A007F0C1
:1005700073FA11A007F070FAE9A007F06DFAF4A081
:1005800007F06AFA0CA007F067FA42F210702DF03B
:10059000A9F909A007F060FAF6A007F05DFA04F0E7
:1005A000F1FD01202DF0F8FCFAA007F055FA02A0A9
:1005B00007F052FAFFA00BE25B415544494F5D2022
:1005C0003D3D3D3D3D3D3D3D3D3D3D3D3D3D3D3D5B
:1005D0003D3D3D3D3D3D3D3D3D3D3D3D3D3D3D3D4B
:1005E0003D3D3D3D3D3D3D3D0D0A00005B415544D7
:1005F000494F5D204932532D444D412D574D3839D7
:100600003738205465737420537461727465640DB7
:100610000A0000005B415544494F5D2053746570EA
:1006200020313A20526573657474696E6720574DA6
:10063000383937382E2E2E0D0A0000005B41554404
:10064000494F5D203F20574D383937382072657348
:10065000657420646F6E650D0A0000005B415544AF
:10066000494F5D205374657020323A20436F6E66A7
:1006700069677572696E6720617564696F20706162
:1006800074682E2E2E0D0A005B415544494F5D20A3
:100690003F20417564696F207061746820636F6EDC
:1006A000666967757265642028444143202D3E20A9
:1006B0004865616470686F6E6573290D0A000000FB
:1006C0005B415544494F5D205374657020333A2097
:1006D00053657474696E6720766F6C756D652E2E28
:1006E0002E0D0A005B415544494F5D203F20566F57
:1006F0006C756D652073657420746F2034350D0A38
:10070000000000005B415544494F5D205374657003
:1007100020343A20436F6E6669677572696E672090
:1007200049325320696E746572666163652E2E2EA0
:100730000D0A00005B415544494F5D203F2049327E
:100740005320696E7465726661636520636F6E66BF
:100750006967757265640D0A000000005B415544CD
:10076000494F5D205374657020353A20496E697495
:1007700069616C697A696E672049325320616E64E1
:10078000204750494F2E2E2E0D0A00005B41554444
:10079000494F5D203F20493253204750494F20693F
:1007A0006E697469616C697A65640D0A0000000005
:1007B0005B415544494F5D205374657020363A20A3
:1007C000436F6E6669677572696E672049325320A0
:1007D0006D6F64652E2E2E0D0A0000005B4155449E
:1007E000494F5D203F20493253206D6F646520637F
:1007F0006F6E66696775726564202834342E316BBC
:10080000487A290D0A0000005B415544494F5D209C
:100810005374657020373A2047656E65726174695C
:100820006E6720617564696F2062756666657273B4
:100830002E2E2E0D0A0000000000000031E5113EB2
:100840000000FA464C120020DB0FC940DB0FC94004
:100850005B415544494F5D203F20417564696F20DD
:10086000627566666572732067656E657261746530
:10087000642028316B487A2073696E652077617631
:1008800065290D0A000000005B415544494F5D2079
:100890005374657020383A20496E697469616C69D7
:1008A0007A696E6720444D41207472616E7366658B
:1008B000722E2E2E0D0A00004C1B00205B41554469
:1008C000494F5D203F20444D4120696E6974696144
:1008D0006C697A65640D0A005B415544494F5D209F
:1008E0005374657020393A205374617274696E676D
:1008F00020706C61796261636B2E2E2E0D0A0000F0
:100900005B415544494F5D203F20506C61796261E5
:10091000636B20737461727465640D0A00000000DB
:100920005B415544494F5D20506C6179696E672089
:10093000316B487A20746F6E6520666F722031309B
:10094000207365636F6E64732E2E2E0D0A000000F7
:100950005B415544494F5D20506C65617365206C67
:10096000697374656E206361726566756C6C79215C
:100970000D0A00005B415544494F5D2053746F7070
:1009800070696E6720706C61796261636B2E2E2EC8
:100990000D0A00005B415544494F5D203F20506CDB
:1009A00061796261636B2073746F707065640D0AA6
:1009B000000000005B415544494F5D20546573744D
:1009C00020636F6D706C65746564210D0A00000012
:1009D00007F042F8AFF2204007F03EF8BDEC048B80
:1009E0000020BDE8F0412CF0A3BF00007FB500243B
:1009F0001248FF2550F824208A4200D12546641C65
:100A0000E4B2082CF6D3684602F048FD0120FF2D21
:100A1000009009D00948203050F82500019007487F
:100A2000403050F8250003E04FF48170019003201E
:100A30000290684602F07AFD7FBD00009CEE02083D
:100A4000704700000146014803F0B6BA4C2400206C
:100A500010B5044803F0C2FA042801D0012010BDEB
:100A6000002010BD4C24002070B58AB0002439A0AD
:100A700006F0F2FF214640A006F0EEFF01208DF8BF
:100A800000009DF80000012805D045A006F0E4FF15
:100A900001200AB070BD524803F0BAFB50B1504873
:100AA000816B50A006F0D8FF4D4803F097FA01463D
:100AB00059A040E062A006F0CFFF00254FF4FA767F
:100AC000474803F08BFA042805D00A2001F084FF80
:100AD0000A35B542F4D3B54204D3314662A006F0DC
:100AE000BBFF012401A93E4803F066FA0498009078
:100AF00001AD6C4895E80E0006F0AEFF0898009036
:100B000005AD694895E80E0006F0A6FFB4B932209D
:100B100001F062FF4FF40061314803F0F3F8010087
:100B200012D0624806F098FF00212D4803F0EAF841
:100B300001000BD05EA006F08FFF012421466CA0BF
:100B400006F08AFF2046A4E771A000E07DA006F031
:100B500083FFF3E75B4253505F53445D203D3D3DCF
:100B60003D3D2042535020534420494E4954203D9E
:100B70003D3D3D3D0D0A00005B4253505F53445DD7
:100B800020656E7465722C20696E697469616C20D1
:100B900073645F73746174653D25750D0A00000010
:100BA0005B4253505F53445D2063617264206E6FFB
:100BB0007420646574656374656420284253505FD3
:100BC00053445F4973446574656374656420213DD3
:100BD0002053445F50524553454E54290D0A00009E
:100BE0004C2400205B4253505F53445D2048414CED
:100BF0005F53445F496E69742072657475726E65E7
:100C000064204552524F5220286572723D3078253B
:100C100030386C58290D0A005B4253505F53445DD5
:100C20002048414C5F53445F47657443617264538D
:100C3000746174652829203D2025640D0A00000098
:100C40005B4253505F53445D2048414C5F53445FC7
:100C5000496E69742072657475726E6564204D53B7
:100C6000445F4F4B0D0A00005B4253505F53445D9D
:100C7000206361726420646964206E6F7420656E05
:100C8000746572205452414E53464552207374612C
:100C9000746520616674657220256C75206D730D16
:100CA0000A000000E4E2050834E3050890E20508C4
:100CB0005B4253505F53445D2048414C5F53445F57
:100CC000436F6E666967576964654275734F7065F7
:100CD000726174696F6E2066616C6C6261636B2017
:100CE0006661696C656420282564290D0A0000008E
:100CF0005B4253505F53445D2066696E616C2073A4
:100D0000645F7374617465203D2025750D0A0000D1
:100D10005B4253505F53445D2048414C5F53445FF6
:100D2000436F6E666967576964654275734F706596
:100D3000726174696F6E20342D626974204F4B0D9F
:100D40000A0000005B4253505F53445D2048414C11
:100D50005F53445F436F6E666967576964654275A8
:100D6000734F7065726174696F6E2066616C6C623E
:100D700061636B20746F20312D626974204F4B0DBD
:100D80000A00000000B589B06946164803F014F95E
:100D900020B115A006F060FE09B000BD1AA006F053
:100DA0005BFE1FA0009906F057FE22A0019906F0F5
:100DB00053FE26A0029906F04FFE28A0039906F0E4
:100DC0004BFE2BA0049906F047FE2EA0059906F0D5
:100DD00043FE31A0069906F03FFE35A0079906F0C4
:100DE0003BFED9E74C2400204253505F53443A2045
:100DF000676574206361726420696E666F20666146
:100E0000696C65640D0A00005344204361726420DC
:100E1000496E666F2028425350293A0D0A0000009F
:100E2000202043617264547970653A20256C750DF9
:100E30000A00000020204361726456657273696F76
:100E40006E3A20256C750D0A000000002020436CCE
:100E50006173733A20256C750D0A000020205265DD
:100E60006C436172644164643A20256C750D0A001C
:100E70002020426C6F636B4E62723A20256C750DB8
:100E80000A0000002020426C6F636B53697A653A58
:100E900020256C750D0A000020204C6F67426C6F96
:100EA000636B4E62723A20256C750D0A00000000DB
:100EB00020204C6F67426C6F636B53697A653A20F0
:100EC000256C750D0A000000134610B50A46014650
:100ED0000024034803F018FB00B10124204610BD94
:100EE0004C24002070B51E4613460A46014616489B
:100EF00003F00AFB144C10B1A16B14A00AE001F03E
:100F000079FE054618E0A06B40B10F4802F0BAFE2A
:100F1000A16B1EA006F0A0FD012070BD01F06AFECD
:100F2000401BB04208D9084802F0ACFEA16B27A0D4
:100F300006F092FD032070BD034803F04FF804282B
:100F4000E1D1002070BD00004C2400204253505FCE
:100F500053445F52656164426C6F636B735F444DD1
:100F6000415F426C6F636B696E673A2073746172A4
:100F70007420444D41206661696C65642C20657263
:100F8000723D30782530386C580D0A004253505F5E
:100F900053445F52656164426C6F636B735F444D91
:100FA000415F426C6F636B696E673A207472616E69
:100FB00073666572206572726F722C206572723D65
:100FC00030782530386C580D0A0000004253505FCD
:100FD00053445F52656164426C6F636B735F444D51
:100FE000415F426C6F636B696E673A2074696D652F
:100FF0006F75742C206572723D30782530386C58CE
:101000000D0A000008B50120ADF8000003480023D8
:101010001A466946406827F027FF08BD70C10120C5
:101020002DE9F04105462A484FF4006141F2883627
:10103000804600F500740F4633460122FFF752FF49
:1010400008B124A03AE0394629A006F005FD002D9C
:101050003CD04FF400752A4641462046FFF741F93F
:1010600000202054401CA842FBDB334601223946B5
:10107000204600F0B1F808B127A01FE0022001F0DF
:10108000ABFC29461248FFF753F933460122394693
:101090004046FFF727FF08B126A00FE02A46214669
:1010A0004046FFF765F908B12AA007E03346012260
:1010B0003946204600F090F828B12EA006F0CCFC6E
:1010C0000120BDE8F08133A006F0C6FC0020F8E75F
:1010D00008CB01204253505F53445F546573743A08
:1010E0002072656164206661696C65640D0A0000A8
:1010F0004253505F53445F546573743A2072656184
:101100006420626C6F636B20256C7520737563635C
:101110006573730D0A0000004253505F53445F54DF
:101120006573743A207772697465206661696C65CD
:10113000640D0A004253505F53445F546573743A20
:1011400020726561646261636B206661696C6564CD
:101150000D0A00004253505F53445F546573743A64
:1011600020766572696679206661696C65640D0A2E
:10117000000000004253505F53445F546573743A5B
:1011800020726573746F7265206661696C65640DA9
:101190000A0000004253505F53445F546573743A31
:1011A00020777269746520616E6420766572696665
:1011B0007920737563636573730D0A00134610B568
:1011C0000A4601460024034803F038FA00B101241E
:1011D000204610BD4C2400202DE9F04107461E4654
:1011E00014460D46194806F037FC23462A46394670
:1011F000174803F023FA164C10B1A16B15480AE00A
:1012000001F0F8FC054619E0A06B48B1104802F067
:1012100039FDA16B10A006F01FFC0120BDE8F08194
:1012200001F0E8FC401BB04208D9094802F02AFD51
:10123000A16B19A006F010FC0320EFE7044802F0B0
:10124000CDFE0428E0D10020E8E7000090E3050887
:101250004C2400204CE205084253505F53445F5732
:1012600072697465426C6F636B735F444D415F429A
:101270006C6F636B696E673A207472616E7366653A
:1012800072206572726F722C206572723D30782503
:1012900030386C580D0A00004253505F53445F577A
:1012A00072697465426C6F636B735F444D415F425A
:1012B0006C6F636B696E673A2074696D656F7574E6
:1012C0002C206572723D30782530386C580D0A003C
:1012D00008B50220ADF80000034800231A4669460D
:1012E000406827F0C1FD08BD70C10120FEE7000085
:1012F00010B50C4C0A4820604FF4E13060600020CB
:10130000A060E0602061A0610C206061204603F0D5
:1013100082FB2068C16841F02001C16010BD00005F
:10132000001001407CC1012004F008B8014801F020
:10133000E1B90000D0240020014801F0DBB9000031
:101340003025002001681823CAB2103AB2FBF3F22C
:10135000054B6FF30901032A9B5CC36500D9091D86
:10136000816508467047000078EE020810B5014616
:1013700000208B698A6A4FF0C07453B1B3F5005FE7
:1013800015D072B1012A0CD0022A0AD0032A09D141
:1013900004E01AB1012A06D0022A03D1C96AC901A0
:1013A00000D5012010BDC96AA142FAD010BD002AA3
:1013B000F7D0012AF2D0022AF3D0032AF3D010BDCD
:1013C00010B5046863608368402B036803D099609C
:1013D0000068C26010BD9A600068C16010BD30B581
:1013E0000468256825F480252560046863608368A7
:1013F000402B036803D099600068C26030BD9A60DA
:101400000068C16030BD704701B5009801E0401E22
:1014100000900028FBD108BD10B5044C2068C00521
:1014200003D500F077FBA015206010BD143C0140EF
:1014300072B6FEE7002200F001B8000030B50E4B96
:10144000054601205C7A002C14D1587A1C54587A35
:1014500003EB800045605D7A03F108002A54587A56
:10146000421C5A72303008703A2048702F20887021
:10147000CC70002030BD0000FCCA012070B5B3F56F
:10148000804F05D06FF0704140F82210002070BDF1
:1014900050F82240084B8E891C40D1E9003543EAC0
:1014A00005138D6889692D0245EA06452B430B43D8
:1014B000234340F82230E9E70000F0CFF0B50C6894
:1014C00050F82430114A1340D1E90125D1E90367CE
:1014D0002A433E4332434E6932438E693243CE69DA
:1014E00032430E6A32434E6A32438E6A3243CE6AC8
:1014F0003243CE6B096B32430A431A43082D01D1A4
:1015000042F0400240F824200020F0BD8000F0FFAF
:1015100030B500EB820250688D8900F04043D1E97C
:10152000000440EA04108C68240244EA0544204385
:101530000C8A074D05EB045420430C7D6D0105EB2F
:10154000046489692043084318435060002030BD7B
:101550000000F0FF30B5ADF51F7D32202CF0C2F950
:1015600003F0C6FF01222F492F4812F047F9014628
:101570000D2813D12DA006F06FFA4FF48050009083
:10158000304B00220921274811F092FE010006D1BC
:1015900001222449244812F031F9014649B12AA018
:1015A00006F05AFA0DF51F7D0020BDE830402CF002
:1015B000BFB91C492AA006F04FFA00250A222EA125
:1015C00068469C9512F058F980B92FA42046FEF782
:1015D000BAFE02469CAB2146684612F086FB68467E
:1015E00011F04EFE2FA09C9906F036FA012222A19E
:1015F000684612F041F90028D4D140218CA8FEF7AA
:1016000097FE9DAB3F228CA968469D9512F05EFA2D
:10161000684611F035FE8CAA28A09D9906F01CFAA8
:10162000C0E70000C1010020D48801205B46535D63
:10163000204E6F2046532C206D6B66732E2E2E0D80
:101640000A0000004C0200205B46535D206D6F7560
:101650006E74206661696C65643A2025640D0A0029
:101660005B46535D206D6F756E74204F4B206F6E1F
:101670002025730D0A000000303A2F68656C6C6FEE
:101680002E7478740000000048656C6C6F2C204646
:1016900061744673202B204672656552544F532166
:1016A0000D0A00005B46535D207772697465202542
:1016B000752062797465730D0A0000005B46535D06
:1016C00020726561642025752062797465733A2003
:1016D00025730D0A00000000FEB50020224C00908A
:1016E000019002902078214D00EB400005EB400076
:1016F0000A228088401C010A8DF800108DF8010034
:101700006946BA2000F052F8002820DB9DF802005C
:101710009DF80310032200EB012087B29DF804001E
:101720009DF8051000EB012086B2207800EB400008
:1017300005EB40008088801D010A8DF800108DF8AF
:1017400001006946BA2000F031F8002801DA0020D3
:10175000FEBD9DF80200324600F00303394604A0A6
:1017600006F07AF90120FEBD04C0012090EE0208C7
:101770003C3C2D4754502D494E464F2D3E3E20585F
:101780005F4D4158203D2025642C20595F4D415824
:10179000203D2025642C2054524947474552203D86
:1017A000203078253032780A00000000F0B587B08C
:1017B0000D460221ADF8041000240121ADF80240CD
:1017C000ADF80E108DF800008DF80C00901EADF8ED
:1017D0001000A81C1646029505900221684603F0E9
:1017E0009BFA0746022803D0641C052CF5DB01E0B8
:1017F000052C06DB28883B4641BAB21E024806F09B
:101800002BF907B03846F0BDDCDC050838B5002000
:10181000009011480025007800EB40010F4800EBD4
:1018200041008088010A8DF800108DF801006C1EBF
:101830000BE003226946BA20FFF7B8FF44B2002C40
:1018400008DC294606A006F007F928466D1CEDB213
:101850000528EED3204638BD04C0012090EE0208D2
:101860003C3C2D4754502D4552524F522D3E3E2068
:10187000475450206932632074657374206661692F
:101880006C65642074696D652025642E0A00000073
:10189000FEB50024ADF8024016460F468DF8000054
:1018A000ADF8042002910121684603F035FA05469F
:1018B000012803D0641C052CF5DB01E0052C06DBB8
:1018C00038882B4641BAB21E024806F0C5F82846B1
:1018D000FEBD00002CDD050810B505F06FFFFFF719
:1018E00095FF040004D506A006F0B6F8204610BD0A
:1018F00000F01CF805F046FFFFF7EEFE002010BDDB
:101900003C3C2D4754502D4552524F522D3E3E20C7
:1019100049324320636F6D6D756E69636174696FE1
:101920006E204552524F52210A00000030B54849FE
:1019300085B00822D1E90201CDE9030103A9BA204B
:10194000FFF734FF050003D542A006F085F87BE0E1
:101950009DF80E104A4C352918D09DF81120002A08
:1019600035D09DF812009DF813300092CDE901307A
:10197000372A9DF810309DF80F2042A042D006F083
:101980006BF89DF80E00392850D05DE09DF81100ED
:101990009DF812309DF813208DE80D009DF8103051
:1019A0009DF80F2043A006F057F89DF80E0035284B
:1019B0004AD19DF80F00362846D19DF810003828EE
:1019C00042D19DF8110038283ED102203BE09DF81D
:1019D00012209DF81300CDE900029DF810309DF80B
:1019E0000F2040A006F038F89DF80E0039282BD1C2
:1019F0009DF80F00312827D19DF81000312823D100
:101A0000012020E006F028F89DF80E0039281BD1AF
:101A10009DF80F00312817D19DF81000342813D1FC
:101A20009DF8110037280FD103200CE09DF80F001E
:101A3000312809D19DF81000352805D19DF81100F5
:101A4000372801D10420207005B0284630BD0000A1
:101A500080EE02083C3C2D4754502D4552524F52C7
:101A60002D3E3E2047545020726561642076657299
:101A700073696F6E206661696C65640A000000001E
:101A800004C001203C3C2D4754502D494E464F2D5B
:101A90003E3E204943332056657273696F6E3A208B
:101AA00025632563256325635F2530327825303231
:101AB000780A00003C3C2D4754502D494E464F2D8E
:101AC0003E3E204943312056657273696F6E3A205D
:101AD00025632563256325635F2530327825303201
:101AE000780A00003C3C2D4754502D494E464F2D5E
:101AF0003E3E204943322056657273696F6E3A202C
:101B00002563256325635F25303278253032780AD6
:101B10000000000000F012B80148B0F9060070475C
:101B200004C001200148B0F90200704704C0012040
:101B30000148B0F90400704704C001202DE9F043CA
:101B400042A099B00068189028210DF130080DA826
:101B5000FEF7EEFB3E4F00250C2238680C90BA20B1
:101B600081460CA9FFF722FE010005D539A005F03A
:101B700073FF19B0BDE8F0839DF832000028F8D05B
:101B8000010658D500F00F04052C54D8012C14D9A7
:101B900002AE2421301DFEF7CBFB786802906FF077
:101BA000050000EBC40202A94846FFF7FFFDE20072
:101BB000B11C0FA8083AFEF794FB324814BB35E07D
:101BC00008EBC5012F4BCA78143302F00F025A55A7
:101BD0002D4B8A88C9881B78082B12D2DFE803F0C6
:101BE00004070A0D1A1D2023C0E9032109E0C0E9FA
:101BF000031206E0C2F5F072F6E7C160C2F5F071BB
:101C000001616D1CA542DBDB81894180018A8180F5
:101C100001210EE0C1F54871E6E7C1F54871E6E73C
:101C2000C2F5F072F6E7C1F54871E6E7018909B13E
:101C30000021C1800481032218A94846FFF728FE2D
:101C4000002896DA11A005F007FF92E7814E000008
:101C500080EE02083C3C2D4754502D4552524F52C5
:101C60002D3E3E20493243207472616E7366657268
:101C7000206572726F722E206572726E6F3A2564E3
:101C80000A200A0004C00120100000203C3C2D471F
:101C900054502D494E464F2D3E3E20493243207729
:101CA0007269746520656E645F636D64206572722D
:101CB0006F72210A000000002DE9F84F0446002051
:101CC0000A9D0090A0684FF4807A802817D0E06BBE
:101CD000B8B1606CA8B1E06C98B194F834000128F8
:101CE00013D0012084F8340094F835600020012ED0
:101CF0000DD084F8340002200090BDE8F88F5046E3
:101D000000E0402060650120F7E70220F5E70226A9
:101D100084F8356060652068066846F480260660B1
:101D2000206803612B462046FFF74AFBDFF800845A
:101D30004FF4006B4FF4001EFE48FD4AFD4BFC4D76
:101D4000FC4EFB4FDFF8ECC3DFF8E4932168483A20
:101D5000603318351836303F0CF1780C09F1300932
:101D6000414534D9814205D0914203D0994201D0F6
:101D7000A94201D1202125E0B14205D0B94203D0CA
:101D8000614501D0494501D159461BE0DFF8A483E4
:101D900008F13008414511D0DFF89483A8F1180804
:101DA00041450BD0DFF88C8308F19008414505D000
:101DB000DFF87C8308F14808414501D1714601E014
:101DC0004FF00061DFF86883A8F14C0839E0DFF8D4
:101DD000648308F1A808414536D9814205D0914273
:101DE00003D0994201D0A94201D1202125E0B1427E
:101DF00005D0B94203D0614501D0494501D15946CA
:101E00001BE0DFF8308308F13008414511D0DFF8DE
:101E10002083A8F1180841450BD0DFF8188308F19A
:101E20009008414505D0DFF8088308F1480841458E
:101E300001D1714601E04FF00061DFF8F482A8F1B2
:101E40005008C8F8001072E0DFF8E88208F148088E
:101E5000414536D9814205D0914203D0994201D003
:101E6000A94201D1202125E0B14205D0B94203D0D9
:101E7000614501D0494501D159461BE0DFF8B482E4
:101E800008F13008414511D0DFF8A482A8F1180804
:101E900041450BD0DFF89C8208F19008414505D000
:101EA000DFF88C8208F14808414501D1714601E014
:101EB0004FF00061DFF87C82A8F11008C8F80C1020
:101EC00035E0814205D0914203D0994201D0A94228
:101ED00001D1202125E0B14205D0B94203D06145AE
:101EE00001D0494501D159461BE0DFF8488208F18D
:101EF0003008414511D0DFF83882A8F11808414573
:101F00000BD0DFF8308208F19008414505D0DFF8AA
:101F1000208208F14808414501D1714601E04FF0A7
:101F20000061DFF81082A8F11008C8F80810DFF887
:101F3000008221684FF4806B4FF4801E414534D9F4
:101F4000814205D0914203D0994201D0A94201D1EA
:101F5000102125E0B14205D0B94203D0614501D03E
:101F6000494501D159461BE0DFF8C88108F1300826
:101F7000414511D0DFF8B881A8F1180841450BD0D0
:101F8000DFF8B08108F19008414505D0DFF8A08165
:101F900008F14808414501D1714601E04FF08061E8
:101FA000DFF88C81A8F14C0839E0DFF8888108F16E
:101FB000A808414536D9814205D0914203D09942C3
:101FC00001D0A94201D1102125E0B14205D0B9428A
:101FD00003D0614501D0494501D159461BE0DFF8E6
:101FE000548108F13008414511D0DFF84481A8F14F
:101FF000180841450BD0DFF83C8108F190084145B5
:1020000005D0DFF82C8108F14808414501D171461F
:1020100001E04FF08061DFF81881A8F15008C8F89E
:10202000001072E0DFF80C8108F14808414536D90C
:10203000814205D0914203D0994201D0A94201D1F9
:10204000102125E0B14205D0B94203D0614501D04D
:10205000494501D159461BE0DFF8D88008F1300826
:10206000414511D0DFF8C880A8F1180841450BD0D0
:10207000DFF8C08008F19008414505D0DFF8B08056
:1020800008F14808414501D1714601E04FF08061F7
:10209000DFF8A080A8F11008C8F80C1035E08142E4
:1020A00005D0914203D0994201D0A94201D110211B
:1020B00025E0B14205D0B94203D0614501D0494580
:1020C00001D159461BE0DFF86C8008F1300841452A
:1020D00011D0DFF85C80A8F1180841450BD0DFF87B
:1020E000548008F19008414505D0DFF8448008F19C
:1020F0004808414501D1714601E04FF08061DFF8A9
:102100003480A8F11008C8F80810DFF8248021688E
:102110004FF4007B4FF4002E414534D9814205D065
:10212000914203D0994201D0A94205D1082125E06E
:102130005864024010600240B14205D0B94203D059
:10214000614501D0494501D1594617E0DFF8E084E7
:1021500041450FD0DFF8DC8441450BD0DFF8D08457
:1021600008F16008414505D0DFF8C88408F160082F
:10217000414501D1714601E04FF00071DFF8B484B0
:10218000A8F1340835E0DFF8A88408F17808414563
:1021900032D9814205D0914203D0994201D0A9425F
:1021A00001D1082121E0B14205D0B94203D06145F7
:1021B00001D0494501D1594617E0DFF87484414503
:1021C0000FD0DFF8708441450BD0DFF8648408F14C
:1021D0006008414505D0DFF85C8408F1600841459E
:1021E00001D1714601E04FF00071DFF84884A8F199
:1021F0003808C8F800106AE0DFF8348408F11808DD
:10220000414532D9814205D0914203D0994201D053
:10221000A94201D1082121E0B14205D0B94203D041
:10222000614501D0494501D1594617E0DFF80084E6
:1022300041450FD0DFF8FC8341450BD0DFF8F08338
:1022400008F16008414505D0DFF8E88308F160082F
:10225000414501D1714601E04FF00071DFF8D083B4
:10226000A8F14008C8F80C1031E0814205D0914235
:1022700003D0994201D0A94201D1082121E0B14205
:1022800005D0B94203D0614501D0494501D1594635
:1022900017E0DFF89C8341450FD0DFF89883414574
:1022A0000BD0DFF88C8308F16008414505D0DFF8DA
:1022B000848308F16008414501D1714601E04FF087
:1022C0000071DFF86C83A8F14008C8F80810DFF847
:1022D0006483216808F118084FF4802B4FF0807E4A
:1022E00041452FD9814205D0914203D0994201D076
:1022F000A94201D1042120E0B14205D0B94203D066
:10230000614501D0494501D1514616E0DFF82083EF
:1023100041450FD0DFF81C8341450BD0DFF8108317
:1023200008F16008414505D0DFF8088308F160082E
:10233000414501D1594600E07146DFF8F882A8F125
:10234000340834E0DFF8E88208F17808414531D9F3
:10235000814205D0914203D0994201D0A94201D1D6
:10236000042120E0B14205D0B94203D0614501D03B
:10237000494501D1514616E0DFF8B48241450FD0FE
:10238000DFF8B08241450BD0DFF8A48208F1600885
:10239000414505D0DFF89C8208F16008414501D134
:1023A000594600E07146DFF88C82A8F13808C8F879
:1023B000001068E0DFF8788208F11808414531D94B
:1023C000814205D0914203D0994201D0A94201D166
:1023D000042120E0B14205D0B94203D0614501D0CB
:1023E000494501D1514616E0DFF8448241450FD0FE
:1023F000DFF8408241450BD0DFF8348208F16008F5
:10240000414505D0DFF82C8208F16008414501D133
:10241000594600E07146DFF81882A8F14008C8F874
:102420000C1030E0814205D0914203D0994201D096
:10243000A94201D1042120E0B14205D0B94203D024
:10244000614501D0494501D1514616E0DFF8E081F0
:1024500041450FD0DFF8DC8141450BD0DFF8D0815A
:1024600008F16008414505D0DFF8C88108F160082F
:10247000414501D1594600E07146DFF8B481A8F129
:102480004008C8F80810DFF8AC81216808F1180886
:102490004FF4803A4FF4800B414527D9814205D053
:1024A000914203D0994201D0A94201D101201AE002
:1024B000B14205D0B94203D0614501D0494501D1AF
:1024C000402010E05A4881420AD05A48814207D041
:1024D00057486030814203D056486030814201D174
:1024E000504600E05846534934392CE0DFF840812B
:1024F00008F17808414528D9814205D0914203D09E
:10250000994201D0A94201D101201AE0B14205D07F
:10251000B94203D0614501D0494501D1402010E0C6
:10252000434881420AD04348814207D04048603046
:10253000814203D03F486030814201D1504600E0E3
:1025400058463C493839086056E0DFF8E48008F125
:102550001808414528D9814205D0914203D09942BB
:1025600001D0A94201D101201AE0B14205D0B942FF
:1025700003D0614501D0494501D1402010E02C48ED
:1025800081420AD02B48814207D0294860308142DD
:1025900003D028486030814201D1504600E05846BF
:1025A00023494039C86027E0814205D0914203D0D9
:1025B000994201D0A94201D101201AE0B14205D0CF
:1025C000B94203D0614501D0494501D1402010E016
:1025D000174881420AD01748814207D0144860301A
:1025E000814203D013486030814201D1504600E05F
:1025F00058460F49403988602068016841F016014B
:1026000001602068416941F080014161206C08B996
:10261000A06C20B12068016841F0080101602068C9
:10262000016841F0010101600098BDE8F88F0000E9
:1026300040600240406402402DE9F0410446876D4D
:1026400000F0D8FA064694F835000025022806D096
:102650008020606584F834500120BDE8F081206856
:10266000016821F0160101602068416921F08001B4
:102670004161206C08B9A06C20B12068016821F08C
:10268000080101602068016821F0010101600CE08F
:1026900000F0B0FA801B052807D9202060650320D0
:1026A00084F8350084F83450D7E720680068C00704
:1026B000EED194F85C103F208840B860012084F887
:1026C000350084F834500020C7E790F8351002290F
:1026D00003D08021416501207047052180F8351025
:1026E0000068016821F00101016000207047406D21
:1026F000704700002DE9F84304464FF00009CDF87B
:10270000009063484FF41651A56D0068B0FBF1F7D7
:102710002E6894F85C10082000FA01F131420FD0C5
:1027200021680A6852070BD50A6822F004020A6081
:1027300094F85C108840A860606D40F0010060650E
:1027400094F85C104FF0010808FA01F0304208D00C
:1027500021684969090604D5A860606D40F002004F
:10276000606594F85C1004208840304208D02168ED
:102770000968890704D5A860606D40F004006065B1
:1027800094F85C1010208840304218D02168096805
:10279000090714D5A86020680168490304D50068BA
:1027A000000308D5A16C07E00168C90503D40168DE
:1027B00021F008010160216C09B12046884794F896
:1027C0005C1020208840304231D021680968C90659
:1027D0002DD5A86094F8350005282068016806D03A
:1027E000490347D5006800031DD4616C1CE021F04B
:1027F000160101602068416921F080014161206C6F
:1028000008B9A06C20B12068016821F008010160BE
:1028100094F85C103F208840A86084F8358084F8E4
:102820003490216D1FE0E16B09B120468847606D4F
:1028300000282BD0606DC00714D0052084F8350027
:102840002068016821F0010101600098401C00909F
:10285000B84203D820680068C007F6D184F83580F4
:1028600084F83490E16C002910D001B02046BDE816
:10287000F04308470168C905D5D4016821F010016B
:10288000016084F8358084F83490CCE7BDE8F883A3
:1028900000C001202DE9F041044600F0ABF90646E6
:1028A0005CB1022084F83500002584F8345020689B
:1028B000016821F0010101600DE00120BDE8F08117
:1028C00000F098F9801B052805D9202060650320B9
:1028D00084F83500F2E720680068C007F0D122686C
:1028E000116820480140D4E901031843D4E90336B4
:1028F0003343184363691843A3691843E3691843D2
:10290000236A18430843616A042903D1D4E90B13ED
:1029100019430843106020684069666A20F0070187
:1029200030460E43012704280CD1A06A0643E06A12
:1029300040B12046FEF71AFD20B14020606584F8C2
:102940003570BAE7206846612046FEF7FBFC94F834
:102950005C203F2191408160656584F835700020DE
:10296000ACE700003F8010F02DE9F0410446866D91
:1029700090F83400002501280DD0012084F834009F
:1029800094F835700020012F07D084F83400022518
:102990002846BDE8F0810220FBE7022784F8357065
:1029A00060652046FEF71BFD94F85C103F208840D0
:1029B000B0602068016841F016010160206C20B110
:1029C0002068016841F0080101602068016841F059
:1029D00001010160DCE7000070B5054600F00AF96E
:1029E0004FEA000400F006F9001BA842FAD370BDBC
:1029F0002DE9F84FDFF8BCA1002201250AF1040BF4
:102A000003264FF00F090BF1040E00BF0B6805FA07
:102A100002F42340A34270D10F7907F00307012F7E
:102A200001D0022F16D187684FEA420806FA08FC47
:102A300027EA0C07D1F80CC00CFA08FC4CEA070C8A
:102A4000C0F808C04768A7430C79C4F30014944049
:102A50003C4344600C79E443A4070AD0C4684FEABD
:102A6000420C06FA0CF7BC438F6807FA0CF72743B1
:102A7000C7600C7904F00304022C12D1D40800EBD7
:102A8000840CDCF820405707FF0E09FA07F824EA07
:102A90000804D1F8108008FA07F848EA0408CCF8CE
:102AA000208004684FEA420C06FA0CF7BC430F7909
:102AB00007F0030707FA0CF7274307604C6814F484
:102AC000403F70D03C4C276847F48047276024681B
:102AD00022F0030704F480440094384C07EB040C04
:102AE000DCF8084897074FEA177809FA08F7BC435B
:102AF000334FB84202D1002724E054E0314FB842AE
:102B000001D101271EE0304FB84201D1022719E060
:102B10002E4FB84201D1032714E02D4FB84201D106
:102B200004270FE02B4FB84201D105270AE02A4FB6
:102B3000B84201D1062705E0284FB84201D1072746
:102B400000E0082707FA08F72743CCF80878DAF8F6
:102B500000405746D1F804C09C435FEACC3C00D506
:102B60001C433C60DBF800405F46D1F804C09C4346
:102B70005FEA8C3C00D51C433C60DEF800407746A1
:102B8000D1F804C09C435FEACC2C00D51C433C60C8
:102B9000084F0C373C68D1F804C09C435FEA8C2C8A
:102BA00000D51C433C60521C102AFFF42FAFBDE837
:102BB000F88F0000003C01404438024000300140E2
:102BC000000002400004024000080240000C0240E5
:102BD000001002400014024000180240001C024095
:102BE0000069084000D0012070470AB18161704738
:102BF0000904FBE7014880687047000000000020DE
:102C00002DE9F84F1F4690468A460446DDF8289085
:102C1000FFF7F0FF054694F83D0020287FD11923E7
:102C2000012240492046009502F0BFF8002876D1E5
:102C300094F83C00012872D0012084F83C00206800
:102C40000168C90703D1016841F0010101602068F2
:102C5000016821F400610160212084F83D0010200A
:102C600084F83E0000262664C4F824806785608DC1
:102C700020852D48E0622B464A465146204601F009
:102C8000FDFF90B9206841698069009036E02A46CE
:102C90004946204602F008F950B1206C042804D1BE
:102CA0002068016841F4007101600120BDE8F88FDF
:102CB000606A216800780861606A401C6062618D0A
:102CC000491E6185218D491E89B22185226853697B
:102CD000DB435B070BD451B100781061606A401C84
:102CE0006062608D401E6085208D401E20852A46D2
:102CF0004946204602F033F80028CED1208D002826
:102D0000C5D154F83D0B016841F4007101602020E9
:102D100004F81E09E67766770020C7E7FFE7022080
:102D2000C4E70000020010000000FFFF2DE9FF4192
:102D300004460068816800917749784E4FF040273B
:102D4000884201D1324600E03A46926801924068DA
:102D50008846029001D1304600E038464068039032
:102D600060684FF00105B0F5007F1CD0D8B1900726
:102D700005D50398000602D5204602F0EBF800982E
:102D8000C0070FD0029840067FD521682046CA6848
:102D9000E16A8B1CE3620A80618E491E6186618E46
:102DA000002967D071E00098800719D502980006C5
:102DB00016D5616A20468A1C626222680988D16041
:102DC000618D491E6185618D51B901684A6822F0A3
:102DD000A0024A60418E19B980F8415000F0A0F875
:102DE0000198C00705D00398400602D5204602F09E
:102DF00081F80198400622D5039880061FD52168E6
:102E0000414501D1304600E03846406820F060017D
:102E100001D1304600E0384641602068416821F029
:102E2000A00141602068C1688068019084F8415029
:102E3000606C40F002006064204600F0AAF900983F
:102E4000000767D50298800664D52068416821F0A4
:102E5000A00141602168414501D1304600E038467B
:102E6000406820F0600000D03E46706020688068B6
:102E7000009043E001684A6822F060024A60418D98
:102E800019B980F8415000F04BF8009840061ED563
:102E9000029880061BD52068416821F060014160DE
:102EA0002168414501D1304600E03846406820F0B5
:102EB000A00101D1304600E03846416084F841501D
:102EC000606C40F002006064204600F062F90198F6
:102ED00000071FD5039880061CD52168414501D104
:102EE000304600E03846406820F0A00000D03E4662
:102EF00070602068416821F06001416084F84150B1
:102F0000606C40F00400606404B02046BDE8F0410D
:102F100000F03FB9BDE8FF810038004000340040B8
:102F2000704700002DE9F84F044600254068DFF89F
:102F30002CA28B4EAB464FF040274FF00108B0F566
:102F4000007F07D030B1B0F5407F78D0B0F5807FFA
:102F500075D0F6E0A06B38B1FFF76EFB20B1606C66
:102F600040F008006064012564230122022120460C
:102F700002F01EF930B1606C40F00100606484F82A
:102F800041800125642300228021204602F010F9AF
:102F900030B1606C40F00100606484F8418001252C
:102FA0002068C16921F48061C16120688168009155
:102FB000416821F00201416094F8410005283CD1AC
:102FC000E06B38B1FFF738FB20B1606C40F00800CF
:102FD0006064012521685046814201D1314600E0FC
:102FE0003946C96921F4806101D1324600E03A4690
:102FF000D161CDF800B02168814201D1314600E0B5
:103000003946C968009101D1314600E039468968E6
:10301000009101D1314600E03946496821F00101B3
:1030200001D1324600E03A465160616800297DD006
:103030002168514500D03E46F06882E0FFE7E06B32
:1030400038B1FFF7F9FA20B1606C40F00800606415
:10305000012594F8410005285ED1A06B38B1FFF737
:10306000EBFA20B1606C40F0080060640125FFF7C6
:10307000C1FD81460DE000BFFFF7BCFDA0EB0900DC
:10308000642806D9606C40F00100606484F84180D7
:1030900001252168514501D1314600E03946896852
:1030A000C9438907E8D40CE0FFF7A4FDA0EB0900B1
:1030B000642806D9606C40F00100606484F84180A7
:1030C00001252168514501D1304600E0384680682D
:1030D000C0430006E8D5514501D1314600E03946EC
:1030E000C96921F4806101D1324600E03A46D161DC
:1030F000CDF800B02168514501D1304600E0384696
:103100008068009001D1304600E03846406820F0E9
:10311000020000D03E4670602068C16921F48061E1
:10312000C1612068C1688168009100E00EE04168DB
:1031300021F0010141606068B0F5807F06D0206811
:10314000C06884F841802846BDE8F88F606C40F084
:103150004000606484F841800125F2E700380040B7
:103160000034004010B5040011D0022084F8410062
:103170002068C16921F48061C161204600F0C4F873
:103180000020606484F8410084F8400010BD0120F4
:1031900010BD70472DE9F047040005D094F84100B8
:1031A0004FF0000818B109E00120BDE8F08784F86D
:1031B000408051486063204600F0A7F8022684F85A
:1031C00041602068C16940F6BF77B943C16120689A
:1031D000066260694FF4007902282FD0E06870B170
:1031E0002025A068202800D86D00012000F070F98B
:1031F000216949451FD1E16819B1A90002E01025F4
:10320000EFE7E900B0FBF1F000EB800061694000FE
:10321000B0FBF1F0401D0A21B0FBF1F000F001011C
:10322000401A40080902821EFE2A09D3606C40F051
:1032300010006064B8E7B0FBF5F0E5E7022000217C
:1032400022690843024320680262D4E9010108436D
:10325000A269E168114308432168CA69BA4310436F
:1032600040F40060C861206A01283AD123486063B5
:1032700023482168234A4FF04023814201D111465F
:1032800000E01946C96921EA070101D1154600E0AD
:103290001D46E9612168814201D1114600E01946CD
:1032A0000E622568854201D1114600E01946C969C0
:1032B0008EB2616849451BD0D1B100212789B4F88D
:1032C0000CC047EA0C07B4F818C04CEA010C47EAF6
:1032D0000C07B9B2314341F40061854200D01A466F
:1032E000D161C4F84480012084F8410000205CE7EB
:1032F0004FF48071E2E700007D5000082D2D00089A
:1033000000380040003400407047704770477047F5
:1033100002488168027811448160704700000020F3
:10332000094810B5016841F400710160016841F479
:1033300080610160032000F09FF80F2000F006F884
:1033400000F050F8002010BD003C024030B50546AA
:103350001F4887B00024016841F004010160006843
:1033600006A900F00400009001A800F017FA0498E4
:10337000A8B100F033FA40001649174AB0FBF1F14A
:103380001648491E026040F2E732C0E90324C0E952
:103390000114846101F010FA040003D015E000F07C
:1033A0001DFAE9E70D4801F035FA04000DD11E20A1
:1033B00000F034F8102D07D2002229461E2000F01C
:1033C0003BF80748056000E0012407B0204630BD07
:1033D0004038024040420F0000080040BCC20120BB
:1033E000040000200C4882B0016841F48041016073
:1033F000006800F4804000900748001F016841F019
:10340000805101600068002200F0805000900F2180
:10341000901E02B000F010B844380240002809DBCA
:1034200000F01F02012191404009800000F1E020DE
:10343000C0F8001170470000F0B40E4B1B680C463A
:10344000C3F30223C3F10705042D00D90425191D78
:10345000072901D2002300E0DB1E012606FA05F150
:10346000491E214099409E40761E16403143F0BCD3
:1034700004F015BB0CED00E0064900F007020868F7
:103480004FF6FF03184040EA0220034A1043086049
:10349000704700000CED00E00000FA050321016018
:1034A0000A490A68C2F3881242600968C1F30271CE
:1034B000816006497C390968044A01F4F811143A1C
:1034C000126802F440720A43C260704784380240B6
:1034D00001460020012907D11049096811F40001B3
:1034E00003D0012900D10E4870470C48001F016825
:1034F0000068490200F03F0001D50A4900E00A498E
:10350000064AB1FBF0F07C321168C1F388114143E7
:103510001068C0F30270B1FBF0F070470838024049
:103520000080BB0000127A000024F4002DE9F8436B
:10353000054600684FF00109C1074FF0000601D1B0
:10354000400727D5DFF80C81C8F86860FFF752FB09
:103550000746414C05E000BFFFF74CFBC01B0228AB
:1035600057D820680001F7D468688101287A41EAB9
:103570000070394984310860C8F86890FFF73AFB59
:10358000074604E0FFF736FBC01B022841D820683D
:103590000001F7D52878800752D52F4840300168C0
:1035A00041F08051016000682C4C00F08050009088
:1035B000206840F480702060FFF71CFB074604E0A1
:1035C000FFF718FBC01B022823D82068C005F7D5D9
:1035D000214C7034206810F4407020D0A98901F487
:1035E000407181421BD020681D4920F44070C1F811
:1035F00000900E6020602068C00710D0FFF7FAFA34
:10360000064641F2883707E0FFF7F4FA801BB8421C
:1036100002D90320BDE8F88320688007F4D5E96863
:103620000D48C1F301220830032A0BD0016821F4B0
:10363000F81101602068A989C1F30B0108432060DB
:103640000020E7E70268074B22F4F81219400A430A
:103650000260EFE70000474200380240007000407F
:10366000400E4742FFFCFF0F2DE9F0470E460500D4
:1036700065D0DFF81481D8F80000F7B200F0070039
:10368000B04207D288F80070D8F8000000F00700B8
:10369000B04254D128683D4C810712D5400703D56C
:1036A000206840F4E05020602878000703D52068A7
:1036B00040F4604020602068A96820F0F0000843D2
:1036C00020602878C0072DD0304968680839012863
:1036D00012D0022813D0032811D0096889070029C5
:1036E0002DDA216821F0030101432160FFF782FAFE
:1036F000814641F2883A0EE009688903EFE70968DC
:103700008901ECE7FFF776FAA0EB0901514502D9F0
:103710000320BDE8F0872068696800F00C00B0EB7A
:10372000810FEFD1D8F80010404601F00701B142F7
:1037300007D90770006800F00700B04201D00120EF
:10374000E7E72878400705D52068E96820F4E050CD
:10375000084320602878000706D52068296920F4EE
:10376000604040EAC100206000F058F82168084A33
:10377000C1F30311515CC84006490860064800685F
:10378000FFF7E4FD0020C4E7003C02400838024097
:1037900060EE020800C00120040000200F22026039
:1037A0000C4A136803F003034360136803F0F0034B
:1037B0008360136803F4E053C36012684FF4E0536E
:1037C00003EAD20202610448006800F007000860C2
:1037D0007047000008380240003C02400448054998
:1037E00000680968044AC1F38221515CC8407047EF
:1037F00000C001200838024070EE02080448054964
:1038000000680968044AC1F34231515CC8407047FE
:1038100000C001200838024070EE0208154810B5BB
:10382000006810F00C02144813D04110042A0FD085
:10383000082A0ED10F4C241F2268236802F03F0291
:103840005B0207D52068C0F38810A0FB010106E0E9
:10385000084610BD2168C1F38811A1FB00010023B7
:10386000FCF70EFD2168C1F30141491C4900B0FB82
:10387000F1F010BD083802400024F4002DE9F84FA3
:1038800004006ED02078DFF84C93C007A9F104053E
:103890004AD009F104000168C1F38101012908D06F
:1038A0000068C0F3810002280AD1D9F80000400264
:1038B00006D52868800337D560680028E1D033E05A
:1038C0006068B0F5803F10D0B0F5A02F286810D008
:1038D00020F480302860286820F480202860606808
:1038E000A8B1FFF787F906460DE0286840F480305C
:1038F000F4E740F480202860F7E700BFFFF77AF98B
:10390000801B642873D828688003F7D50CE0FFF784
:1039100071F9064605E000BFFFF76CF9801B6428CB
:10392000F0D828688003F7D42078DFF8AC828007CD
:103930004FF0000A3ED5A748001D016811F00C0F9A
:1039400008D00068C0F3810002280BD1D9F800002C
:10395000400207D42868800716D5E068012800D106
:1039600012E033E1E068B8B10120C8F80000FFF7C9
:1039700041F9064605E000BFFFF73CF9801B02282D
:10398000C0D828688007F7D52868216920F0F8009A
:1039900040EAC10028600DE0C8F800A0FFF72AF94E
:1039A000064604E0FFF726F9801B02281FD8286886
:1039B0008007F7D42078000722D5864F87486169B1
:1039C000703771B101210160FFF714F9064604E078
:1039D000FFF710F9801B022809D838688007F7D54F
:1039E0000EE0C0F800A0FFF705F9064605E082E00A
:1039F000FFF700F9801B02287DD838688007F7D4CC
:103A00002078400768D5DFF8CCB100270BF13C0BDC
:103A1000DBF80000C0000BD4DBF8001041F080514F
:103A2000CBF80010DBF80000012700F08050009078
:103A30006B4E3068C00510D4306840F48070306040
:103A4000FFF7D8F8009005E0FFF7D4F80099401A86
:103A5000022850D83068C005F6D55E4EA0686C3696
:103A600001280FD00528306810D020F00100306008
:103A7000306820F004003060A068B8B1FFF7BAF8F1
:103A800000900FE0306840F00100F4E740F00400DF
:103A90003060F7E7FFF7AEF80099411A41F288303D
:103AA000814266D830688007F4D50EE0FFF7A2F8AF
:103AB000009007E0FFF79EF80099411A41F2883024
:103AC000814256D830688007F4D42FB1DBF800105B
:103AD00021F08051CBF80010A069C8B33D49091D01
:103AE0000968C1F3810102294AD00228504607D053
:103AF000C8F8600000E03CE0FFF77CF804463BE0DB
:103B00004746C8F86000FFF775F8064605E000BFB5
:103B1000FFF770F8801B02282BD828688001F7D4A3
:103B2000D4E907010843A16A2E4A490802EB014182
:103B3000626A41EA8211084394F82C1040EA01615C
:103B4000C9F8001001203866FFF754F8044606E073
:103B50003EE000BFFFF74EF8001B022809D8286896
:103B60008001F7D534E000BFFFF744F8001B0228BE
:103B700002D90320BDE8F88F28688001F4D427E03B
:103B80000128F7D0D9F80000E26900F480019142E1
:103B90001CD1226A00F03F01914217D147F6C07153
:103BA000626A0140B1EB821F10D1A26A4FF0FF336D
:103BB00000F4403103EB5202B1EB024F06D194F80E
:103BC0002C1000F07060B0EB016F01D00120D1E744
:103BD0000020CFE70438024000004742800E4742F1
:103BE000007000400000FFFF10B500680B46416800
:103BF0000D480140080CD870C1F304245C7001F03A
:103C00003F049C70C1F34231197052B902F0F2FEC8
:103C1000D870587802F0EEFE5870987802F0EAFEFC
:103C20009870002010BD00003FFFFF0010B50B464C
:103C30000168896A596001680969C1F30E019960D8
:103C4000006801680E480140C1F305401870C1F3D7
:103C500006245C7001F07F049C70402404EA11414A
:103C6000D97052B902F0C6FE1870587802F0C2FE40
:103C70005870987802F0BEFE9870002010BD0000C9
:103C80007F7F7F0010B50446006B2168CA6B22F469
:103C90009D72CA63226840F23A5191632168CA6AF0
:103CA00022F00102CA62010613D52168CA6A22F015
:103CB0000802CA6210F0300F01D0E06B02E080070A
:103CC00007D0206CFEF7B8FC18B1A06B40F0804024
:103CD000A063012084F8340000202063204600F017
:103CE0007DF9062801D0052803D1206803F064F887
:103CF000A063A06B002800D0012010BD10B5FCF718
:103D00009FFE10BD2DE9FE430446002603200D460C
:103D100084F83400606C03285ED0B5F5805F5BD01A
:103D20004FF4006700204FF08068BD421FD18146EC
:103D3000009001900021206802F07BFE800113D4E6
:103D40006946204603F062FA07000DD1019840034E
:103D500034D5B4F850000104206802F0A5FE070035
:103D600002D10221206823E0A06B384328E01DB176
:103D7000A06B40F0006023E081460090019000219C
:103D8000206802F056FE8001EED46946204603F01A
:103D90003DFA0700E8D10198C0030FD5B4F85000F0
:103DA0000104206802F080FE0700DDD100212068B8
:103DB00002F0C7FE0700D7D14F46D5E74746D3E705
:103DC000A063A06B144F4FF0010848B120688763CF
:103DD00084F8348001260EE0A06B40F08050EFE7BD
:103DE000211DD4E9050C0EC9CDE90050CDF808C05D
:103DF000206802F027FE4FF40071206802F088FE70
:103E000028B121688F63A16B0143A163012684F867
:103E100034803046BDE8FE83FF0540007047000057
:103E2000F0B5426E920F0A70426EC2F383624A701E
:103E3000426EC2F301628A70426E120CCA70B0F810
:103E40006420120A0A7190F864204A71826E120D81
:103E5000CA80826EC2F303420A72B0F86820C2F3CD
:103E6000C0324A72B0F86820C2F380328A72B0F869
:103E70006820C2F34032CA72B0F86820C2F3003240
:103E80000A7300264E73426C4FF40075012462B130
:103E9000012A3AD0026847499163816B41F0805111
:103EA000816380F834400120F0BDB0F86820C36E13
:103EB0009205120D42EA93720A61C26EC2F3C262A7
:103EC0000A75C26EC2F302624A75C26EC2F34252F2
:103ED0008A75C26EC2F38242CA75C26EC2F3C23222
:103EE0000A760A69521C42650B7E03F007039B1C8D
:103EF0009A4042650B7A03F00F0704FA07F38365D3
:103F00005B0A5A43C0E917250EE090F86820C36E9B
:103F10009206920A42EA13420A610A69521C92020C
:103F20004265C0E91652056630F86C2FC2F3803244
:103F300001F8192F0288C2F3C6124A70027802F003
:103F40007F028A704268D20FCA704268C2F341721F
:103F50000A714268C2F382624A714268C2F38352B4
:103F60008A714268C2F34052CA710E724268C2F34B
:103F700000424A728288C2F3C0328A728288C2F3D7
:103F80008032CA728288C2F340320A738288C2F3D6
:103F900000324A738288C2F381228A738288C2F314
:103FA0000122CA730079C0F3460008744C740020E3
:103FB000F0BD0000FF054000426C0A60826C4A6060
:103FC000C26C8A60026DCA60426D0A61826D4A618C
:103FD000C26D8A61006EC8610020704770B50446EA
:103FE000B0F8500000250104206802F0B4FE18B1BA
:103FF000A16B0143A16304E00021206802F019FDD8
:104000000546C5F3432070BDF8B5056B044600684E
:10401000416B09041BD5290719D5D4E90A56002E8E
:1040200014D00027206802F027FD05F8010B010AD3
:1040300005F8011B010C05F8021B000E361F7F1C42
:1040400005F8010C082FEDD3C4E90A56F8BD416B01
:104050004FF00006C9054FF0010744D539028163CE
:104060002068C16B4CF23A329143C1632068C16A47
:1040700021F00101C16228071DD515F0220F09D0DA
:10408000206802F099FE28B1A16B0143A16320468C
:10409000FFF7C4FE216840F23A50886384F8347018
:1040A0002663A80703D0204600F0C0FAF8BD2046DA
:1040B00000F0C0FAF8BD2806FCD5A80609D520688E
:1040C00002F07AFE28B1A16B0143A1632046FFF7FD
:1040D000A5FEA807EED12068C16A21F00801C162DF
:1040E00084F83470E3E7416B490424D5290722D5CD
:1040F000D4E90856002EDDD05FF0000715F8010B5B
:10410000009015F8011B361F40EA0120009015F8B9
:10411000021B40EA0140009015F8011C40EA0160D2
:1041200000906946206802F0BAFC7F1C082FE5D396
:10413000C4E90856F8BD416B40F23A221142F9D069
:10414000416B890703D5A16B41F00201A163416B6B
:10415000090703D5A16B41F00801A163416B8906F2
:1041600003D5A16B41F02001A163416BC90603D5C2
:10417000A16B41F01001A163416B890503D5A16BCF
:1041800041F00801A16340F23A7181632068C16B7C
:1041900040F23A329143C163206802F00DFEA16BF8
:1041A0000843A063280706D584F8347026632046A8
:1041B000FFF734FEF8BD2806FCD515F0300F0CD003
:1041C000E16B11480865E06BFEF77FFA0028F1D03B
:1041D000E06BBDE8F84002F0F7BFA8070CD0216CF7
:1041E0000A480865206CFEF770FA0028E2D0206CBF
:1041F000BDE8F84002F0BFBFA66384F834702663C0
:104200002046FFF77BFDF8BDC971000877710008F3
:1042100070B504000ED094F83400002518B9257745
:10422000204600F04BF8032084F83400204600F0CC
:104230000BF808B1012070BDA5632563012084F847
:104240003400002070BD0000FEB500250446762035
:104250000095CDE9015029460B460A46206802F038
:10426000F1FB28BB134E46F8A05F206802F0FCFB70
:1042700001253560204603F0ADF828B184F83450AC
:10428000A16B0143A16313E0204603F02CF8002842
:10429000F4D14FF40071206802F03AFC002808D0F5
:1042A000226805499163A16B0143A16384F83450EE
:1042B0000120FEBD00802542FF0540002DE9F04FA2
:1042C00087B0054614216846FCF732F84F49286844
:1042D00088427CD14EA003F0BFFB5548006854498A
:1042E00040F400600860086800F40060059051A088
:1042F00003F0B2FB4E48143800684D4940F004000A
:1043000014390860086800F004000590086840F05F
:10431000080008600868032600F0080005904FF4C4
:10432000F8500090022001900120CDE902060C24F3
:10433000694604944A48FEF75BFB4AA003F08CFBF5
:1043400004270220CDE900700120CDE9020669466C
:1043500004944D48FEF74CFB4CA003F07DFB554CFC
:1043600053484FF00068C4E900080020A060E060F6
:1043700038022061C4E90976800004F114014FF489
:1043800080494FF0200A4FF4003B81E8010EC6023D
:1043900047022046C4E90B67FEF77CFA08B1FDF737
:1043A00047F845A003F058FB2C644148A563414CF5
:1043B0004830603404F11401C4E900084020A060D2
:1043C0000020E0604FF480602061800000E01AE08F
:1043D00081E8010E042060621431032081E8C100ED
:1043E0002046FEF757FA08B1FDF722F83CA003F08B
:1043F00033FBEC63002206213120A563FFF71CF894
:104400003120FFF70BF807B0BDE8F08F002C01401A
:104410005B53445D2048414C5F53445F4D7370498A
:104420006E69743A20656E7465720D0A00000000B2
:10443000443802405B53445D2048414C5F53445F25
:104440004D7370496E69743A205344494F20636C30
:104450006F636B20656E61626C65640D0A0000001D
:10446000000802405B53445D2048414C5F53445F69
:104470004D7370496E69743A204750494F43206923
:104480006E697465640D0A00000C02405B53445D64
:104490002048414C5F53445F4D7370496E69743AD4
:1044A000204750494F4420696E697465640D0A00C5
:1044B00058640240D02400205B53445D2048414CA6
:1044C0005F53445F4D7370496E69743A20444D41A7
:1044D00020525820696E697465640D0A000000005E
:1044E0005B53445D2048414C5F53445F4D737049BA
:1044F0006E69743A20444D4120545820696E6974A5
:1045000065640D0A000000002DE9F04786B01F46E3
:104510000446154639B194F83400012807D002202A
:1045200006B0BDE8F087A06B40F0006008E0002016
:10453000A063E36DEA199A4204D9A06B40F00070C1
:10454000A06369E0032284F8342022688146D062A7
:104550002268D36B40F22A363343D363236C2F4A4D
:10456000DA63236C2E4ADA64226C1065226C906048
:10457000206C0068026822F0C002026020680A46CF
:10458000266C4FEA472800F180014FEA9803304635
:10459000FEF7EAF9DFF88CA0012670B12068C16B44
:1045A00021F49571C1632168C1F838A0A06B40F077
:1045B0008040A06384F834602EE01B480660606C85
:1045C000012800D06D024FF0FF30CDE900089020A7
:1045D000029002200596CDE903096946206802F0A1
:1045E00012FA012F06D9822020632946206802F0A2
:1045F00023FB05E0812020632946206802F035FB7B
:1046000000288DD02268C2F838A0A16B0143A163B5
:1046100084F83460C4F83090012081E735710008D7
:10462000D1700008FF0540008C85254210B5FCF7CD
:10463000E9FC10BD10B5FCF74BFE10BD2DE9F04FA5
:104640005FEA010B87B01E460446114607D094F876
:104650003400012807D0022007B0BDE8F08FA06B1E
:1046600040F0006008E00025A563E26D88199042E3
:1046700004D9A06B40F00070A06356E0032084F8DA
:1046800034002068C5622068C26B40F21A2942EAF1
:104690000902C263E26B2D48D063E26B2C48D06400
:1046A000E06B0565606C012800D049024FF090086E
:1046B000012E05D9A0202063206802F097FB04E0BA
:1046C000C4F83080206802F0AAFBDFF888A0012738
:1046D00030B12268C2F838A0A16B0143A16321E088
:1046E0001D480760E16B40208860E06B006801684E
:1046F00021F0C00141F04001016022687602B30858
:1047000059468032E06BFEF72FF980B12068C16B0B
:1047100021EA0901C1632168C1F838A0A06B40F00B
:104720008040A06384F834702563012094E74FF043
:10473000FF30CDE90006CDE90285CDE90457694691
:10474000206802F060F9002086E70000BB710008D5
:10475000D1700008FF0540008C85254270B51546D4
:104760000E46040003D094F8490010B107E0012080
:1047700070BD002084F84800204600F01AF804F1CB
:1047800008012068FCF79AFE3146A2682068FCF711
:10479000BFFED4E901022946236BFCF76FFEA16836
:1047A000206850F8212042F0010240F8212000202A
:1047B00070BD70477047704710B5040003D094F87F
:1047C0003D0010B107E0012010BD002084F83C003E
:1047D000204600F01EF8022084F83D00211D2068CC
:1047E00002F06CFF012084F8460084F83E0084F853
:1047F0003F0084F8400084F8410084F8420084F8C7
:10480000430084F8440084F8450084F83D0000200B
:1048100010BD704790F83D10012901D0012070476C
:10482000022180F83D100168CA6842F00102CA60A6
:1048300000681149884214D0B0F1804F11D00F495F
:1048400088420ED00E4988420BD00E49884208D0CB
:104850000D49884205D00D49884202D00C49884252
:1048600004D1816801F00701062903D0016841F0F5
:104870000101016000207047000001400004004079
:1048800000080040000C00400004014000400140CE
:1048900000180040704770B50446006801694FF089
:1048A0000005C943890715D4C168C943890711D4D4
:1048B000E91E016101202077206880698007204679
:1048C00002D0FFF7E7FF04E000F098F8204600F080
:1048D00096F8257720680169C943490717D4C1684C
:1048E000C943490713D46FF0040101610220207706
:1048F0002068806910F4407F204602D0FFF7CAFF8D
:1049000004E000F07BF8204600F079F82577206875
:104910000169C943090716D4C168C943090712D4FC
:104920006FF008010161042020772068C0698007CA
:10493000204602D0FFF7AEFF04E000F05FF820460B
:1049400000F05DF8257720680169C943C90617D4CE
:10495000C168C943C90613D46FF010010161082072
:1049600020772068C06910F4407F204602D0FFF70E
:1049700091FF04E000F042F8204600F040F825776F
:1049800020680169C943C90708D1C168C943C9077B
:1049900004D1891E0161204600F032F820680169C7
:1049A000C943090609D4C168C943090605D46FF093
:1049B000800101612046FFF7FDFE20680169C943BF
:1049C000490609D4C168C943490605D46FF04001BE
:1049D0000161204600F01EF820680169C94389067C
:1049E0000BD4C168C943890607D46FF02001016167
:1049F0002046BDE87040FFF7DEBE70BD70477047CF
:104A000000680349884201D1FEF782BC704700006C
:104A100000080040704770B5040004D094F83D00D1
:104A2000002510B106E0012070BD84F83C502046FE
:104A300000F022F8242084F83D002068C16821F4A9
:104A40000051C160204602F043FF2068016921F453
:104A5000904101612068416921F02A01416120688B
:104A6000C16841F40051C1602564202084F83D00F4
:104A700084F83E00002070BD30B51E4887B0016844
:104A800041F010010160006800F010000590194825
:104A90001438016841F001010160016801F0010171
:104AA0000591016841F0010101600068072400F0F0
:104AB000010005904FF40070009002200190012049
:104AC00002900320CDE903040B4D69462846FDF70B
:104AD0008FFF28150090694604942846FDF788FF4B
:104AE000012200212520FEF7A7FC2520FEF796FCD9
:104AF00007B030BD44380240000002402DE9F843C1
:104B0000044690F83D001F4616460D4620284CD11D
:104B1000C5B1BEB194F83C00012846D0012084F80C
:104B20003C004FF00008C4F84080212084F83D008C
:104B3000FEF760F8A6848146E684A068B0F5805F41
:104B400003D004E00120BDE8F883206928B12E4697
:104B50005FF0000584F83C800EE00026FAE7802133
:104B6000204602F03BFFA0B9AEB116F8010B216858
:104B70004860E08C401EE084E08C4B464FF0000221
:104B800000970028EBD14FF04001204602F026FFAD
:104B900030B10320D7E735F8020BC0F30800E6E791
:104BA000202084F83D000020CDE70220CBE7FEE77F
:104BB00070B5234886B00021026842F00802026006
:104BC000026802F008020592026842F008020260E0
:104BD000026802F008020592026842F008020260D0
:104BE000026802F008020592026842F04002026088
:104BF000006801AA00F0400005908020009011207C
:104C0000032482E813000F4E69463046FDF7F0FE9C
:104C10000820009069463046FDF7EAFE4025012055
:104C2000CDE900500220CDE9020469463046FDF787
:104C3000DFFE694604480095FDF7DAFE06B070BD58
:104C400030380240000C02400018024001684A69F6
:104C5000D24352050FD46FF480624A61002140F8BC
:104C6000301F202242738173026942F00402026104
:104C7000017301207047002070470000F8B504461A
:104C8000C06A1E460D461746082807D0012805D0E1
:104C900010F5803F02D0206B122804D120680168F3
:104CA00041F480710160134600224FF0011120464B
:104CB000009600F07AF840B120680068C00502D57F
:104CC0004FF4007020640320F8BD2069B0F5804FD8
:104CD0000ED00620216800EAD51040F0F0000861EF
:104CE00033463A460B49204600F093F878B902E083
:104CF00005F0FE0000E0E8B221680861054933468E
:104D00003A46891F204600F084F80028DCD00120B4
:104D1000F8BD00000800010070B50E4605460024ED
:104D200019E000BF04EB440105EB81008278D20753
:104D300007D08288836815F82100194602F047FDE4
:104D400006E00279836815F82100194602F094FD07
:104D5000641C002802D1B442E4D1204670BD70B575
:104D600016460D4604460DE02046FFF76FFF08B1DA
:104D7000012070BD681C05D0FDF73CFF801BA842D8
:104D800007D835B120684069C0434007ECD4002003
:104D900070BD002044F8300F20216173A073216999
:104DA00041F0200121612073E2E72DE9F0471E4622
:104DB00090460D460446C1F30747DDF8209008E011
:104DC000701C06D0FDF716FFA0EB0900B0420FD80B
:104DD00076B12068012F18D0806925EA0000000410
:104DE000000C14D000214145EAD00020BDE8F08736
:104DF000002044F8300F20216173A073216941F035
:104E00002001216120730120F0E74069E5E70121DD
:104E1000E9E72DE9F0479A4691460E4604460025FB
:104E20004FF02008C1F3074725E020684069C043E0
:104E3000400514D42068016841F4007101602168C4
:104E40006FF480604861256384F83D8084F83E50AB
:104E5000206C40F00400206484F83C501FE0B9F15D
:104E6000FF3F08D0FDF7C6FEA0EB0A0149450CD86C
:104E7000B9F1000F09D02068012F13D0806926EA0C
:104E800000000004000C0BD0CFE744F8305F84F83A
:104E90000D80A573206940F020002061257301205A
:104EA000BDE8F0874069EAE770B516460D4604464E
:104EB0000DE02046FFF7CAFE08B1012070BD681C56
:104EC00005D0FDF797FE801BA84207D835B12068B2
:104ED0004069C0430006ECD4002070BD002044F8B7
:104EE000300F20216173A073216941F020012161FD
:104EF0002073E2E770B515490268154B4FF0402466
:104F00008A4201D11A4600E02246D568C26A961C40
:104F1000C6621580428E521E4286428E002A14D1ED
:104F200002688A4201D1194600E02146496821F011
:104F3000600100D023465960418D002905D14FF012
:104F4000010180F84110FDF7EBFF70BD0038004013
:104F50000034004070B5416A144B8A1C42620568F7
:104F60000988134A4FF040249D4201D1154600E0C4
:104F70002546E960418D491E4185418D002914D1A6
:104F80000168994201D1114600E02146496821F0AB
:104F9000A00100D022465160418E002905D14FF07A
:104FA000010180F84110FDF7BBFF70BD00380040E3
:104FB0000034004000F06CBA01A002F04DBD0000CA
:104FC000B4ABCAE4CAA7B0DC0A00000030B5284878
:104FD00087B00021026842F002020260026802F01B
:104FE00002020592026842F002020260026802F0C8
:104FF00002020592026842F002020260026802F0B8
:1050000002020592026842F0040202600068194D33
:1050100000F0040005900220CDE902100190C002CA
:1050200005240090694604942846FDF7E1FC4FF4FE
:1050300000500090694604942846FDF7D9FC4FF4CF
:1050400080400090694604942846FDF7D1FC4FF457
:1050500000400090694604942846FDF7C9FC4020B2
:105060000090694604940448FDF7C2FC07B030BDC7
:105070003038024000040240000802407CB501685C
:1050800004468868009094F841000125042834D132
:105090000098C00718D04868C043400614D4C968B7
:1050A0002046E26A1180E16A891CE162618E491E34
:1050B0006186618E41B901684A6822F060024A60E7
:1050C00080F84150FEF722F90098400615D5206877
:1050D0004168C943890610D4416821F060014160EC
:1050E0002068C1688068019084F84150606C40F08D
:1050F000020060642046FEF74CF894F84100032853
:1051000034D10098800719D521684868C04300064B
:1051100014D4626A20461288CA60616A891C61627E
:10512000618D491E6185618D41B901684A6822F02F
:10513000A0024A6080F84150FEF7E9F800980007A5
:1051400014D520684168C94389060FD4416821F00D
:10515000A001416020688068009084F84150606C34
:1051600040F0040060642046FEF713F87CBD0000A8
:1051700003480068416841F0020141607047000047
:10518000C0C101200148FDF7CDBE0000C0C1012013
:1051900005480068C16921F48061C1610348016864
:1051A00021F4804101607047C0C1012040380240B5
:1051B0002DE9F0411C46174688460546FDF71AFDC5
:1051C000064607E0601C05D0FDF714FD801BA042D9
:1051D0000BD254B12868816838EA01000DD0002054
:1051E000B842EFD10020BDE8F081012085F84100F0
:1051F000002085F840000320F5E70120F0E70000DB
:105200002DE9F843154688460746002229461348EB
:10521000FBF7ECFB12480026016841F48041016075
:10522000006800F4804000900C48FDF79BFF0B4C99
:105230000C4844F81C0B401544F81869A4E8810197
:1052400084E861000548103CFDF7A4FF2068C169AF
:1052500041F48061C161BDE8F8830000C0C1012054
:105260004038024000380040F0B50E462C49154643
:1052700007460A6899B0002042F400120A600968E3
:10528000284B01F400110191009A3D219A4202D964
:10529000244A4C3A04E0244B9A4203D9214A503A1A
:1052A000116009E01346204C1F4A603CB83AA34203
:1052B00001D9D16000E091601B491C4C4839C4E918
:1052C00000104021C4E90210090121614900616117
:1052D0008900A1614911E1614902C4E90810032074
:1052E000A0622046FDF7D6FAA4F148003346846355
:1052F000A0630F48E06360640E48E0640E4A3946DC
:1053000020460095FCF7D8FC002211460F20FEF73E
:1053100093F819B00F20BDE8F040FEF77FB8000009
:105320003038024058640240B860024008C2012090
:10533000B54F0008B94F00080C3800400148FDF790
:10534000D9B9000008C20120064B012806D0022866
:1053500006D1012240211846FDF747BC0022F9E79B
:10536000704700000014024008B5084C4FF0FF35AC
:10537000A0680028FCD02A46694629F0FDF80128DB
:10538000F6D19DF80000FFF7DFFFF1E79000002065
:1053900019F008FF1FF042FE1FF064FE20F01EFB14
:1053A0001CF02EFB054620F019FB1CF090FF032695
:1053B00090FBF6F004B220F011FB1CF088FF90FB8C
:1053C000F6F001B2224628461FF0B7FB20F006FB9C
:1053D0001EF071F84042C11700EB9170821000235B
:1053E000092128461BF046FF28461AF0B9F8064660
:1053F00023A11AF01FFF244C0022304661681FF0E1
:105400002AFD20F0EBFA1CF062FF4142C81701EBC5
:10541000107003110022092130461BF02BFF284693
:1054200021F0A0FA206020F0D9FA1CF050FF0C21E6
:1054300090FBF1F005B220F0D1FA1CF048FF0621F4
:1054400090FBF1F001B22A4620681FF076FB20F0B5
:10545000C5FA1CF03CFFC11700EB117003110022CC
:10546000092120681BF006FF00231C220749206841
:105470001BF032FE052028F035FA22F095FAF9E704
:10548000436F6F6C000000009000002095C0020880
:105490000648006F4FF001010203054802D50022C3
:1054A000427000E0417001707047000000600240EF
:1054B000C80100200D4808B5016841F48001016071
:1054C0000068002200F48000009007213B20FDF7D7
:1054D000B3FF3B20FDF7A2FF002207214520FDF787
:1054E000ABFFBDE808404520FDF798BF30380240CB
:1054F00010B509490948FBF79DFF074C641E207051
:1055000007A002F0A9FA21780EA002F0A5FABDE8E2
:10551000104015A002F0A0BAC1010020A8DC0508C7
:105520005B46415446535D203D3D3D3D3D20464157
:1055300054465320494E4954203D3D3D3D3D0D0AC2
:10554000000000005B46415446535D204C696E6B81
:1055500044726976657220737461747573203D209E
:1055600025640D0A000000005B46415446535D204F
:105570002D2D2D2D2D2D2D2D2D2D2D2D2D2D2D2D5B
:105580002D2D2D2D2D2D2D2D2D2D2D2D2D0D0A00BB
:105590007CB500220121042028F028FE14490024B3
:1055A00018258860CDE900542346802211A11448B3
:1055B00029F0E2F9CDE900544FF4007500232A46A2
:1055C00010A1134829F0D8F90820CDE900040023E0
:1055D0002A4610A1114829F0CFF90220CDE9000494
:1055E000420200230EA1114829F0C6F97CBD00003B
:1055F000900000204C45445F5461736B0000000034
:10560000695300084C56474C5F5461736B000000AF
:105610009153000846535F5461736B0055150008A1
:10562000417564696F546573740000005904000883
:10563000F0B587B014216846FAF77AFE1B480024BB
:10564000016841F0200101600068194F00F020005E
:105650000590012240213846FDF7C7FA012280213A
:105660003846FDF7C2FA0122160231463846FDF7E8
:10567000BCFA402000900125CDE901546946384626
:105680000394FDF7B5F980200090CDE901546946F7
:1056900038460394FDF7ACF90096CDE9015469460C
:1056A00038460394FDF7A4F907B0F0BD3038024046
:1056B0000014024010B50AA002F0CEF911480022F1
:1056C0000F49C0E900128260C26076210261C0E920
:1056D0000521BDE8104013460BA002F0BDB9000043
:1056E0005B53445D204D585F5344494F5F53445FC3
:1056F000496E69743A20626567696E0D0A000000A0
:10570000002C01404C2400205B53445D204D585F29
:105710005344494F5F53445F496E69743A20436C68
:105720006F636B4469763D256C752C204275735709
:105730006964653D25752C20466C6F774374726CE7
:105740003D25750D0A000000FEE7FEE7044B4FF40F
:10575000007108B1012200E000221846FDF745BAA9
:105760000014024070B51C46154600F027F90449A4
:1057700005FB04F00989BDE8704000F045B8000061
:105780001000002001B5009801E0401E00900028A4
:10579000FBD108BD194818B44FF020410160194AE7
:1057A000174941601368002143F001031360126838
:1057B000042302F00102009200F150029C06C2E9AB
:1057C0000031C2E902311161C2E905140822836087
:1057D000C0E903121022C0E905211202C161C0E92B
:1057E0000912C1620163416381631102C16300F167
:1057F000500218BC1146FEF7B1BF0000E0010020C6
:10580000040100A03838024010B54FF0D0434FF4E7
:10581000305400221C8001E05980521C8242FBD38C
:1058200010BD00002D4810B5016886B041F0080198
:105830000160016801F008010591016841F0100163
:105840000160016801F010010591016841F020013B
:105850000160016801F020010591016841F04001FB
:105860000160006800F0400005901C4808300168A5
:1058700041F0010101600068694600F001000590F7
:10588000012001900290032003904FF4806000906B
:105890001348FDF7ADF84FF40060124C00906946D4
:1058A0002046FDF7A5F8022001900C2004904CF250
:1058B0003370009069460C48FDF79AF84FF68070F7
:1058C000009069460948FDF793F840F201200090E6
:1058D00069462046FDF78CF806B010BD303802400E
:1058E0000018024000140240000C02400010024068
:1058F00010B5072842D8234AC4074FF4F07110703E
:105900004FF448733BD05380A2F804104FF0D041BD
:105910004FF458530B80400148804FF428500880C2
:105920000020488042F6012008800020488042F68E
:10593000022008805088401EC0F307234B8042F6A7
:1059400003230B80C0B248804FF42C500880002005
:10595000488042F6013008800020488042F602303C
:1059600008809088401EC0F307224A8042F6033226
:105970000A80C0B248804FF43050088010BD51807A
:105980009380C3E71000002010B5FFF74BFFFFF72F
:1059900001FF00F0FDFF00F040F8074C2078FFF712
:1059A000A7FF0021A38862880846FFF7DBFEBDE859
:1059B00010400120FFF7CABE1000002030B54FF0A4
:1059C000D0444FF428552580050A658042F601250C
:1059D0002580C5B2658042F6022525801044401E10
:1059E000020A62806A1C2280C0B260804FF42C5090
:1059F0002080080A608042F601302080C8B26080B2
:105A000042F602302080C818401E010A618042F62A
:105A100003312180C0B2608030BD38B54FF0D04036
:105A20004FF470410180552141804FF20101018006
:105A3000AA2141804FF202010180522141804FF2A0
:105A400003010180082141804FF2040101800121FE
:105A500041804FF4304101800D2141804BF2010122
:105A600001800D2141804BF2020101800D21418016
:105A70004FF4314101800D2141804BF20111018031
:105A80000D2141804BF2021101800D2141804FF424
:105A900032410180002141804BF20121018000212F
:105AA00041804BF202210180002141804FF43641B8
:105AB0000180442141804BF20161018044214180F9
:105AC0004BF202610180442141804FF43741018053
:105AD000342141804BF201710180342141804BF22D
