:020000040800F2
:10000000588901205D02000863340008332F00087E
:10001000613400084D0C00082D530008000000005A
:100020000000000000000000000000009D0100082A
:10003000450D000800000000F901000815500008F7
:1000400077020008770200087702000877020008AC
:10005000770200087702000877020008770200089C
:10006000770200087702000877020008770200088C
:10007000770200087702000877020008770200087C
:10008000770200087702000877020008770200086C
:10009000770200087702000877020008590D00086F
:1000A000770200087702000877020008770200084C
:1000B0007702000877020008D55000087702000890
:1000C000770200087702000877020008770200082C
:1000D000770200087702000877020008770200081C
:1000E000770200087702000877020008770200080C
:1000F00077020008770200087702000877020008FC
:1001000077020008414700087702000877020008DC
:1001100077020008770200087702000877020008DB
:10012000770200087702000877020008890C0008AF
:1001300077020008770200087702000877020008BB
:1001400077020008770200087702000877020008AB
:1001500077020008950C0008770200087702000873
:10016000770200087702000877020008770200088B
:1001700077020008770200087702000800000000FC
:100180007702000877020008DFF80CD000F026F9AB
:1001900000480047713D0208588901202C4B19681E
:1001A0000868B0E8F04F80F30988BFF36F8F4FF015
:1001B000000080F3118870470000000008480068C4
:1001C000006880F308884FF0000080F3148862B65E
:1001D00061B6BFF34F8FBFF36F8F00DF00BF00BF6B
:1001E00008ED00E0DFF80C00016841F470010160E7
:1001F000704700BF88ED00E0EFF30980BFF36F8F19
:10020000134B1A681EF0100F08BF20ED108A20E96A
:10021000F04F106009B44FF0500080F31188BFF325
:100220004F8FBFF36F8F28F085FD4FF0000080F3F4
:10023000118809BC19680868B0E8F04F1EF0100F6B
:1002400008BFB0EC108A80F30988BFF36F8F704746
:1002500004C00120EFF30580704700000648804786
:1002600006480047FEE7FEE7FEE7FEE7FEE7FEE79B
:10027000FEE7FEE7FEE7FEE7C5500008890100083B
:100280002DE9F05F0546002092469B4688460646CB
:10029000814640241BE0284641464746224600F05E
:1002A0008CF853465A46C01A914110D3114618464D
:1002B000224600F073F82D1A67EB01084F462246DC
:1002C0000120002100F06AF817EB00094E41201EC2
:1002D000A4F10104DFDC484631462A464346BDE826
:1002E000F09F10B5431A934209D28318881803E08F
:1002F00010F8011D03F8011D521EF9D210BD40EA8D
:1003000001039B0703D009E008C9121F08C0042A93
:10031000FAD203E011F8013B00F8013B521EF9D27A
:1003200010BDD2B201E000F8012B491EFBD270478C
:100330000022F6E710B513460A4604461946FFF7B1
:10034000F0FF204610BD421C10F8011B0029FBD114
:10035000801A704710B5002200E0521C835C8C5C50
:10036000A34201D1002BF8D1D8B2E1B2401A10BD9E
:1003700030B504460020034600E05B1C934203D2E4
:10038000E05CCD5C401BF8D030BD034611F8012B7A
:1003900000F8012B002AF9D118467047202A04DB07
:1003A000203A00FA02F1002070479140C2F1200388
:1003B00020FA03F3194390407047202A04DB203AC7
:1003C00021FA02F00021704721FA02F3D040C2F175
:1003D000200291400843194670470000064C074D23
:1003E00006E0E06840F0010394E807009847103405
:1003F000AC42F6D3FFF7CCFEA0E00208E0E0020832
:1004000070B58C1810F8015B15F0070301D110F8D6
:10041000013B2A1106D110F8012B03E010F8016B03
:1004200001F8016B5B1EF9D12B0705D40023521E86
:100430000DD401F8013BFAE710F8013BCB1A921CEE
:1004400003E013F8015B01F8015B521EF9D5A142EC
:10045000D8D3002070BD000010B588B026A004F0ED
:1004600067FF02F025FF2DA004F062FF35A004F025
:100470005FFF02F0ABFF01F0B7FA01463BA004F0CA
:1004800057FF0A2001F0A2F901F0AEFA014645A09B
:1004900004F04EFF51A004F04BFF5A4C206840F48A
:1004A00000602060012001F091F9206820F40060D4
:1004B000206055A004F03CFF5D4802F057F85C4C0A
:1004C00010B1A16B5BA00CE066A004F031FF6EA040
:1004D00004F02EFF6946564801F01CFF30B1A16BB5
:1004E00074A004F025FF012008B010BD7EA004F028
:1004F0001FFF0020F8E700005B53445D204253508B
:100500005F53445F496E69743A204D585F444D41D2
:100510005F496E697428290D0A0000005B53445D31
:10052000204253505F53445F496E69743A204D58DE
:100530005F444D415F496E697420646F6E650D0ABA
:10054000000000005B53445D204253505F53445F02
:10055000496E69743A204D585F5344494F5F534484
:100560005F496E697428290D0A0000005B53445DE1
:10057000204253505F53445F496E69743A20766558
:1005800072696679207469636B206265666F726553
:100590002048414C5F53445F496E69743A20256C92
:1005A000750D0A005B53445D204253505F53445F16
:1005B000496E69743A207665726966792074696358
:1005C0006B206166746572202048414C5F44656C05
:1005D00061793A2020256C750D0A00005B53445D5B
:1005E000204253505F53445F496E69743A2053442C
:1005F000494F20666F7263652072657365740D0ADA
:1006000000000000243802405B53445D20425350F8
:100610005F53445F496E69743A2048414C5F5344CC
:100620005F496E697428292073746172740D0A0021
:1006300090C101204253505F53445F496E69743A40
:100640002048414C5F53445F496E6974206661697C
:100650006C65642C206572723D30782530386C589A
:100660000D0A00005B53445D204253505F53445FCA
:10067000496E69743A2048414C5F53445F496E6942
:1006800074204F4B0D0A00005B53445D20425350D1
:100690005F53445F496E69743A2048414C5F53444C
:1006A0005F47657443617264496E666F28290D0A5D
:1006B000000000004253505F53445F496E69743A32
:1006C00020676574206361726420696E666F2066BE
:1006D00061696C65642C206572723D307825303814
:1006E0006C580D0A000000005B53445D20425350DB
:1006F0005F53445F496E69743A2048414C5F5344EC
:100700005F47657443617264496E666F204F4B0D9D
:100710000A00000000B589B06946164801F0FAFDEC
:1007200020B115A004F004FE09B000BD1AA004F029
:10073000FFFD1FA0009904F0FBFD22A0019904F029
:10074000F7FD26A0029904F0F3FD28A0039904F018
:10075000EFFD2BA0049904F0EBFD2EA0059904F009
:10076000E7FD31A0069904F0E3FD35A0079904F0F8
:10077000DFFDD9E790C101204253505F53443A2036
:10078000676574206361726420696E666F206661BC
:10079000696C65640D0A0000534420436172642053
:1007A000496E666F2028425350293A0D0A00000016
:1007B000202043617264547970653A20256C750D70
:1007C0000A00000020204361726456657273696FED
:1007D0006E3A20256C750D0A000000002020436C45
:1007E0006173733A20256C750D0A00002020526554
:1007F0006C436172644164643A20256C750D0A0093
:100800002020426C6F636B4E62723A20256C750D2E
:100810000A0000002020426C6F636B53697A653ACE
:1008200020256C750D0A000020204C6F67426C6F0C
:10083000636B4E62723A20256C750D0A0000000051
:1008400020204C6F67426C6F636B53697A653A2066
:10085000256C750D0A00000070B51E4613460A4649
:100860000146164802F018F8144C10B1A16B14A000
:100870000AE001F0B9F8054618E0A06B40B10F4856
:1008800001F03EFCA16B1EA004F052FD012070BDE2
:1008900001F0AAF8401BB04208D9084801F030FC2A
:1008A000A16B27A004F044FD032070BD034801F0B4
:1008B00043FD0428E1D1002070BD000090C101205B
:1008C0004253505F53445F52656164426C6F636B87
:1008D000735F444D415F426C6F636B696E673A2092
:1008E000737461727420444D41206661696C656463
:1008F0002C206572723D30782530386C580D0A0016
:100900004253505F53445F52656164426C6F636B46
:10091000735F444D415F426C6F636B696E673A2051
:100920007472616E73666572206572726F722C20CC
:100930006572723D30782530386C580D0A00000021
:100940004253505F53445F52656164426C6F636B06
:10095000735F444D415F426C6F636B696E673A2011
:1009600074696D656F75742C206572723D307825E1
:1009700030386C580D0A000030B5ADF2244D0446F5
:10098000FFF76AFD08B12DA04CE00DF580613248FB
:1009900001F0C0FC08B131A044E0FFF7BBFE41F21A
:1009A00088352B460122002180A8FFF755FF08B1AA
:1009B00033A037E039A004F0BBFC002C3BD04FF44F
:1009C0000074224680A96846FFF78BFC0020694628
:1009D0000854401CA042FBDB01222B46114668460E
:1009E00000F0C2F808B136A01CE0214680A8FFF74D
:1009F0009FFC01222B46114680A8FFF72DFF08B16E
:100A000036A00FE02246694680A8FFF7B1FC08B186
:100A10003AA007E001222B461146684600F0A4F8F0
:100A200030B13FA004F084FC01200DF2244D30BD14
:100A300043A004F07DFC0020F7E700004253505F24
:100A400053445F546573743A20696E69742066611B
:100A5000696C65640D0A000090C101204253505F2B
:100A600053445F546573743A2063616E6E6F7420F3
:100A7000676574206361726420696E666F0D0A0099
:100A80004253505F53445F546573743A20726561FA
:100A900064206661696C65640D0A00004253505F12
:100AA00053445F546573743A207265616420626CCC
:100AB0006F636B203020737563636573730D0A0079
:100AC0004253505F53445F546573743A20777269A0
:100AD0007465206661696C65640D0A004253505F5D
:100AE00053445F546573743A207265616462616354
:100AF0006B206661696C65640D0A00004253505FAB
:100B000053445F546573743A207772697465207634
:100B10006572696679206661696C65640D0A00001A
:100B20004253505F53445F546573743A2072657347
:100B3000746F7265206661696C65640D0A0000005F
:100B40004253505F53445F546573743A207772691F
:100B5000746520616E6420766572696679207375AC
:100B600063636573730D0A0070B51E4613460A462B
:100B70000146164801F024FF144C10B1A16B144833
:100B80000AE000F031FF054618E0A06B40B10F48C5
:100B900001F0B6FAA16B0FA004F0CAFB012070BDF2
:100BA00000F022FF401BB04208D9084801F0A8FA23
:100BB000A16B18A004F0BCFB032070BD034801F03A
:100BC000BBFB0428E1D1002070BD000090C10120D2
:100BD00090DB02084253505F53445F57726974655B
:100BE000426C6F636B735F444D415F426C6F636B2C
:100BF000696E673A207472616E7366657220657201
:100C0000726F722C206572723D30782530386C58C6
:100C10000D0A00004253505F53445F577269746578
:100C2000426C6F636B735F444D415F426C6F636BEB
:100C3000696E673A2074696D656F75742C206572F2
:100C4000723D30782530386C580D0A00FEE7000000
:100C500010B50C4C0A4820604FF4E1306060002071
:100C6000A060E0602061A0610C206061204602F07D
:100C700094F82068C16841F02001C16010BD0000F7
:100C800000100140B0C80120014800F02DBC000058
:100C900014C20120014800F027BC000074C20120EA
:100CA00001681823CAB2103AB2FBF3F2054B6FF396
:100CB0000901032A9B5CC36500D9091D81650846AB
:100CC000704700005899020810B5014600208B6952
:100CD0008A6A4FF0C07453B1B3F5005F15D072B19A
:100CE000012A0CD0022A0AD0032A09D104E01AB141
:100CF000012A06D0022A03D1C96AC90100D5012000
:100D000010BDC96AA142FAD010BD002AF7D0012A4D
:100D1000F2D0022AF3D0032AF3D010BD30B5046814
:100D2000256825F480252560046863608368402B6E
:100D3000036803D099600068C26030BD9A600068A3
:100D4000C16030BD704701B5009801E0401E0090C1
:100D50000028FBD108BD000010B5044C2068C00578
:100D600003D500F091FAA015206010BD143C01409D
:100D700072B6FEE770B5B3F5804F05D06FF07041E5
:100D800040F82210002070BD50F82240084B8E8998
:100D90001C40D1E9003543EA05138D6889692D02AD
:100DA00045EA06452B430B43234340F82230E9E74D
:100DB0000000F0CFF0B50C6850F82430114A134011
:100DC000D1E90125D1E903672A433E4332434E6905
:100DD00032438E693243CE6932430E6A32434E6AE1
:100DE00032438E6A3243CE6A3243CE6B096B324352
:100DF0000A431A43082D01D142F0400240F8242052
:100E00000020F0BD8000F0FF30B500EB820250689A
:100E10008D8900F04043D1E9000440EA04108C6859
:100E2000240244EA054420430C8A074D05EB045490
:100E300020430C7D6D0105EB046489692043084360
:100E400018435060002030BD0000F0FFFEB50020C8
:100E5000224C0090019002902078214D00EB400040
:100E600005EB40000A228088401C010A8DF8001022
:100E70008DF801006946BA2000F052F8002820DB06
:100E80009DF802009DF80310032200EB012087B2B9
:100E90009DF804009DF8051000EB012086B2207833
:100EA00000EB400005EB40008088801D010A8DF8B2
:100EB00000108DF801006946BA2000F031F80028D2
:100EC00001DA0020FEBD9DF80200324600F0030367
:100ED000394604A004F02CFA0120FEBD18000020C1
:100EE000889902083C3C2D4754502D494E464F2DC1
:100EF0003E3E20585F4D4158203D2025642C20590E
:100F00005F4D4158203D2025642C205452494747CD
:100F10004552203D203078253032780A000000000C
:100F2000F0B587B00D460221ADF804100024012170
:100F3000ADF80240ADF80E108DF800008DF80C00F1
:100F4000901EADF81000A81C1646029505900221CF
:100F5000684602F0B9F80746022803D0641C052C45
:100F6000F5DB01E0052C06DB28883B4641BAB21EC2
:100F7000024804F0DDF907B03846F0BDECDA0208AB
:100F800038B50020009011480025007800EB4001A2
:100F90000F4800EB41008088010A8DF800108DF8A1
:100FA00001006C1E0BE003226946BA20FFF7B8FF70
:100FB00044B2002C08DC294606A004F0B9F9284602
:100FC0006D1CEDB20528EED3204638BD1800002078
:100FD000889902083C3C2D4754502D4552524F529F
:100FE0002D3E3E204754502069326320746573744F
:100FF000206661696C65642074696D652025642EC6
:101000000A000000FEB50024ADF8024016460F4667
:101010008DF80000ADF8042002910121684602F02D
:1010200053F80546012803D0641C052CF5DB01E0CC
:10103000052C06DB38882B4641BAB21E024804F064
:1010400077F92846FEBD00003CDB020810B502F02F
:1010500031F8FFF795FF040004D506A004F068F905
:10106000204610BD00F01CF801F0B2FFFFF7EEFEC5
:10107000002010BD3C3C2D4754502D4552524F523C
:101080002D3E3E2049324320636F6D6D756E69635E
:101090006174696F6E204552524F52210A00000060
:1010A00030B5484985B00822D1E90201CDE90301F4
:1010B00003A9BA20FFF734FF050003D542A004F0CE
:1010C00037F97BE09DF80E104A4C352918D09DF871
:1010D0001120002A35D09DF812009DF8133000929F
:1010E000CDE90130372A9DF810309DF80F2042A03D
:1010F00042D004F01DF99DF80E00392850D05DE073
:101100009DF811009DF812309DF813208DE80D0018
:101110009DF810309DF80F2043A004F009F99DF8C8
:101120000E0035284AD19DF80F00362846D19DF88B
:101130001000382842D19DF8110038283ED10220F5
:101140003BE09DF812209DF81300CDE900029DF8C8
:1011500010309DF80F2040A004F0EAF89DF80E0032
:1011600039282BD19DF80F00312827D19DF8100088
:10117000312823D1012020E004F0DAF89DF80E0098
:1011800039281BD19DF80F00312817D19DF8100088
:10119000342813D19DF8110037280FD103200CE01B
:1011A0009DF80F00312809D19DF81000352805D190
:1011B0009DF81100372801D10420207005B0284681
:1011C00030BD0000789902083C3C2D4754502D4515
:1011D00052524F522D3E3E2047545020726561645A
:1011E0002076657273696F6E206661696C65640A4A
:1011F00000000000180000203C3C2D4754502D49B1
:101200004E464F2D3E3E204943332056657273694A
:101210006F6E3A2025632563256325635F25303291
:1012200078253032780A00003C3C2D4754502D4937
:101230004E464F2D3E3E204943312056657273691C
:101240006F6E3A2025632563256325635F25303261
:1012500078253032780A00003C3C2D4754502D4907
:101260004E464F2D3E3E20494332205665727369EB
:101270006F6E3A202563256325635F25303278251C
:101280003032780A0000000000F012B80148B0F9CE
:1012900006007047180000200148B0F902007047AE
:1012A000180000200148B0F9040070471800002021
:1012B0002DE9F04342A099B00068189028210DF163
:1012C00030080DA8FFF734F83E4F00250C2238688F
:1012D0000C90BA2081460CA9FFF722FE010005D52B
:1012E00039A004F025F819B0BDE8F0839DF832006C
:1012F0000028F8D0010658D500F00F04052C54D86A
:10130000012C14D902AE2421301DFFF711F87868A2
:1013100002906FF0050000EBC40202A94846FFF7F7
:10132000FFFDE200B11C0FA8083AFEF7DAFF3248D1
:1013300014BB35E008EBC5012F4BCA78143302F01B
:101340000F025A552D4B8A88C9881B78082B12D258
:10135000DFE803F004070A0D1A1D2023C0E903216A
:1013600009E0C0E9031206E0C2F5F072F6E7C160D9
:10137000C2F5F07101616D1CA542DBDB8189418002
:10138000018A818001210EE0C1F54871E6E7C1F5CF
:101390004871E6E7C2F5F072F6E7C1F54871E6E795
:1013A000018909B10021C1800481032218A948469E
:1013B000FFF728FE002896DA11A003F0B9FF92E7A4
:1013C000814E0000789902083C3C2D4754502D4531
:1013D00052524F522D3E3E20493243207472616E6C
:1013E00073666572206572726F722E206572726EFE
:1013F0006F3A25640A200A001800002084C00120EA
:101400003C3C2D4754502D494E464F2D3E3E2049E1
:10141000324320777269746520656E645F636D6422
:10142000206572726F72210A000000002DE9F04100
:101430000446876D00F0D8FA064694F8350000257A
:10144000022806D08020606584F834500120BDE871
:10145000F0812068016821F016010160206841696F
:1014600021F080014161206C08B9A06C20B1206896
:10147000016821F0080101602068016821F0010184
:1014800001600CE000F0B0FA801B052807D920208D
:101490006065032084F8350084F83450D7E720686D
:1014A0000068C007EED194F85C103F208840B86017
:1014B000012084F8350084F834500020C7E790F804
:1014C0003510022903D08021416501207047052194
:1014D00080F835100068016821F0010101600020EA
:1014E0007047406D704700002DE9F84304464FF007
:1014F0000009CDF8009063484FF41651A56D0068BF
:10150000B0FBF1F72E6894F85C10082000FA01F1A6
:1015100031420FD021680A6852070BD50A6822F0C1
:1015200004020A6094F85C108840A860606D40F086
:101530000100606594F85C104FF0010808FA01F0B2
:10154000304208D021684969090604D5A860606D59
:1015500040F00200606594F85C100420884030423E
:1015600008D021680968890704D5A860606D40F03B
:101570000400606594F85C1010208840304218D058
:1015800021680968090714D5A86020680168490323
:1015900004D50068000308D5A16C07E00168C905FF
:1015A00003D4016821F008010160216C09B12046D3
:1015B000884794F85C1020208840304231D0216860
:1015C0000968C9062DD5A86094F83500052820685B
:1015D000016806D0490347D5006800031DD4616C3B
:1015E0001CE021F0160101602068416921F08001B2
:1015F0004161206C08B9A06C20B12068016821F01D
:101600000801016094F85C103F208840A86084F8CD
:10161000358084F83490216D1FE0E16B09B12046DC
:101620008847606D00282BD0606DC00714D005205E
:1016300084F835002068016821F0010101600098FC
:10164000401C0090B84203D820680068C007F6D15B
:1016500084F8358084F83490E16C002910D001B012
:101660002046BDE8F04308470168C905D5D40168A4
:1016700021F01001016084F8358084F83490CCE7C3
:10168000BDE8F88300C001202DE9F041044600F0D8
:10169000ABF906465CB1022084F83500002584F8D9
:1016A00034502068016821F0010101600DE0012043
:1016B000BDE8F08100F098F9801B052805D92020AD
:1016C0006065032084F83500F2E720680068C007F1
:1016D000F0D12268116820480140D4E90103184381
:1016E000D4E903363343184363691843A3691843A5
:1016F000E3691843236A18430843616A042903D144
:10170000D4E90B1319430843106020684069666AE6
:1017100020F0070130460E43012704280CD1A06AAF
:101720000643E06A40B12046FFF7CEFA20B14020E0
:10173000606584F83570BAE7206846612046FFF797
:10174000AFFA94F85C203F2191408160656584F890
:1017500035700020ACE700003F8010F02DE9F0412B
:101760000446866D90F83400002501280DD0012034
:1017700084F8340094F835700020012F07D084F8E5
:10178000340002252846BDE8F0810220FBE702274D
:1017900084F8357060652046FFF7C0FA94F85C1055
:1017A0003F208840B0602068016841F01601016068
:1017B000206C20B12068016841F0080101602068B8
:1017C000016841F001010160DCE7000070B50546E9
:1017D00000F00AF94FEA000400F006F9001BA842E5
:1017E000FAD370BD2DE9F84FDFF8BCA10022012526
:1017F0000AF1040B03264FF00F090BF1040E00BF92
:101800000B6805FA02F42340A34270D10F7907F068
:101810000307012F01D0022F16D187684FEA420833
:1018200006FA08FC27EA0C07D1F80CC00CFA08FCF1
:101830004CEA070CC0F808C04768A7430C79C4F30A
:10184000001494403C4344600C79E443A4070AD05C
:10185000C4684FEA420C06FA0CF7BC438F6807FADB
:101860000CF72743C7600C7904F00304022C12D153
:10187000D40800EB840CDCF820405707FF0E09FA6F
:1018800007F824EA0804D1F8108008FA07F848EAB3
:101890000408CCF8208004684FEA420C06FA0CF7E2
:1018A000BC430F7907F0030707FA0CF727430760DB
:1018B0004C6814F4403F70D03C4C276847F4804794
:1018C0002760246822F0030704F480440094384C15
:1018D00007EB040CDCF8084897074FEA177809FA79
:1018E00008F7BC43334FB84202D1002724E054E04C
:1018F000314FB84201D101271EE0304FB84201D12B
:10190000022719E02E4FB84201D1032714E02D4FD2
:10191000B84201D104270FE02B4FB84201D105276F
:101920000AE02A4FB84201D1062705E0284FB84205
:1019300001D1072700E0082707FA08F72743CCF86A
:101940000878DAF800405746D1F804C09C435FEAB3
:10195000CC3C00D51C433C60DBF800405F46D1F82E
:1019600004C09C435FEA8C3C00D51C433C60DEF81D
:1019700000407746D1F804C09C435FEACC2C00D5E8
:101980001C433C60084F0C373C68D1F804C09C43B2
:101990005FEA8C2C00D51C433C60521C102AFFF4DB
:1019A0002FAFBDE8F88F0000003C014044380240F2
:1019B00000300140000002400004024000080240E4
:1019C000000C0240001002400014024000180240C7
:1019D000001C02400069084000D0012070470AB195
:1019E000816170470904FBE7014880687047000087
:1019F0000C00002002488168027811448160704721
:101A00000C000020094810B5016841F40071016024
:101A1000016841F480610160032000F09FF80F200D
:101A200000F006F800F050F8002010BD003C024025
:101A300030B505461F4887B00024016841F0040115
:101A40000160006806A900F00400009001A800F001
:101A500031F90498A8B100F04DF940001649174A31
:101A6000B0FBF1F11648491E026040F2E732C0E9CE
:101A70000324C0E90114846101F060F8040003D07C
:101A800015E000F037F9E9E70D4801F085F80400AA
:101A90000DD11E2000F034F8102D07D20022294667
:101AA0001E2000F03BF80748056000E0012407B065
:101AB000204630BD4038024040420F000008004040
:101AC00048C10120100000200C4882B0016841F498
:101AD00080410160006800F4804000900748001FCA
:101AE000016841F0805101600068002200F08050E0
:101AF00000900F21901E02B000F010B84438024050
:101B0000002809DB00F01F020121914040098000FC
:101B100000F1E020C0F8001170470000F0B40E4B57
:101B20001B680C46C3F30223C3F10705042D00D93B
:101B30000425191D072901D2002300E0DB1E012620
:101B400006FA05F1491E214099409E40761E164036
:101B50003143F0BC03F0FCBB0CED00E0064900F0A3
:101B6000070208684FF6FF03184040EA0220034AC4
:101B700010430860704700000CED00E00000FA051B
:101B80002DE9F0470E46050065D0DFF81481D8F83E
:101B90000000F7B200F00700B04207D288F80070EA
:101BA000D8F8000000F00700B04254D128683D4C3E
:101BB000810712D5400703D5206840F4E05020602B
:101BC0002878000703D5206840F460402060206832
:101BD000A96820F0F000084320602878C0072DD0C5
:101BE000304968680839012812D0022813D0032828
:101BF00011D00968890700292DDA216821F0030135
:101C000001432160FFF7F0FE814641F2883A0EE081
:101C100009688903EFE709688901ECE7FFF7E4FE4B
:101C2000A0EB0901514502D90320BDE8F0872068E7
:101C3000696800F00C00B0EB810FEFD1D8F800100C
:101C4000404601F00701B14207D90770006800F073
:101C50000700B04201D00120E7E72878400705D50A
:101C60002068E96820F4E0500843206028780007E5
:101C700006D52068296920F4604040EAC100206050
:101C800000F058F82168084AC1F30311515CC840BC
:101C90000649086006480068FFF7CAFE0020C4E74E
:101CA000003C0240083802406099020800C0012050
:101CB000100000200F2202600C4A136803F0030397
:101CC0004360136803F0F0038360136803F4E05388
:101CD000C36012684FF4E05303EAD2020261044881
:101CE000006800F0070008607047000008380240F4
:101CF000003C02400448054900680968044AC1F3F1
:101D00008221515CC840704700C001200838024061
:101D1000709902080448054900680968044AC1F33B
:101D20004231515CC840704700C001200838024071
:101D300070990208154810B5006810F00C0214489C
:101D400013D04110042A0FD0082A0ED10F4C241FA3
:101D50002268236802F03F025B0207D52068C0F3C7
:101D60008810A0FB010106E0084610BD2168C1F300
:101D70008811A1FB00010023FEF782FA2168C1F35C
:101D80000141491C4900B0FBF1F010BD0838024088
:101D90000024F4002DE9F84F04006ED02078DFF81D
:101DA0004C93C007A9F104054AD009F10400016869
:101DB000C1F38101012908D00068C0F38100022825
:101DC0000AD1D9F80000400206D52868800337D52B
:101DD00060680028E1D033E06068B0F5803F10D043
:101DE000B0F5A02F286810D020F480302860286833
:101DF00020F4802028606068A8B1FFF7F5FD064652
:101E00000DE0286840F48030F4E740F4802028603A
:101E1000F7E700BFFFF7E8FD801B642873D8286848
:101E20008003F7D50CE0FFF7DFFD064605E000BFB5
:101E3000FFF7DAFD801B6428F0D828688003F7D408
:101E40002078DFF8AC8280074FF0000A3ED5A74823
:101E5000001D016811F00C0F08D00068C0F381006C
:101E600002280BD1D9F80000400207D42868800767
:101E700016D5E068012800D112E033E1E068B8B17E
:101E80000120C8F80000FFF7AFFD064605E000BFDF
:101E9000FFF7AAFD801B0228C0D828688007F7D565
:101EA0002868216920F0F80040EAC10028600DE0B0
:101EB000C8F800A0FFF798FD064604E0FFF794FD80
:101EC000801B02281FD828688007F7D420780007D5
:101ED00022D5864F87486169703771B10121016051
:101EE000FFF782FD064604E0FFF77EFD801B022817
:101EF00009D838688007F7D50EE0C0F800A0FFF7D2
:101F000073FD064605E082E0FFF76EFD801B0228A8
:101F10007DD838688007F7D42078400768D5DFF887
:101F2000CCB100270BF13C0BDBF80000C0000BD458
:101F3000DBF8001041F08051CBF80010DBF8000016
:101F4000012700F0805000906B4E3068C00510D41F
:101F5000306840F480703060FFF746FD009005E087
:101F6000FFF742FD0099401A022850D83068C0059A
:101F7000F6D55E4EA0686C3601280FD00528306873
:101F800010D020F001003060306820F00400306094
:101F9000A068B8B1FFF728FD00900FE0306840F06E
:101FA0000100F4E740F004003060F7E7FFF71CFDA4
:101FB0000099411A41F28830814266D83068800722
:101FC000F4D50EE0FFF710FD009007E0FFF70CFDE1
:101FD0000099411A41F28830814256D83068800712
:101FE000F4D42FB1DBF8001021F08051CBF80010B1
:101FF000A069C8B33D49091D0968C1F381010229DF
:102000004AD00228504607D0C8F8600000E03CE003
:10201000FFF7EAFC04463BE04746C8F86000FFF7DC
:10202000E3FC064605E000BFFFF7DEFC801B02284C
:102030002BD828688001F7D4D4E907010843A16AA6
:102040002E4A490802EB0141626A41EA82110843C3
:1020500094F82C1040EA0161C9F80010012038669C
:10206000FFF7C2FC044606E03EE000BFFFF7BCFC01
:10207000001B022809D828688001F7D534E000BF8A
:10208000FFF7B2FC001B022802D90320BDE8F88F3D
:1020900028688001F4D427E00128F7D0D9F800009F
:1020A000E26900F4800191421CD1226A00F03F01F4
:1020B000914217D147F6C071626A0140B1EB821FAD
:1020C00010D1A26A4FF0FF3300F4403103EB52020B
:1020D000B1EB024F06D194F82C1000F07060B0EB19
:1020E000016F01D00120D1E70020CFE70438024082
:1020F00000004742800E4742007000400000FFFF92
:1021000010B50446006B2168CA6B22F49D72CA6345
:10211000226840F23A5191632168CA6A22F00102B2
:10212000CA62010613D52168CA6A22F00802CA628F
:1021300010F0300F01D0E06B02E0800707D0206C78
:10214000FFF774F918B1A06B40F08040A063012044
:1021500084F8340000202063204600F0EDF80628C3
:1021600001D0052803D1206802F07AFCA063A06B9F
:10217000002800D0012010BD70477047F0B5426EB6
:10218000920F0A70426EC2F383624A70426EC2F3CB
:1021900001628A70426E120CCA70B0F86420120A92
:1021A0000A7190F864204A71826E120DCA80826EA4
:1021B000C2F303420A72B0F86820C2F3C0324A7216
:1021C000B0F86820C2F380328A72B0F86820C2F397
:1021D0004032CA72B0F86820C2F300320A73002697
:1021E0004E73426C4FF40075012462B1012A3AD05B
:1021F000026847499163816B41F08051816380F8A7
:1022000034400120F0BDB0F86820C36E9205120D75
:1022100042EA93720A61C26EC2F3C2620A75C26E6A
:10222000C2F302624A75C26EC2F342528A75C26E2E
:10223000C2F38242CA75C26EC2F3C2320A760A691A
:10224000521C42650B7E03F007039B1C9A404265BB
:102250000B7A03F00F0704FA07F383655B0A5A430E
:10226000C0E917250EE090F86820C36E9206920A26
:1022700042EA13420A610A69521C92024265C0E9AD
:102280001652056630F86C2FC2F3803201F8192F10
:102290000288C2F3C6124A70027802F07F028A7086
:1022A0004268D20FCA704268C2F341720A71426832
:1022B000C2F382624A714268C2F383528A714268F1
:1022C000C2F34052CA710E724268C2F300424A72AF
:1022D0008288C2F3C0328A728288C2F38032CA72A4
:1022E0008288C2F340320A738288C2F300324A7392
:1022F0008288C2F381228A738288C2F30122CA7360
:102300000079C0F3460008744C740020F0BD000052
:10231000FF054000426C0A60826C4A60C26C8A60B1
:10232000026DCA60426D0A61826D4A61C26D8A6146
:10233000006EC8610020704770B50446B0F85000C8
:1023400000250104206802F05AFB18B1A16B01437B
:10235000A16304E00021206802F0EEF90546C5F310
:10236000432070BDF8B5056B04460068416B090455
:102370001BD5290719D5D4E90A56002E14D00027F9
:10238000206802F0FDF905F8010B010A05F8011BB0
:10239000010C05F8021B000E361F7F1C05F8010C0E
:1023A000082FEDD3C4E90A56F8BD416B4FF0000683
:1023B000C9054FF0010744D5390281632068C16B1C
:1023C0004CF23A329143C1632068C16A21F00101A5
:1023D000C16228071DD515F0220F09D0206802F030
:1023E0003FFB28B1A16B0143A1632046FFF7C5FE67
:1023F000216840F23A50886384F834702663A80755
:1024000003D0204600F0DAFAF8BD204600F0D7FAF3
:10241000F8BD2806FCD5A80609D5206802F020FBE7
:1024200028B1A16B0143A1632046FFF7A6FEA807D0
:10243000EED12068C16A21F00801C16284F83470CD
:10244000E3E7416B490424D5290722D5D4E908568E
:10245000002EDDD05FF0000715F8010B009015F895
:10246000011B361F40EA0120009015F8021B40EACC
:102470000140009015F8011C40EA01600090694697
:10248000206802F090F97F1C082FE5D3C4E90856B4
:10249000F8BD416B40F23A221142F9D0416B8907F5
:1024A00003D5A16B41F00201A163416B090703D57C
:1024B000A16B41F00801A163416B890603D5A16BB3
:1024C00041F02001A163416BC90603D5A16B41F026
:1024D0001001A163416B890503D5A16B41F008018F
:1024E000A16340F23A7181632068C16B40F23A32D5
:1024F0009143C163206802F0B3FAA16B0843A06363
:10250000280706D584F8347026632046FFF735FE89
:10251000F8BD2806FCD515F0300F0CD0E16B114842
:102520000865E06BFEF7CBFF0028F1D0E06BBDE85B
:10253000F84002F07BBCA8070CD0216C0A48086563
:10254000206CFEF7BCFF0028E2D0206CBDE8F8400C
:1025500002F043BCA66384F8347026632046FFF77C
:102560000BFEF8BD2D4E0008DB4D000870B50400D1
:102570000ED094F83400002518B92577204600F0D5
:102580004BF8032084F83400204600F00BF808B123
:10259000012070BDA5632563012084F8340000206C
:1025A00070BD0000FEB50025044676200095CDE9FB
:1025B000015029460B460A46206802F0C7F828BB9E
:1025C000134E46F8A05F206802F0D2F8012535606E
:1025D000204602F0C5FC28B184F83450A16B0143B9
:1025E000A16313E0204602F043FC0028F4D14FF42D
:1025F0000071206802F010F9002808D0226805490F
:102600009163A16B0143A16384F834500120FEBDA6
:1026100000802542FF0540002DE9F04F87B00546B8
:1026200014216846FDF784FE5149286888427CD110
:1026300050A002F07DFE57480068564940F4006003
:102640000860086800F40060059053A002F070FE76
:102650005048143800684F4940F0040014390860AD
:10266000086800F004000590086840F00800086061
:102670000868032600F0080005904FF4F850009019
:10268000022001900120CDE902060C246946049441
:102690004C48FFF7A7F84CA002F04AFE042702209E
:1026A000CDE900700120CDE90206694604944F4847
:1026B000FFF798F84EA002F03BFE574C55484FF0FC
:1026C0000068C4E900080020A060E06038022061D2
:1026D000C4E90976800004F114014FF480494FF0F9
:1026E000200A4FF4003B81E8010EC6024702204653
:1026F000C4E90B67FEF7C8FF08B1FEF739FB47A036
:1027000002F016FE2C644348A563434C4830603405
:1027100004F11401C4E900084020A0600020E0603A
:102720004FF480602061800000E01DE081E8010E30
:10273000042060621431032081E8C1002046FEF7C6
:10274000A3FF08B1FEF714FB3EA002F0F1FDEC631D
:10275000002206213120A563FFF7E0F93120FFF7C1
:10276000CFF942A002F0E4FD07B0BDE8F08F000011
:10277000002C01405B53445D2048414C5F53445F53
:102780004D7370496E69743A20656E7465720D0AF6
:1027900000000000443802405B53445D2048414C37
:1027A0005F53445F4D7370496E69743A20534449D6
:1027B0004F20636C6F636B20656E61626C65640DA6
:1027C0000A000000000802405B53445D2048414C71
:1027D0005F53445F4D7370496E69743A20475049A6
:1027E0004F4320696E697465640D0A00000C024055
:1027F0005B53445D2048414C5F53445F4D737049C7
:102800006E69743A204750494F4420696E69746577
:10281000640D0A005864024014C201205B53445DF9
:102820002048414C5F53445F4D7370496E69743A60
:1028300020444D4120525820696E697465640D0A28
:10284000000000005B53445D2048414C5F53445FEF
:102850004D7370496E69743A20444D41205458209C
:10286000696E697465640D0A000000005B53445D85
:102870002048414C5F53445F4D7370496E69743A10
:10288000204E564943205344494F20656E61626C87
:1028900065640D0A000000002DE9F04786B01F4670
:1028A0000446154639B194F83400012807D00220B7
:1028B00006B0BDE8F087A06B40F0006008E00020A3
:1028C000A063E36DEA199A4204D9A06B40F000704E
:1028D000A06369E0032284F8342022688146D06234
:1028E0002268D36B40F22A363343D363236C2F4ADA
:1028F000DA63236C2E4ADA64226C1065226C9060D5
:10290000206C0068026822F0C002026020680A465B
:10291000266C4FEA472800F180014FEA98033046C1
:10292000FEF71CFFDFF88CA0012670B12068C16B98
:1029300021F49571C1632168C1F838A0A06B40F003
:102940008040A06384F834602EE01B480660606C11
:10295000012800D06D024FF0FF30CDE90008902033
:10296000029002200596CDE903096946206801F02E
:10297000CDFE012F06D9822020632946206801F070
:10298000C7FF05E0812020632946206801F0D9FFB8
:1029900000288DD02268C2F838A0A16B0143A16342
:1029A00084F83460C4F83090012081E7994D000824
:1029B000354D0008FF0540008C8525427047704763
:1029C0002DE9F04F5FEA010B87B01E460446114621
:1029D00007D094F83400012807D0022007B0BDE8E2
:1029E000F08FA06B40F0006008E00025A563E26D69
:1029F0008819904204D9A06B40F00070A06356E0A3
:102A0000032084F834002068C5622068C26B40F25D
:102A10001A2942EA0902C263E26B2D48D063E26BD5
:102A20002C48D064E06B0565606C012800D0490239
:102A30004FF09008012E05D9A0202063206802F0F5
:102A400029F804E0C4F83080206802F03CF8DFF890
:102A500088A0012730B12268C2F838A0A16B0143D9
:102A6000A16321E01D480760E16B40208860E06BB6
:102A70000068016821F0C00141F040010160226856
:102A80007602B30859468032E06BFEF767FE80B1EC
:102A90002068C16B21EA0901C1632168C1F838A02F
:102AA000A06B40F08040A06384F83470256301205F
:102AB00094E74FF0FF30CDE90006CDE90285CDE97E
:102AC00004576946206801F021FE002086E70000D7
:102AD0001F4E0008354D0008FF0540008C8525423B
:102AE00070B515460E46040003D094F8490010B1A5
:102AF00007E0012070BD002084F84800204600F067
:102B00001AF804F108012068FEF754F93146A2686A
:102B10002068FEF779F9D4E901022946236BFEF714
:102B200029F9A168206850F8212042F0010240F8FC
:102B30002120002070BD70477047704710B5040019
:102B400003D094F83D0010B107E0012010BD002033
:102B500084F83C00204600F01EF8022084F83D0076
:102B6000211D206802F0BCFA012084F8460084F898
:102B70003E0084F83F0084F8400084F8410084F867
:102B8000420084F8430084F8440084F8450084F847
:102B90003D00002010BD704790F83D10012901D084
:102BA00001207047022180F83D100168CA6842F098
:102BB0000102CA6000681149884214D0B0F1804F08
:102BC00011D00F4988420ED00E4988420BD00E49D1
:102BD000884208D00D49884205D00D49884202D06C
:102BE0000C49884204D1816801F00701062903D00D
:102BF000016841F0010101600020704700000140C0
:102C00000004004000080040000C004000040140A7
:102C10000040014000180040704770B5044600684D
:102C200001694FF00005C943890715D4C168C9433C
:102C3000890711D4E91E016101202077206880698D
:102C40008007204602D0FFF7E7FF04E000F098F885
:102C5000204600F096F8257720680169C9434907A6
:102C600017D4C168C943490713D46FF00401016147
:102C7000022020772068806910F4407F204602D02F
:102C8000FFF7CAFF04E000F07BF8204600F079F877
:102C9000257720680169C943090716D4C168C9436B
:102CA000090712D46FF00801016104202077206821
:102CB000C0698007204602D0FFF7AEFF04E000F0B5
:102CC0005FF8204600F05DF8257720680169C94368
:102CD000C90617D4C168C943C90613D46FF01001DF
:102CE0000161082020772068C06910F4407F2046E9
:102CF00002D0FFF791FF04E000F042F8204600F018
:102D000040F8257720680169C943C90708D1C1681F
:102D1000C943C90704D1891E0161204600F032F879
:102D200020680169C943090609D4C168C943090675
:102D300005D46FF0800101612046FFF7FDFE206899
:102D40000169C943490609D4C168C943490605D484
:102D50006FF040010161204600F01EF82068016913
:102D6000C94389060BD4C168C943890607D46FF0EB
:102D7000200101612046BDE87040FFF7DEBE70BD56
:102D80007047704700680349884201D1FEF732BEA0
:102D90007047000000080040704770B5040004D080
:102DA00094F83D00002510B106E0012070BD84F8C4
:102DB0003C50204600F022F8242084F83D00206892
:102DC000C16821F40051C160204602F0EDF920688D
:102DD000016921F4904101612068416921F02A01D3
:102DE00041612068C16841F40051C1602564202020
:102DF00084F83D0084F83E00002070BD30B51E48C8
:102E000087B0016841F010010160006800F0100017
:102E1000059019481438016841F00101016001680A
:102E200001F001010591016841F0010101600068B4
:102E3000072400F0010005904FF40070009002207C
:102E40000190012002900320CDE903040B4D694657
:102E50002846FEF7C7FC28150090694604942846CA
:102E6000FEF7C0FC012200212520FEF757FE252099
:102E7000FEF746FE07B030BD443802400000024075
:102E80002DE9F843044690F83D001F4616460D46CE
:102E900020284CD1C5B1BEB194F83C00012846D0E1
:102EA000012084F83C004FF00008C4F84080212045
:102EB00084F83D00FEF798FDA6848146E684A0686C
:102EC000B0F5805F03D004E00120BDE8F8832069FD
:102ED00028B12E465FF0000584F83C800EE0002605
:102EE000FAE78021204602F0E5F9A0B9AEB116F864
:102EF000010B21684860E08C401EE084E08C4B466A
:102F00004FF0000200970028EBD14FF0400120461F
:102F100002F0D0F930B10320D7E735F8020BC0F347
:102F20000800E6E7202084F83D000020CDE70220DD
:102F3000CBE7FEE770B5234886B00021026842F077
:102F400008020260026802F008020592026842F07C
:102F500008020260026802F008020592026842F06C
:102F600008020260026802F008020592026842F05C
:102F700040020260006801AA00F040000590802035
:102F800000901120032482E813000F4E694630465A
:102F9000FEF728FC0820009069463046FEF722FC28
:102FA00040250120CDE900500220CDE90204694608
:102FB0003046FEF717FC694604480095FEF712FC00
:102FC00006B070BD30380240000C024000180240CC
:102FD00000B585B04FF4807000904FF488100190D8
:102FE000002002900320039069460648FEF7FAFB92
:102FF000012211461720FEF791FD1720FEF780FDF4
:1030000005B000BD0018024070B514460D460646D6
:103010000EF0B6FF46F001000EF088FF0EF0D4FF70
:1030200088B10EF0C3FF012070BD012C03D10EF05A
:1030300045FF0EF0BBFF0EF055FF641E05F8010BB7
:10304000A4B20EF01FFF002CEFD10EF0AFFF002056
:1030500070BD00002DE9F04186B04FF4807401206E
:10306000CDE9004002200325CDE90205DFF83880D4
:1030700069464046FEF7B6FB0C4EA00330600C4F8D
:103080003846FDF760FE402030603846FDF75BFEB5
:103090000020CDE90040CDE9020569464046FEF733
:1030A000A1FB06B0BDE8F08100180240180C0240F8
:1030B000FFFF0F0010B5FFF73DFFFFF7CBFFBDE8A7
:1030C0001040FFF785BF000070B50E46054600248E
:1030D00019E000BF04EB440105EB81008278D207C0
:1030E00007D08288836815F821001946FFF78CFF06
:1030F00006E00279836815F82100194600F007F808
:10310000641C002802D1B442E4D1204670BD2DE9F0
:10311000F04116460D4680460EF048FF00244FF45D
:103120007A770EF02DFF40460EF000FF0EF04CFFB8
:1031300018B1641CA4B2BC42F3D3BC4206D00BE06D
:1031400028780EF0F3FE0EF03FFF20B10EF02EFFB8
:103150000120BDE8F0816D1C761EF6B2F0D20EF0B3
:1031600025FF0020F5E70000064B012806D00228C5
:1031700006D1012240211846FEF731BC0022F9E7B2
:10318000704700000014024008B5084C4FF0FF35AE
:10319000A0680028FCD02A46694626F0DDF8012800
:1031A000F6D19DF80000FFF7DFFFF1E700000020F7
:1031B00017F052FD1DF08CFC1DF0AEFC1EF068F9FE
:1031C0001AF078F905461EF063F91AF0DAFD0326C5
:1031D00090FBF6F004B21EF05BF91AF0D2FD90FB02
:1031E000F6F001B2224628461DF001FA1EF050F911
:1031F0001BF0BBFE4042C11700EB91708210002310
:103200000921284619F090FD284617F003FF0646CD
:1032100023A118F069FD244C0022304661681DF09E
:1032200074FB1EF035F91AF0ACFD4142C81701EBF2
:103230001070031100220921304619F075FD28464F
:103240001FF0EAF820601EF023F91AF09AFD0C2115
:1032500090FBF1F005B21EF01BF91AF092FD062169
:1032600090FBF1F001B22A4620681DF0C0F91EF073
:103270000FF91AF086FDC11700EB1170031100223F
:103280000921206819F050FD00231C2207492068FD
:1032900019F07CFC052025F099FC20F0DFF8F9E717
:1032A000436F6F6C000000000000002049760208A8
:1032B0000D4808B5016841F48001016000680022F2
:1032C00000F48000009007213B20FEF727FC3B2004
:1032D000FEF716FC002207214520FEF71FFCBDE883
:1032E00008404520FEF70CBC303802407CB5002277
:1032F0000121042025F088FE0A4900251824886051
:103300002B46802208A10B48CDE9004526F0FAF8AB
:1033100000234FF4007208A10A48CDE9004526F0C9
:10332000F1F87CBD000000204C45445F5461736B94
:1033300000000000893100084C56474C5F5461730F
:103340006B000000B1310008F0B587B01421684669
:10335000FCF7EEFF1B480024016841F020010160EA
:103360000068194F00F020000590012240213846E6
:10337000FEF735FB012280213846FEF730FB0122A3
:10338000160231463846FEF72AFB40200090012500
:10339000CDE90154694638460394FEF723FA8020AC
:1033A0000090CDE90154694638460394FEF71AFAB5
:1033B0000096CDE90154694638460394FEF712FAA7
:1033C00007B0F0BD303802400014024010B50AA02A
:1033D00001F0AEFF114810490023C0E90013CA14E0
:1033E0008360C0E903320721C0E90531BDE8104020
:1033F0000BA001F09DBF00005B53445D204D585F62
:103400005344494F5F53445F496E69743A20626583
:1034100067696E0D0A000000002C014090C1012078
:103420005B53445D204D585F5344494F5F53445FA5
:10343000496E69743A20436C6F636B4469763D252D
:103440006C752C20427573576964653D25752C2079
:10345000466C6F774374726C3D25750D0A00000051
:10346000FEE7FEE7044B4FF4007108B1012200E0D3
:1034700000221846FEF7B3BA0014024070B51C468D
:10348000154600F027F9044905FB04F00989BDE859
:10349000704000F045B8000084C0012001B50098DC
:1034A00001E0401E00900028FBD108BD194818B467
:1034B0004FF020410160194A17494160136800210B
:1034C00043F0010313601268042302F0010200922A
:1034D00000F150029C06C2E90031C2E902311161DB
:1034E000C2E9051408228360C0E903121022C0E972
:1034F00005211202C161C0E90912C1620163416381
:1035000081631102C16300F1500218BC1146FFF73C
:10351000E7BA000068440020040100A038380240E7
:1035200010B54FF0D0434FF4305400221C8001E01E
:103530005980521C8242FBD310BD00002D4810B5AB
:10354000016886B041F008010160016801F00801DE
:103550000591016841F010010160016801F010015E
:103560000591016841F020010160016801F020012E
:103570000591016841F040010160006800F04000E1
:1035800005901C480830016841F0010101600068A5
:10359000694600F00100059001200190029003208F
:1035A00003904FF4806000901348FEF71BF94FF42E
:1035B0000060124C009069462046FEF713F9022085
:1035C00001900C2004904CF23370009069460C4836
:1035D000FEF708F94FF68070009069460948FEF73B
:1035E00001F940F20120009069462046FEF7FAF802
:1035F00006B010BD303802400018024000140240EE
:10360000000C02400010024010B5072842D8234A9F
:10361000C4074FF4F07110704FF448733BD05380DF
:10362000A2F804104FF0D0414FF458530B804001E2
:1036300048804FF4285008800020488042F601203E
:1036400008800020488042F6022008805088401EF2
:10365000C0F307234B8042F603230B80C0B248809F
:103660004FF42C5008800020488042F6013008803A
:103670000020488042F6023008809088401EC0F347
:1036800007224A8042F603320A80C0B248804FF4D3
:103690003050088010BD51809380C3E784C0012062
:1036A00010B5FFF74BFFFFF701FF00F0FDFF00F043
:1036B00040F8074C2078FFF7A7FF0021A388628815
:1036C0000846FFF7DBFEBDE810400120FFF7CABE49
:1036D00084C0012030B54FF0D0444FF428552580E8
:1036E000050A658042F601252580C5B2658042F64F
:1036F000022525801044401E020A62806A1C228036
:10370000C0B260804FF42C502080080A608042F6DE
:1037100001302080C8B2608042F602302080C81894
:10372000401E010A618042F603312180C0B26080F0
:1037300030BD38B54FF0D0404FF470410180552175
:1037400041804FF201010180AA2141804FF2020124
:103750000180522141804FF2030101800821418004
:103760004FF204010180012141804FF4304101807A
:103770000D2141804BF2010101800D2141804BF26E
:10378000020101800D2141804FF4314101800D2162
:1037900041804BF2011101800D2141804BF2021159
:1037A00001800D2141804FF4324101800021418090
:1037B0004BF201210180002141804BF20221018066
:1037C000002141804FF436410180442141804BF279
:1037D00001610180442141804BF20261018044215A
:1037E00041804FF437410180342141804BF2017117
:1037F0000180342141804BF20271018034214180EB
:103800004FF438410180342141804BF601010180A1
:10381000342242804A1C0280342343804FF43F43C9
:103820000380012343804FF4334303800F234380FD
:103830004BF2013303800F2343804BF202330380AA
:103840000F2343804FF439430380342343804BF6E6
:1038500001130380342343804BF602130380342387
:1038600043804FF435430380082343804BF20153D8
:103870000380082343804BF20253038008234380D4
:103880004FF442430380032343804FF43A430380C1
:10389000342343804BF601230380342343804BF6CB
:1038A00002230380342343804FF43C4303800024ED
:1038B00044805C1C0480782545809D1C0580002583
:1038C00045804FF43D450580002545804BF6015568
:1038D0000580782545804BF60255058000254580FA
:1038E0004FF43E450580002545804BF60165058077
:1038F000642545804FF451450580002545804DF2F3
:1039000001150580332545804DF2021505800025FF
:1039100045804DF203150580342545804DF2041590
:103920000580002545804DF2051505803A25458026
:103930004DF206150580002545804DF207150580DE
:103940004A2545804DF208150580002545804DF239
:10395000091505805C2545804DF20A150580002576
:1039600045804DF20B150580812545804DF20C15E3
:103970000580002545804DF20D150580A625458062
:103980004DF20E150580002545804DF20F1505807E
:10399000E52545804DF210150580012545804DF245
:1039A00011150580132545804DF21215058001255E
:1039B00045804DF213150580542545804DF21415B0
:1039C0000580012545804DF215150580822545802D
:1039D0004DF216150580012545804DF2171505801D
:1039E000CA2545804DF218150580022545804DF207
:1039F00019150580002545804DF21A150580022510
:103A000045804DF21B150580012545804DF21C15A2
:103A10000580022545804DF21D1505803425458021
:103A20004DF21E150580022545804DF21F150580BB
:103A3000672545804DF220150580022545804DF211
:103A400021150580842545804DF22215058002252B
:103A500045804DF223150580A42545804DF224159F
:103A60000580022545804DF225150580B725458046
:103A70004DF226150580022545804DF2271505805B
:103A8000CF2545804DF228150580022545804DF251
:103A900029150580DE2545804DF22A150580022571
:103AA00045804DF22B150580F22545804DF22C15F1
:103AB0000580022545804DF22D150580FE254580A7
:103AC0004DF22E150580032545804DF22F150580FA
:103AD000102545804DF230150580032545804DF2B7
:103AE00031150580332545804DF2321505800325BB
:103AF00045804DF2331505806D2545804FF45245C4
:103B00000580002545804DF201250580332545803F
:103B10004DF202250580002545804DF203250580E4
:103B2000342545804DF204250580002545804DF261
:103B3000052505803A2545804DF20625058000259E
:103B400045804DF2072505804A2545804DF2082520
:103B50000580002545804DF2092505805C254580BE
:103B60004DF20A250580002545804DF20B25058084
:103B7000812545804DF20C250580002545804DF2BC
:103B80000D250580A62545804DF20E2505800025D2
:103B900045804DF20F250580E52545804DF2102525
:103BA0000580012545804DF21125058013254580AE
:103BB0004DF212250580012545804DF21325058023
:103BC000542545804DF214250580012545804DF290
:103BD00015250580822545804DF216250580012595
:103BE00045804DF217250580CA2545804DF21825E0
:103BF0000580022545804DF2192505800025458068
:103C00004DF21A250580022545804DF21B250580C1
:103C1000012545804DF21C250580022545804DF289
:103C20001D250580342545804DF21E250580022581
:103C300045804DF21F250580672545804DF22025E2
:103C40000580022545804DF221250580842545808B
:103C50004DF222250580022545804DF22325058061
:103C6000A42545804DF224250580022545804DF28E
:103C700025250580B72545804DF22625058002259E
:103C800045804DF227250580CF2545804DF228251A
:103C90000580022545804DF229250580DE254580D9
:103CA0004DF22A250580022545804DF22B25058001
:103CB000F22545804DF22C250580022545804DF2E8
:103CC0002D250580FE2545804DF22E2505800325F6
:103CD00045804DF22F250580102545804DF2302579
:103CE0000580032545804DF231250580332545802B
:103CF0004DF232250580032545804DF233250580A0
:103D00006D2545804FF453450580002545804DF2D3
:103D100001350580332545804DF2023505800025AB
:103D200045804DF203350580342545804DF204353C
:103D30000580002545804DF2053505803A254580F2
:103D40004DF206350580002545804DF2073505808A
:103D50004A2545804DF208350580002545804DF205
:103D6000093505805C2545804DF20A350580002522
:103D700045804DF20B350580812545804DF20C358F
:103D80000580002545804DF20D350580A62545802E
:103D90004DF20E350580002545804DF20F3505802A
:103DA000E52545804DF210350580012545804DF211
:103DB00011350580132545804DF21235058001250A
:103DC00045804DF213350580542545804DF214355C
:103DD0000580012545804DF21535058082254580F9
:103DE0004DF216350580012545804DF217350580C9
:103DF000CA2545804DF218350580022545804DF2D3
:103E000019350580002545804DF21A3505800225BB
:103E100045804DF21B350580012545804DF21C354E
:103E20000580022545804DF21D35058034254580ED
:103E30004DF21E350580022545804DF21F35058067
:103E4000672545804DF220350580022545804DF2DD
:103E500021350580842545804DF2223505800225D7
:103E600045804DF223350580A42545804DF224354B
:103E70000580022545804DF225350580B725458012
:103E80004DF226350580022545804DF22735058007
:103E9000CF2545804DF228350580022545804DF21D
:103EA00029350580DE2545804DF22A35058002251D
:103EB00045804DF22B350580F22545804DF22C359D
:103EC0000580022545804DF22D350580FE25458073
:103ED0004DF22E350580032545804DF22F350580A6
:103EE000102545804DF230350580032545804DF283
:103EF00031350580332545804DF232350580032567
:103F000045804DF2333505806D2545804FF454458D
:103F10000580002545804DF201450580332545800B
:103F20004DF202450580002545804DF20345058090
:103F3000342545804DF204450580002545804DF22D
:103F4000054505803A2545804DF20645058000254A
:103F500045804DF2074505804A2545804DF20845CC
:103F60000580002545804DF2094505805C2545808A
:103F70004DF20A450580002545804DF20B45058030
:103F8000812545804DF20C450580002545804DF288
:103F90000D450580A62545804DF20E45058000257E
:103FA00045804DF20F450580E52545804DF21045D1
:103FB0000580012545804DF211450580132545807A
:103FC0004DF212450580012545804DF213450580CF
:103FD000542545804DF214450580012545804DF25C
:103FE00015450580822545804DF216450580012541
:103FF00045804DF217450580CA2545804DF218458C
:104000000580022545804DF2194505800025458033
:104010004DF21A450580022545804DF21B4505806D
:10402000012545804DF21C450580022545804DF255
:104030001D450580342545804DF21E45058002252D
:1040400045804DF21F450580672545804DF220458E
:104050000580022545804DF2214505808425458057
:104060004DF222450580022545804DF2234505800D
:10407000A42545804DF224450580022545804DF25A
:1040800025450580B72545804DF22645058002254A
:1040900045804DF227450580CF2545804DF22845C6
:1040A0000580022545804DF229450580DE254580A5
:1040B0004DF22A450580022545804DF22B450580AD
:1040C000F22545804DF22C450580022545804DF2B4
:1040D0002D450580FE2545804DF22E4505800325A2
:1040E00045804DF22F450580102545804DF2304525
:1040F0000580032545804DF23145058033254580F7
:104100004DF232450580032545804DF2334505804B
:104110006D2545804FF455450580002545804DF2BD
:1041200001550580332545804DF202550580002557
:1041300045804DF203550580342545804DF20455E8
:104140000580002545804DF2055505803A254580BE
:104150004DF206550580002545804DF20755058036
:104160004A2545804DF208550580002545804DF2D1
:10417000095505805C2545804DF20A5505800025CE
:1041800045804DF20B550580812545804DF20C553B
:104190000580002545804DF20D550580A6254580FA
:1041A0004DF20E550580002545804DF20F550580D6
:1041B000E52545804DF210550580012545804DF2DD
:1041C00011550580132545804DF2125505800125B6
:1041D00045804DF213550580542545804DF2145508
:1041E0000580012545804DF21555058082254580C5
:1041F0004DF216550580012545804DF21755058075
:10420000CA2545804DF218550580022545804DF29E
:1042100019550580002545804DF21A550580022567
:1042200045804DF21B550580012545804DF21C55FA
:104230000580022545804DF21D55058034254580B9
:104240004DF21E550580022545804DF21F55058013
:10425000672545804DF220550580022545804DF2A9
:1042600021550580842545804DF222550580022583
:1042700045804DF223550580A42545804DF22455F7
:104280000580022545804DF225550580B7254580DE
:104290004DF226550580022545804DF227550580B3
:1042A000CF2545804DF228550580022545804DF2E9
:1042B00029550580DE2545804DF22A5505800225C9
:1042C00045804DF22B550580F22545804DF22C5549
:1042D0000580022545804DF22D550580FE2545803F
:1042E0004DF22E550580032545804DF22F55058052
:1042F000102545804DF230550580032545804DF24F
:1043000031550580332545804DF232550580032512
:1043100045804DF2335505806D2545804FF4564557
:104320000580002545804DF20165058033254580D7
:104330004DF202650580002545804DF2036505803C
:10434000342545804DF204650580002545804DF2F9
:10435000056505803A2545804DF2066505800025F6
:1043600045804DF2076505804A2545804DF2086578
:104370000580002545804DF2096505805C25458056
:104380004DF20A650580002545804DF20B650580DC
:10439000812545804DF20C650580002545804DF254
:1043A0000D650580A62545804DF20E65058000252A
:1043B00045804DF20F650580E52545804DF210657D
:1043C0000580012545804DF2116505801325458046
:1043D0004DF212650580012545804DF2136505807B
:1043E000542545804DF214650580012545804DF228
:1043F00015650580822545804DF2166505800125ED
:1044000045804DF217650580CA2545804DF2186537
:104410000580022545804DF21965058000254580FF
:104420004DF21A650580022545804DF21B65058019
:10443000012545804DF21C650580022545804DF221
:104440001D650580342545804DF21E6505800225D9
:1044500045804DF21F650580672545804DF220653A
:104460000580022545804DF2216505808425458023
:104470004DF222650580022545804DF223650580B9
:10448000A42545804DF224650580022545804DF226
:1044900025650580B72545804DF2266505800225F6
:1044A00045804DF227650580CF2545804DF2286572
:1044B0000580022545804DF229650580DE25458071
:1044C0004DF22A650580022545804DF22B65058059
:1044D000F22545804DF22C650580022545804DF280
:1044E0002D650580FE2545804DF22E65058003254E
:1044F00045804DF22F650580102545804DF23065D1
:104500000580032545804DF23165058033254580C2
:104510004DF232650580032545804DF233650580F7
:104520006D2545804FF470450580552545804FF237
:1045300001050580AA2545804FF202050580522518
:1045400045804FF203050580082545804FF204059C
:104550000580002545804FF4354505805025458070
:104560004FF431450580CC2545804BF2011505807F
:10457000002545804FF436450580052545804FF4DC
:1045800037450580772545804BF2017505807725F5
:1045900045804D1E05800125458001800321418015
:1045A00002804180511C018003214180038002214F
:1045B0004180048000214180991C018000214180BC
:1045C0004FF43D410180012141804BF601510180B2
:1045D000842141804BF6025101801C2141804BF621
:1045E000035101801C2141804BF6045101800021C0
:1045F00041804FF449410180D02141804CF60111A6
:104600000180022141804CF602110180502141803D
:104610004CF603110180502141804CF604110180B9
:10462000502141804FF458510180002141804FF4C6
:1046300054510180002141804FF47F410180AA2123
:1046400041804FF601710180552141804FF6027182
:104650000180252141804FF60371018001214180B5
:104660004FF47C410180162141804FF601410180C9
:10467000A22141804FF602410180262141804FF462
:1046800068510180062242800180552141804FF40B
:10469000885101806FF07F410091491E0091FCD14B
:1046A0004FF42451018038BD70B50B4D4FF40064B8
:1046B000002221462846FDF792F940F6FF263046B3
:1046C000FEF7ECFE012221462846FDF788F9304628
:1046D000BDE87040FEF7E2BE0014024010B5084B82
:1046E00014465A8890420AD29A88914207D200F022
:1046F00009F82146BDE810400120FEF711BF10BDAA
:1047000084C0012001231A46FEF7E4BF0A68426212
:104710004A688262D1E902231A43D1E904310B438A
:10472000C16A1A4321F0F7011143C16200207047AA
:10473000006800F0030070470844406970470000BB
:104740000148FDF70FBE000090C1012070B50DF1CA
:10475000100C11439CE8700023431943294342681D
:10476000314347F6FF639A430A434260002070BD1D
:1047700010B5032101600220FDF728F8002010BDCC
:10478000D0F8800070470A688260D1E901231A439B
:10479000D1E903310B43C1681A436FF30B01114395
:1047A000C160002070470968C0F880100020704781
:1047B00010B586B004463720CDE9001040200290A5
:1047C000002003904FF48060049069462046FFF774
:1047D000DAFF41F288323721204600F08DF906B029
:1047E00010BD000010B504460A4886B001432920D8
:1047F000CDE9001040200290002003904FF480602B
:10480000049069462046FFF7BEFF204600F02CFAD0
:1048100006B010BD0000108010B586B00446102010
:10482000CDE9001040200290002003904FF48060FA
:10483000049069462046FFF7A6FF41F28832102116
:10484000204600F059F906B010BD000030B585B023
:1048500000240546009401944FF480600294CDE951
:10486000034069462846FFF78EFF0B484FF4FA5184
:104870000068B0FBF1F041F288314843401E03D29A
:104880004FF0004005B030BD696B0906F6D5C52074
:10489000A8632046F6E7000000C0012070B585B08F
:1048A00004464FF4D570009001A908204025002649
:1048B00081E86100C001049069462046FFF763FF6C
:1048C00012484FF4FA510068B0FBF1F041F2883120
:1048D0004843401E03D24FF0004005B070BD616BED
:1048E00011F0450FF5D00905F3D4606B400701D5F1
:1048F000042003E0606BC00702D00120A063ECE756
:10490000606B400600D5A5633046E6E700C0012095
:1049100010B586B004461220CDE900104020029068
:10492000002003904FF48060049069462046FFF712
:104930002AFF41F288321221204600F0DDF806B04D
:1049400010BD10B586B004461120CDE900104020FE
:104950000290002003904FF4806004906946204646
:10496000FFF711FF41F288321121204600F0C4F810
:1049700006B010BD10B586B004460720CDE9002072
:1049800040200290002003904FF48060049069461C
:104990002046FFF7F8FE41F288320721204600F05A
:1049A000ABF806B010BD10B586B004460021022059
:1049B000CDE90010C020CDE902014FF480600490E1
:1049C00069462046FFF7DFFE204600F025F906B0D5
:1049D00010BD10B586B004460920CDE90010C020F6
:1049E0000290002003904FF48060049069462046B6
:1049F000FFF7C9FE204600F00FF906B010BD10B554
:104A000086B004460D20CDE9001040200290002021
:104A100003904FF48060049069462046FFF7B3FE90
:104A200041F288320D21204600F066F806B010BD34
:104A300030B585B00C46054600210320CDE90010B5
:104A40004020CDE902010001049069462846FFF7A5
:104A50009AFE22460321284600F028F905B030BD11
:104A600010B586B0044600210C20CDE9001040208E
:104A7000CDE902010001049069462046FFF783FE5C
:104A8000034A0C21204600F037F806B010BD0000A4
:104A900000E1F50510B586B004461920CDE90010F7
:104AA00040200290002003904FF4806004906946FB
:104AB0002046FFF768FE41F288321921204600F0B7
:104AC0001BF806B010BD10B586B004461820CDE91D
:104AD000001040200290002003904FF4806004906A
:104AE00069462046FFF74FFE41F2883218212046E2
:104AF00000F002F806B010BD454B10B51B684FF42E
:104B0000FA54B3FBF4F353435B1E02D24FF0004060
:104B100010BD426B12F0450FF6D01205F4D4426B73
:104B2000520703D504218163084610BD426BD207AA
:104B300002D00121816305E0C52282630269D2B2FD
:104B40008A4201D0012010BD0021FFF7F5FD314957
:104B5000084201D1002010BD002802DA4FF0007099
:104B600010BD410001D5402010BD810001D580203D
:104B700010BDC10002D54FF4807010BD010102D5F7
:104B80004FF4007010BD410102D54FF4806010BD9C
:104B9000C10102D54FF4006010BD010202D54FF4EF
:104BA000805010BD410202D54FF4005010BD81026B
:104BB00002D54FF4804010BDC10202D54FF4004031
:104BC00010BD410302D54FF4003010BD810302D562
:104BD0004FF4802010BDC10302D54FF4002010BD5A
:104BE000010402D54FF4801010BD410402D54FF4EA
:104BF000001010BD810402D54FF4800010BD0007E5
:104C000002D54FF4000010BD4FF4803010BD0000FD
:104C100000C0012008E0FFFD12494FF4FA52096874
:104C2000B1FBF2F141F288325143491E02D24FF0FA
:104C300000407047426B12F0450FF6D01205F4D4D5
:104C4000416B490703D50421816308467047416BD6
:104C5000C90703D00121816308467047C5218163DC
:104C60000020704700C001200F494FF4FA52096834
:104C7000B1FBF2F141F288325143491E02D24FF0AA
:104C800000407047426B12F0450FF6D01205F4D485
:104C9000416B490703D50421816308467047C5214C
:104CA000816300207047000000C0012030B5204B18
:104CB0004FF4FA541B68B3FBF4F341F288346343B6
:104CC0005B1E02D24FF0004030BD446B14F0450F24
:104CD000F6D02405F4D4436B5B0703D5042181632C
:104CE000084630BD436BDB0702D00121816303E03E
:104CF0000369DBB28B4201D0012030BDC521816345
:104D00000021FFF719FD10F4604F04D0410406D5CF
:104D10004FF4005030BD000C1080002030BD000466
:104D200002D54FF4805030BD4FF4803030BD0000CC
:104D300000C0012010B5846BFCF7D3FB022828D0FB
:104D4000206C416DE06B406D012901D001281DD11F
:104D50002168104888632068C16B21F49D71C1638C
:104D6000A06B40F08040A0632046FDF7E5FA0628DE
:104D700001D0052805D12068FFF772FEA16B08431A
:104D8000A063012084F83400002020632046FDF752
:104D9000F4F910BDFF05400010B5846B206B82282C
:104DA00009D12068FFF75CFE28B1A16B0143A16324
:104DB0002046FDF7E2F92068C16A21F00801C162CE
:104DC000216840F23A508863012084F834000020C2
:104DD00020632046FDF7F2FD10BD10B5846B40F254
:104DE0003A50216888632046FDF7A6FA012184F82D
:104DF000341000212163062801D0052805D1206840
:104E0000FFF72EFEA16B0843A063A06B002820468D
:104E100002D0FDF7B2F910BDFDF7AEF910BD806B01
:104E20000068C16B41F48071C163704710B5846B39
:104E300040F23A50216888632046FDF77DFA01214F
:104E400084F8341000212163062801D0052805D1FB
:104E50002068FFF705FEA16B0843A063A06B002844
:104E6000204602D0FDF789F910BDFDF785F910BD88
:104E700010B590B004460120ADF838002068FFF767
:104E800057FC002854D0606C032842D02068FFF7FC
:104E90008AFD00284AD100212068FFF74DFC606799
:104EA00004212068FFF748FCA06708212068FFF76D
:104EB00043FCE0670C212068FFF73EFCC4F880004B
:104EC000606C032825D00EA92068FFF7B1FD0028EB
:104ED0002CD1606C03281CD0BDF83800206501047B
:104EE0002068FFF776FD002820D100212068FFF719
:104EF00023FC606604212068FFF71EFCA0660821E1
:104F00002068FFF719FCE0660C212068FFF714FC0D
:104F1000206704212068FFF70FFC000DE06403A95F
:104F20002046FDF72BF930B14FF0805010B010BD86
:104F30004FF08060FAE7B4F85000002302042068C4
:104F4000FFF718FD0028F1D104F1100007C88DE823
:104F5000070094E80F00FFF7F9FB0020E6E70000E8
:104F60002DE9F84F0026044600963546B046006805
:104F7000FFF76CFC002827D12068FFF78FFC4FF06B
:104F8000805B4FF001094FF6FF7748B1A6642068B7
:104F9000FFF75CFC002817D1A06C012802D020E0AC
:104FA000C4F8489000212068FFF702FC58B918E0C7
:104FB00000212068FFF7FCFB002805D1514620683E
:104FC000FFF710FC10B15846BDE8F88F00212068AB
:104FD000FFF7B2FB05464FEAD0780098401C0090DE
:104FE00002E0DFF82CA00098B84202D2B8F1000F1E
:104FF000DED00098B84202D34FF08070E4E768003A
:1050000002D5C4F8449000E066640020DCE70000AC
:10501000000010C110B54FF0E020006924F0CAFA7A
:10502000012803D0BDE8104023F0D8BF10BD000018
:1050300030B593B030216846FBF77AF914210CA8FB
:10504000FBF776F91D480025016841F080510160A9
:10505000006800F0805011901948016841F48041C7
:1050600001600068022400F4804011900120039048
:1050700010200490009406940820CDE90750A82041
:10508000CDE9090407200B906846FCF783FE08B1C0
:1050900072B6FEE70CA90F2081E831004FF4A05052
:1050A0000F904FF48050109005210CA8FCF768FD7C
:1050B000002801D072B6FEE713B030BD4038024080
:1050C000007000400248016841F4700101607047BF
:1050D00088ED00E00148FDF7A0BD000048C10120B7
:1050E000F0B50268254C264D264E274F274B4FF032
:1050F000804CA04209D0604507D0A84205D0B042FC
:1051000003D0B84201D0984204D122F0700E4A6810
:1051100042EA0E02A0421BD0604519D0A84217D027
:10512000B04215D0B84213D0984211D0184DA842C1
:105130000ED0184DA8420BD0174DA84208D0174DDD
:10514000A84205D0164DA84202D0164DA84203D160
:1051500022F44075CA682A434D6922F080022A432E
:1051600002608A68C2620A688262A04201D09842E4
:1051700001D10969016301214161F0BD00000140D5
:105180000004004000080040000C00400004014002
:105190000040014000440140004801400018004028
:1051A000001C00400020004070B504460068016902
:1051B000E26821F44051114301612169A068E2696C
:1051C00008436169114308432168CA6849F20C63C6
:1051D0009A430243CA6020684169A26921F4407180
:1051E0001143416131492068884202D030498842E8
:1051F00002D1FCF78FFD01E0FCF77CFDE2690023A2
:10520000192164253226B2F5004F626828D0A0FB30
:105210000101930F9200FBF733F80146B0FBF5F064
:105220006FF01802504301EB800006EB0010B0FB5A
:10523000F5F000F0F002B1FBF5F002EB0012B1FB6B
:10524000F5F06FF01803584301EB800006EB0010F7
:10525000B0FBF5F000F00F0021681044886070BDCD
:10526000A0FB010192185B41FBF70AF80146B0FB75
:10527000F5F00201B1FBF5F06FF01803584301EBB4
:10528000800006EBC000B0FBF5F000F0F80002EB88
:105290004002B1FBF5F0584301EB800006EBC00083
:1052A000B0FBF5F000F00700D6E700000010014069
:1052B000001401402DE9F041984617460E46044679
:1052C000069D27E0681C25D02DB1FCF78DFBA0EBD7
:1052D0000800A8421ED920680C3050E8001F21F4B5
:1052E000D07140E80012002AF5D12068143050E84F
:1052F000001F21F0010140E80012002AF5D1202012
:1053000084F83D0084F83E00002084F83C0003202F
:10531000BDE8F0812068006836EA000004D0002073
:10532000B842CFD00020F3E70120F9E7FEE7000004
:105330000FB4054B10B503A9044A029801F02AFEE8
:1053400010BC5DF814FB00004D0E01086C0100203C
:105350000907090E002804DB00F1E02080F80014A2
:10536000704700F00F0000F1E02080F8141D704736
:1053700002E008C8121F08C1002AFAD1704770471E
:10538000002001E001C1121F002AFBD1704770B557
:10539000044600256FF02F0608E02068411C2160BC
:1053A000007805EB850106EB41014518206800787F
:1053B00000F004F80028F0D1284670BD30380928E4
:1053C00001D80120704700207047000010B540212F
:1053D000074801F013F900220F2106481EF006F8D5
:1053E000054CA06002F094FB0020207010BD00006E
:1053F0008CC30020B97B0008F8C0012070B5B1F95A
:105400000030B2F90040A34200DC23460380B1F92A
:105410000250B2F90240A54200DD2C464480B1F9A9
:105420000460B2F90450AE4200DA35468580B1F925
:105430000610B2F90620914200DB1146C18001201E
:10544000AB4201DC8C4200DD002070BDF8B50D469A
:105450000446B0F90000B1F900101646884247DB57
:10546000B4F90210B5F90220914241DBB4F90410FD
:10547000B5F9042091423BDCB4F90610B5F90620D9
:10548000914235DC96B3ADF800006088ADF80200BB
:1054900032466946284600F099F8002827D0A088AF
:1054A000ADF800006088ADF8020032466946284633
:1054B00000F08CF800281AD02088ADF80000E088B1
:1054C000ADF8020032466946284600F07FF8002811
:1054D0000DD0A088ADF80000E088ADF8020032469B
:1054E0006946284600F072F8002800D00120F8BD77
:1054F0000020F8BDB0F90020B1F904309A4213DC65
:10550000B0F90420B1F900309A420DDBB0F9022065
:10551000B1F906309A4207DCB0F90600B1F9021081
:10552000884201DB0120704700207047F8B50D4626
:105530000446B0F90400B1F900101646884243DB76
:10554000B4F90600B5F9021088423DDBB4F9000059
:10555000B5F90410884237DCB4F90210B5F9062019
:10556000914231DC76B3ADF800006088ADF80200FE
:1055700032466946284600F029F818BBA088ADF8E5
:1055800000006088ADF8020032466946284600F007
:105590001DF8B8B92088ADF80000E088ADF8020029
:1055A00032466946284600F011F858B9A088ADF88F
:1055B0000000E088ADF8020032466946284600F057
:1055C00005F808B10020F8BD0120F8BD2DE9FC4127
:1055D00014460E46B1F90020B0F9001005468A4283
:1055E0003ADBB5F90400824236DCB6F90270B5F94F
:1055F0000220974230DBB5F906309F422CDC002CAC
:1056000075DD401A9A1A401C521C00B212B200EB0F
:10561000D07002EBD27240105210904200DB104664
:10562000844200DD0446ADF80010288800222044A2
:10563000ADF804006888ADF802006888314620445F
:10564000ADF806006846FFF7C1FF40B1BDF80400A1
:105650002044ADF804003FE00020BDE8FC81E8886C
:105660000022001BADF80200E888ADF806003146C4
:105670006846FFF7ABFF28B1BDF804002044ADF841
:10568000040011E0A8880022001BADF80000A888E3
:10569000ADF8040031466846FFF798FF50B1BDF8F9
:1056A0000000001BADF80000BDF80200001BADF8C3
:1056B000020016E06888ADF80200688800222044E5
:1056C000ADF8060031466846FFF780FF70B1BDF8BF
:1056D0000000001BADF80000BDF806002044ADF846
:1056E0000600314668461BF0D7F9B6E7FFE7012010
:1056F000B3E710B5B1F90040B2F900309C4200DACE
:1057000023460380B1F90240B2F902309C4200DA2C
:1057100023464380B1F90440B2F904309C4200DDD5
:1057200023468380B1F90610B2F90620914200DCCD
:105730001146C18010BD0000FEB505461DF004FEF7
:105740000026784C074600960DB1E86801E010F09D
:1057500009FF606000691BF03BF96068406908B1AF
:105760001BF036F96068C0691BF032F96068006AA6
:105770001BF02EF960680169F1B31BF0CDFB1BF043
:1057800049FB6068B0F8501199B30168097C89073A
:1057900015D510F045FF401E05B2606810F0FAFE06
:1057A000401E03B20022114601A800950EF097FD9D
:1057B000606801A90268926B516004F083FC606824
:1057C0004FF48071303016F0E7FE6068202100F55C
:1057D000987016F0E1FE6068A0F8506138461DF040
:1057E000ADFD009060680068436A13B122680099BB
:1057F000984716F013FD00E007E000F0CDF800F048
:105800009FF8494D6F691FB149E0A0F85061FEBD96
:1058100010F0A8FE10F0D4FE15F0FCFB07460022A5
:105820007F211BF007F800221146104610F0B8F94E
:105830000190BDF80410002238461AF0E9FFFF225B
:105840001146104610F0ACF90190BDF8041000228A
:1058500038461BF04DF80022032138461BF03CF877
:105860000022032138461BF025F800220321384688
:105870001BF026F80022032138461BF027F80022EF
:10588000032138461BF02EF828A1384616F02CFAD2
:1058900000231A460621384617F046FA6F61286839
:1058A0001DF04CFDB0F5967F0CD2206841F2883196
:1058B0008842ACD96868009908446860A868401CB0
:1058C000A860FEBD1DF040FD286060684FF47A714D
:1058D00040680068B1FBF0F0696809B901216960AE
:1058E000A968E1B14FF47A7251436A68B1FBF2F4EE
:1058F0006E60AE60844200D9044628692044286165
:10590000E868401CE8601DF0A3FDC0F1640303B02B
:1059100022463846BDE8F04005A116F01CBA044600
:10592000E6E7000054000020F4C801203F0000001A
:105930002575204650530A257525252043505500CE
:1059400070B50A4D002400BFC4EBC40655F826000C
:1059500008B116F0D7FC05EB86001C2116F01CFEE2
:10596000641CE4B2042CEFD370BD000068C40020B6
:10597000084949680AE04A68824202D00A688242BD
:1059800003D10A7E42F001020A7649690029F2D168
:105990007047000090C001207047000004210148BA
:1059A00000F02CBE80C300201C21014800F026BE60
:1059B00098C300202DE9FF5F0446DDE90E0613B908
:1059C000B0F5807F7ED0B6F900504FF0FF376D42C2
:1059D000454307EB25252DB22580B6F902C0CCF151
:1059E000000C0CFB00FC07EB2C273FB26780B6F9DC
:1059F00000C0A1EB0C0141434FF0020C0CEB212144
:105A000009B2A180B6F90280A2EB080242430CEB76
:105A1000222000B2E080002B7ED04FF00A0A93FBD8
:105A2000FAF5684200EB800003EB400705F101093D
:105A300028B21DF0EFFE00900FFA89F01DF0EAFE8B
:105A400083465A3528B21DF0E5FE804609F15A001A
:105A500000B21DF0DFFE0146009AC7F10A0000FB0C
:105A600002F300FB08F00BFB073301FB070193FB7C
:105A7000FAF291FBFAF04FEA601AB4F90010B4F9A7
:105A800002000AFB01FCCDF80CC05511378805FB5C
:105A900010C207EBA2220FFA82F905FB01F2BB4606
:105AA000029277880AFB002107EBA1210BB2B4F91F
:105AB0000410BE460AFB01FC05FB10C20BEBA22240
:105AC00016B200E02FE005FB01F7CDE9007CB4F948
:105AD0000680DDF80CC00AFB007005FB18C1DDF87C
