:020000040800F2
:10000000B88801205D020008331D0008D3180008DD
:10001000311D00083B040008F53200080000000014
:100020000000000000000000000000009D0100082A
:100030007504000800000000F9010008DD2F000829
:1000400077020008770200087702000877020008AC
:10005000770200087702000877020008770200089C
:10006000770200087702000877020008770200088C
:10007000770200087702000877020008770200087C
:10008000770200087702000877020008770200086C
:100090007702000877020008770200088904000848
:1000A000770200087702000877020008770200084C
:1000B00077020008770200089D30000877020008E8
:1000C000770200087702000877020008770200082C
:1000D000770200087702000877020008770200081C
:1000E000770200087702000877020008770200080C
:1000F00077020008770200087702000877020008FC
:1001000077020008770200087702000877020008EB
:1001100077020008770200087702000877020008DB
:1001200077020008770200087702000877020008CB
:1001300077020008770200087702000877020008BB
:1001400077020008770200087702000877020008AB
:10015000770200087702000877020008770200089B
:10016000770200087702000877020008770200088B
:1001700077020008770200087702000800000000FC
:100180007702000877020008DFF80CD000F018F9B9
:1001900000480047391D0208B88801202C4B196817
:1001A0000868B0E8F04F80F30988BFF36F8F4FF015
:1001B000000080F3118870470000000008480068C4
:1001C000006880F308884FF0000080F3148862B65E
:1001D00061B6BFF34F8FBFF36F8F00DF00BF00BF6B
:1001E00008ED00E0DFF80C00016841F470010160E7
:1001F000704700BF88ED00E0EFF30980BFF36F8F19
:10020000134B1A681EF0100F08BF20ED108A20E96A
:10021000F04F106009B44FF0500080F31188BFF325
:100220004F8FBFF36F8F26F069FD4FF0000080F312
:10023000118809BC19680868B0E8F04F1EF0100F6B
:1002400008BFB0EC108A80F30988BFF36F8F704746
:1002500000000020EFF3058070470000064880474B
:1002600006480047FEE7FEE7FEE7FEE7FEE7FEE79B
:10027000FEE7FEE7FEE7FEE78D3000088901000893
:100280002DE9F05F0546002092469B4688460646CB
:10029000814640241BE0284641464746224600F05E
:1002A0007FF853465A46C01A914110D3114618465A
:1002B000224600F066F82D1A67EB01084F462246E9
:1002C0000120002100F05DF817EB00094E41201ECF
:1002D000A4F10104DFDC484631462A464346BDE826
:1002E000F09F10B5431A934209D28318881803E08F
:1002F00010F8011D03F8011D521EF9D210BD40EA8D
:1003000001039B0703D009E008C9121F08C0042A93
:10031000FAD203E011F8013B00F8013B521EF9D27A
:1003200010BDD2B201E000F8012B491EFBD270478C
:100330000022F6E710B513460A4604461946FFF7B1
:10034000F0FF204610BD421C10F8011B0029FBD114
:10035000801A704710B5002200E0521C835C8C5C50
:10036000A34201D1002BF8D1D8B2E1B2401A10BD9E
:10037000034611F8012B00F8012B002AF9D1184689
:100380007047202A04DB203A00FA02F1002070476F
:100390009140C2F1200320FA03F3194390407047C3
:1003A000202A04DB203A21FA02F00021704721FACA
:1003B00002F3D040C2F12002914008431946704731
:1003C000064C074D06E0E06840F0010394E80700A2
:1003D00098471034AC42F6D3FFF7DAFE1CC002088F
:1003E0005CC0020870B58C1810F8015B15F00703AB
:1003F00001D110F8013B2A1106D110F8012B03E0BE
:1004000010F8016B01F8016B5B1EF9D12B0705D4C5
:100410000023521E0DD401F8013BFAE710F8013B0E
:10042000CB1A921C03E013F8015B01F8015B521E2A
:10043000F9D5A142D8D3002070BDFEE710B50C4C11
:100440000A4820604FF4E13060600020A060E06066
:100450002061A0610C206061204601F06EF92068E7
:10046000C16841F02001C16010BD000000100140D2
:1004700034440020704701B5009801E0401E009010
:100480000028FBD108BD000010B5044C2068C00551
:1004900003D500F08FFAA015206010BD143C014078
:1004A00070B5B3F5804F05D06FF0704140F8221061
:1004B000002070BD50F82240084B8E891C40D1E9C5
:1004C000003543EA05138D6889692D0245EA064522
:1004D0002B430B43234340F82230E9E70000F0CFE1
:1004E000F0B50C6850F82430114A1340D1E90125C9
:1004F000D1E903672A433E4332434E6932438E6952
:100500003243CE6932430E6A32434E6A32438E6AB8
:100510003243CE6A3243CE6B096B32430A431A43ED
:10052000082D01D142F0400240F824200020F0BD07
:100530008000F0FF30B500EB820250688D8900F03A
:100540004043D1E9000440EA04108C68240244EAE4
:10055000054420430C8A074D05EB045420430C7DD1
:100560006D0105EB0464896920430843184350601A
:10057000002030BD0000F0FFFEB50020224C0090AE
:10058000019002902078214D00EB400005EB4000E7
:100590000A228088401C010A8DF800108DF80100A5
:1005A0006946BA2000F052F8002820DB9DF80200CE
:1005B0009DF80310032200EB012087B29DF8040090
:1005C0009DF8051000EB012086B2207800EB40007A
:1005D00005EB40008088801D010A8DF800108DF821
:1005E00001006946BA2000F031F8002801DA002045
:1005F000FEBD9DF80200324600F00303394604A018
:1006000002F07AFE0120FEBD480000204879020871
:100610003C3C2D4754502D494E464F2D3E3E2058D0
:100620005F4D4158203D2025642C20595F4D415895
:10063000203D2025642C2054524947474552203DF7
:10064000203078253032780A00000000F0B587B0FD
:100650000D460221ADF8041000240121ADF802403E
:10066000ADF80E108DF800008DF80C00901EADF85E
:100670001000A81C1646029505900221684601F05C
:10068000F3F90746022803D0641C052CF5DB01E0D2
:10069000052C06DB28883B4641BAB21E024802F010
:1006A0002BFE07B03846F0BDACBA020838B50020C2
:1006B000009011480025007800EB40010F4800EB46
:1006C00041008088010A8DF800108DF801006C1E31
:1006D0000BE003226946BA20FFF7B8FF44B2002CB2
:1006E00008DC294606A002F007FE28466D1CEDB284
:1006F0000528EED3204638BD48000020487902087E
:100700003C3C2D4754502D4552524F522D3E3E20D9
:1007100047545020693263207465737420666169A0
:100720006C65642074696D652025642E0A000000E4
:10073000FEB50024ADF8024016460F468DF80000C5
:10074000ADF8042002910121684601F08DF90546BB
:10075000012803D0641C052CF5DB01E0052C06DB29
:1007600038882B4641BAB21E024802F0C5FD284621
:10077000FEBD0000FCBA020810B501F06BF9FFF7EE
:1007800095FF040004D506A002F0B6FD204610BD7A
:1007900000F01CF801F0ECF8FFF7EEFE002010BDB1
:1007A0003C3C2D4754502D4552524F522D3E3E2039
:1007B00049324320636F6D6D756E69636174696F53
:1007C0006E204552524F52210A00000030B5484970
:1007D00085B00822D1E90201CDE9030103A9BA20BD
:1007E000FFF734FF050003D542A002F085FD7BE052
:1007F0009DF80E104A4C352918D09DF81120002A7A
:1008000035D09DF812009DF813300092CDE90130EB
:10081000372A9DF810309DF80F2042A042D002F0F8
:100820006BFD9DF80E00392850D05DE09DF8110059
:100830009DF812309DF813208DE80D009DF81030C2
:100840009DF80F2043A002F057FD9DF80E003528BB
:100850004AD19DF80F00362846D19DF8100038285F
:1008600042D19DF8110038283ED102203BE09DF88E
:1008700012209DF81300CDE900029DF810309DF87C
:100880000F2040A002F038FD9DF80E0039282BD132
:100890009DF80F00312827D19DF81000312823D171
:1008A000012020E002F028FD9DF80E0039281BD120
:1008B0009DF80F00312817D19DF81000342813D16E
:1008C0009DF8110037280FD103200CE09DF80F0090
:1008D000312809D19DF81000352805D19DF8110067
:1008E000372801D10420207005B0284630BD000013
:1008F000387902083C3C2D4754502D4552524F52F6
:100900002D3E3E204754502072656164207665720A
:1009100073696F6E206661696C65640A000000008F
:10092000480000203C3C2D4754502D494E464F2D49
:100930003E3E204943332056657273696F6E3A20FC
:1009400025632563256325635F25303278253032A2
:10095000780A00003C3C2D4754502D494E464F2DFF
:100960003E3E204943312056657273696F6E3A20CE
:1009700025632563256325635F2530327825303272
:10098000780A00003C3C2D4754502D494E464F2DCF
:100990003E3E204943322056657273696F6E3A209D
:1009A0002563256325635F25303278253032780A48
:1009B0000000000000F012B80148B0F906007047CE
:1009C000480000200148B0F90200704748000020AC
:1009D0000148B0F904007047480000202DE9F043B9
:1009E00042A099B00068189028210DF130080DA898
:1009F000FFF79EFC3E4F00250C2238680C90BA2071
:100A000081460CA9FFF722FE010005D539A002F0AE
:100A100073FC19B0BDE8F0839DF832000028F8D0CF
:100A2000010658D500F00F04052C54D8012C14D918
:100A300002AE2421301DFFF77BFC786802906FF036
:100A4000050000EBC40202A94846FFF7FFFDE200E3
:100A5000B11C0FA8083AFFF744FC324814BB35E03C
:100A600008EBC5012F4BCA78143302F00F025A5518
:100A70002D4B8A88C9881B78082B12D2DFE803F037
:100A800004070A0D1A1D2023C0E9032109E0C0E96B
:100A9000031206E0C2F5F072F6E7C160C2F5F0712C
:100AA00001616D1CA542DBDB81894180018A818067
:100AB00001210EE0C1F54871E6E7C1F54871E6E7AE
:100AC000C2F5F072F6E7C1F54871E6E7018909B1B0
:100AD0000021C1800481032218A94846FFF728FE9F
:100AE000002896DA11A002F007FC92E7814E000080
:100AF000387902083C3C2D4754502D4552524F52F4
:100B00002D3E3E20493243207472616E73666572D9
:100B1000206572726F722E206572726E6F3A256454
:100B20000A200A0048000020620000203C3C2D47BB
:100B300054502D494E464F2D3E3E2049324320779A
:100B40007269746520656E645F636D64206572729E
:100B50006F72210A000000002DE9F84FDFF8BCA1F8
:100B6000002201250AF1040B03264FF00F090BF1B7
:100B7000040E00BF0B6805FA02F42340A34270D1B3
:100B80000F7907F00307012F01D0022F16D18768D4
:100B90004FEA420806FA08FC27EA0C07D1F80CC015
:100BA0000CFA08FC4CEA070CC0F808C04768A743D9
:100BB0000C79C4F3001494403C4344600C79E44342
:100BC000A4070AD0C4684FEA420C06FA0CF7BC43EB
:100BD0008F6807FA0CF72743C7600C7904F0030409
:100BE000022C12D1D40800EB840CDCF8204057070B
:100BF000FF0E09FA07F824EA0804D1F8108008FA71
:100C000007F848EA0408CCF8208004684FEA420C50
:100C100006FA0CF7BC430F7907F0030707FA0CF745
:100C2000274307604C6814F4403F70D03C4C276861
:100C300047F480472760246822F0030704F48044C7
:100C40000094384C07EB040CDCF8084897074FEA8F
:100C5000177809FA08F7BC43334FB84202D100278E
:100C600024E054E0314FB84201D101271EE0304F5B
:100C7000B84201D1022719E02E4FB84201D1032713
:100C800014E02D4FB84201D104270FE02B4FB8429A
:100C900001D105270AE02A4FB84201D1062705E015
:100CA000284FB84201D1072700E0082707FA08F7C4
:100CB0002743CCF80878DAF800405746D1F804C04A
:100CC0009C435FEACC3C00D51C433C60DBF8004011
:100CD0005F46D1F804C09C435FEA8C3C00D51C43BE
:100CE0003C60DEF800407746D1F804C09C435FEAE0
:100CF000CC2C00D51C433C60084F0C373C68D1F825
:100D000004C09C435FEA8C2C00D51C433C60521C01
:100D1000102AFFF42FAFBDE8F88F0000003C01401F
:100D2000443802400030014000000240000402400C
:100D300000080240000C0240001002400014024073
:100D400000180240001C02400069084000D0012049
:100D500070470AB1816170470904FBE701480068E8
:100D6000000C7047002004E00148806870470000D4
:100D70000CC00120024881680278114481607047EC
:100D80000CC00120094810B5016841F400710160F0
:100D9000016841F480610160032000F09FF80F209A
:100DA00000F006F800F050F8002010BD003C0240B2
:100DB00030B505461F4887B00024016841F00401A2
:100DC0000160006806A900F00400009001A800F08E
:100DD00031F90498A8B100F04DF940001649174ABE
:100DE000B0FBF1F11648491E026040F2E732C0E95B
:100DF0000324C0E90114846100F070FB040003D0F7
:100E000015E000F037F9E9E70D4800F095FB040024
:100E10000DD11E2000F034F8102D07D200222946F3
:100E20001E2000F03BF80748056000E0012407B0F1
:100E3000204630BD4038024040420F0000080040CC
:100E40003401002010C001200C4882B0016841F438
:100E500080410160006800F4804000900748001F56
:100E6000016841F0805101600068002200F080506C
:100E700000900F21901E02B000F010B844380240DC
:100E8000002809DB00F01F02012191404009800089
:100E900000F1E020C0F8001170470000F0B40E4BE4
:100EA0001B680C46C3F30223C3F10705042D00D9C8
:100EB0000425191D072901D2002300E0DB1E0126AD
:100EC00006FA05F1491E214099409E40761E1640C3
:100ED0003143F0BC02F020BA0CED00E0064900F00E
:100EE000070208684FF6FF03184040EA0220034A51
:100EF00010430860704700000CED00E00000FA05A8
:100F00002DE9F0470E46050065D0DFF81481D8F8CA
:100F10000000F7B200F00700B04207D288F8007076
:100F2000D8F8000000F00700B04254D128683D4CCA
:100F3000810712D5400703D5206840F4E0502060B7
:100F40002878000703D5206840F4604020602068BE
:100F5000A96820F0F000084320602878C0072DD051
:100F6000304968680839012812D0022813D00328B4
:100F700011D00968890700292DDA216821F00301C1
:100F800001432160FFF7F0FE814641F2883A0EE00E
:100F900009688903EFE709688901ECE7FFF7E4FED8
:100FA000A0EB0901514502D90320BDE8F087206874
:100FB000696800F00C00B0EB810FEFD1D8F8001099
:100FC000404601F00701B14207D90770006800F000
:100FD0000700B04201D00120E7E72878400705D597
:100FE0002068E96820F4E050084320602878000772
:100FF00006D52068296920F4604040EAC1002060DD
:1010000000F058F82168084AC1F30311515CC84048
:101010000649086006480068FFF7CAFE0020C4E7DA
:10102000003C0240083802402079020818C0012024
:1010300010C001200F2202600C4A136803F0030362
:101040004360136803F0F0038360136803F4E05314
:10105000C36012684FF4E05303EAD202026104480D
:10106000006800F007000860704700000838024080
:10107000003C02400448054900680968044AC1F37D
:101080008221515CC840704718C0012008380240D6
:10109000307902080448054900680968044AC1F328
:1010A0004231515CC840704718C0012008380240E6
:1010B00030790208154810B5006810F00C02144889
:1010C00013D04110042A0FD0082A0ED10F4C241F30
:1010D0002268236802F03F025B0207D52068C0F354
:1010E0008810A0FB010106E0084610BD2168C1F38D
:1010F0008811A1FB00010023FFF7C2F82168C1F3AA
:101100000141491C4900B0FBF1F010BD0838024014
:101110000024F4002DE9F84F04006ED02078DFF8A9
:101120004C93C007A9F104054AD009F104000168F5
:10113000C1F38101012908D00068C0F381000228B1
:101140000AD1D9F80000400206D52868800337D5B7
:1011500060680028E1D033E06068B0F5803F10D0CF
:10116000B0F5A02F286810D020F4803028602868BF
:1011700020F4802028606068A8B1FFF7F5FD0646DE
:101180000DE0286840F48030F4E740F480202860C7
:10119000F7E700BFFFF7E8FD801B642873D82868D5
:1011A0008003F7D50CE0FFF7DFFD064605E000BF42
:1011B000FFF7DAFD801B6428F0D828688003F7D495
:1011C0002078DFF8AC8280074FF0000A3ED5A748B0
:1011D000001D016811F00C0F08D00068C0F38100F9
:1011E00002280BD1D9F80000400207D428688007F4
:1011F00016D5E068012800D112E033E1E068B8B10B
:101200000120C8F80000FFF7AFFD064605E000BF6B
:10121000FFF7AAFD801B0228C0D828688007F7D5F1
:101220002868216920F0F80040EAC10028600DE03C
:10123000C8F800A0FFF798FD064604E0FFF794FD0C
:10124000801B02281FD828688007F7D42078000761
:1012500022D5864F87486169703771B101210160DD
:10126000FFF782FD064604E0FFF77EFD801B0228A3
:1012700009D838688007F7D50EE0C0F800A0FFF75E
:1012800073FD064605E082E0FFF76EFD801B022835
:101290007DD838688007F7D42078400768D5DFF814
:1012A000CCB100270BF13C0BDBF80000C0000BD4E5
:1012B000DBF8001041F08051CBF80010DBF80000A3
:1012C000012700F0805000906B4E3068C00510D4AC
:1012D000306840F480703060FFF746FD009005E014
:1012E000FFF742FD0099401A022850D83068C00527
:1012F000F6D55E4EA0686C3601280FD00528306800
:1013000010D020F001003060306820F00400306020
:10131000A068B8B1FFF728FD00900FE0306840F0FA
:101320000100F4E740F004003060F7E7FFF71CFD30
:101330000099411A41F28830814266D830688007AE
:10134000F4D50EE0FFF710FD009007E0FFF70CFD6D
:101350000099411A41F28830814256D8306880079E
:10136000F4D42FB1DBF8001021F08051CBF800103D
:10137000A069C8B33D49091D0968C1F3810102296B
:101380004AD00228504607D0C8F8600000E03CE090
:10139000FFF7EAFC04463BE04746C8F86000FFF769
:1013A000E3FC064605E000BFFFF7DEFC801B0228D9
:1013B0002BD828688001F7D4D4E907010843A16A33
:1013C0002E4A490802EB0141626A41EA8211084350
:1013D00094F82C1040EA0161C9F800100120386629
:1013E000FFF7C2FC044606E03EE000BFFFF7BCFC8E
:1013F000001B022809D828688001F7D534E000BF17
:10140000FFF7B2FC001B022802D90320BDE8F88FC9
:1014100028688001F4D427E00128F7D0D9F800002B
:10142000E26900F4800191421CD1226A00F03F0180
:10143000914217D147F6C071626A0140B1EB821F39
:1014400010D1A26A4FF0FF3300F4403103EB520297
:10145000B1EB024F06D194F82C1000F07060B0EBA5
:10146000016F01D00120D1E70020CFE7043802400E
:1014700000004742800E4742007000400000FFFF1E
:1014800070B515460E46040003D094F8490010B11B
:1014900007E0012070BD002084F84800204600F0DD
:1014A0001AF804F108012068FFF71AF83146A2681B
:1014B0002068FFF73FF8D4E901022946236BFEF7C5
:1014C000EFFFA168206850F8212042F0010240F8A7
:1014D0002120002070BD70477047704710B5040090
:1014E00003D094F83D0010B107E0012010BD0020AA
:1014F00084F83C00204600F01EF8022084F83D00ED
:10150000211D206801F0D0FD012084F8460084F8F8
:101510003E0084F83F0084F8400084F8410084F8DD
:10152000420084F8430084F8440084F8450084F8BD
:101530003D00002010BD704790F83D10012901D0FA
:1015400001207047022180F83D100168CA6842F00E
:101550000102CA6000681149884214D0B0F1804F7E
:1015600011D00F4988420ED00E4988420BD00E4947
:10157000884208D00D49884205D00D49884202D0E2
:101580000C49884204D1816801F00701062903D083
:10159000016841F001010160002070470000014036
:1015A0000004004000080040000C0040000401401E
:1015B0000040014000180040704770B504460068C4
:1015C00001694FF00005C943890715D4C168C943B3
:1015D000890711D4E91E0161012020772068806904
:1015E0008007204602D0FFF7E7FF04E000F098F8FC
:1015F000204600F096F8257720680169C94349071D
:1016000017D4C168C943490713D46FF004010161BD
:10161000022020772068806910F4407F204602D0A5
:10162000FFF7CAFF04E000F07BF8204600F079F8ED
:10163000257720680169C943090716D4C168C943E1
:10164000090712D46FF00801016104202077206897
:10165000C0698007204602D0FFF7AEFF04E000F02B
:101660005FF8204600F05DF8257720680169C943DE
:10167000C90617D4C168C943C90613D46FF0100155
:101680000161082020772068C06910F4407F20465F
:1016900002D0FFF791FF04E000F042F8204600F08E
:1016A00040F8257720680169C943C90708D1C16896
:1016B000C943C90704D1891E0161204600F032F8F0
:1016C00020680169C943090609D4C168C9430906EC
:1016D00005D46FF0800101612046FFF7FDFE206810
:1016E0000169C943490609D4C168C943490605D4FB
:1016F0006FF040010161204600F01EF8206801698A
:10170000C94389060BD4C168C943890607D46FF061
:10171000200101612046BDE87040FFF7DEBE70BDCC
:101720007047704700680349884201D1FFF722BB28
:101730007047000000080040704770B5040004D0F6
:1017400094F83D00002510B106E0012070BD84F83A
:101750003C50204600F022F8242084F83D00206808
:10176000C16821F40051C160204601F001FD2068EC
:10177000016921F4904101612068416921F02A0149
:1017800041612068C16841F40051C1602564202096
:1017900084F83D0084F83E00002070BD30B51E483E
:1017A00087B0016841F010010160006800F010008E
:1017B000059019481438016841F001010160016881
:1017C00001F001010591016841F00101016000682B
:1017D000072400F0010005904FF4007000900220F3
:1017E0000190012002900320CDE903040B4D6946CE
:1017F0002846FFF7B1F92815009069460494284659
:10180000FFF7AAF9012200212520FFF747FB252039
:10181000FFF736FB07B030BD4438024000000240FD
:101820002DE9F843044690F83D001F4616460D4644
:1018300020284CD1C5B1BEB194F83C00012846D057
:10184000012084F83C004FF00008C4F840802120BB
:1018500084F83D00FFF788FAA6848146E684A068F4
:10186000B0F5805F03D004E00120BDE8F883206973
:1018700028B12E465FF0000584F83C800EE000267B
:10188000FAE78021204601F0F9FCA0B9AEB116F8C4
:10189000010B21684860E08C401EE084E08C4B46E0
:1018A0004FF0000200970028EBD14FF04001204696
:1018B00001F0E4FC30B10320D7E735F8020BC0F3A8
:1018C0000800E6E7202084F83D000020CDE7022054
:1018D000CBE7FEE770B5234886B00021026842F0EE
:1018E00008020260026802F008020592026842F0F3
:1018F00008020260026802F008020592026842F0E3
:1019000008020260026802F008020592026842F0D2
:1019100040020260006801AA00F0400005908020AB
:1019200000901120032482E813000F4E69463046D0
:10193000FFF712F90820009069463046FFF70CF9CE
:1019400040250120CDE900500220CDE9020469467E
:101950003046FFF701F9694604480095FFF7FCF8A7
:1019600006B070BD30380240000C02400018024042
:1019700000B585B04FF4807000904FF4881001904E
:10198000002002900320039069460648FFF7E4F820
:10199000012211461720FFF781FA1720FFF770FA8E
:1019A00005B000BD0018024070B514460D4606464D
:1019B0000EF0CAFA46F001000EF09CFA0EF0E8FABA
:1019C00088B10EF0D7FA012070BD012C03D10EF0C2
:1019D00059FA0EF0CFFA0EF069FA641E05F8010B01
:1019E000A4B20EF033FA002CEFD10EF0C3FA0020AF
:1019F00070BD00002DE9F04186B04FF480740120E5
:101A0000CDE9004002200325CDE90205DFF838804A
:101A100069464046FFF7A0F80C4EA00330600C4F1B
:101A20003846FEF728FD402030603846FEF723FD9B
:101A30000020CDE90040CDE9020569464046FFF7A8
:101A40008BF806B0BDE8F08100180240180C024087
:101A5000FFFF0F0010B5FFF73DFFFFF7CBFFBDE81D
:101A60001040FFF785BF000070B50E460546002404
:101A700019E000BF04EB440105EB81008278D20736
:101A800007D08288836815F821001946FFF78CFF7C
:101A900006E00279836815F82100194600F007F87E
:101AA000641C002802D1B442E4D1204670BD2DE967
:101AB000F04116460D4680460EF05CFA00244FF4C5
:101AC0007A770EF041FA40460EF014FA0EF060FA02
:101AD00018B1641CA4B2BC42F3D3BC4206D00BE0E4
:101AE00028780EF007FA0EF053FA20B10EF042FA01
:101AF0000120BDE8F0816D1C761EF6B2F0D20EF02A
:101B000039FA0020F5E70000064B012806D002282C
:101B100006D1012240211846FFF71BB90022F9E740
:101B2000704700000014024008B5084C4FF0FF3524
:101B3000A0680028FCD02A46694625F0F1FB012860
:101B4000F6D19DF80000FFF7DFFFF1E700C00120AC
:101B500017F066F81CF0A0FF1CF0C2FF1DF07CFC23
:101B600019F08CFC05461DF077FC1AF0EEF8032600
:101B700090FBF6F004B21DF06FFC1AF0E6F890FB53
:101B8000F6F001B2224628461CF015FD1DF064FC5B
:101B90001BF0CFF94042C11700EB91708210002377
:101BA0000921284619F0A4F8284617F017FA064626
:101BB00023A118F07DF8244C0022304661681CF007
:101BC00088FE1DF049FC1AF0C0F84142C81701EB2D
:101BD0001070031100220921304619F089F82846B7
:101BE0001EF0FEFB20601DF037FC1AF0AEF80C2151
:101BF00090FBF1F005B21DF02FFC1AF0A6F80621BB
:101C000090FBF1F001B22A4620681CF0D4FC1DF0D4
:101C100023FC1AF09AF8C11700EB1170031100228F
:101C20000921206819F064F800231C220749206864
:101C300018F090FF052024F0ADFF1FF0F3FBF9E74B
:101C4000436F6F6C0000000000C001206155020866
:101C50007CB500220121042025F0BAF90A490025AB
:101C6000182488602B46802208A10B48CDE9004546
:101C700025F02CFC00234FF4007208A10A48CDE99E
:101C8000004525F023FC7CBD00C001204C45445F8D
:101C90005461736B00000000291B00084C56474C30
:101CA0005F5461736B000000511B0008F0B587B0F2
:101CB00014216846FEF73CFB1B480024016841F0F4
:101CC000200101600068194F00F0200005900122FA
:101CD00040213846FFF73DF8012280213846FFF7C2
:101CE00038F80122160231463846FFF732F8402014
:101CF00000900125CDE90154694638460394FEF76A
:101D00002BFF80200090CDE90154694638460394AA
:101D1000FEF722FF0096CDE9015469463846039448
:101D2000FEF71AFF07B0F0BD303802400014024041
:101D3000FEE7FEE7044B4FF4007108B1012200E01A
:101D400000221846FFF705B80014024070B51C4683
:101D5000154600F027F9044905FB04F00989BDE8A0
:101D6000704000F045B800006200002001B5009806
:101D700001E0401E00900028FBD108BD194818B4AE
:101D80004FF020410160194A174941601368002152
:101D900043F0010313601268042302F00102009271
:101DA00000F150029C06C2E90031C2E90231116122
:101DB000C2E9051408228360C0E903121022C0E9B9
:101DC00005211202C161C0E90912C16201634163C8
:101DD00081631102C16300F1500218BC1146FFF784
:101DE0004FBB000078440020040100A038380240B6
:101DF00010B54FF0D0434FF4305400221C8001E066
:101E00005980521C8242FBD310BD00002D4810B5F2
:101E1000016886B041F008010160016801F0080125
:101E20000591016841F010010160016801F01001A5
:101E30000591016841F020010160016801F0200175
:101E40000591016841F040010160006800F0400028
:101E500005901C480830016841F0010101600068EC
:101E6000694600F0010005900120019002900320D6
:101E700003904FF4806000901348FEF76DFE4FF41E
:101E80000060124C009069462046FEF765FE022075
:101E900001900C2004904CF23370009069460C487D
:101EA000FEF75AFE4FF68070009069460948FEF72B
:101EB00053FE40F20120009069462046FEF74CFE9A
:101EC00006B010BD30380240001802400014024035
:101ED000000C02400010024010B5072842D8234AE7
:101EE000C4074FF4F07110704FF448733BD0538027
:101EF000A2F804104FF0D0414FF458530B8040012A
:101F000048804FF4285008800020488042F6012085
:101F100008800020488042F6022008805088401E39
:101F2000C0F307234B8042F603230B80C0B24880E6
:101F30004FF42C5008800020488042F60130088081
:101F40000020488042F6023008809088401EC0F38E
:101F500007224A8042F603320A80C0B248804FF41A
:101F60003050088010BD51809380C3E7620000208C
:101F700010B5FFF74BFFFFF701FF00F0FDFF00F08A
:101F800040F8074C2078FFF7A7FF0021A38862885C
:101F90000846FFF7DBFEBDE810400120FFF7CABE90
:101FA0006200002030B54FF0D0444FF42855258012
:101FB000050A658042F601252580C5B2658042F696
:101FC000022525801044401E020A62806A1C22807D
:101FD000C0B260804FF42C502080080A608042F626
:101FE00001302080C8B2608042F602302080C818DC
:101FF000401E010A618042F603312180C0B2608038
:1020000030BD38B54FF0D0404FF4704101805521BC
:1020100041804FF201010180AA2141804FF202016B
:102020000180522141804FF203010180082141804B
:102030004FF204010180012141804FF430410180C1
:102040000D2141804BF2010101800D2141804BF2B5
:10205000020101800D2141804FF4314101800D21A9
:1020600041804BF2011101800D2141804BF20211A0
:1020700001800D2141804FF43241018000214180D7
:102080004BF201210180002141804BF202210180AD
:10209000002141804FF436410180442141804BF2C0
:1020A00001610180442141804BF2026101804421A1
:1020B00041804FF437410180342141804BF201715E
:1020C0000180342141804BF2027101803421418032
:1020D0004FF438410180342141804BF601010180E9
:1020E000342242804A1C0280342343804FF43F4311
:1020F0000380012343804FF4334303800F23438045
:102100004BF2013303800F2343804BF202330380F1
:102110000F2343804FF439430380342343804BF62D
:1021200001130380342343804BF6021303803423CE
:1021300043804FF435430380082343804BF201531F
:102140000380082343804BF202530380082343801B
:102150004FF442430380032343804FF43A43038008
:10216000342343804BF601230380342343804BF612
:1021700002230380342343804FF43C430380002434
:1021800044805C1C0480782545809D1C05800025CA
:1021900045804FF43D450580002545804BF60155AF
:1021A0000580782545804BF6025505800025458041
:1021B0004FF43E450580002545804BF601650580BE
:1021C000642545804FF451450580002545804DF23A
:1021D00001150580332545804DF202150580002547
:1021E00045804DF203150580342545804DF20415D8
:1021F0000580002545804DF2051505803A2545806E
:102200004DF206150580002545804DF20715058025
:102210004A2545804DF208150580002545804DF280
:10222000091505805C2545804DF20A1505800025BD
:1022300045804DF20B150580812545804DF20C152A
:102240000580002545804DF20D150580A6254580A9
:102250004DF20E150580002545804DF20F150580C5
:10226000E52545804DF210150580012545804DF28C
:1022700011150580132545804DF2121505800125A5
:1022800045804DF213150580542545804DF21415F7
:102290000580012545804DF2151505808225458074
:1022A0004DF216150580012545804DF21715058064
:1022B000CA2545804DF218150580022545804DF24E
:1022C00019150580002545804DF21A150580022557
:1022D00045804DF21B150580012545804DF21C15EA
:1022E0000580022545804DF21D1505803425458069
:1022F0004DF21E150580022545804DF21F15058003
:10230000672545804DF220150580022545804DF258
:1023100021150580842545804DF222150580022572
:1023200045804DF223150580A42545804DF22415E6
:102330000580022545804DF225150580B72545808D
:102340004DF226150580022545804DF227150580A2
:10235000CF2545804DF228150580022545804DF298
:1023600029150580DE2545804DF22A1505800225B8
:1023700045804DF22B150580F22545804DF22C1538
:102380000580022545804DF22D150580FE254580EE
:102390004DF22E150580032545804DF22F15058041
:1023A000102545804DF230150580032545804DF2FE
:1023B00031150580332545804DF232150580032502
:1023C00045804DF2331505806D2545804FF452450B
:1023D0000580002545804DF2012505803325458087
:1023E0004DF202250580002545804DF2032505802C
:1023F000342545804DF204250580002545804DF2A9
:10240000052505803A2545804DF2062505800025E5
:1024100045804DF2072505804A2545804DF2082567
:102420000580002545804DF2092505805C25458005
:102430004DF20A250580002545804DF20B250580CB
:10244000812545804DF20C250580002545804DF203
:102450000D250580A62545804DF20E250580002519
:1024600045804DF20F250580E52545804DF210256C
:102470000580012545804DF21125058013254580F5
:102480004DF212250580012545804DF2132505806A
:10249000542545804DF214250580012545804DF2D7
:1024A00015250580822545804DF2162505800125DC
:1024B00045804DF217250580CA2545804DF2182527
:1024C0000580022545804DF21925058000254580AF
:1024D0004DF21A250580022545804DF21B25058009
:1024E000012545804DF21C250580022545804DF2D1
:1024F0001D250580342545804DF21E2505800225C9
:1025000045804DF21F250580672545804DF2202529
:102510000580022545804DF22125058084254580D2
:102520004DF222250580022545804DF223250580A8
:10253000A42545804DF224250580022545804DF2D5
:1025400025250580B72545804DF2262505800225E5
:1025500045804DF227250580CF2545804DF2282561
:102560000580022545804DF229250580DE25458020
:102570004DF22A250580022545804DF22B25058048
:10258000F22545804DF22C250580022545804DF22F
:102590002D250580FE2545804DF22E25058003253D
:1025A00045804DF22F250580102545804DF23025C0
:1025B0000580032545804DF2312505803325458072
:1025C0004DF232250580032545804DF233250580E7
:1025D0006D2545804FF453450580002545804DF21B
:1025E00001350580332545804DF2023505800025F3
:1025F00045804DF203350580342545804DF2043584
:102600000580002545804DF2053505803A25458039
:102610004DF206350580002545804DF207350580D1
:102620004A2545804DF208350580002545804DF24C
:10263000093505805C2545804DF20A350580002569
:1026400045804DF20B350580812545804DF20C35D6
:102650000580002545804DF20D350580A625458075
:102660004DF20E350580002545804DF20F35058071
:10267000E52545804DF210350580012545804DF258
:1026800011350580132545804DF212350580012551
:1026900045804DF213350580542545804DF21435A3
:1026A0000580012545804DF2153505808225458040
:1026B0004DF216350580012545804DF21735058010
:1026C000CA2545804DF218350580022545804DF21A
:1026D00019350580002545804DF21A350580022503
:1026E00045804DF21B350580012545804DF21C3596
:1026F0000580022545804DF21D3505803425458035
:102700004DF21E350580022545804DF21F350580AE
:10271000672545804DF220350580022545804DF224
:1027200021350580842545804DF22235058002251E
:1027300045804DF223350580A42545804DF2243592
:102740000580022545804DF225350580B725458059
:102750004DF226350580022545804DF2273505804E
:10276000CF2545804DF228350580022545804DF264
:1027700029350580DE2545804DF22A350580022564
:1027800045804DF22B350580F22545804DF22C35E4
:102790000580022545804DF22D350580FE254580BA
:1027A0004DF22E350580032545804DF22F350580ED
:1027B000102545804DF230350580032545804DF2CA
:1027C00031350580332545804DF2323505800325AE
:1027D00045804DF2333505806D2545804FF45445D5
:1027E0000580002545804DF2014505803325458053
:1027F0004DF202450580002545804DF203450580D8
:10280000342545804DF204450580002545804DF274
:10281000054505803A2545804DF206450580002591
:1028200045804DF2074505804A2545804DF2084513
:102830000580002545804DF2094505805C254580D1
:102840004DF20A450580002545804DF20B45058077
:10285000812545804DF20C450580002545804DF2CF
:102860000D450580A62545804DF20E4505800025C5
:1028700045804DF20F450580E52545804DF2104518
:102880000580012545804DF21145058013254580C1
:102890004DF212450580012545804DF21345058016
:1028A000542545804DF214450580012545804DF2A3
:1028B00015450580822545804DF216450580012588
:1028C00045804DF217450580CA2545804DF21845D3
:1028D0000580022545804DF219450580002545807B
:1028E0004DF21A450580022545804DF21B450580B5
:1028F000012545804DF21C450580022545804DF29D
:102900001D450580342545804DF21E450580022574
:1029100045804DF21F450580672545804DF22045D5
:102920000580022545804DF221450580842545809E
:102930004DF222450580022545804DF22345058054
:10294000A42545804DF224450580022545804DF2A1
:1029500025450580B72545804DF226450580022591
:1029600045804DF227450580CF2545804DF228450D
:102970000580022545804DF229450580DE254580EC
:102980004DF22A450580022545804DF22B450580F4
:10299000F22545804DF22C450580022545804DF2FB
:1029A0002D450580FE2545804DF22E4505800325E9
:1029B00045804DF22F450580102545804DF230456C
:1029C0000580032545804DF231450580332545803E
:1029D0004DF232450580032545804DF23345058093
:1029E0006D2545804FF455450580002545804DF205
:1029F00001550580332545804DF20255058000259F
:102A000045804DF203550580342545804DF204552F
:102A10000580002545804DF2055505803A25458005
:102A20004DF206550580002545804DF2075505807D
:102A30004A2545804DF208550580002545804DF218
:102A4000095505805C2545804DF20A550580002515
:102A500045804DF20B550580812545804DF20C5582
:102A60000580002545804DF20D550580A625458041
:102A70004DF20E550580002545804DF20F5505801D
:102A8000E52545804DF210550580012545804DF224
:102A900011550580132545804DF2125505800125FD
:102AA00045804DF213550580542545804DF214554F
:102AB0000580012545804DF215550580822545800C
:102AC0004DF216550580012545804DF217550580BC
:102AD000CA2545804DF218550580022545804DF2E6
:102AE00019550580002545804DF21A5505800225AF
:102AF00045804DF21B550580012545804DF21C5542
:102B00000580022545804DF21D5505803425458000
:102B10004DF21E550580022545804DF21F5505805A
:102B2000672545804DF220550580022545804DF2F0
:102B300021550580842545804DF2225505800225CA
:102B400045804DF223550580A42545804DF224553E
:102B50000580022545804DF225550580B725458025
:102B60004DF226550580022545804DF227550580FA
:102B7000CF2545804DF228550580022545804DF230
:102B800029550580DE2545804DF22A550580022510
:102B900045804DF22B550580F22545804DF22C5590
:102BA0000580022545804DF22D550580FE25458086
:102BB0004DF22E550580032545804DF22F55058099
:102BC000102545804DF230550580032545804DF296
:102BD00031550580332545804DF23255058003255A
:102BE00045804DF2335505806D2545804FF456459F
:102BF0000580002545804DF201650580332545801F
:102C00004DF202650580002545804DF20365058083
:102C1000342545804DF204650580002545804DF240
:102C2000056505803A2545804DF20665058000253D
:102C300045804DF2076505804A2545804DF20865BF
:102C40000580002545804DF2096505805C2545809D
:102C50004DF20A650580002545804DF20B65058023
:102C6000812545804DF20C650580002545804DF29B
:102C70000D650580A62545804DF20E650580002571
:102C800045804DF20F650580E52545804DF21065C4
:102C90000580012545804DF211650580132545808D
:102CA0004DF212650580012545804DF213650580C2
:102CB000542545804DF214650580012545804DF26F
:102CC00015650580822545804DF216650580012534
:102CD00045804DF217650580CA2545804DF218657F
:102CE0000580022545804DF2196505800025458047
:102CF0004DF21A650580022545804DF21B65058061
:102D0000012545804DF21C650580022545804DF268
:102D10001D650580342545804DF21E650580022520
:102D200045804DF21F650580672545804DF2206581
:102D30000580022545804DF221650580842545806A
:102D40004DF222650580022545804DF22365058000
:102D5000A42545804DF224650580022545804DF26D
:102D600025650580B72545804DF22665058002253D
:102D700045804DF227650580CF2545804DF22865B9
:102D80000580022545804DF229650580DE254580B8
:102D90004DF22A650580022545804DF22B650580A0
:102DA000F22545804DF22C650580022545804DF2C7
:102DB0002D650580FE2545804DF22E650580032595
:102DC00045804DF22F650580102545804DF2306518
:102DD0000580032545804DF231650580332545800A
:102DE0004DF232650580032545804DF2336505803F
:102DF0006D2545804FF470450580552545804FF27F
:102E000001050580AA2545804FF20205058052255F
:102E100045804FF203050580082545804FF20405E3
:102E20000580002545804FF43545058050254580B7
:102E30004FF431450580CC2545804BF201150580C6
:102E4000002545804FF436450580052545804FF423
:102E500037450580772545804BF20175058077253C
:102E600045804D1E0580012545800180032141805C
:102E700002804180511C0180032141800380022196
:102E80004180048000214180991C01800021418003
:102E90004FF43D410180012141804BF601510180F9
:102EA000842141804BF6025101801C2141804BF668
:102EB000035101801C2141804BF604510180002107
:102EC00041804FF449410180D02141804CF60111ED
:102ED0000180022141804CF6021101805021418085
:102EE0004CF603110180502141804CF60411018001
:102EF000502141804FF458510180002141804FF40E
:102F000054510180002141804FF47F410180AA216A
:102F100041804FF601710180552141804FF60271C9
:102F20000180252141804FF60371018001214180FC
:102F30004FF47C410180162141804FF60141018010
:102F4000A22141804FF602410180262141804FF4A9
:102F500068510180062242800180552141804FF452
:102F6000885101806FF07F410091491E0091FCD192
:102F70004FF42451018038BD70B50B4D4FF40064FF
:102F8000002221462846FDF7E4FE40F6FF263046A3
:102F9000FEF7ECFE012221462846FDF7DAFE304618
:102FA000BDE87040FEF7E2BE0014024010B5084BC9
:102FB00014465A8890420AD29A88914207D200F069
:102FC00009F82146BDE810400120FEF711BF10BDF1
:102FD0006200002001231A46FEF7E4BF10B54FF04F
:102FE000E020006924F0CAFA012803D0BDE81040AF
:102FF00023F0D8BF10BD000030B593B03021684633
:10300000FDF796F914210CA8FDF792F91D4800254B
:10301000016841F080510160006800F0805011901B
:103020001948016841F4804101600068022400F4FD
:103030008040119001200390102004900094069489
:103040000820CDE90750A820CDE9090404200B9001
:103050006846FEF75FF808B172B6FEE70CA90F20CC
:1030600081E831004FF4A0500F904FF48050109041
:1030700005210CA8FDF744FF002801D072B6FEE739
:1030800013B030BD40380240007000400248016873
:1030900041F470010160704788ED00E00148FEF7DF
:1030A0008CBA000034010020F0B50268254C264D92
:1030B000264E274F274B4FF0804CA04209D0604549
:1030C00007D0A84205D0B04203D0B84201D0984200
:1030D00004D122F0700E4A6842EA0E02A0421BD0D0
:1030E000604519D0A84217D0B04215D0B84213D0CD
:1030F000984211D0184DA8420ED0184DA8420BD0BE
:10310000174DA84208D0174DA84205D0164DA84229
:1031100002D0164DA84203D122F44075CA682A4352
:103120004D6922F080022A4302608A68C2620A68FE
:103130008262A04201D0984201D109690163012154
:103140004161F0BD00000140000400400008004063
:10315000000C0040000401400040014000440140D8
:103160000048014000180040001C004000200040C2
:1031700070B5044600680169E26821F440511143CA
:1031800001612169A068E26908436169114308434C
:103190002168CA6849F20C639A430243CA602068F6
:1031A0004169A26921F440711143416131492068AC
:1031B000884202D03049884202D1FDF76BFF01E01E
:1031C000FDF758FFE2690023192164253226B2F584
:1031D000004F626828D0A0FB0101930F9200FDF719
:1031E0004FF80146B0FBF5F06FF01802504301EBC9
:1031F000800006EB0010B0FBF5F000F0F002B1FB30
:10320000F5F002EB0012B1FBF5F06FF01803584334
:1032100001EB800006EB0010B0FBF5F000F00F00B2
:1032200021681044886070BDA0FB010192185B41C9
:10323000FDF726F80146B0FBF5F00201B1FBF5F011
:103240006FF01803584301EB800006EBC000B0FBA1
:10325000F5F000F0F80002EB4002B1FBF5F0584346
:1032600001EB800006EBC000B0FBF5F000F00700BA
:10327000D6E7000000100140001401402DE9F041A4
:10328000984617460E460446069D27E0681C25D042
:103290002DB1FDF769FDA0EB0800A8421ED92068FA
:1032A0000C3050E8001F21F4D07140E80012002AD1
:1032B000F5D12068143050E8001F21F0010140E8EA
:1032C0000012002AF5D1202084F83D0084F83E0049
:1032D000002084F83C000320BDE8F08120680068ED
:1032E00036EA000004D00020B842CFD00020F3E737
:1032F0000120F9E7FEE700000FB4054B10B503A964
:10330000044A029801F02AFE10BC5DF814FB00008C
:1033100015EE0008300100200907090E002804DB23
:1033200000F1E02080F80014704700F00F0000F179
:10333000E02080F8141D704702E008C8121F08C181
:10334000002AFAD170477047002001E001C1121F26
:10335000002AFBD1704770B5044600256FF02F0698
:1033600008E02068411C2160007805EB850106EB30
:10337000410145182068007800F004F80028F0D1D9
:10338000284670BD3038092801D801207047002038
:103390007047000010B54021074801F013F90022E2
:1033A0000F2106481EF006F8054CA06002F094FBC1
:1033B0000020207010BD0000E8C20020815B0008E2
:1033C0000001002070B5B1F90030B2F90040A3420D
:1033D00000DC23460380B1F90250B2F90240A54255
:1033E00000DD2C464480B1F90460B2F90450AE42CD
:1033F00000DA35468580B1F90610B2F9062091420F
:1034000000DB1146C1800120AB4201DC8C4200DDB3
:10341000002070BDF8B50D460446B0F90000B1F9C2
:1034200000101646884247DBB4F90210B5F90220B5
:10343000914241DBB4F90410B5F9042091423BDC20
:10344000B4F90610B5F90620914235DC96B3ADF813
:1034500000006088ADF8020032466946284600F058
:1034600099F8002827D0A088ADF800006088ADF852
:10347000020032466946284600F08CF800281AD02F
:103480002088ADF80000E088ADF8020032466946B9
:10349000284600F07FF800280DD0A088ADF8000085
:1034A000E088ADF8020032466946284600F072F81E
:1034B000002800D00120F8BD0020F8BDB0F90020A0
:1034C000B1F904309A4213DCB0F90420B1F90030AC
:1034D0009A420DDBB0F90220B1F906309A4207DCBE
:1034E000B0F90600B1F90210884201DB01207047F3
:1034F00000207047F8B50D460446B0F90400B1F954
:1035000000101646884243DBB4F90600B5F90210F4
:1035100088423DDBB4F90000B5F90410884237DC7D
:10352000B4F90210B5F90620914231DC76B3ADF85A
:1035300000006088ADF8020032466946284600F077
:1035400029F818BBA088ADF800006088ADF802002B
:1035500032466946284600F01DF8B8B92088ADF813
:103560000000E088ADF8020032466946284600F0C7
:1035700011F858B9A088ADF80000E088ADF8020055
:1035800032466946284600F005F808B10020F8BD2B
:103590000120F8BD2DE9FC4114460E46B1F900208A
:1035A000B0F9001005468A423ADBB5F904008242C0
:1035B00036DCB6F90270B5F90220974230DBB5F976
:1035C00006309F422CDC002C75DD401A9A1A401CF4
:1035D000521C00B212B200EBD07002EBD27240105B
:1035E0005210904200DB1046844200DD0446ADF8E4
:1035F0000010288800222044ADF804006888ADF847
:103600000200688831462044ADF806006846FFF79E
:10361000C1FF40B1BDF804002044ADF804003FE014
:103620000020BDE8FC81E8880022001BADF8020004
:10363000E888ADF8060031466846FFF7ABFF28B1D1
:10364000BDF804002044ADF8040011E0A888002271
:10365000001BADF80000A888ADF8040031466846AC
:10366000FFF798FF50B1BDF80000001BADF8000057
:10367000BDF80200001BADF8020016E06888ADF846
:103680000200688800222044ADF8060031466846F2
:10369000FFF780FF70B1BDF80000001BADF800001F
:1036A000BDF806002044ADF80600314668461BF020
:1036B000D7F9B6E7FFE70120B3E710B5B1F900404D
:1036C000B2F900309C4200DA23460380B1F902408F
:1036D000B2F902309C4200DA23464380B1F904403B
:1036E000B2F904309C4200DD23468380B1F9061014
:1036F000B2F90620914200DC1146C18010BD0000E5
:10370000FEB505461DF004FE0026784C07460096DF
:103710000DB1E86801E010F009FF606000691BF07E
:103720003BF96068406908B11BF036F96068C06910
:103730001BF032F96068006A1BF02EF960680169BD
:10374000F1B31BF0CDFB1BF049FB6068B0F85011E2
:1037500099B30168097C890715D510F045FF401E13
:1037600005B2606810F0FAFE401E03B20022114656
:1037700001A800950EF097FD606801A90268926BA0
:10378000516004F083FC60684FF48071303016F0B3
:10379000E7FE6068202100F5987016F0E1FE606891
:1037A000A0F8506138461DF0ADFD009060680068DB
:1037B000436A13B122680099984716F013FD00E0A0
:1037C00007E000F0CDF800F09FF8494D6F691FB198
:1037D00049E0A0F85061FEBD10F0A8FE10F0D4FE44
:1037E00015F0FCFB074600227F211BF007F80022A2
:1037F0001146104610F0B8F90190BDF804100022EF
:1038000038461AF0E9FFFF221146104610F0ACF9D5
:103810000190BDF80410002238461BF04DF800223C
:10382000032138461BF03CF80022032138461BF0E8
:1038300025F80022032138461BF026F80022032138
:1038400038461BF027F80022032138461BF02EF8DB
:1038500028A1384616F02CFA00231A4606213846CD
:1038600017F046FA6F6128681DF04CFDB0F5967FA1
:103870000CD2206841F288318842ACD9686800993E
:1038800008446860A868401CA860FEBD1DF040FDAB
:10389000286060684FF47A7140680068B1FBF0F00E
:1038A000696809B901216960A968E1B14FF47A72C8
:1038B00051436A68B1FBF2F46E60AE60844200D995
:1038C0000446286920442861E868401CE8601DF02F
:1038D000A3FDC0F1640303B022463846BDE8F040C2
:1038E00005A116F01CBA0446E6E70000800000209F
:1038F0009CC701203F0000002575204650530A2533
:10390000752525204350550070B50A4D002400BF91
:10391000C4EBC40655F8260008B116F0D7FC05EB39
:1039200086001C2116F01CFE641CE4B2042CEFD3AC
:1039300070BD0000C4C30020084949680AE04A6815
:10394000824202D00A68824203D10A7E42F001021A
:103950000A7649690029F2D17047000054C001205D
:10396000704700000421014800F02CBEDCC200209A
:103970001C21014800F026BEF4C200202DE9FF5FA3
:103980000446DDE90E0613B9B0F5807F7ED0B6F9A6
:1039900000504FF0FF376D42454307EB25252DB210
:1039A0002580B6F902C0CCF1000C0CFB00FC07EB43
:1039B0002C273FB26780B6F900C0A1EB0C01414350
:1039C0004FF0020C0CEB212109B2A180B6F9028064
:1039D000A2EB080242430CEB222000B2E080002B55
:1039E0007ED04FF00A0A93FBFAF5684200EB8000A4
:1039F00003EB400705F1010928B21DF0EFFE00902E
:103A00000FFA89F01DF0EAFE83465A3528B21DF000
:103A1000E5FE804609F15A0000B21DF0DFFE0146C6
:103A2000009AC7F10A0000FB02F300FB08F00BFB51
:103A3000073301FB070193FBFAF291FBFAF04FEA1F
:103A4000601AB4F90010B4F902000AFB01FCCDF8C9
:103A50000CC05511378805FB10C207EBA2220FFAE4
:103A600082F905FB01F2BB46029277880AFB00212E
:103A700007EBA1210BB2B4F90410BE460AFB01FC0E
:103A800005FB10C20BEBA22216B200E02FE005FBF3
:103A900001F7CDE9007CB4F90680DDF80CC00AFB23
:103AA000007005FB18C1DDF804C0009F05FB18C5B8
:103AB000029A0AFB087C0AFB08220BEBA1210EEB01
:103AC000AC270EEBA02009B20EEBA2220BEBA52532
:103AD0000FFA87FC00B212B22DB24F46494500E002
:103AE0000EE000DA0F46B54216DAA84615E00020CF
:103AF0002080491E6080A180521EE280BDE8FF9FA9
:103B000032882A44228072883A4462803288114482
:103B1000A180718808444FE0B046474504DA4F461B
:103B2000494506DA0F4604E0B54201DA2F4600E0C7
:103B3000374627804F46494500DD0F46B54201DD37
:103B4000A84600E0B046474503DD4D46494505DC43
:103B500001E0B54201DD294600E03146A1809A42EC
:103B600001DA154600E01D46844501DA614600E0B1
:103B700001468D4205DA9A4201DA114606E01946FD
:103B800004E0844501DA614600E0014661809A4222
:103B900001DD114600E01946844501DD654600E07F
:103BA0000546A94205DD9A4201DD104604E01846AB
:103BB00002E0844500DD6046E0809FE72DE9FE4F8E
:103BC0000446D0F800B0B0F90800E589081AB4F945
:103BD0000A10511AD4E90932B5F5807F38D0A58989
:103BE000ADB3A66B704345114E437011266BE16A6D
:103BF00006FB05F701FB1077694306FB001003EB9A
:103C0000A72902EBA02080460612B4F904004FEA6F
:103C10002927B8424EDD002F4CDBB4F90610B14223
:103C200048DD002E46DB94F834104A0745D58A0754
:103C300004F1140322D400FB067045004FF0020A81
:103C40000BEB05015246184616F040FC27E00DE04C
:103C5000256BE66A05FB00F706FB1177464305FB7B
:103C6000016003EBA70902EBA000CCE7A56B68435A
:103C70004D4303EB601902EB6510C4E700FB0670CF
:103C800000EB40054FF0030A0BEB0501022218463A
:103C900016F01CFCE81C584410F8010CA07594F8B0
:103CA0003400C0071FD04FF4FC60ADF80000A18ABB
:103CB000814218D10020BDE8FE8F32B204F1180015
:103CC0002369CDE90102002539B2AA468B4613F0DB
:103CD0006DFF0090BDF80000A082DDE901025946A9
:103CE00013F0FCFEDAE7E07C78B1A4F83C90A4F88D
:103CF0003E80A4F84070A4F84260656484F848A04F
:103D00002046BDE8FE4F00F002B80120D3E72DE9C0
:103D1000F04F044690F83C10D0F8009090F83E0028
:103D200087B04FF0FF36702907DAB4F940203546E6
:103D3000012A00D5002580310DE0902916DDB4F967
:103D40004020B4F904300125521C9A4200DB0025C2
:103D5000A1F27F114942C9B28846702809DAB4F944
:103D60004210012900D50026803010E00025FF21F7
:103D7000F2E790280DDDB4F94210B4F906200126CF
:103D8000491C914200DB0026A0F27F104042C7B2DE
:103D900001E00026FF2760690090A07D05900020CB
:103DA00083468246049094F83400400744D594F842
:103DB0004810606C11FB05014944022201A816F06D
:103DC00085FBA08894F8481010FB01F0616C02227A
:103DD00006FB0011494403A816F078FBA18894F86B
:103DE000480011FB00F1626C06FB012210FB0590FC
:103DF0001118022202A816F069FB94F8340080071B
:103E000061D594F84800626C10FB052300EB0901B2
:103E10000B4413F8013C0493A38813FB00F306FB47
:103E20000322114411F801BC10FB0500111801EB2D
:103E3000090010F8010C45E0B4F84000B4F9422044
:103E4000284401B204F118008146236913F0AEFE44
:103E50000190B4F84200B4F94010304402B254F872
:103E6000103F484613F0A2FE0390608E2368304452
:103E700002B2208E284401B2484613F097FE029009
:103E800094F82400103C80071DD5B4F9422034F882
:103E9000400F284401B2484613F020FE0490608889
:103EA000B4F90010304402B2484613F017FE8346BE
:103EB0006088304402B234F84009284401B24846D0
:103EC00013F00CFE824694F83400424645468007C3
:103ED00035D5059810FB08F30499C8F1FF0011FBD4
:103EE0000031C1F307211BFB08F61AFB0060C0F389
:103EF000072011FB07F3C7F1FF0610FB06331B0A6F
:103F0000A375022907D8022803D8002007B0BDE80E
:103F1000F08F002702E0022800D8FF27059802282A
:103F200000D800220498022800D8FF22BBF1020F1B
:103F300000D80025BAF1020F03D8FF2501E0FF20C9
:103F4000A075EAB1FF2A04D0DDE900010FF0CCFE34
:103F50000090BDB1FF2D17D0DDE902102A460FF009
:103F6000C3FE049097B1FF2F05D001463A46009852
:103F70000FF0BAFE0090BDF80000A0820120C5E756
:103F80000198E5E70298ECE70398EAE7BDF810002E
:103F9000F3E700002DE9F0470446B0F908000A27CE
:103FA00000026062B4F90A000002A062B4F90C10C9
:103FB00091FBF7F5684200EB800001EB4006684298
:103FC00005F1010800B21DF009FC8246E84300B289
:103FD0001DF004FC8146C5F15A0000B21DF0FEFB45
:103FE0000546C8F15A0000B21DF0F8FBC6F10A01FF
:103FF00001FB0AF3024609FB0630694390FBF7F028
:1040000002FB061191FBF7F14011E06248112063B9
:10401000A07C13F078FE94F8341060F3000184F86B
:104020003410A07C13F05FFE94F8341060F341016B
:1040300084F83410A07C042824D0052822D0062837
:1040400020D021F0040100BF84F8341021682162DF
:10405000A16921F0E00160F30401A08860F39421DC
:10406000E08860F35F51A161E0894FF4001101EB3A
:104070005001B1FBF0F0A063FF20A075208AA08260
:10408000BDE8F08741F00401DEE700002DE9F041D2
:1040900015460E460746114C1DF03AF980462B4650
:1040A00032463946204614F0AFF920B10020A06214
:1040B000E06950B110E02C21204616F051FA4FF083
:1040C0000040A0620020BDE8F08140461DF01AF9D2
:1040D000E06108B90120E0612046F4E718C3002040
:1040E00010B51421074800F06DFA14F053F940B1EF
:1040F0000549016005494160054981600549C16084
:1041000010BDFEE700C30020C17D01083D8101080C
:10411000B58201088D7D010870B50D460446102159
:10412000284616F01DFA20680078012804D00228DD
:1041300007D0042807D008E0208A2880608A688099
:1041400003E0E06800E00A20686020684268002A16
:1041500003D02946BDE87040104770BDFEB5866AA1
:104160000446BEB9A08A218A0844A082E08A618AF6
:104170000844E08220460AF05CF9060079D0204627
:104180000CF078FC00220921304612F0E9FF60783B
:1041900080076ED4208A10B9608A002869D0002573
:1041A000ADF80450ADF8085094F83C0000F00F0052
:1041B0000328304616D017F05BFF0746304617F04D
:1041C00011FE03460C200090B4F912103A46304616
:1041D00009F0E6FCADF80800304617F055FEC107BF
:1041E00012D017E017F0D8FE0746304617F074FEDD
:1041F000024603200090B4F910103B46304609F007
:10420000CFFCADF80400E7E7BDF90410002901DD9B
:10421000ADF80450810705D4BDF90410002901DA76
:10422000ADF80450410705D4BDF90810002901DD9F
:10423000ADF80850000705D4BDF90800002801DAE0
:10424000ADF8085002AA01A920461FF036FC002351
:10425000BDF90820BDF90410304619F00FFFA08AFF
:10426000BDF804100844A082E08ABDF80810084494
:10427000E082FEBD2DE9FC5F0446806A5FEA000B28
:1042800071D094F83C0000076DD014F077FB0190DA
:1042900000684021457E584618F094FE4FF0000813
:1042A00018B9A4F81A80A4F81880584617F0D2FE5E
:1042B0008246584617F0D5FE064694F83C004FF06B
:1042C000640900F00F000C2802D003284CD09AE0BB
:1042D000A4F8188056B1B4F91A50002714F04EFB18
:1042E00000684946407EC0F1640022E0608BC5F161
:1042F000640110FB01F191FBF9F06083584617F05F
:1043000071FD0546584617F0B3FE02460C2000909A
:10431000B4F91A102B46584609F042FC6083024655
:1043200000231EE07A1917B210FB05F292FBF1F29E
:1043300015B2002DF6D1ADF80070A4F81A806A46C7
:10434000002120461FF0B9FB41F6FF72BDF9003095
:10435000514258460AF0D2F9BDF800100123084432
:1043600002B200214CE09AE0A4F81A80BAF1000FE2
:104370000AD0B4F91850002714F000FB0068494631
:10438000407EC0F1640022E0208BC5F1640110FB87
:1043900001F191FBF9F02083584617F09DFD054689
:1043A000584617F0F9FD034603200090B4F91810A1
:1043B0002A46584609F0F4FB2083014600231EE0FC
:1043C0007A1917B210FB05F292FBF1F215B2002D2B
:1043D000F6D1ADF80070A4F8188000226946204696
:1043E0001FF06BFB41F6FF72BDF900305142584699
:1043F0000AF0FCF8BDF800100123084401B20022C5
:10440000584619F03BFE208B002848D1608B0028CD
:1044100045D1C6B9584617F02BFE0546584617F049
:10442000E1FC002D06DC00280DDD002D02DA012361
:104430002A4604E0002806DA0123404202B20021A5
:10444000584619F01BFEBAF1000F19D1584617F063
:1044500043FD0546584617F09FFD002D07DC002858
:104460000EDD002D03DA01230022294605E0002895
:1044700006DA01230022404201B2584619F0FEFD3F
:104480000A215846019A12F06BFE6078800706D424
:1044900014F83C0F20F00F00207044F8148CBDE895
:1044A000FC9F00007FB50E46040003D110F03EF8DB
:1044B000040023D00025FEB1ADF80050ADF8025045
:1044C00010F04CF8401EADF80400204610F08CF8B7
:1044D000401EADF806006A46314602A8FEF772FF9C
:1044E00000280BD02068017C890708D5DDE9000190
:1044F000C4E90C0101202AE0A0F850517FBD826977
:104500000AB102A9904700260BE000BF04EBC601E8
:10451000002202A83031FEF77DFF0028EED1761C84
:10452000B6B2B4F85001B042F0D880B2202804D21C
:1045300004EBC00002A9303004E0A4F8505104F1AB
:10454000300069460DF006FEB4F85001401CA4F896
:10455000500160680028D1D01DF00CF87FBD70B507
:10456000054600F012F804460CE02146284600F00B
:104570001EF806462146284600F071F8204615F040
:10458000A5FE3446002CF0D170BD002800D0406854
:10459000704700B503460022FFF7F7FF03E0184617
:1045A000521C00F004F80100F9D1104600BD00686B
:1045B000091D40587047006840587047002800D0D7
:1045C0008068704700224260C91C21F003018260AC
:1045D0000160704770B504460068083015F0ECFDC6
:1045E000050013D00146002220461DF09FFF2946FA
:1045F000204662681DF094FF616819B12A46204682
:104600001DF094FF6560A06800B9A560284670BDE4
:1046100070B504460068083015F0CEFD050013D0D3
:104620000146002220461DF07BFF29462046A26855
:104630001DF07CFFA16819B12A4620461DF070FFCD
:10464000A560606800B96560284670BD28B1416802
:1046500009B9806808B1002070470120704770B523
:1046600004000DD0FFF791FF00228842204608D1B8
:10467000FFF79DFF6060011E01D000221EE0A260D6
:1046800070BDFFF79BFF8842206808440AD101688B
:10469000A16029B12046BDE8704000221DF040BF56
:1046A000626070BD05682046FFF781FF064602463E
:1046B000294620461DF034FF2A4631462046BDE8F3
:1046C00070401DF033BF10B50446006882680AB11F
:1046D0002146904720680068002801D02060F5E757
:1046E00010BD8068002801D0B0F9160070470000A6
:1046F0002DE9F047074690B0408C189E40F004002A
:10470000788490463A8499468A463289384618F029
:10471000C5FA0546A7F8209032895146384618F068
:10472000BDFA0446788CA54220F00400788403D1B9
:104730002904B1EB044F68D0A7F820803289514694
:10474000384618F0ABFA05468046A7F82090514647
:1047500038460BF0ADF9318900682A461BF042FD5E
:104760003089602823D147F6FF794D4501D04C456B
:104770001DD1384618F0DDFB00EBD07045103846EF
:1047800018F0D7FB00EBD0704010C84506D1691C6B
:10479000431C994200DA00E0194688464C4506D190
:1047A000691C421C914201DA6C1C00E01446194855
:1047B000FFF710FF05002BD02F60C5E90384308977
:1047C000A8806846C5F808A00CF0DCFF1248FF215D
:1047D000CDE9005011480290114803900020079045
:1047E000CDE9080130880A9070889DF83E1040425B
:1047F0000B90F0680690002060F300018DF83E10E9
:104800003069059068460DF031F810B0BDE8F087CA
:10481000FEE700000CC30020C9640208BD66020860
:104820001966020814210148FFF7CCBE0CC3002012
:104830002DE9FC5F002592468B4606462C46042750
:1048400043F60F0843F60E0900E100BFF16807EBDD
:10485000C400085882017DD480B230EA0B0212D025
:104860005FF0000230EA0A000FD00020824271D0CF
:1048700051F8340001AA41F6100100901BF098FA9B
:10488000002868D103E00122ECE70120EEE701AA4D
:1048900041F6110100981BF08BFA002873D101AA90
:1048A00041F6120100981BF083FA00286BD101AA8F
:1048B00041F6130100981BF07BFA002863D101AA8E
:1048C00041F6150100981BF073FA00285BD101AA8C
:1048D00041F6140100981BF06BFAE0BB01AA41F20B
:1048E000690100981BF064FAA8BB01AA43F20C010D
:1048F00000981BF05DFA70BB01AA43F20D0100980D
:104900001BF056FA38BB01AA41F2010100981BF0D6
:104910004FFA00BB01AA41F2040100981BF048FACB
:10492000C8B901AA41F2020100981BF041FA90B9FE
:1049300001AA41F2030100981BF03AFA58B901AA02
:1049400041F2050100981BF033FA20B901AA41F2A7
:10495000060101E079E016E000981BF029FA90B911
:1049600001AA41F2320100981BF022FA58B901AABB
:10497000414600981BF01CFA28B901AA4946009844
:104980001BF016FA10B10320BDE8FC9F01AA40F607
:104990000A0100981BF00CFAF0BB01AA40F60B01CB
:1049A00000981BF005FAB8BB01AA414600981BF01D
:1049B000FFF988BB01AA494600981BF0F9F958BBDA
:1049C00001AA40F63C0100981BF0F2F920BB01AAB5
:1049D00040F63D0100981BF0EBF9E8B901AA40F65A
:1049E0003A0100981BF0E4F9B0B901AA4FF4046150
:1049F00000981BF0DDF978B901AA40F6450100984E
:104A00001BF0D6F940B901AA40F6410100981BF00D
:104A1000CFF908B901AA00E013E040F6420100987E
:104A20001BF0C6F968B901AA40F6430100981BF0D3
:104A3000BFF930B901AA40F6490100981BF0B8F956
:104A400008B1022501E005B90125641C708CC0F392
:104A5000C500A0423FF6FAAE284695E701484068F7
:104A6000704700008000002004480021416001617F
:104A7000C160816001604161704700009CC70120F6
:104A8000C0F30410072800D90720704710B518217B
:104A90000348FFF797FD03490120087010BD00008F
:104AA000B8C2002038C101202DE9F04190460C46E3
:104AB000050015D0FBF747FC0A4F06462146BA68A9
:104AC000284690470446BA6828194146904701464F
:104AD000701A03E06218AA5C2A55641CA042F9D23D
:104AE000BDE8F0814CC101202DE9F041094D90460F
:104AF0000E466A681C46074619469047306020B14A
:104B000020686A68384400219047C8F80000BDE872
:104B1000F08100004CC101202DE9F04F87B08A469A
:104B2000DDE910581F4693460446002105B129804F
:104B30005CB12078002809D0BAF1000F05D000261A
:104B400018F0060F15D0002004E0002007B0BDE8E3
:104B5000F08F401C215C0A2904D00D2902D00029C5
:104B6000F7D100E0401C002DF0D04FF0FF3129803C
:104B7000ECE75FEA887001D541F6FF778946084681
:104B80008DF81410049127E00498CDF8189068B3BC
:104B90004FF0000C05AA06ABCDF80CC0CDF8008094
:104BA000CDE9013220443B465A4651461CF040FEB6
:104BB00006997A1A314417B20EB288B104990144A9
:104BC000049120780A280BD00D2809D0605C0A28AF
:104BD0000FD00D280DD00846205C08B1002FD3DC83
:104BE000049848B105B12E800498AFE74FF0010C4E
:104BF000D0E7481C0490F3E7064A04A9204652680F
:104C00009047002DF0D001460022504612F083FB61
:104C100006B2E8E74CC101202DE9F041174688466D
:104C200006001ED0002F1CD0FBF78DFB0446384633
:104C3000FBF789FB050014D00B4A2C4441469268CF
:104C400030469047411903E0621BB25C3255641E46
:104C5000A142F9D930442A463946BDE8F04115F061
:104C600041BCBDE8F08100004CC101200023027866
:104C7000232902D0012A0DD00FE02AB10021012AF8
:104C800004D0022A04D008E0012101E0017004E010
:104C9000017001E0202902D001231846704702214B
:104CA000F6E72DE9F0410E468046024600213346E4
:104CB00008461CF0F9FF04460027401C15F07CFA5A
:104CC000050008D02F5533464246611C1CF0ECFF0E
:104CD0002846BDE8F081FEE72DE9F0471E46144660
:104CE0000D468246DDF8209015E000BF4FEA5408DB
:104CF00008FB0657394650464A469047002808DDCB
:104D000044F30000C0EB540407EB0605A4F10104D2
:104D100001E005DA4446002CE8D12046BDE8F087E2
:104D20003846FBE72DE9FC5F9B460CAB8A46814683
:104D3000DDE9116093E81210DDE90F575FEA807832
:104D40004FF030031AD45EB15FEAC07808D000F0AB
:104D50000C0858EA0C0803D0761E01E00B55641CC1
:104D6000BC4204D2202CF9D301E00B55641C5FEA4D
:104D7000C07803D0B44201D2202CF6D35FEAC068D9
:104D800025D55FEA40580AD44CB1BC4201D0B442A8
:104D900005D1641E03D0102D03D1641E04E0102D34
:104DA00002D0022D0AD00EE0850603D4202C1ED29C
:104DB000782506E0202C1AD2582502E0202C16D2A5
:104DC00062250D55641C202C11D20B55641C202C1F
:104DD0000DD2BCF1000F01D02D2306E0430701D511
:104DE0002B2302E0030702D520230B55641CCDE9D9
:104DF00000BAC846154681468B46AA46800714D19C
:104E0000274607E02A46DDE900316D1C2020C44614
:104E1000E0477F1CB742F5D307E02A466D1C641EAD
:104E2000DDE900311BF80400C047002CF5D15FEA32
:104E3000897006D409E02A46DDE900316D1C202086
:104E4000C047A5EB0A00B042F5D32846BDE8FC9F59
:104E50002DE9F04F8FB099468B46DDE91818DDE952
:104E60001C63DDE91A4792468646002209B923F001
:104E70001003580507AD00D5C9B1B1FBF4F004FB30
:104E80001010C0B20A2801D2303009E05FEA836C0A
:104E900002D54FF0410C01E04FF0610C60440A383C
:104EA000B1FBF4F1A854521C09B1202AE5D3CDF886
:104EB0000880CDE90563CDE90052CDE903474B46B3
:104EC000524659467046FFF72DFF0FB0BDE8F08FF0
:104ED0002DE9FF4F8FB01CACDDE9239594E8030862
:104EE00020AC94E8C004002450EA010201D125F06E
:104EF00010056A050DF11C0802D550EA010217D011
:104F000032463B46FBF7BCF9D2B20A2A01D2303214
:104F100006E0AB0601D5412300E061231A440A3ABA
:104F200008F80420641C50EA010201D0202CE7D3C9
:104F3000CDE90084CDF808B0CDE90595CDE9036A47
:104F40000FAF97E80F00FFF7EDFE13B0BDE8F08F4D
:104F50009A4200D288547047704700002DE9FF4FF5
:104F60008DB00F460546002606E025280BD0DDE96A
:104F70000F1290476D1C761C28780028F5D111B0CF
:104F80003046BDE8F08F0024A246A1460122EC493C
:104F900000E0044315F8013F203B02FA03F0084209
:104FA000F7D128782A2810D06FF02F022878A0F1A6
:104FB0003001092914D80AEB8A0102EB410144F0BF
:104FC000020400EB010A6D1CF0E701CF5FEA000A62
:104FD00003D544F40054CAF1000A44F002046D1CE5
:104FE00028782E2817D115F8010F44F004042A2838
:104FF0000ED06FF02F022878A0F1300109290AD8CD
:1050000009EB890102EB410100EB01096D1CF2E79C
:1050100057F8049B6D1C28786C280FD006DC4C28B0
:1050200017D068280DD06A2814D104E0742810D055
:105030007A280FD10DE044F400140AE044F48014FF
:1050400001E044F440146978814202D104F58014EF
:105050006D1C6D1C2A786E2A1FD00CDC632A31D09F
:1050600004DC002A8BD0582A11D1A3E0642A68D02E
:10507000692A0CD165E0732A2ED004DC6F2A73D024
:10508000702A04D19BE0752A6FD0782A6ED0104622
:10509000DDE90F129047761C50E1C4F3025002285C
:1050A00006D0032809D0042801CF09D0066045E1C5
:1050B00001CFF117C0E9006140E101CF06803DE179
:1050C00006703BE117F8040B8DF8000000208DF806
:1050D0000100EB46012003E057F804BB4FF0FF301E
:1050E00061074FF0000102D40DE008F1010188468C
:1050F00049450FDA8045F8DB1BF808100029F4D188
:1051000008E008F1010188468142FADB1BF808102B
:105110000029F6D1DDE90F23AAEB080081462146DC
:1051200000F036F9304400EB080604E0DDE90F1228
:105130001BF8010B9047B8F10108F7D22146484609
:10514000F7E00A21C4F302534FF0000B0891022B41
:1051500004D001CFC117032B09D00AE0FF1D27F0AF
:105160000707F7E8020108E032E01FE020E000B2A4
:10517000C117042B01D140B2C117031E71F1000306
:1051800007DA4FF0000CD0EB0C006CEB01012D2383
:1051900002E0230504D52B238DF82430012303E0FE
:1051A000E30701D02023F7E7984658E00A2110E0F2
:1051B00010210EE010204FF0000B08900CE01021A1
:1051C0004FF0000B44F004044FF00809089103E08D
:1051D00008214FF0000B0891C4F30253022B04D0B6
:1051E00001CF0021032B06D006E0FF1D27F00707A3
:1051F000F7E8020103E080B2042B00D1C0B24FF007
:10520000000823072BD5702A07D0DDF820C08CF0CA
:10521000100C5CEA0B0C05D00EE040238DF8243016
:10522000012308E050EA010306D030238DF8243032
:105230008DF8252002239846DDF820C08CF0080C5C
:105240005CEA0B0C0BD150EA010301D1630706D5D0
:1052500030238DF824304FF00108A9F10109582AB4
:1052600004D038A20B9208AA0A920BE03AA2F9E7FE
:105270005B46089AFBF704F80B9B9B5C0A9A521E4C
:105280000A92137050EA0102F2D10A98ADEB0000C5
:1052900000F1200B600702D524F4803401E04FF0C8
:1052A0000109D94502DDA9EB0B0000E0002000EB6D
:1052B0000B0141440890AAEB010AE00306D4DDE9A2
:1052C0000F232146504600F063F806444FF00009D2
:1052D00008E009A911F80900DDE90F12904709F16A
:1052E0000109761CC145F4DBE0030CD5DDE90F2391
:1052F0002146504600F04CF8064404E0DDE90F1268
:1053000030209047761C0899481E08900029F5DC4B
:1053100008E00A980A990078491C0A91DDE90F1201
:105320009047761CBBF10001ABF1010BF1DC21468B
:105330005046DDE90F2300F019F806446D1C1BE60A
:10534000092801003031323334353637383961625B
:10535000636465660000000030313233343536371F
:105360003839414243444546000000002DE9F041F0
:10537000044600251E461746880404D405E0394635
:105380002020B0476D1C641EF9D52846BDE8F08189
:105390002DE9F041044600251E469046C80301D57C
:1053A000302700E02027880404D505E04146384630
:1053B000B0476D1C641EF9D52846BDE8F081000099
:1053C0002DE9FF4F89B005460A980024924600282F
:1053D00000D1FE4D8FE1252804D02246641C53469F
:1053E0000A990BE2491C4FF0000808460C9101781D
:1053F0002B2919D004DC202919D0232904D119E044
:105400002D290ED0302909D00026C8B2FDF7BAFFE9
:10541000B0B10CA8FDF79FFF06461FE048F0010160
:105420000AE048F0020107E048F0040104E048F017
:10543000080101E048F01001401C88460C90D6E7B6
:105440000C9908782A2809D1169840C81690002E81
:1054500002DA48F002087642491C0C910C984FF091
:10546000000B01782E2919D1401C0C9048F480685B
:105470000078FDF787FF20B10CA8FDF76CFF83468D
:105480000CE00C9A10782A2808D1169802C81690B9
:10549000002900DC0021521C8B460C920C980178EC
:1054A0006C290AD004DC68290FD06A2919D128E0B8
:1054B000742929D07A2914D126E0401C0C90017857
:1054C00048F480786C291CD00BE0401C0C900178CB
:1054D00048F08008682904D148F04001401C884603
:1054E0000C9002460078692822D015DC62281FD073
:1054F0000DDC252871D050281AD058287FF46DAFC4
:1055000016E048F40071E9E748F48071E6E76328A3
:1055100078D06428F2D10BE0732874D004DC6F28B3
:1055200006D07028EAD103E0752801D07828E5D1AB
:1055300078280DD058280BD070280BD0502809D0CF
:105540006F2816D0622816D00A2128F0100016E025
:10555000102107E05078102148F48878562804D1AB
:10556000521C0C921078582807D01078502804D07C
:1055700006E0082109E0022107E048F0200080460B
:105580001078692803D0642801D028F00C085FEA5D
:10559000485001D528F00108107869281ED06428E9
:1055A0001CD0562864D05FEA885072D5169804AB98
:1055B000C01D002283E806080292CDE9076820F0AA
:1055C00007005346F0E80212CDE900121690224679
:1055D00028460A99FFF77CFC89E00AE15FEA8850D7
:1055E00024D5169804AFC01D20F00703F3E802028B
:1055F0001693002387E80A08CDE90768002A03DA32
:10560000012102E080E0A6E000210023029119467A
:105610001B1A914101DA114603E00021404261EB7F
:10562000020153462246CDE90001D1E75FEAC850A6
:1056300004D5169804C80FE0524215E05FEA4860AE
:1056400003D5169810F8042B06E05FEA0860F0D541
:10565000169830F8042B12B21690CDE9021BCDE952
:105660000468D00F002AE7DDCDE9002053461EE094
:105670001698AAEB040202C81690486800680090C9
:105680000A980B6801192846FFF79AFE04442FE098
:10569000FFE75FEAC8500CD5CDE9021BCDE90468ED
:1056A00016980021534604C8CDE9002116902246E1
:1056B00019E05FEA486003D5169810F8042B08E05B
:1056C0005FEA0860169803D530F8042B92B200E028
:1056D00004C816900020CDE90020CDE9021BCDE9D9
:1056E00004685346224628460A99FFF7B1FB044650
:1056F0000C98401C0C900C99087800287FF46BAE35
:1057000054457DD222467DE001275FEA887006D5A8
:1057100009E02246641C534620200A99A8473846CF
:105720007F1CB042F5D316992246641C11F8040B75
:10573000169153460A99A8475FEA887006D4D7E7BE
:105740002246641C534620200A99A84738467F1CED
:10575000B042F5D3CCE7169850F8049B16904B4610
:10576000BBF1000001D0014601E04FF0FF31484697
:1057700000E0401C02780AB1491EFAD2C71A5FEA5B
:10578000485003D558465F4500D307465FEA887006
:1057900006D512E02246641C534620200A99A847E9
:1057A00038467F1CB042F5D307E000BF224609F11E
:1057B0000109641C53460A99A84799F8000040B1B2
:1057C0005FEA4851F2D5BBF1010B01E0594F0008E7
:1057D000ECD25FEA887006D48AE72246641C5346FE
:1057E00020200A99A84738467F1CB042F5D37FE7AE
:1057F00006E02246641C534625200A99A84777E70D
:10580000AAF10102534600200A99A8470DB020468C
:10581000BDE8F08F10B502004FF000000CD04B1E19
:10582000194200D0FEE70A44521E9A43B2F5803F67
:1058300002D20C2A01D9104610BD0C2010BD08441C
:105840004A1E401E9043114200D0FEE77047000000
:105850002DE9F0410F4601210025044641862E46E0
:105860000BE01B49FAF776FD10B16D1CADB202E0FA
:10587000608E401C6086761CB6B257F8260010B1C8
:1058800001780029EDD1208EA8421ED0A06A002602
:1058900010B114F01BFDA662E06A10B114F016FD01
:1058A000E662E80014F088FCA06238B1680014F0E9
:1058B00083FCE06218B1A16A11B102E0FEE7FEE7E5
:1058C0000025690014F04CFE2586BDE8F08100003B
:1058D000302B01082DE9F84F8146407A0F4600F041
:1058E0000700022819D010468046974200DD3A464C
:1058F000164603202A4C2B4A00EB460020F00305F5
:10590000A06811681035411A636805EB010C9C45CD
:1059100005D2416821F0004124E00846E4E79D42B9
:1059200019D892464FF0FF3B48196168884210D958
:10593000002269461C48CDF800B00BF053FC002251
:1059400069461A480BF04EFCA168DAF80000091A03
:10595000EAE7A068DDE7284614F02EFCC0B14168F4
:1059600041F0004188EA6702416089EA0201016072
:10597000416801F04041491C31F08041416086811D
:10598000A0F80E8005D500F110018160BDE8F88F08
:10599000FEE7A16801F1100229448260A160F5E7E9
:1059A000880000201C01002021E4000845120108A5
:1059B00070B586B000228DF808208DF80C208DF887
:1059C0001020444C90F83C20142302F00302A578E8
:1059D0004FF4B476012A23D0022A5FD0AA4211D014
:1059E00010F8265F05EB051505EB4505B5FBF3F54E
:1059F0002570407800EB001000EB4000B0FBF3F0A6
:105A00006070A27004AA03A8CDE9000201EB410076
:105A10004FF6FF7101EA400002AB627821781AE08C
:105A2000AA4210D0858C05EB45056D02B5FBF6F555
:105A3000A58090F8270000EB001000EB4000B0FBC1
:105A4000F3F06070A27004AA03A8CDE90002C9B205
:105A500002AB62783CE008F0F5F99DF810209DF863
:105A60000C10D308BDF800209DF8080063F3040271
:105A7000ADF800208A08BDF8001062F34A11ADF8B5
:105A80000010C108BDF8000061F3CF20ADF80000A0
:105A900080B20090BDF8000006B070BDAA4210D0E0
:105AA000858C05EB45056D02B5FBF6F5A58090F8F4
:105AB000260000EB001000EB4000B0FBF3F020707C
:105AC000A27004AA03A8CDE90002CAB2217802ABF1
:105AD000A088C0E7E000002010B5084C012020702D
