:020000040800F2
:100000001083012071020008F57A00089D010008A4
:100010006D7A0008351E000895A200080000000057
:10002000000000000000000000000000B101000816
:1000300007200008000000000D0200080D9A0008CB
:100040008B0200088B0200088B0200088B0200085C
:100050008B0200088B0200088B0200088B0200084C
:100060008B0200088B0200088B0200088B0200083C
:100070008B0200088B0200088B020008291F000871
:100080008B0200088B0200088B0200088B0200081C
:100090008B0200088B0200088B020008052600086E
:1000A0008B0200088B0200088B0200088B020008FC
:1000B0008B0200088B020008459B00088B02000899
:1000C0008B0200088B0200088B0200088B020008DC
:1000D0008B0200088B0200088B0200088B020008CC
:1000E0008B0200088B0200088B0200088B020008BC
:1000F0008B0200088B0200088B0200088B020008AC
:100100008B020008558E00088B0200088B02000845
:100110008B0200088B0200088B0200088B0200088B
:100120008B0200088B0200088B0200082D1F0008BC
:100130008B0200088B0200088B0200088B0200086B
:100140008B0200088B0200088B0200088B0200085B
:100150008B020008391F00088B0200088B02000880
:100160008B0200088B0200088B0200088B0200083B
:100170008B0200088B0200088B02000800000000C0
:100180008B0200088B020008DFF80CD000F082FF21
:100190000048004705BF0208108301201EF0040F2D
:1001A0000CBFEFF30880EFF3098005F097BE000065
:1001B0002C4B19680868B0E8F04F80F30988BFF34A
:1001C0006F8F4FF0000080F311887047000000002F
:1001D00008480068006880F308884FF0000080F34A
:1001E000148862B661B6BFF34F8FBFF36F8F00DF25
:1001F00000BF00BF08ED00E0DFF80C00016841F42B
:1002000070010160704700BF88ED00E0EFF30980E6
:10021000BFF36F8F134B1A681EF0100F08BF20ED4D
:10022000108A20E9F04F106009B44FF0500080F3BD
:100230001188BFF34F8FBFF36F8F32F0B5FB4FF0D4
:10024000000080F3118809BC19680868B0E8F04F15
:100250001EF0100F08BFB0EC108A80F30988BFF3BE
:100260006F8F7047C4000020EFF3058070470000D7
:100270000648804706480047FEE7FEE7FEE7FEE740
:10028000FEE7FEE7FEE7FEE7FEE7FEE7B99A0008B5
:100290008901000881FB0020704701464FF00000F3
:1002A00081EAE170A0EBE170704700002DE9F04FAA
:1002B00082B001904FF000744FF000784FF00005CD
:1002C0004FF0000952F804CB52F804EB0868CB6DEC
:1002D000C0FB0C45D1F88000CEF1000EC3FB0E45EB
:1002E000D1F8DC30C0FB0C89C3FB0E8952F804CB7B
:1002F00052F804EB48688B6DC0FB0C45D1F88400C4
:10030000CEF1000EC3FB0E45D1F8D830C0FB0C89EE
:10031000C3FB0E8952F804CB52F804EB88684B6D8E
:10032000C0FB0C45D1F88800CEF1000EC3FB0E4592
:10033000D1F8D430C0FB0C89C3FB0E8952F804CB32
:1003400052F804EBC8680B6DC0FB0C45D1F88C006B
:10035000CEF1000EC3FB0E45D1F8D030C0FB0C89A6
:10036000C3FB0E8952F804CB52F804EB0869CB6C3E
:10037000C0FB0C45D1F89000CEF1000EC3FB0E453A
:10038000D1F8CC30C0FB0C89C3FB0E8952F804CBEA
:1003900052F804EB48698B6CC0FB0C45D1F8940013
:1003A000CEF1000EC3FB0E45D1F8C830C0FB0C895E
:1003B000C3FB0E8952F804CB52F804EB88694B6CEE
:1003C000C0FB0C45D1F89800CEF1000EC3FB0E45E2
:1003D000D1F8C430C0FB0C89C3FB0E8952F804CBA2
:1003E00052F804EBC8690B6CC0FB0C45D1F89C00BB
:1003F000CEF1000EC3FB0E45D1F8C030C0FB0C8916
:10040000C3FB0E8901984FF4FE4E4EF0FF0E4FEAEB
:10041000946444EA85144FEAE47CBCEBE43F18BFE3
:100420008CEA0E044FEA986848EA89184FEAE87C9B
:10043000BCEBE83F18BF8CEA0E080480A0F80280ED
:1004400002F5707201F580514FF000744FF00078A2
:100450004FF000054FF0000952F804CB0868D1F8BE
:100460008030C0FB0C45C3FB0C8952F804CB4868B4
:10047000D1F88430C0FB0C45C3FB0C8952F804CB87
:100480008868D1F88830C0FB0C45C3FB0C8952F852
:1004900004CBC868D1F88C30C0FB0C45C3FB0C8979
:1004A00052F804CB0869D1F89030C0FB0C45C3FB6F
:1004B0000C8952F804CB4869D1F89430C0FB0C4544
:1004C000C3FB0C8952F804CB8869D1F89830C0FB83
:1004D0000C45C3FB0C8952F804CBC869D1F89C3099
:1004E000C0FB0C45C3FB0C8901984FF4FE4E4EF047
:1004F000FF0E4FEA946444EA85144FEAE47CBCEBB7
:10050000E43F18BF8CEA0E044FEA986848EA89185D
:100510004FEAE87CBCEBE83F18BF8CEA0E08A0F875
:100520004040A0F84280A2F57872A1F570614FF0CA
:100530000F0C00F10400CDF800C001904FF00074E2
:100540004FF000784FF000764FF0007A4FF0000542
:100550004FF000094FF000074FF0000B52F804CBAA
:1005600052F804EB0868CB6DC0FB0C45C0FB0E676E
:10057000CEF1000EC3FB0C67C3FB0E45D1F8DC3097
:10058000D1F88000C3FB0E89C3FB0CABCEF1000E8B
:10059000C0FB0C89C0FB0EAB52F804CB52F804EB45
:1005A00048688B6DC0FB0C45C0FB0E67CEF1000E9A
:1005B000C3FB0C67C3FB0E45D1F8D830D1F88400DB
:1005C000C3FB0E89C3FB0CABCEF1000EC0FB0C8944
:1005D000C0FB0EAB52F804CB52F804EB88684B6DAD
:1005E000C0FB0C45C0FB0E67CEF1000EC3FB0C67D1
:1005F000C3FB0E45D1F8D430D1F88800C3FB0E8977
:10060000C3FB0CABCEF1000EC0FB0C89C0FB0EABE4
:1006100052F804CB52F804EBC8680B6DC0FB0C45D4
:10062000C0FB0E67CEF1000EC3FB0C67C3FB0E458B
:10063000D1F8D030D1F88C00C3FB0E89C3FB0CABD2
:10064000CEF1000EC0FB0C89C0FB0EAB52F804CB00
:1006500052F804EB0869CB6CC0FB0C45C0FB0E677D
:10066000CEF1000EC3FB0C67C3FB0E45D1F8CC30B6
:10067000D1F89000C3FB0E89C3FB0CABCEF1000E8A
:10068000C0FB0C89C0FB0EAB52F804CB52F804EB54
:1006900048698B6CC0FB0C45C0FB0E67CEF1000EA9
:1006A000C3FB0C67C3FB0E45D1F8C830D1F89400EA
:1006B000C3FB0E89C3FB0CABCEF1000EC0FB0C8953
:1006C000C0FB0EAB52F804CB52F804EB88694B6CBC
:1006D000C0FB0C45C0FB0E67CEF1000EC3FB0C67E0
:1006E000C3FB0E45D1F8C430D1F89800C3FB0E8986
:1006F000C3FB0CABCEF1000EC0FB0C89C0FB0EABF4
:1007000052F804CB52F804EBC8690B6CC0FB0C45E3
:10071000C0FB0E67CEF1000EC3FB0C67C3FB0E459A
:10072000D1F8C030D1F89C00C3FB0E89C3FB0CABE1
:10073000CEF1000EC0FB0C89C0FB0EAB01F5807141
:1007400001984FF4FE4E4EF0FF0E4FEA946444EAD7
:1007500085144FEAE47CBCEBE43F18BF8CEA0E043E
:100760004FEA986848EA89184FEAE87CBCEBE83F12
:1007700018BF8CEA0E084FEA966646EA87164FEADB
:10078000E67CBCEBE63F18BF8CEA0E064FEA9A6A9D
:100790004AEA8B1A4FEAEA7CBCEBEA3F18BF8CEAC4
:1007A0000E0ADDF800C000EBCC0E2EF8026B2EF81E
:1007B00002AB20F8024B20F8028BBCF1010C7FF455
:1007C000BAAE02B0BDE8F08F2DE9F04F82B00190D3
:1007D0004FF000744FF0000552F804CB52F804EBD0
:1007E0000868CB6DCEF1000EC0FB0C45C3FB0E4577
:1007F00052F804CB52F804EB48688B6DCEF1000E32
:10080000C0FB0C45C3FB0E4552F804CB52F804EB79
:1008100088684B6DCEF1000EC0FB0C45C3FB0E4546
:1008200052F804CB52F804EBC8680B6DCEF1000E01
:10083000C0FB0C45C3FB0E4552F804CB52F804EB49
:100840000869CB6CCEF1000EC0FB0C45C3FB0E4516
:1008500052F804CB52F804EB48698B6CCEF1000ED1
:10086000C0FB0C45C3FB0E4552F804CB52F804EB19
:1008700088694B6CCEF1000EC0FB0C45C3FB0E45E6
:1008800052F804CB52F804EBC8690B6CCEF1000EA1
:10089000C0FB0C45C3FB0E4501984FF4FE4E4EF0D5
:1008A000FF0E4FEA946444EA85144FEAE47CBCEB03
:1008B000E43F18BF8CEA0E04048002F5707201F563
:1008C00080514FF000744FF0000552F804CB0868D7
:1008D000C0FB0C4552F804CB4868C0FB0C4552F8ED
:1008E00004CB8868C0FB0C4552F804CBC868C0FB39
:1008F0000C4552F804CB0869C0FB0C4552F804CBF8
:100900004869C0FB0C4552F804CB8869C0FB0C4514
:1009100052F804CBC869C0FB0C4501984FF4FE4E59
:100920004EF0FF0E4FEA946444EA85144FEAE47CEB
:10093000BCEBE43F18BF8CEA0E040484A2F5787285
:10094000A1F570614FF00F0C00F10200CDF800C06E
:1009500001904FF000744FF000764FF000054FF01B
:10096000000752F804CB52F804EB0868CB6DC0FBCB
:100970000C45C0FB0E67CEF1000EC3FB0E45C3FB5A
:100980000C6752F804CB52F804EB48688B6DC0FB3F
:100990000C45C0FB0E67CEF1000EC3FB0E45C3FB3A
:1009A0000C6752F804CB52F804EB88684B6DC0FB1F
:1009B0000C45C0FB0E67CEF1000EC3FB0E45C3FB1A
:1009C0000C6752F804CB52F804EBC8680B6DC0FBFF
:1009D0000C45C0FB0E67CEF1000EC3FB0E45C3FBFA
:1009E0000C6752F804CB52F804EB0869CB6CC0FBDF
:1009F0000C45C0FB0E67CEF1000EC3FB0E45C3FBDA
:100A00000C6752F804CB52F804EB48698B6CC0FBBE
:100A10000C45C0FB0E67CEF1000EC3FB0E45C3FBB9
:100A20000C6752F804CB52F804EB88694B6CC0FB9E
:100A30000C45C0FB0E67CEF1000EC3FB0E45C3FB99
:100A40000C6752F804CB52F804EBC8690B6CC0FB7E
:100A50000C45C0FB0E67CEF1000EC3FB0E45C3FB79
:100A60000C6701F5807101984FF4FE4E4EF0FF0EB9
:100A70004FEA946444EA85144FEAE47CBCEBE43F1B
:100A800018BF8CEA0E044FEA966646EA87164FEACC
:100A9000E67CBCEBE63F18BF8CEA0E06DDF800C032
:100AA00000EB8C0E2EF8026B20F8024BBCF1010C0F
:100AB0007FF44CAF02B0BDE8F08F002070472DE905
:100AC000F05F0546002092469B46884606468146D2
:100AD00040241BE0284641464746224600F096F94E
:100AE00053465A46C01A914110D311461846224621
:100AF00000F07DF92D1A67EB01084F4622460120D0
:100B0000002100F074F917EB00094E41201EA4F1FA
:100B10000104DFDC484631462A464346BDE8F09FE3
:100B200010B5431A934209D28318881803E010F8CD
:100B3000011D03F8011D521EF9D210BD40EA010348
:100B40009B0703D009E008C9121F08C0042AFAD283
:100B500003E011F8013B00F8013B521EF9D210BD31
:100B6000D2B201E000F8012B491EFBD270470022EF
:100B7000F6E710B513460A4604461946FFF7F0FF9C
:100B8000204610BD421C10F8011B0029FBD1801A21
:100B9000704710B5002200E0521C835C8C5CA342BD
:100BA00001D1002BF8D1D8B2E1B2401A10BD30B556
:100BB00004460020034600E05B1C934203D2E05C45
:100BC000CD5C401BF8D030BD034611F8012B00F876
:100BD000012B002AF9D1184670472DE9FE4F81EA12
:100BE000030404F0004421F0004100944FF0000B96
:100BF00023F0004350EA01045ED052EA03045BD0C4
:100C0000C3F30A54C1F30A552C44A4F2F3340194FB
:100C1000A0FB0254C1F3130141F48011C3F3130389
:100C200043F4801301FB024400FB034E840A970A3D
:100C300044EA815447EA8357A4FB076802958D0A6A
:100C400005FB07854FEA932C04FB0C542705029DF6
:100C50004FEA065847EA1637B5EB08056EEB070C66
:100C6000870E920E47EA811742EA8312A7FB020120
:100C7000B6EB0B0164EB00042B0D43EA0C335E185A
:100C800044EB1C50DA465146E7FB0201C5F313045E
:100C90004FEA0B3343EA14534FEA0432019C43EA10
:100CA0000603A4F10C040294009CCDE900B400F00A
:100CB000CCF803B0BDE8F08F00200146F9E72DE93C
:100CC000F04D81EA030404F0004B21F00045144686
:100CD0004FF0000A23F0004150EA050220D054EA08
:100CE00001021DD0C5F30A570246C5F31303C1F331
:100CF0001300C1F30A5640F4801543F48013A7EBA8
:100D00000608101BD64608F2FD3873EB050002D327
:100D100008F1010801E092185B41B8F1000F03DA15
:100D200000200146BDE8F08D00204FF480110646FA
:100D300084460EE0171B73EB050705D3121B63EB0C
:100D4000050306434CEA010C49084FEA30009218AB
:100D50005B4150EA0107EDD152EA030012D082EA6A
:100D6000040083EA0501084305D0101BAB4106D2FD
:100D70000122002306E000224FF0004302E06FF062
:100D8000010253101AEB06004CEB085110EB0A005D
:100D900041EB0B01BDE8F04D00F048B800F0004217
:100DA00030F000400AD0C10D01F56071C0F31600AB
:100DB00042EA0151C2084007114370470020014632
:100DC000704730B50B46014600202022012409E07F
:100DD00021FA02F59D4205D303FA02F5491B04FAF4
:100DE00002F52844151EA2F10102F1DC30BD202AD3
:100DF00004DB203A00FA02F1002070479140C2F172
:100E0000200320FA03F3194390407047202A04DBA3
:100E1000203A21FA02F00021704721FA02F3D04073
:100E2000C2F12002914008431946704710B5141EC4
:100E300073F1000408DA401C41F1000192185B4193
:100E40001A4301D120F0010010BD2DE9F04D92466A
:100E50009B4611B1B1FA81F202E0B0FA80F2203281
:100E60009046FFF7C4FF04460F4640EA0A0041EAF5
:100E70000B0153465A46084313D0114653EA01006A
:100E800019D0C8F140025046FFF7C0FF05460E4694
:100E9000504659464246FFF7AAFF084305D00120B5
:100EA00004E020463946BDE8F08D0020054346EABF
:100EB000E0762C4337430A986305E40AA0EB080068
:100EC0000022FD0A44EA47540A3002D500200146B8
:100ED000E9E7010510196941DDE908450019694193
:100EE000BDE8F04DA2E72DE9FE4F804681EA030000
:100EF000C00F0C46009021F0004123F00045B8EBF4
:100F00000200A94105D24046214690461C460B46A8
:100F1000024623F00040104347D0270DC7F30A00D4
:100F2000C3F30A510290401A019040286BDAC3F3D0
:100F3000130040F4801B0098924620B10023D2EBAE
:100F4000030A63EB0B0B01985946C0F1400250466F
:100F5000FFF74DFF06460D4650465946019A00F0F0
:100F6000ABF810EB08006141002487EA115284EAD3
:100F7000E7731A4340D0009A62B3019A012A4FEAFC
:100F8000075215DC001B61EB02014FF0004202EA40
:100F90000752CDE90042001C41F5801132462B4634
:100FA000FFF753FF03B0BDE8F08F40462146F9E755
:100FB000001B61EB0201001C41F5801300185B412E
:100FC0002018A2F5001747EB030140EAD570B619C7
:100FD0006D4111E06D084FEA360645EAC0754FEAEB
:100FE0000752001B61EB0201001C41F5801149080A
:100FF0004FEA30000019514132462B4603B0BDE89C
:10100000F04FFFF713BF0098012240000023D0EB00
:10101000020263EBE073009821464FEAE074B8EBFC
:10102000000061EB0401E9E783F000435BE781F036
:10103000004158E7C1F30A52C1F3130140F2FF33F4
:1010400041F480119A4202DA00200146704740F2D2
:1010500033439A42A2F2334202DC5242FFF7D6BE39
:10106000FFF7C5BE30B5041E71F1000404DB4FF07C
:101070000044404264EB0101141E73F1000405DBDF
:101080001C464FF00043524263EB0403994208BFF1
:10109000904230BD064C074D06E0E06840F0010389
:1010A00094E8070098471034AC42F6D3FFF770F885
:1010B000F47F060834800608202A06DBCB17203A86
:1010C00041FA02F043EAE07306E041FA02F3D0404D
:1010D000C2F12002914008431946704770B58C1840
:1010E00010F8015B15F0070301D110F8013B2A113C
:1010F00006D110F8012B03E010F8016B01F8016B29
:101100005B1EF9D12B0705D40023521E0DD401F824
:10111000013BFAE710F8013BCB1A921C03E013F8ED
:10112000015B01F8015B521EF9D5A142D8D3002022
:1011300070BD00002DE9F05F04460E4601E1834DCD
:10114000D4F844B0D4F84880D5F8009059464846C1
:10115000D5F804A0FFF79EF8074641465046FFF732
:1011600099F8381A4000606441464846FFF792F803
:10117000074659465046FFF78DF838444000A064B2
:10118000D4F840B0D5F80890D4F84C805946484679
:10119000D5F80CA0FFF77EF8074641465046FFF70A
:1011A00079F8381A4000206441464846FFF772F843
:1011B000074659465046FFF76DF838444000E06452
:1011C000D4F83CB0D5F81090D4F850805946484631
:1011D000D5F814A0FFF75EF8074641465046FFF7E2
:1011E00059F8381A4000E06341464846FFF752F884
:1011F000074659465046FFF74DF8384440002065F1
:10120000D4F838B0D5F81890D4F8548059464846E8
:10121000D5F81CA0FFF73EF8074641465046FFF7B9
:1012200039F8381A4000A06341464846FFF732F8C3
:10123000074659465046FFF72DF838444000606590
:10124000D4F834B0D5F82090D4F8588059464846A0
:10125000D5F824A0FFF71EF8074641465046FFF791
:1012600019F8381A4000606341464846FFF712F803
:10127000074659465046FFF70DF838444000A06530
:10128000D4F830B0D5F82890D4F85C805946484658
:10129000D5F82CA0FEF7FEFF074641465046FEF764
:1012A000F9FF381A4000206341464846FEF7F2FF36
:1012B000074659465046FEF7EDFF38444000E065CA
:1012C000D4F82CB0D5F830A0D4F8608059465046F8
:1012D000D5F83490FEF7DEFF074641464846FEF754
:1012E000D9FF381A4000E06241465046FEF7D2FF6F
:1012F000074659464846FEF7CDFF38444000206671
:10130000D4F828A0D5F83880D4F86490ED6B514615
:101310004046FEF7BFFF074649462846FEF7BAFF9C
:10132000381A4000A06249464046FEF7B3FF074620
:1013300051462846FEF7AEFF384440006066483408
:10134000761E002E3FF7FBAEBDE8F09F98500608D2
:1013500019484FF0FF31C06832F010F9174809F012
:1013600033F817A009F030F81EA009F02DF831F07D
:1013700045FD98B12BA000BF09F026F84FF47A7410
:10138000204631F0C7F935A02BF026FB204631F07E
:10139000C1F96410204631F0BDF9FBE736A009F031
:1013A00013F83FA009F010F844A009F00DF84DA083
:1013B00009F00AF854A0DFE7B400002050790608CD
:1013C000574D3839373820417564696F20436F6451
:1013D000656320496E697469616C697A6174696FCB
:1013E0006E0D0A002D2D2D2D2D2D2D2D2D2D2D2D5C
:1013F0002D2D2D2D2D2D2D2D2D2D2D2D2D2D2D2D1D
:101400002D2D2D2D2D2D2D2D2D2D2D2D2D2D2D2D0C
:101410002D2D2D2D2D2D2D2D2D2D2D2D2D2D2D2DFC
:101420000D0A00005B574D383937385D2043686935
:101430007020646574656374656420616E642069FE
:101440006E697469616C697A65642073756363653C
:10145000737366756C6C790D0A000000303A2F6D5D
:1014600070332FD5C5B9FAC8D92DB2A3C1A7D6AE4E
:10147000C7E92E6D703300005B574D383937385D42
:10148000204552524F523A2043686970206E6F7463
:10149000206465746563746564210D0A00000000B2
:1014A0005B574D383937385D20506C656173652066
:1014B000636865636B3A0D0A00000000202020205D
:1014C00020202020202D2049324320636F6E6E653E
:1014D0006374696F6E7320285042382F5042392947
:1014E0000D0A00002020202020202020202D205721
:1014F0004D3839373820706F77657220737570708A
:101500006C790D0A000000002020202020202020DF
:10151000202D2050756C6C2D757020726573697369
:10152000746F7273206F6E20493243206C696E6550
:10153000730D0A007FB500241248FF2550F82420BF
:101540008A4200D12546641CE4B2082CF6D36846D2
:1015500003F032F90120FF2D009009D00948203016
:1015600050F8250001900748403050F8250003E06E
:101570004FF48170019003200290684603F064F9F3
:101580007FBD00000856030870470000014601486F
:1015900003F0A0BE9C15002010B5044803F0ACFE7B
:1015A000042801D0012010BD002010BD9C15002092
:1015B00070B58AB0002439A008F006FF214640A08B
:1015C00008F002FF01208DF800009DF800000128BE
:1015D00005D045A008F0F8FE01200AB070BD5248C1
:1015E00003F0A4FF50B15048816B50A008F0ECFE0E
:1015F0004D4803F081FE014659A040E062A008F08A
:10160000E3FE00254FF4FA76474803F075FE042800
:1016100005D00A2002F0C0FB0A35B542F4D3B5422A
:1016200004D3314662A008F0CFFE012401A93E4850
:1016300003F050FE0498009001AD6C4895E80E0050
:1016400008F0C2FE0898009005AD694895E80E00C4
:1016500008F0BAFEB4B9322002F09EFB4FF40061EC
:10166000314803F0DDFC010012D0624808F0ACFE06
:1016700000212D4803F0D4FC01000BD05EA008F03F
:10168000A3FE012421466CA008F09EFE2046A4E79C
:1016900071A000E07DA008F097FEF3E75B42535095
:1016A0005F53445D203D3D3D3D3D2042535020531E
:1016B0004420494E4954203D3D3D3D3D0D0A00002A
:1016C0005B4253505F53445D20656E7465722C20FD
:1016D000696E697469616C2073645F7374617465A9
:1016E0003D25750D0A0000005B4253505F53445D79
:1016F0002063617264206E6F742064657465637426
:10170000656420284253505F53445F4973446574B5
:10171000656374656420213D2053445F50524553F6
:10172000454E54290D0A00009C1500205B42535081
:101730005F53445D2048414C5F53445F496E697478
:101740002072657475726E6564204552524F522046
:10175000286572723D30782530386C58290D0A00A2
:101760005B4253505F53445D2048414C5F53445F9C
:101770004765744361726453746174652829203D20
:101780002025640D0A0000005B4253505F53445D06
:101790002048414C5F53445F496E69742072657400
:1017A00075726E6564204D53445F4F4B0D0A000007
:1017B0005B4253505F53445D2063617264206469EF
:1017C00064206E6F7420656E746572205452414EB1
:1017D0005346455220737461746520616674657266
:1017E00020256C75206D730D0A000000F87E060838
:1017F000487F0608A47E06085B4253505F53445D51
:101800002048414C5F53445F436F6E666967576978
:1018100064654275734F7065726174696F6E20669E
:10182000616C6C6261636B206661696C6564202821
:101830002564290D0A0000005B4253505F53445D4C
:101840002066696E616C2073645F737461746520D7
:101850003D2025750D0A00005B4253505F53445DE7
:101860002048414C5F53445F436F6E666967576918
:1018700064654275734F7065726174696F6E203470
:101880002D626974204F4B0D0A0000005B425350DB
:101890005F53445D2048414C5F53445F436F6E6625
:1018A0006967576964654275734F706572617469E1
:1018B0006F6E2066616C6C6261636B20746F2031A7
:1018C0002D626974204F4B0D0A00000000B589B0ED
:1018D0006946164803F0FEFC20B115A008F074FD1F
:1018E00009B000BD1AA008F06FFD1FA0009908F014
:1018F0006BFD22A0019908F067FD26A0029908F06F
:1019000063FD28A0039908F05FFD2BA0049908F05F
:101910005BFD2EA0059908F057FD31A0069908F04F
:1019200053FD35A0079908F04FFDD9E79C1500201D
:101930004253505F53443A20676574206361726478
:1019400020696E666F206661696C65640D0A00002F
:101950005344204361726420496E666F20284253CD
:1019600050293A0D0A000000202043617264547926
:1019700070653A20256C750D0A0000002020436137
:10198000726456657273696F6E3A20256C750D0A24
:10199000000000002020436C6173733A20256C75B1
:1019A0000D0A0000202052656C436172644164643A
:1019B0003A20256C750D0A002020426C6F636B4E37
:1019C00062723A20256C750D0A0000002020426CDE
:1019D0006F636B53697A653A20256C750D0A0000B8
:1019E00020204C6F67426C6F636B4E62723A202509
:1019F0006C750D0A0000000020204C6F67426C6F70
:101A0000636B53697A653A20256C750D0A000000F6
:101A1000134610B50A4601460024034803F00AFFA6
:101A200000B10124204610BD9C15002070B51E4653
:101A300013460A460146164803F0FCFE144C10B14A
:101A4000A16B14A00AE002F0BDFA054618E0A06BF5
:101A500040B10F4803F0A4FAA16B1EA008F0B4FC3B
:101A6000012070BD02F0AEFA401BB04208D9084810
:101A700003F096FAA16B27A008F0A6FC032070BD26
:101A8000034803F039FC0428E1D1002070BD0000B8
:101A90009C1500204253505F53445F52656164427D
:101AA0006C6F636B735F444D415F426C6F636B6936
:101AB0006E673A20737461727420444D41206661F0
:101AC000696C65642C206572723D30782530386C05
:101AD000580D0A004253505F53445F52656164429F
:101AE0006C6F636B735F444D415F426C6F636B69F6
:101AF0006E673A207472616E7366657220657272E9
:101B00006F722C206572723D30782530386C580D1C
:101B10000A0000004253505F53445F5265616442C3
:101B20006C6F636B735F444D415F426C6F636B69B5
:101B30006E673A2074696D656F75742C20657272DA
:101B40003D30782530386C580D0A000008B501206A
:101B5000ADF80000034800231A46694640682BF0A0
:101B60008FFB08BD600300202DE9F04105462A489F
:101B70004FF4006141F28836804600F500740F464C
:101B800033460122FFF752FF08B124A03AE039465C
:101B900029A008F019FC002D3CD04FF400752A460E
:101BA00041462046FEF7BCFF00202054401CA842BE
:101BB000FBDB334601223946204600F0B1F808B17C
:101BC00027A01FE0022002F0E7F829461248FEF79E
:101BD000CEFF3346012239464046FFF727FF08B1C2
:101BE00026A00FE02A4621464046FEF7E0FF08B156
:101BF0002AA007E0334601223946204600F090F83B
:101C000028B12EA008F0E0FB0120BDE8F08133A050
:101C100008F0DAFB0020F8E7CCE900204253505FDF
:101C200053445F546573743A207265616420666141
:101C3000696C65640D0A00004253505F53445F5461
:101C40006573743A207265616420626C6F636B2007
:101C5000256C7520737563636573730D0A0000004E
:101C60004253505F53445F546573743A20777269EE
:101C70007465206661696C65640D0A004253505FAB
:101C800053445F546573743A2072656164626163A2
:101C90006B206661696C65640D0A00004253505FF9
:101CA00053445F546573743A20766572696679208F
:101CB0006661696C65640D0A000000004253505F64
:101CC00053445F546573743A20726573746F726520
:101CD000206661696C65640D0A0000004253505F24
:101CE00053445F546573743A207772697465206158
:101CF0006E642076657269667920737563636573B7
:101D0000730D0A00134610B50A4601460024034825
:101D100003F02AFE00B10124204610BD9C150020CE
:101D20002DE9F04107461E4614460D46194808F0B5
:101D30004BFB23462A463946174803F015FE164C3E
:101D400010B1A16B15480AE002F03CF9054619E014
:101D5000A06B48B1104803F023F9A16B10A008F064
:101D600033FB0120BDE8F08102F02CF9401BB042AA
:101D700008D9094803F014F9A16B19A008F024FB55
:101D80000320EFE7044803F0B7FA0428E0D100206D
:101D9000E8E70000A47F06089C150020607E060886
:101DA0004253505F53445F5772697465426C6F636E
:101DB0006B735F444D415F426C6F636B696E673A52
:101DC000207472616E73666572206572726F722C18
:101DD000206572723D30782530386C580D0A00004D
:101DE0004253505F53445F5772697465426C6F632E
:101DF0006B735F444D415F426C6F636B696E673A12
:101E00002074696D656F75742C206572723D307831
:101E10002530386C580D0A0008B50220ADF80000D6
:101E2000034800231A46694640682BF029FA08BD8A
:101E30006003002008B517A008F0C6FA72B61A4869
:101E4000016841F02001016000681848016821F430
:101E500040510160016841F480510160001D01683A
:101E600021F04001016011480C30016821F440511B
:101E700001600E4800220E491430036883F04003CD
:101E80000360009200BF009B5B1C00938B42F9D360
:101E9000F3E700005B4641554C545D2042757346A4
:101EA00061756C74210D0A00303802400014024044
:101EB000400D030008B1002103E0202070474000DE
:101EC000491C0028FBDA0846704708B1002103E0EE
:101ED000202070474000491C0028FBDA0846704764
:101EE0000022134601E08354521C8A42FBDB7047F8
:101EF00010B50C4C0A4820604FF4E13060600020BF
:101F0000A060E0602061A0610C206061204603F0C9
:101F100018FF2068C16841F02001C16010BD0000B9
:101F2000001001408803002004F0C6BE014801F003
:101F3000C1BD000020160020014801F0BBBD00001B
:101F40008016002001681823CAB2103AB2FBF3F2DF
:101F5000054B6FF30901032A9B5CC36500D9091D7A
:101F60008165084670470000E455030810B5014636
:101F700000208B698A6A4FF0C07453B1B3F5005FDB
:101F800015D072B1012A0CD0022A0AD0032A09D135
:101F900004E01AB1012A06D0022A03D1C96AC90194
:101FA00000D5012010BDC96AA142FAD010BD002A97
:101FB000F7D0012AF2D0022AF3D0032AF3D010BDC1
:101FC00010B5046863608368402B036803D0996090
:101FD0000068C26010BD9A600068C16010BD30B575
:101FE0000468256825F4802525600468636083689B
:101FF000402B036803D099600068C26030BD9A60CE
:102000000068C16030BD70472DE9FE4F0029DDE951
:102010000C572FDD4FF0FF3A002B1FDBBF4C029314
:1020200054F82260BE4C04EB460BBE4C54F83260B0
:1020300004EBC2020096167900227C4214F00704D9
:1020400004D015F8012BC4F12007BA401B1B36B190
:10205000012E12D0032E72D0022E70D05BE100222E
:10206000134605E040F8223000EB8204921C6360C6
:102070008A42F7DB0020BDE8FE8F9BF800600BF181
:10208000020906F00F0E4FF0000C102B0EDB15F8B6
:10209000016BC4F11807BE40164315F8012BC4F1BB
:1020A0001007BA403243103B10343FE0E618002ED0
:1020B000D4DD002B06DD15F8017BC4F1180C07FAFE
:1020C0000CF73A43082B05DD15F8013BC4F1100469
:1020D000A3401A433446771E4FF000463E4100238A
:1020E00032404FF00B0C0B3420E000BFCEF1200645
:1020F00022FA06F739F817703E0BA41BB240C7F35B
:1021000003162EB102F00048520048EA0606641E8B
:10211000C7F303272FB102F00048520048EA07072F
:10212000641E644576DBE0E80267891E002903DD52
:102130000B2CAADBDAE702E0A4EB0C00E7E04FF09F
:10214000000C5F46CDF804C0102B12DB15F801CB54
:10215000C4F118080CFA08FC4CEA020C15F8012B23
:10216000C4F1100802FA08F2103B42EA0C021034E3
:10217000C4E004EB0309B9F1000F4BDD002B0FDDC8
:1021800015F801CBC4F118080CFA08FC4CEA02025D
:10219000082B05DD15F8013BC4F11004A3401A43D8
:1021A000A9F101084FF0004C4CFA08FC0CEA0202BD
:1021B0004FF00B0C002309F10B04CDF804C09DE097
:1021C00097F800C00CF00F09C9F1200C22FA0CFCA2
:1021D00007EB4C0CBCF802805FEA183C0BD002FA0B
:1021E0000CF2C8F3031EA4EB0C04C8F30329BEF1E0
:1021F0000F0F07D03AE0A4EB090402FA09F207EB4B
:1022000048077BE0032E34D1B9F1000F03D04FF023
:10221000010C02E078E04FF0000C009F674404EBF3
:10222000030C7F1CBC4576DB0AE000BF15F801CB30
:10223000C4F118080CFA08FC083B4CEA0202083406
:10224000BC42F3DB002B08DA1C44A4F1010C4FF074
:102250000047002347FA0CF73A40009FC7F12007D8
:1022600022FA07F7BE44009FE41BBA40BEF1000FFC
:1022700005D002F00047520047EA0E0E641EB9F185
:102280000F0F29D1032E2AD1009F04EB030C7F1CD2
:10229000BC4540DB0AE000BF15F801CBC4F11808CB
:1022A0000CFA08FC083B4CEA02020834BC42F3DB9F
:1022B000002B08DA1C44A4F1010C4FF00047002366
:1022C00047FA0CF73A40009FC7F1200722FA07F7B8
:1022D000B944009FE41BBA40B9F1000F05D002F0E9
:1022E0000047520047EA0909641E019FBC4212DB05
:1022F00040F804EB5F4640F8049B891E002904DD8A
:102300000B2CFFF621AF5BE705E00198201A02993C
:102310001844081AAFE65046ADE600008876060875
:1023200064550608087706082DE9F84F8146DDE96F
:102330000A54002B02DC0020BDE8F88F4848494EC3
:1023400050F8220000EB060E474850F8220000909B
:102350000022604210F0070404D015F8012BC4F1EC
:10236000200082400020A3EB040A8346C91E74E0CB
:10237000BAF1100F0FDB15F8013BC4F11806B3409A
:10238000134315F8012BC4F11006B2401A43AAF109
:10239000100A10345DE004EB0A03002BCCDDBAF127
:1023A000000F05DD15F8016BC4F11807BE4032437C
:1023B000BAF1080F05DD15F8016BC4F11004A64051
:1023C00032431C465E1E4FF0004333411A404FF02B
:1023D000000A4FF00A0B0A343BE0009BC3F12003D4
:1023E00022FA03F31EF803603309E41A9A40C6F395
:1023F000C00323B102F000473B435200641EC6F302
:10240000800CBCF1000F05D002F00047520047EAF3
:102410000C0C641EC6F340072FB102F000485200B6
:1024200048EA0707641E16F0010605D002F00048CE
:10243000520048EA0606641E5C45FFF67DAFC9F807
:10244000003009F10403001D43F804CBE3E80276F1
:102450009946884201DA0A2CBFDA884288DB6BE7AA
:1024600058780608087806086078060801B50098CC
:1024700001E0401E00900028FBD108BD2DE9F04F7F
:102480000D4606465B4903F0030001EB8019103945
:102490008DB051F8200004901F2092464FF00008A4
:1024A000B0EBA30F1DDD9C10E01C1F281ADA0028DA
:1024B00000DC002000210891D9F8041001410991A5
:1024C000D9F8081001410A91D9F80C1001410B917B
:1024D00080CE27F00040042806DA08A951F8200031
:1024E00077E01F241F20E5E7102807DA59F82000BD
:1024F000002C01DA614269E020416AE0402809DAF3
:102500003D4901EB8000049950F8400CFDF7C2FEF4
:10251000E11E50E04FEA404B00200290BBF1006FFB
:1025200003DA04204FEA0B1B0290BBF1005F04DAD0
:1025300002984FEA8B0B801C0290BBF1804F04DAAB
:1025400002984FEA4B0B401C02902C498B4502DA53
:102550002948C03001E02848D43006900068594628
:10256000FDF798FE01460698406808445946FDF775
:1025700091FE01460698806808445946FDF78AFE98
:1025800001460698C06808445946FDF783FE014697
:1025900006981B4A00690844029952F82110FDF779
:1025A00079FEC0000499FDF775FE154A0299203A9C
:1025B00052F82110611A00290ADA49426FF00042EC
:1025C00022FA01F3834201DA104602E0884000E07B
:1025D000084148EA00018846002F00DA404201C560
:1025E000AAF101005FEA000A7FF472AF0DB008465D
:1025F000BDE8F08F804A0608804B06089A79825A17
:10260000884C060810B5044C2068C00503D500F0BE
:1026100061FCA015206010BD143C014086B072B66C
:1026200000241048016841F0200101600068142175
:1026300000F0200005906846FEF799FA40200090CF
:102640000120CDE901040394074C6946204601F0BE
:10265000AFFB4021204601F0A8FC642001F09CFB68
:10266000F7E700003038024000140240002200F07A
:1026700001B8000030B50E4B054601205C7A002CF5
:1026800014D1587A1C54587A03EB800045605D7A67
:1026900003F108002A54587A421C5A7230300870EC
:1026A0003A2048702F208870CC70002030BD000088
:1026B000A0E9002070B5B3F5804F05D06FF07041F0
:1026C00040F82210002070BD50F82240084B8E893F
:1026D0001C40D1E9003543EA05138D6889692D0254
:1026E00045EA06452B430B43234340F82230E9E7F4
:1026F0000000F0CFF0B50C6850F82430114A1340B8
:10270000D1E90125D1E903672A433E4332434E69AB
:1027100032438E693243CE6932430E6A32434E6A87
:1027200032438E6A3243CE6A3243CE6B096B3243F8
:102730000A431A43082D01D142F0400240F82420F8
:102740000020F0BD8000F0FF30B500EB8202506841
:102750008D8900F04043D1E9000440EA04108C6800
:10276000240244EA054420430C8A074D05EB045437
:1027700020430C7D6D0105EB046489692043084307
:1027800018435060002030BD0000F0FF10B515F078
:1027900053FC0B48016841F001010160BFF34F8F0A
:1027A0004FF0204045F2100181610649C161C0F837
:1027B0001011816941F001018161BFF34F8F10BD9C
:1027C00038380240070F030038B532202FF0A2FF3F
:1027D00005F01AF801221D491D4813F043FF014678
:1027E0000D2813D11BA007F0EFFD4FF4805000908F
:1027F0001E4B00220921154813F08EFC010006D162
:1028000001221249124813F02DFF014609B118A008
:1028100011E00E491CA007F0D7FD214C21A0E16872
:1028200007F0D2FDE06848B100231A46194630F09F
:102830008DFC014626A007F0C7FD02E032A007F09C
:10284000C3FDBDE83840002030F058B869030020CF
:10285000CCED00205B46535D204E6F2046532C206C
:102860006D6B66732E2E2E0D0A00000034050020BD
:102870005B46535D206D6F756E74206661696C6593
:10288000643A2025640D0A005B46535D206D6F7528
:102890006E74204F4B206F6E2025730D0A000000D0
:1028A000B40000205B46535D20476976696E67205F
:1028B00073656D6170686F7265202868616E646C05
:1028C000653D30782530386C58292E2E2E0D0A00A3
:1028D0005B46535D2046696C6573797374656D2042
:1028E00072656164792073656D6170686F726520CF
:1028F000676976656E2028726573756C743D256412
:10290000292E0D0A000000005B46535D20455252FF
:102910004F523A2053656D6170686F72652069731C
:10292000204E554C4C210D0A000000002DE9F047C7
:102930001E000D4604463BD0D107C6F11F074FF0DD
:1029400001004FF0000800FA07F0A0F10109C246AB
:1029500072D02068C11740FA07F28A4201D089EA92
:102960000100B0402060FDF798FC40EA080854F8E8
:10297000800F4042C11740FA07F28A4201D089EA2B
:102980000100B0402060FDF788FC40EA0808286894
:10299000C11740FA07F280348A4201D089EA010067
:1029A000B04001C50AF1020ABAF1120FD1DB70E0A2
:1029B000D0073DD04FF42070D4F880C107594FF4B0
:1029C0006070D4F8808006594FF49060CCF1000C10
:1029D00005594FF4B060C8F1000803594FF4D060B6
:1029E0007F4202594FF4F060764201594FF408607B
:1029F0006D4250F804904FF42070C4F880C1C4F8C0
:102A0000808007514FF460705B4206514FF4906034
:102A1000524205514FF4B060494203514FF4D06027
:102A200002514FF4F0600151C9F10000C4F8800870
:102A30000020BDE8F087FFE72068C11740FA07F2E1
:102A40008A4201D089EA0100B0402060FDF725FCF0
:102A500040EA080854F8800FC11740FA07F28A428A
:102A600001D089EA0100B0402060FDF716FC40EA81
:102A700008082868C11740FA07F280348A4201D05A
:102A800089EA0100B04001C50AF1020ABAF1120F49
:102A9000D2DB4046CDE70000FEB50020224C00907E
:102AA000019002902078214D00EB400005EB4000A2
:102AB0000A228088401C010A8DF800108DF8010060
:102AC0006946BA2000F052F8002820DB9DF8020089
:102AD0009DF80310032200EB012087B29DF804004B
:102AE0009DF8051000EB012086B2207800EB400035
:102AF00005EB40008088801D010A8DF800108DF8DC
:102B000001006946BA2000F031F8002801DA0020FF
:102B1000FEBD9DF80200324600F00303394604A0D2
:102B200007F052FC0120FEBD14000020FC550308F4
:102B30003C3C2D4754502D494E464F2D3E3E20588B
:102B40005F4D4158203D2025642C20595F4D415850
:102B5000203D2025642C2054524947474552203DB2
:102B6000203078253032780A00000000F0B587B0B8
:102B70000D460221ADF8041000240121ADF80240F9
:102B8000ADF80E108DF800008DF80C00901EADF819
:102B90001000A81C1646029505900221684603F015
:102BA000EBFB0746022803D0641C052CF5DB01E093
:102BB000052C06DB28883B4641BAB21E024807F0C6
:102BC00003FC07B03846F0BD6878060838B5002029
:102BD000009011480025007800EB40010F4800EB01
:102BE00041008088010A8DF800108DF801006C1EEC
:102BF0000BE003226946BA20FFF7B8FF44B2002C6D
:102C000008DC294606A007F0DFFB28466D1CEDB264
:102C10000528EED3204638BD14000020FC550308DB
:102C20003C3C2D4754502D4552524F522D3E3E2094
:102C3000475450206932632074657374206661695B
:102C40006C65642074696D652025642E0A0000009F
:102C5000FEB50024ADF8024016460F468DF8000080
:102C6000ADF8042002910121684603F085FB05467A
:102C7000012803D0641C052CF5DB01E0052C06DBE4
:102C800038882B4641BAB21E024807F09DFB284601
:102C9000FEBD0000B878060810B506F0D9FFFFF7B2
:102CA00095FF040004D506A007F08EFB204610BD5A
:102CB00000F01CF806F0B0FFFFF7EEFE002010BD9C
:102CC0003C3C2D4754502D4552524F522D3E3E20F4
:102CD00049324320636F6D6D756E69636174696F0E
:102CE0006E204552524F52210A00000030B548492B
:102CF00085B00822D1E90201CDE9030103A9BA2078
:102D0000FFF734FF050003D542A007F05DFB7BE031
:102D10009DF80E104A4C352918D09DF81120002A34
:102D200035D09DF812009DF813300092CDE90130A6
:102D3000372A9DF810309DF80F2042A042D007F0AE
:102D400043FB9DF80E00392850D05DE09DF811003E
:102D50009DF812309DF813208DE80D009DF810307D
:102D60009DF80F2043A007F02FFB9DF80E0035289B
:102D70004AD19DF80F00362846D19DF8100038281A
:102D800042D19DF8110038283ED102203BE09DF849
:102D900012209DF81300CDE900029DF810309DF837
:102DA0000F2040A007F010FB9DF80E0039282BD112
:102DB0009DF80F00312827D19DF81000312823D12C
:102DC000012020E007F000FB9DF80E0039281BD100
:102DD0009DF80F00312817D19DF81000342813D129
:102DE0009DF8110037280FD103200CE09DF80F004B
:102DF000312809D19DF81000352805D19DF8110022
:102E0000372801D10420207005B0284630BD0000CD
:102E1000EC5503083C3C2D4754502D4552524F521F
:102E20002D3E3E20475450207265616420766572C5
:102E300073696F6E206661696C65640A000000004A
:102E4000140000203C3C2D4754502D494E464F2D38
:102E50003E3E204943332056657273696F6E3A20B7
:102E600025632563256325635F253032782530325D
:102E7000780A00003C3C2D4754502D494E464F2DBA
:102E80003E3E204943312056657273696F6E3A2089
:102E900025632563256325635F253032782530322D
:102EA000780A00003C3C2D4754502D494E464F2D8A
:102EB0003E3E204943322056657273696F6E3A2058
:102EC0002563256325635F25303278253032780A03
:102ED0000000000000F012B80148B0F90600704789
:102EE000140000200148B0F90200704714000020CF
:102EF0000148B0F904007047140000202DE9F043A8
:102F000042A099B00068189028210DF130080DA852
:102F1000FDF72DFE3E4F00250C2238680C90BA209C
:102F200081460CA9FFF722FE010005D539A007F064
:102F30004BFA19B0BDE8F0839DF832000028F8D0B4
:102F4000010658D500F00F04052C54D8012C14D9D3
:102F500002AE2421301DFDF70AFE786802906FF062
:102F6000050000EBC40202A94846FFF7FFFDE2009E
:102F7000B11C0FA8083AFDF7D3FD324814BB35E069
:102F800008EBC5012F4BCA78143302F00F025A55D3
:102F90002D4B8A88C9881B78082B12D2DFE803F0F2
:102FA00004070A0D1A1D2023C0E9032109E0C0E926
:102FB000031206E0C2F5F072F6E7C160C2F5F071E7
:102FC00001616D1CA542DBDB81894180018A818022
:102FD00001210EE0C1F54871E6E7C1F54871E6E769
:102FE000C2F5F072F6E7C1F54871E6E7018909B16B
:102FF0000021C1800481032218A94846FFF728FE5A
:10300000002896DA11A007F0DFF992E7814E000060
:10301000EC5503083C3C2D4754502D4552524F521D
:103020002D3E3E20493243207472616E7366657294
:10303000206572726F722E206572726E6F3A25640F
:103040000A200A00140000202E0000203C3C2D47DE
:1030500054502D494E464F2D3E3E20493243207755
:103060007269746520656E645F636D642065727259
:103070006F72210A000000002DE9F84F044600207D
:103080000A9D0090A0684FF4807A802817D0E06BEA
:10309000B8B1606CA8B1E06C98B194F83400012824
:1030A00013D0012084F8340094F835600020012EFC
:1030B0000DD084F8340002200090BDE8F88F50460F
:1030C00000E0402060650120F7E70220F5E70226D6
:1030D00084F8356060652068066846F480260660DE
:1030E000206803612B462046FEF76AFFDFF8008464
:1030F0004FF4006B4FF4001EFE48FD4AFD4BFC4DA3
:10310000FC4EFB4FDFF8ECC3DFF8E4932168483A4C
:10311000603318351836303F0CF1780C09F130095E
:10312000414534D9814205D0914203D0994201D022
:10313000A94201D1202125E0B14205D0B94203D0F6
:10314000614501D0494501D159461BE0DFF8A48310
:1031500008F13008414511D0DFF89483A8F1180830
:1031600041450BD0DFF88C8308F19008414505D02C
:10317000DFF87C8308F14808414501D1714601E040
:103180004FF00061DFF86883A8F14C0839E0DFF800
:10319000648308F1A808414536D9814205D091429F
:1031A00003D0994201D0A94201D1202125E0B142AA
:1031B00005D0B94203D0614501D0494501D15946F6
:1031C0001BE0DFF8308308F13008414511D0DFF80B
:1031D0002083A8F1180841450BD0DFF8188308F1C7
:1031E0009008414505D0DFF8088308F148084145BB
:1031F00001D1714601E04FF00061DFF8F482A8F1DF
:103200005008C8F8001072E0DFF8E88208F14808BA
:10321000414536D9814205D0914203D0994201D02F
:10322000A94201D1202125E0B14205D0B94203D005
:10323000614501D0494501D159461BE0DFF8B48210
:1032400008F13008414511D0DFF8A482A8F1180830
:1032500041450BD0DFF89C8208F19008414505D02C
:10326000DFF88C8208F14808414501D1714601E040
:103270004FF00061DFF87C82A8F11008C8F80C104C
:1032800035E0814205D0914203D0994201D0A94254
:1032900001D1202125E0B14205D0B94203D06145DA
:1032A00001D0494501D159461BE0DFF8488208F1B9
:1032B0003008414511D0DFF83882A8F1180841459F
:1032C0000BD0DFF8308208F19008414505D0DFF8D7
:1032D000208208F14808414501D1714601E04FF0D4
:1032E0000061DFF81082A8F11008C8F80810DFF8B4
:1032F000008221684FF4806B4FF4801E414534D921
:10330000814205D0914203D0994201D0A94201D116
:10331000102125E0B14205D0B94203D0614501D06A
:10332000494501D159461BE0DFF8C88108F1300852
:10333000414511D0DFF8B881A8F1180841450BD0FC
:10334000DFF8B08108F19008414505D0DFF8A08191
:1033500008F14808414501D1714601E04FF0806114
:10336000DFF88C81A8F14C0839E0DFF8888108F19A
:10337000A808414536D9814205D0914203D09942EF
:1033800001D0A94201D1102125E0B14205D0B942B6
:1033900003D0614501D0494501D159461BE0DFF812
:1033A000548108F13008414511D0DFF84481A8F17B
:1033B000180841450BD0DFF83C8108F190084145E1
:1033C00005D0DFF82C8108F14808414501D171464C
:1033D00001E04FF08061DFF81881A8F15008C8F8CB
:1033E000001072E0DFF80C8108F14808414536D939
:1033F000814205D0914203D0994201D0A94201D126
:10340000102125E0B14205D0B94203D0614501D079
:10341000494501D159461BE0DFF8D88008F1300852
:10342000414511D0DFF8C880A8F1180841450BD0FC
:10343000DFF8C08008F19008414505D0DFF8B08082
:1034400008F14808414501D1714601E04FF0806123
:10345000DFF8A080A8F11008C8F80C1035E0814210
:1034600005D0914203D0994201D0A94201D1102147
:1034700025E0B14205D0B94203D0614501D04945AC
:1034800001D159461BE0DFF86C8008F13008414556
:1034900011D0DFF85C80A8F1180841450BD0DFF8A7
:1034A000548008F19008414505D0DFF8448008F1C8
:1034B0004808414501D1714601E04FF08061DFF8D5
:1034C0003480A8F11008C8F80810DFF824802168BB
:1034D0004FF4007B4FF4002E414534D9814205D092
:1034E000914203D0994201D0A94205D1082125E09B
:1034F0005864024010600240B14205D0B94203D086
:10350000614501D0494501D1594617E0DFF8E08413
:1035100041450FD0DFF8DC8441450BD0DFF8D08483
:1035200008F16008414505D0DFF8C88408F160085B
:10353000414501D1714601E04FF00071DFF8B484DC
:10354000A8F1340835E0DFF8A88408F1780841458F
:1035500032D9814205D0914203D0994201D0A9428B
:1035600001D1082121E0B14205D0B94203D0614523
:1035700001D0494501D1594617E0DFF8748441452F
:103580000FD0DFF8708441450BD0DFF8648408F178
:103590006008414505D0DFF85C8408F160084145CA
:1035A00001D1714601E04FF00071DFF84884A8F1C5
:1035B0003808C8F800106AE0DFF8348408F1180809
:1035C000414532D9814205D0914203D0994201D080
:1035D000A94201D1082121E0B14205D0B94203D06E
:1035E000614501D0494501D1594617E0DFF8008413
:1035F00041450FD0DFF8FC8341450BD0DFF8F08365
:1036000008F16008414505D0DFF8E88308F160085B
:10361000414501D1714601E04FF00071DFF8D083E0
:10362000A8F14008C8F80C1031E0814205D0914261
:1036300003D0994201D0A94201D1082121E0B14231
:1036400005D0B94203D0614501D0494501D1594661
:1036500017E0DFF89C8341450FD0DFF898834145A0
:103660000BD0DFF88C8308F16008414505D0DFF806
:10367000848308F16008414501D1714601E04FF0B3
:103680000071DFF86C83A8F14008C8F80810DFF873
:103690006483216808F118084FF4802B4FF0807E76
:1036A00041452FD9814205D0914203D0994201D0A2
:1036B000A94201D1042120E0B14205D0B94203D092
:1036C000614501D0494501D1514616E0DFF820831C
:1036D00041450FD0DFF81C8341450BD0DFF8108344
:1036E00008F16008414505D0DFF8088308F160085B
:1036F000414501D1594600E07146DFF8F882A8F152
:10370000340834E0DFF8E88208F17808414531D91F
:10371000814205D0914203D0994201D0A94201D102
:10372000042120E0B14205D0B94203D0614501D067
:10373000494501D1514616E0DFF8B48241450FD02A
:10374000DFF8B08241450BD0DFF8A48208F16008B1
:10375000414505D0DFF89C8208F16008414501D160
:10376000594600E07146DFF88C82A8F13808C8F8A5
:10377000001068E0DFF8788208F11808414531D977
:10378000814205D0914203D0994201D0A94201D192
:10379000042120E0B14205D0B94203D0614501D0F7
:1037A000494501D1514616E0DFF8448241450FD02A
:1037B000DFF8408241450BD0DFF8348208F1600821
:1037C000414505D0DFF82C8208F16008414501D160
:1037D000594600E07146DFF81882A8F14008C8F8A1
:1037E0000C1030E0814205D0914203D0994201D0C3
:1037F000A94201D1042120E0B14205D0B94203D051
:10380000614501D0494501D1514616E0DFF8E0811C
:1038100041450FD0DFF8DC8141450BD0DFF8D08186
:1038200008F16008414505D0DFF8C88108F160085B
:10383000414501D1594600E07146DFF8B481A8F155
:103840004008C8F80810DFF8AC81216808F11808B2
:103850004FF4803A4FF4800B414527D9814205D07F
:10386000914203D0994201D0A94201D101201AE02E
:10387000B14205D0B94203D0614501D0494501D1DB
:10388000402010E05A4881420AD05A48814207D06D
:1038900057486030814203D056486030814201D1A0
:1038A000504600E05846534934392CE0DFF8408157
:1038B00008F17808414528D9814205D0914203D0CA
:1038C000994201D0A94201D101201AE0B14205D0AC
:1038D000B94203D0614501D0494501D1402010E0F3
:1038E000434881420AD04348814207D04048603073
:1038F000814203D03F486030814201D1504600E010
:1039000058463C493839086056E0DFF8E48008F151
:103910001808414528D9814205D0914203D09942E7
:1039200001D0A94201D101201AE0B14205D0B9422B
:1039300003D0614501D0494501D1402010E02C4819
:1039400081420AD02B48814207D029486030814209
:1039500003D028486030814201D1504600E05846EB
:1039600023494039C86027E0814205D0914203D005
:10397000994201D0A94201D101201AE0B14205D0FB
:10398000B94203D0614501D0494501D1402010E042
:10399000174881420AD01748814207D01448603046
:1039A000814203D013486030814201D1504600E08B
:1039B00058460F49403988602068016841F0160177
:1039C00001602068416941F080014161206C08B9C3
:1039D000A06C20B12068016841F0080101602068F6
:1039E000016841F0010101600098BDE8F88F000016
:1039F00040600240406402402DE9F0410446876D7A
:103A000000F0E0FA064694F835000025022806D0BA
:103A10008020606584F834500120BDE8F081206882
:103A2000016821F0160101602068416921F08001E0
:103A30004161206C08B9A06C20B12068016821F0B8
:103A4000080101602068016821F0010101600CE0BB
:103A500000F0B8FA801B052807D9202060650320F4
:103A600084F8350084F83450D7E720680068C00730
:103A7000EED194F85C103F208840B860012084F8B3
:103A8000350084F834500020C7E790F8351002293B
:103A900003D08021416501207047052180F8351051
:103AA0000068016821F00101016000207047406D4D
:103AB000704700002DE9F84304464FF00009CDF8A7
:103AC000009063484FF41651A56D0068B0FBF1F704
:103AD0002E6894F85C10082000FA01F131420FD0F2
:103AE00021680A6852070BD50A6822F004020A60AE
:103AF00094F85C108840A860606D40F0010060653B
:103B000094F85C104FF0010808FA01F0304208D038
:103B100021684969090604D5A860606D40F002007B
:103B2000606594F85C1004208840304208D0216819
:103B30000968890704D5A860606D40F004006065DD
:103B400094F85C1010208840304218D02168096831
:103B5000090714D5A86020680168490304D50068E6
:103B6000000308D5A16C07E00168C90503D401680A
:103B700021F008010160216C09B12046884794F8C2
:103B80005C1020208840304231D021680968C90685
:103B90002DD5A86094F8350005282068016806D066
:103BA000490347D5006800031DD4616C1CE021F077
:103BB000160101602068416921F080014161206C9B
:103BC00008B9A06C20B12068016821F008010160EB
:103BD00094F85C103F208840A86084F8358084F811
:103BE0003490216D1FE0E16B09B120468847606D7C
:103BF00000282BD0606DC00714D0052084F8350054
:103C00002068016821F0010101600098401C0090CB
:103C1000B84203D820680068C007F6D184F8358020
:103C200084F83490E16C002910D001B02046BDE842
:103C3000F04308470168C905D5D4016821F0100197
:103C4000016084F8358084F83490CCE7BDE8F883CF
:103C5000000000202DE9F041044600F0B3F90646CB
:103C60005CB1022084F83500002584F834502068C7
:103C7000016821F0010101600DE00120BDE8F08143
:103C800000F0A0F9801B052805D9202060650320DD
:103C900084F83500F2E720680068C007F0D1226898
:103CA000116820480140D4E901031843D4E90336E0
:103CB0003343184363691843A3691843E3691843FE
:103CC000236A18430843616A042903D1D4E90B131A
:103CD00019430843106020684069666A20F00701B4
:103CE00030460E43012704280CD1A06A0643E06A3F
:103CF00040B12046FEF73AF920B14020606584F8D3
:103D00003570BAE7206846612046FEF71BF994F843
:103D10005C203F2191408160656584F8357000200A
:103D2000ACE700003F8010F02DE9F0410446866DBD
:103D300090F83400002501280DD0012084F83400CB
:103D400094F835700020012F07D084F83400022544
:103D50002846BDE8F0810220FBE7022784F8357091
:103D600060652046FEF73BF994F85C103F208840E0
:103D7000B0602068016841F016010160206C20B13C
:103D80002068016841F0080101602068016841F085
:103D900001010160DCE7000070B5054600F012F992
:103DA0004FEA000400F00EF9001BA842FAD370BDE0
:103DB0002DE9F84FDFF8BCA1002201250AF1040B20
:103DC00003264FF00F090BF1040E00BF0B6805FA34
:103DD00002F42340A34270D10F7907F00307012FAB
:103DE00001D0022F16D187684FEA420806FA08FC74
:103DF00027EA0C07D1F80CC00CFA08FC4CEA070CB7
:103E0000C0F808C04768A7430C79C4F30014944075
:103E10003C4344600C79E443A4070AD0C4684FEAE9
:103E2000420C06FA0CF7BC438F6807FA0CF72743DD
:103E3000C7600C7904F00304022C12D1D40800EB03
:103E4000840CDCF820405707FF0E09FA07F824EA33
:103E50000804D1F8108008FA07F848EA0408CCF8FA
:103E6000208004684FEA420C06FA0CF7BC430F7935
:103E700007F0030707FA0CF7274307604C6814F4B0
:103E8000403F70D03C4C276847F480472760246847
:103E900022F0030704F480440094384C07EB040C30
:103EA000DCF8084897074FEA177809FA08F7BC4387
:103EB000334FB84202D1002724E054E0314FB842DA
:103EC00001D101271EE0304FB84201D1022719E08D
:103ED0002E4FB84201D1032714E02D4FB84201D133
:103EE00004270FE02B4FB84201D105270AE02A4FE3
:103EF000B84201D1062705E0284FB84201D1072773
:103F000000E0082707FA08F72743CCF80878DAF822
:103F100000405746D1F804C09C435FEACC3C00D532
:103F20001C433C60DBF800405F46D1F804C09C4372
:103F30005FEA8C3C00D51C433C60DEF800407746CD
:103F4000D1F804C09C435FEACC2C00D51C433C60F4
:103F5000084F0C373C68D1F804C09C435FEA8C2CB6
:103F600000D51C433C60521C102AFFF42FAFBDE863
:103F7000F88F0000003C014044380240003001400E
:103F8000000002400004024000080240000C024011
:103F9000001002400014024000180240001C0240C1
:103FA0000069084000D001207047426921EA0203FD
:103FB0000A4043EA0241816170470AB1816170475A
:103FC0000904FBE7014880687047000004000020F6
:103FD00070B5040025D094F83D00002520B984F880
:103FE0003C50204600F04EF9242084F83D00206823
:103FF000016821F0010101602068016841F400417D
:1040000001602068016821F40041016000F074FD46
:104010004D4A6168914201D84C4900E04C498842C0
:1040200001D2012070BD4B492368B0FBF1F15E68FD
:1040300026F03F060E435E606368934206D94FF454
:10404000967359434FF47A73B1FBF3F12368491C1B
:104050001E6A26F03F06314319626168914210D80A
:104060004900401EB0FBF1F2521CC2F30B02042ABD
:1040700001D2042022E0B0FBF1F0401CC0F30B00A1
:104080001CE0A268F2B301EBC10303EB0116431E6F
:10409000B3FBF6F35B1C43F480431B0549D092B39A
:1040A00001EBC10202EB0111401EB0FBF1F0401C1C
:1040B000C0F30B0040F4804040F400402168CA691E
:1040C0004CF6FF739A431043C861D4E907100143CB
:1040D0002068026822F0C00211430160D4E90301A4
:1040E00001432068826848F2FF339A43114381609C
:1040F000D4E9050108432168CA6822F0FF02104391
:10410000C86001E00EE016E02068016841F001019E
:1041100001602564202084F83D00256384F83E502A
:10412000002070BD01EB4106431EB3FBF6F35B1CA0
:10413000B3E70120C2E701EB4101401EB0FBF1F003
:10414000401CC0F30B00B7E7A086010080841E006E
:1041500000093D0040420F002DE9F84F1F469046F0
:104160008A460446DDF82890FFF72CFF054694F8B0
:104170003D0020287FD11923012240492046009587
:1041800002F043F9002876D194F83C00012872D05F
:10419000012084F83C0020680168C90703D1016848
:1041A00041F0010101602068016821F400610160B3
:1041B000212084F83D00102084F83E00002626646B
:1041C000C4F824806785608D20852D48E0622B46E9
:1041D0004A465146204602F081F890B9206841696C
:1041E0008069009036E02A464946204602F08CF964
:1041F00050B1206C042804D12068016841F400719A
:1042000001600120BDE8F88F606A216800780861CC
:10421000606A401C6062618D491E6185218D491E66
:1042200089B2218522685369DB435B070BD451B106
:1042300000781061606A401C6062608D401E60857D
:10424000208D401E20852A464946204602F0B7F8B8
:104250000028CED1208D0028C5D154F83D0B01682F
:1042600041F400710160202004F81E09E6776677AA
:104270000020C7E7FFE70220C4E7000002001000AB
:104280000000FFFF704700002DE9FF410446006871
:10429000816800917749784E4FF04027884201D1DC
:1042A000324600E03A4692680192406888460290A1
:1042B00001D1304600E038464068039060684FF016
:1042C0000105B0F5007F1CD0D8B1900705D5039843
:1042D000000602D5204602F06DF90098C0070FD005
:1042E000029840067FD521682046CA68E16A8B1C87
:1042F000E3620A80618E491E6186618E002967D063
:1043000071E00098800719D50298000616D5616AF9
:1043100020468A1C626222680988D160618D491E2C
:104320006185618D51B901684A6822F0A0024A6036
:10433000418E19B980F8415000F0A0F80198C007EB
:1043400005D00398400602D5204602F003F90198F3
:10435000400622D5039880061FD52168414501D12A
:10436000304600E03846406820F0600101D1304618
:1043700000E0384641602068416821F0A0014160BA
:104380002068C1688068019084F84150606C40F0FA
:1043900002006064204600F089F80098000767D5A5
:1043A0000298800664D52068416821F0A001416030
:1043B0002168414501D1304600E03846406820F090
:1043C000600000D03E46706020688068009043E046
:1043D00001684A6822F060024A60418D19B980F88C
:1043E000415000F04BF8009840061ED50298800618
:1043F0001BD52068416821F060014160216841457A
:1044000001D1304600E03846406820F0A00101D1DB
:10441000304600E03846416084F84150606C40F01E
:1044200002006064204600F041F8019800071FD5A3
:10443000039880061CD52168414501D1304600E033
:104440003846406820F0A00000D03E4670602068EA
:10445000416821F06001416084F84150606C40F097
:104460000400606404B02046BDE8F04100F01EB8CE
:10447000BDE8FF810038004000340040704710B5AF
:10448000040011D0022084F841002068C16921F4A1
:104490008061C161204600F0C5F80020606484F8A6
:1044A000410084F8400010BD012010BD704700009D
:1044B0002DE9F047040005D094F841004FF00008C2
:1044C00018B109E00120BDE8F08784F84080514828
:1044D0006063204600F0A7F8022684F84160206857
:1044E000C16940F6BF77B943C1612068066260695F
:1044F0004FF4007902282FD0E06870B12025A06821
:10450000202800D86D00012000F070F9216949458C
:104510001FD1E16819B1A90002E01025EFE7E90019
:10452000B0FBF1F000EB800061694000B0FBF1F0FE
:10453000401D0A21B0FBF1F000F00101401A4008D3
:104540000902821EFE2A09D3606C40F010006064EC
:10455000B8E7B0FBF5F0E5E7022000212269084347
:10456000024320680262D4E901010843A269E168BC
:10457000114308432168CA69BA43104340F40060FC
:10458000C861206A01283AD1234860632348216822
:10459000234A4FF04023814201D1114600E01946E1
:1045A000C96921EA070101D1154600E01D46E9610C
:1045B0002168814201D1114600E019460E6225684A
:1045C000854201D1114600E01946C9698EB2616881
:1045D00049451BD0D1B100212789B4F80CC047EA66
:1045E0000C07B4F818C04CEA010C47EA0C07B9B242
:1045F000314341F40061854200D01A46D161C4F8CC
:104600004480012084F8410000205CE74FF4807171
:10461000E2E70000AD680008894200080038004069
:104620000034004070477047704770470248816807
:10463000027811448160704704000020094810B5D9
:10464000016841F400710160016841F4806101601A
:10465000032000F09FF80F2000F006F800F050F85B
:10466000002010BD003C024030B505461F4887B011
:104670000024016841F004010160006806A900F00F
:104680000400009001A800F017FA0498A8B100F007
:1046900033FA40001649174AB0FBF1F11648491E9B
:1046A000026040F2E732C0E90324C0E901148461EA
:1046B00001F018FA040003D015E000F01DFAE9E754
:1046C0000D4801F03DFA04000DD11E2000F034F831
:1046D000102D07D2002229461E2000F03BF8074883
:1046E000056000E0012407B0204630BD403802409C
:1046F00040420F0000080040341500200800002050
:104700000C4882B0016841F480410160006800F407
:10471000804000900748001F016841F0805101600F
:104720000068002200F0805000900F21901E02B01F
:1047300000F010B844380240002809DB00F01F02E6
:10474000012191404009800000F1E020C0F80011F3
:1047500070470000F0B40E4B1B680C46C3F30223F5
:10476000C3F10705042D00D90425191D072901D21D
:10477000002300E0DB1E012606FA05F1491E214058
:1047800099409E40761E16403143F0BC05F02CBE89
:104790000CED00E0064900F0070208684FF6FF0341
:1047A000184040EA0220034A1043086070470000A6
:1047B0000CED00E00000FA05032101600A490A68D7
:1047C000C2F3881242600968C1F302718160064930
:1047D0007C390968044A01F4F811143A126802F4A9
:1047E00040720A43C260704784380240014600208C
:1047F000012907D11049096811F4000103D00129EA
:1048000000D10E4870470C48001F0168006849023B
:1048100000F03F0001D50A4900E00A49064AB1FB11
:10482000F0F07C321168C1F3881141431068C0F385
:104830000270B1FBF0F07047083802400080BB0006
:1048400000127A000024F4002DE9F84305460068C0
:104850004FF00109C1074FF0000601D1400727D5ED
:10486000DFF80C81C8F86860FFF7ACFB0746414CE5
:1048700005E000BFFFF7A6FBC01B022857D8206841
:104880000001F7D468688101287A41EA007039494B
:1048900084310860C8F86890FFF794FB074604E08D
:1048A000FFF790FBC01B022841D820680001F7D514
:1048B0002878800752D52F484030016841F0805158
:1048C000016000682C4C00F080500090206840F49B
:1048D00080702060FFF776FB074604E0FFF772FB6D
:1048E000C01B022823D82068C005F7D5214C70349E
:1048F000206810F4407020D0A98901F440718142F1
:104900001BD020681D4920F44070C1F800900E6053
:1049100020602068C00710D0FFF754FB064641F224
:10492000883707E0FFF74EFB801BB84202D903200F
:10493000BDE8F88320688007F4D5E9680D48C1F325
:1049400001220830032A0BD0016821F4F81101601C
:104950002068A989C1F30B01084320600020E7E724
:104960000268074B22F4F81219400A430260EFE78D
:10497000000047420038024000700040400E4742AD
:10498000FFFCFF0F2DE9F0470E46050065D0DFF86C
:104990001481D8F80000F7B200F00700B04207D247
:1049A00088F80070D8F8000000F00700B04254D139
:1049B00028683D4C810712D5400703D5206840F494
:1049C000E05020602878000703D5206840F460405C
:1049D00020602068A96820F0F00008432060287853
:1049E000C0072DD0304968680839012812D0022844
:1049F00013D0032811D00968890700292DDA21680E
:104A000021F0030101432160FFF7DCFA814641F206
:104A1000883A0EE009688903EFE709688901ECE745
:104A2000FFF7D0FAA0EB0901514502D90320BDE8F8
:104A3000F0872068696800F00C00B0EB810FEFD1BF
:104A4000D8F80010404601F00701B14207D90770BD
:104A5000006800F00700B04201D00120E7E72878A5
:104A6000400705D52068E96820F4E050084320603D
:104A70002878000706D52068296920F4604040EABC
:104A8000C100206000F058F82168084AC1F3031102
:104A9000515CC8400649086006480068FFF7E4FD1D
:104AA0000020C4E7003C024008380240CC5503080F
:104AB00000000020080000200F2202600C4A13684A
:104AC00003F003034360136803F0F003836013688B
:104AD00003F4E053C36012684FF4E05303EAD202D8
:104AE00002610448006800F0070008607047000099
:104AF00008380240003C0240044805490068096843
:104B0000044AC1F38221515CC84070470000002074
:104B100008380240DC550308044805490068096864
:104B2000044AC1F34231515CC84070470000002084
:104B300008380240DC550308154810B5006810F02D
:104B40000C02144813D04110042A0FD0082A0ED1A9
:104B50000F4C241F2268236802F03F025B0207D536
:104B60002068C0F38810A0FB010106E0084610BDD4
:104B70002168C1F38811A1FB00010023FBF79FFF0F
:104B80002168C1F30141491C4900B0FBF1F010BD9F
:104B9000083802400024F4002DE9F84F04006ED0DC
:104BA0002078DFF84C93C007A9F104054AD009F139
:104BB00004000168C1F38101012908D00068C0F335
:104BC000810002280AD1D9F80000400206D52868E1
:104BD000800337D560680028E1D033E06068B0F525
:104BE000803F10D0B0F5A02F286810D020F480307E
:104BF0002860286820F4802028606068A8B1FFF74A
:104C0000E1F906460DE0286840F48030F4E740F40E
:104C100080202860F7E700BFFFF7D4F9801B6428E5
:104C200073D828688003F7D50CE0FFF7CBF9064668
:104C300005E000BFFFF7C6F9801B6428F0D828689C
:104C40008003F7D42078DFF8AC8280074FF0000AA9
:104C50003ED5A748001D016811F00C0F08D0006870
:104C6000C0F3810002280BD1D9F80000400207D41C
:104C70002868800716D5E068012800D112E033E1EA
:104C8000E068B8B10120C8F80000FFF79BF90646BC
:104C900005E000BFFFF796F9801B0228C0D82868FE
:104CA0008007F7D52868216920F0F80040EAC100A4
:104CB00028600DE0C8F800A0FFF784F9064604E07C
:104CC000FFF780F9801B02281FD828688007F7D4D7
:104CD0002078000722D5864F87486169703771B107
:104CE00001210160FFF76EF9064604E0FFF76AF95B
:104CF000801B022809D838688007F7D50EE0C0F875
:104D000000A0FFF75FF9064605E082E0FFF75AF9D9
:104D1000801B02287DD838688007F7D420784007A8
:104D200068D5DFF8CCB100270BF13C0BDBF80000B5
:104D3000C0000BD4DBF8001041F08051CBF800101C
:104D4000DBF80000012700F0805000906B4E3068C7
:104D5000C00510D4306840F480703060FFF732F93D
:104D6000009005E0FFF72EF90099401A022850D86C
:104D70003068C005F6D55E4EA0686C3601280FD0AD
:104D80000528306810D020F001003060306820F035
:104D900004003060A068B8B1FFF714F900900FE08C
:104DA000306840F00100F4E740F004003060F7E7BD
:104DB000FFF708F90099411A41F28830814266D81C
:104DC00030688007F4D50EE0FFF7FCF8009007E0AC
:104DD000FFF7F8F80099411A41F28830814256D81D
:104DE00030688007F4D42FB1DBF8001021F0805137
:104DF000CBF80010A069C8B33D49091D0968C1F38B
:104E0000810102294AD00228504607D0C8F8600024
:104E100000E03CE0FFF7D6F804463BE04746C8F820
:104E20006000FFF7CFF8064605E000BFFFF7CAF8BD
:104E3000801B02282BD828688001F7D4D4E9070109
:104E40000843A16A2E4A490802EB0141626A41EA1D
:104E50008211084394F82C1040EA0161C9F800104F
:104E600001203866FFF7AEF8044606E03EE000BFDA
:104E7000FFF7A8F8001B022809D828688001F7D599
:104E800034E000BFFFF79EF8001B022802D9032080
:104E9000BDE8F88F28688001F4D427E00128F7D016
:104EA000D9F80000E26900F4800191421CD1226A25
:104EB00000F03F01914217D147F6C071626A01408C
:104EC000B1EB821F10D1A26A4FF0FF3300F44031E2
:104ED00003EB5202B1EB024F06D194F82C1000F014
:104EE0007060B0EB016F01D00120D1E70020CFE767
:104EF0000438024000004742800E474200700040E4
:104F00000000FFFF10B500680B4641680D480140E6
:104F1000080CD870C1F304245C7001F03F049C704D
:104F2000C1F34231197052B903F03AFFD870587882
:104F300003F036FF5870987803F032FF9870002025
:104F400010BD00003FFFFF0010B50B460168896AE5
:104F5000596001680969C1F30E0199600068016830
:104F60000E480140C1F305401870C1F306245C707F
:104F700001F07F049C70402404EA1141D97052B9B9
:104F800003F00EFF1870587803F00AFF58709878F5
:104F900003F006FF9870002010BD00007F7F7F00A7
:104FA00010B50446006B2168CA6B22F49D72CA6377
:104FB000226840F23A5191632168CA6A22F00102E4
:104FC000CA62010613D52168CA6A22F00802CA62C1
:104FD00010F0300F01D0E06B02E0800707D0206CAA
:104FE000FEF70AFD18B1A06B40F08040A0630120DD
:104FF00084F8340000202063204600F07DF9062864
:1050000001D0052803D1206804F0E4F8A063A06B68
:10501000002800D0012010BD10B5FCF7B5FA10BD76
:105020002DE9FE430446002603200D4684F8340093
:10503000606C03285ED0B5F5805F5BD04FF40067ED
:1050400000204FF08068BD421FD181460090019042
:105050000021206803F0FBFE800113D4694620463E
:1050600004F0E2FA07000DD10198400334D5B4F8FA
:1050700050000104206803F025FF070002D102213F
:10508000206823E0A06B384328E01DB1A06B40F0FE
:10509000006023E08146009001900021206803F029
:1050A000D6FE8001EED46946204604F0BDFA070022
:1050B000E8D10198C0030FD5B4F85000010420686E
:1050C00003F000FF0700DDD10021206803F047FF57
:1050D0000700D7D14F46D5E74746D3E7A063A06B7B
:1050E000144F4FF0010848B12068876384F834807A
:1050F00001260EE0A06B40F08050EFE7211DD4E9BF
:10510000050C0EC9CDE90050CDF808C0206803F0A9
:10511000A7FE4FF40071206803F008FF28B1216852
:105120008F63A16B0143A163012684F8348030466C
:10513000BDE8FE83FF05400070470000F0B5426EF9
:10514000920F0A70426EC2F383624A70426EC2F3DB
:1051500001628A70426E120CCA70B0F86420120AA2
:105160000A7190F864204A71826E120DCA80826EB4
:10517000C2F303420A72B0F86820C2F3C0324A7226
:10518000B0F86820C2F380328A72B0F86820C2F3A7
:105190004032CA72B0F86820C2F300320A730026A7
:1051A0004E73426C4FF40075012462B1012A3AD06B
:1051B000026847499163816B41F08051816380F8B7
:1051C00034400120F0BDB0F86820C36E9205120D86
:1051D00042EA93720A61C26EC2F3C2620A75C26E7B
:1051E000C2F302624A75C26EC2F342528A75C26E3F
:1051F000C2F38242CA75C26EC2F3C2320A760A692B
:10520000521C42650B7E03F007039B1C9A404265CB
:105210000B7A03F00F0704FA07F383655B0A5A431E
:10522000C0E917250EE090F86820C36E9206920A36
:1052300042EA13420A610A69521C92024265C0E9BD
:105240001652056630F86C2FC2F3803201F8192F20
:105250000288C2F3C6124A70027802F07F028A7096
:105260004268D20FCA704268C2F341720A71426842
:10527000C2F382624A714268C2F383528A71426801
:10528000C2F34052CA710E724268C2F300424A72BF
:105290008288C2F3C0328A728288C2F38032CA72B4
:1052A0008288C2F340320A738288C2F300324A73A2
:1052B0008288C2F381228A738288C2F30122CA7370
:1052C0000079C0F3460008744C740020F0BD000063
:1052D000FF054000426C0A60826C4A60C26C8A60C2
:1052E000026DCA60426D0A61826D4A61C26D8A6157
:1052F000006EC8610020704770B50446B0F85000D9
:1053000000250104206803F034FF18B1A16B0143AC
:10531000A16304E00021206803F099FD0546C5F370
:10532000432070BDF8B5056B04460068416B090465
:105330001BD5290719D5D4E90A56002E14D0002709
:10534000206803F0A7FD05F8010B010A05F8011B11
:10535000010C05F8021B000E361F7F1C05F8010C1E
:10536000082FEDD3C4E90A56F8BD416B4FF0000693
:10537000C9054FF0010744D5390281632068C16B2C
:105380004CF23A329143C1632068C16A21F00101B5
:10539000C16228071DD515F0220F09D0206803F03F
:1053A00019FF28B1A16B0143A1632046FFF7C4FE9A
:1053B000216840F23A50886384F834702663A80765
:1053C00003D0204600F0C8FAF8BD204600F0C8FA25
:1053D000F8BD2806FCD5A80609D5206803F0FAFE1A
:1053E00028B1A16B0143A1632046FFF7A5FEA807E2
:1053F000EED12068C16A21F00801C16284F83470DE
:10540000E3E7416B490424D5290722D5D4E908569E
:10541000002EDDD05FF0000715F8010B009015F8A5
:10542000011B361F40EA0120009015F8021B40EADC
:105430000140009015F8011C40EA016000906946A7
:10544000206803F03AFD7F1C082FE5D3C4E9085615
:10545000F8BD416B40F23A221142F9D0416B890705
:1054600003D5A16B41F00201A163416B090703D58C
:10547000A16B41F00801A163416B890603D5A16BC3
:1054800041F02001A163416BC90603D5A16B41F036
:105490001001A163416B890503D5A16B41F008019F
:1054A000A16340F23A7181632068C16B40F23A32E5
:1054B0009143C163206803F08DFEA16B0843A06394
:1054C000280706D584F8347026632046FFF734FE9B
:1054D000F8BD2806FCD515F0300F0CD0E16B114853
:1054E0000865E06BFEF7D1FA0028F1D0E06BBDE86B
:1054F000F84004F077B8A8070CD0216C0A4808657A
:10550000206CFEF7C2FA0028E2D0206CBDE8F8401B
:1055100004F03FB8A66384F8347026632046FFF792
:105520007BFDF8BDE59500089395000870B5040073
:105530000ED094F83400002518B92577204600F0E5
:105540004BF8032084F83400204600F00BF808B133
:10555000012070BDA5632563012084F8340000207C
:1055600070BD0000FEB50025044676200095CDE90B
:10557000015029460B460A46206803F071FC28BBFF
:10558000134E46F8A05F206803F07CFC01253560CF
:10559000204604F02DF928B184F83450A16B014362
:1055A000A16313E0204604F0ACF80028F4D14FF4D6
:1055B0000071206803F0BAFC002808D02268054971
:1055C0009163A16B0143A16384F834500120FEBDB7
:1055D00000802542FF0540002DE9F04F87B00546C9
:1055E00014216846FBF7C3FA4F49286888427CD1EA
:1055F0004EA004F0E9FE55480068544940F40060AC
:105600000860086800F40060059051A004F0DCFE1A
:105610004E48143800684D4940F0040014390860C1
:10562000086800F004000590086840F00800086071
:105630000868032600F0080005904FF4F850009029
:10564000022001900120CDE902060C246946049451
:105650004548FEF7ADFB45A004F0B6FE0427022046
:10566000CDE900700120CDE90206694604944A485C
:10567000FEF79EFB49A004F0A7FE554C53484FF09F
:105680000068C4E900080020A060E06038022061E2
:10569000C4E90976800004F114014FF480494FF009
:1056A000200A4FF4003B81E8010EC6024702204663
:1056B000C4E90B67FEF7CEFA08B1FCF7AFFF45A0CF
:1056C00004F082FE2C644148A563414C48306034AC
:1056D00004F11401C4E900084020A0600020E0604B
:1056E0004FF480602061800000E01AE081E8010E44
:1056F000042060621431032081E8C1002046FEF7D7
:10570000A9FA08B1FCF78AFF3EA004F05DFEEC6345
:10571000002205213120A563FFF71CF83120FFF797
:105720000BF807B0BDE8F08F002C01405B53445DDF
:105730002048414C5F53445F4D7370496E69743A21
:1057400020656E7465720D0A000000004438024046
:105750005344494F20636C6F636B20656E61626CCC
:1057600065640D0A00000000000802404750494FE0
:1057700020506F7274204320636F6E666967757284
:10578000656420285344494F2064617461206C692A
:105790006E6573290D0A0000000C02404750494F06
:1057A00020506F7274204420636F6E666967757253
:1057B000656420285344494F20636F6D6D616E64AA
:1057C000206C696E65290D0A0000000058640240D3
:1057D00020160020444D412053747265616D2033C2
:1057E000202852582920636F6E6669677572656458
:1057F0002C207072696F726974793A204849474861
:105800000D0A0000444D412053747265616D2036CD
:10581000202854582920636F6E6669677572656425
:105820002C207072696F726974793A204849474830
:105830000D0A00002DE9F04786B01F4604461546C4
:1058400039B194F83400012807D0022006B0BDE831
:10585000F087A06B40F0006008E00020A063E36DDB
:10586000EA199A4204D9A06B40F00070A06369E085
:10587000032284F8342022688146D0622268D36BE8
:1058800040F22A363343D363236C2F4ADA63236C06
:105890002E4ADA64226C1065226C9060206C0068DD
:1058A000026822F0C002026020680A46266C4FEAB5
:1058B000472800F180014FEA98033046FEF734FA9A
:1058C000DFF88CA0012670B12068C16B21F49571BE
:1058D000C1632168C1F838A0A06B40F08040A0638C
:1058E00084F834602EE01B480660606C012800D00C
:1058F0006D024FF0FF30CDE90008902002900220A9
:105900000596CDE903096946206803F08AFA012F5C
:1059100006D9822020632946206803F09BFB05E01E
:10592000812020632946206803F0ADFB00288DD03C
:105930002268C2F838A0A16B0143A16384F83460E7
:10594000C4F83090012081E751950008ED940008DB
:10595000FF0540008C85254210B5FCF7F7F810BD17
:1059600010B5FCF759FA10BD2DE9F04F5FEA010BB5
:1059700087B01E460446114607D094F8340001282B
:1059800007D0022007B0BDE8F08FA06B40F00060A8
:1059900008E00025A563E26D8819904204D9A06B48
:1059A00040F00070A06356E0032084F834002068C3
:1059B000C5622068C26B40F21A2942EA0902C2633A
:1059C000E26B2D48D063E26B2C48D064E06B056538
:1059D000606C012800D049024FF09008012E05D9D3
:1059E000A0202063206803F00FFC04E0C4F830809E
:1059F000206803F022FCDFF888A0012730B122687C
:105A0000C2F838A0A16B0143A16321E01D480760E3
:105A1000E16B40208860E06B0068016821F0C00104
:105A200041F04001016022687602B3085946803295
:105A3000E06BFEF779F980B12068C16B21EA0901BA
:105A4000C1632168C1F838A0A06B40F08040A0631A
:105A500084F834702563012094E74FF0FF30CDE9DE
:105A60000006CDE90285CDE904576946206803F0B8
:105A7000D8F9002086E70000D7950008ED940008CB
:105A8000FF0540008C85254270B515460E46040082
:105A900003D094F8490010B107E0012070BD002048
:105AA00084F84800204600F01AF804F10801206844
:105AB000FCF720FE3146A2682068FCF745FED4E9D9
:105AC00001022946236BFCF7F5FDA168206850F818
:105AD000212042F0010240F82120002070BD7047D3
