:020000040800F2
:10000000A89401205D020008C73D0008533700088E
:10001000C53D0008010D0008D55F00080000000084
:100020000000000000000000000000009D0100082A
:10003000F90D000800000000F9010008BD5C00088F
:1000400077020008770200087702000877020008AC
:10005000770200087702000877020008770200089C
:10006000770200087702000877020008770200088C
:10007000770200087702000877020008770200087C
:10008000770200087702000877020008770200086C
:100090007702000877020008770200080D0E0008BA
:1000A000770200087702000877020008770200084C
:1000B00077020008770200087D5D000877020008DB
:1000C000770200087702000877020008770200082C
:1000D000770200087702000877020008770200081C
:1000E000770200087702000877020008770200080C
:1000F00077020008770200087702000877020008FC
:10010000770200080551000877020008770200080E
:1001100077020008770200087702000877020008DB
:100120007702000877020008770200083D0D0008FA
:1001300077020008770200087702000877020008BB
:1001400077020008770200087702000877020008AB
:1001500077020008490D00087702000877020008BE
:10016000770200087702000877020008770200088B
:1001700077020008770200087702000800000000FC
:100180007702000877020008DFF80CD000F026F9AB
:100190000048004779660208A89401202C4B196892
:1001A0000868B0E8F04F80F30988BFF36F8F4FF015
:1001B000000080F3118870470000000008480068C4
:1001C000006880F308884FF0000080F3148862B65E
:1001D00061B6BFF34F8FBFF36F8F00DF00BF00BF6B
:1001E00008ED00E0DFF80C00016841F470010160E7
:1001F000704700BF88ED00E0EFF30980BFF36F8F19
:10020000134B1A681EF0100F08BF20ED108A20E96A
:10021000F04F106009B44FF0500080F31188BFF325
:100220004F8FBFF36F8F2BF0C1FD4FF0000080F3B5
:10023000118809BC19680868B0E8F04F1EF0100F6B
:1002400008BFB0EC108A80F30988BFF36F8F704746
:100250002CC00120EFF3058070470000064880475E
:1002600006480047FEE7FEE7FEE7FEE7FEE7FEE79B
:10027000FEE7FEE7FEE7FEE76D5D00088901000886
:100280002DE9F05F0546002092469B4688460646CB
:10029000814640241BE0284641464746224600F05E
:1002A0008CF853465A46C01A914110D3114618464D
:1002B000224600F073F82D1A67EB01084F462246DC
:1002C0000120002100F06AF817EB00094E41201EC2
:1002D000A4F10104DFDC484631462A464346BDE826
:1002E000F09F10B5431A934209D28318881803E08F
:1002F00010F8011D03F8011D521EF9D210BD40EA8D
:1003000001039B0703D009E008C9121F08C0042A93
:10031000FAD203E011F8013B00F8013B521EF9D27A
:1003200010BDD2B201E000F8012B491EFBD270478C
:100330000022F6E710B513460A4604461946FFF7B1
:10034000F0FF204610BD421C10F8011B0029FBD114
:10035000801A704710B5002200E0521C835C8C5C50
:10036000A34201D1002BF8D1D8B2E1B2401A10BD9E
:1003700030B504460020034600E05B1C934203D2E4
:10038000E05CCD5C401BF8D030BD034611F8012B7A
:1003900000F8012B002AF9D118467047202A04DB07
:1003A000203A00FA02F1002070479140C2F1200388
:1003B00020FA03F3194390407047202A04DB203AC7
:1003C00021FA02F00021704721FA02F3D040C2F175
:1003D000200291400843194670470000064C074D23
:1003E00006E0E06840F0010394E807009847103405
:1003F000AC42F6D3FFF7CCFEF8C1050838C20508B9
:1004000070B58C1810F8015B15F0070301D110F8D6
:10041000013B2A1106D110F8012B03E010F8016B03
:1004200001F8016B5B1EF9D12B0705D40023521E86
:100430000DD401F8013BFAE710F8013BCB1A921CEE
:1004400003E013F8015B01F8015B521EF9D5A142EC
:10045000D8D3002070BD70470146014802F07EBB32
:10046000C811002010B5044802F08AFB042801D00E
:10047000012010BD002010BDC811002070B58AB049
:10048000002439A005F0A8FD214640A005F0A4FDF8
:1004900001208DF800009DF80000012805D045A03E
:1004A00005F09AFD01200AB070BD524802F082FCAE
:1004B00050B15048816B50A005F08EFD4D4802F0C0
:1004C0005FFB014659A040E062A005F085FD0025D4
:1004D0004FF4FA76474802F053FB042805D00A206F
:1004E00001F0B4FA0A35B542F4D3B54204D331462B
:1004F00062A005F071FD012401A93E4802F02EFB27
:100500000498009001AD6C4895E80E0005F064FD7C
:100510000898009005AD694895E80E0005F05CFD6F
:10052000B4B9322001F092FA4FF40061314802F080
:10053000BBF9010012D0624805F04EFD00212D48A4
:1005400002F0B2F901000BD05EA005F045FD0124D8
:1005500021466CA005F040FD2046A4E771A000E014
:100560007DA005F039FDF3E75B4253505F53445DD6
:10057000203D3D3D3D3D2042535020534420494EB7
:100580004954203D3D3D3D3D0D0A00005B42535026
:100590005F53445D20656E7465722C20696E6974CA
:1005A00069616C2073645F73746174653D25750DBA
:1005B0000A0000005B4253505F53445D2063617248
:1005C00064206E6F742064657465637465642028AC
:1005D0004253505F53445F49734465746563746567
:1005E0006420213D2053445F50524553454E5429C9
:1005F0000D0A0000C81100205B4253505F53445D58
:100600002048414C5F53445F496E697420726574A1
:1006100075726E6564204552524F52202865727281
:100620003D30782530386C58290D0A005B42535014
:100630005F53445D2048414C5F53445F47657443BA
:1006400061726453746174652829203D2025640D0E
:100650000A0000005B4253505F53445D2048414C08
:100660005F53445F496E69742072657475726E657C
:1006700064204D53445F4F4B0D0A00005B425350C2
:100680005F53445D206361726420646964206E6F0F
:100690007420656E746572205452414E5346455223
:1006A00020737461746520616674657220256C75B1
:1006B000206D730D0A000000FCC005084CC1050840
:1006C000A8C005085B4253505F53445D2048414C2D
:1006D0005F53445F436F6E6669675769646542752F
:1006E000734F7065726174696F6E2066616C6C62C5
:1006F00061636B206661696C656420282564290D3F
:100700000A0000005B4253505F53445D2066696EEF
:10071000616C2073645F7374617465203D2025757E
:100720000D0A00005B4253505F53445D2048414C2A
:100730005F53445F436F6E666967576964654275CE
:10074000734F7065726174696F6E20342D626974C5
:10075000204F4B0D0A0000005B4253505F53445D35
:100760002048414C5F53445F436F6E666967576929
:1007700064654275734F7065726174696F6E20664F
:10078000616C6C6261636B20746F20312D626974DF
:10079000204F4B0D0A00000000B589B0694616488D
:1007A00002F0DCF920B115A005F016FC09B000BD7F
:1007B0001AA005F011FC1FA0009905F00DFC22A065
:1007C000019905F009FC26A0029905F005FC28A076
:1007D000039905F001FC2BA0049905F0FDFB2EA068
:1007E000059905F0F9FB31A0069905F0F5FB35A058
:1007F000079905F0F1FBD9E7C81100204253505F7B
:1008000053443A20676574206361726420696E66A0
:100810006F206661696C65640D0A000053442043D3
:1008200061726420496E666F2028425350293A0D48
:100830000A000000202043617264547970653A20F8
:10084000256C750D0A000000202043617264566516
:100850007273696F6E3A20256C750D0A00000000F6
:100860002020436C6173733A20256C750D0A0000DB
:10087000202052656C436172644164643A20256CA7
:10088000750D0A002020426C6F636B4E62723A2035
:10089000256C750D0A0000002020426C6F636B53BD
:1008A000697A653A20256C750D0A000020204C6F8E
:1008B00067426C6F636B4E62723A20256C750D0A4D
:1008C0000000000020204C6F67426C6F636B53691F
:1008D0007A653A20256C750D0A000000134610B5A4
:1008E0000A4601460024034802F0E0FB00B101245F
:1008F000204610BDC811002070B51E4613460A469A
:100900000146164802F0D2FB144C10B1A16B14A0A2
:100910000AE001F0A9F9054618E0A06B40B10F48C4
:1009200001F081FFA16B1EA005F056FB012070BDF8
:1009300001F09AF9401BB04208D9084801F073FF52
:10094000A16B27A005F048FB032070BD034802F00F
:1009500017F90428E1D1002070BD0000C811002063
:100960004253505F53445F52656164426C6F636BE6
:10097000735F444D415F426C6F636B696E673A20F1
:10098000737461727420444D41206661696C6564C2
:100990002C206572723D30782530386C580D0A0075
:1009A0004253505F53445F52656164426C6F636BA6
:1009B000735F444D415F426C6F636B696E673A20B1
:1009C0007472616E73666572206572726F722C202C
:1009D0006572723D30782530386C580D0A00000081
:1009E0004253505F53445F52656164426C6F636B66
:1009F000735F444D415F426C6F636B696E673A2071
:100A000074696D656F75742C206572723D30782540
:100A100030386C580D0A000008B50120ADF8000010
:100A2000034800231A466946406826F0FDFB08BDCE
:100A30004C0100202DE9F04105462A484FF40061A1
:100A400041F28836804600F500740F463346012295
:100A5000FFF752FF08B124A03AE0394629A005F07B
:100A6000BBFA002D3CD04FF400752A464146204683
:100A7000FFF737FC00202054401CA842FBDB334624
:100A800001223946204600F0B1F808B127A01FE046
:100A9000022000F0DBFF29461248FFF749FC3346ED
:100AA000012239464046FFF727FF08B126A00FE094
:100AB0002A4621464046FFF75BFC08B12AA007E022
:100AC000334601223946204600F090F828B12EA086
:100AD00005F082FA0120BDE8F08133A005F07CFA30
:100AE0000020F8E7A4D001204253505F53445F54E4
:100AF0006573743A2072656164206661696C65642F
:100B00000D0A00004253505F53445F546573743ABA
:100B1000207265616420626C6F636B20256C7520A8
:100B2000737563636573730D0A0000004253505F71
:100B300053445F546573743A207772697465206614
:100B400061696C65640D0A004253505F53445F5401
:100B50006573743A20726561646261636B206661DB
:100B6000696C65640D0A00004253505F53445F5442
:100B70006573743A20766572696679206661696C7E
:100B800065640D0A000000004253505F53445F54F7
:100B90006573743A20726573746F7265206661695B
:100BA0006C65640D0A0000004253505F53445F546B
:100BB0006573743A20777269746520616E6420767B
:100BC000657269667920737563636573730D0A00D6
:100BD000134610B50A4601460024034802F000FB04
:100BE00000B10124204610BDC81100202DE9F041BC
:100BF00007461E4614460D46194805F0EDF92346F2
:100C00002A463946174802F0EBFA164C10B1A16B90
:100C100015480AE001F028F8054619E0A06B48B134
:100C2000104801F000FEA16B10A005F0D5F90120DD
:100C3000BDE8F08101F018F8401BB04208D909481E
:100C400001F0F1FDA16B19A005F0C6F90320EFE753
:100C5000044801F095FF0428E0D10020E8E70000F7
:100C6000A8C10508C811002064C005084253505FA0
:100C700053445F5772697465426C6F636B735F4472
:100C80004D415F426C6F636B696E673A20747261AD
:100C90006E73666572206572726F722C2065727257
:100CA0003D30782530386C580D0A00004253505FB3
:100CB00053445F5772697465426C6F636B735F4432
:100CC0004D415F426C6F636B696E673A2074696D6A
:100CD000656F75742C206572723D30782530386CE4
:100CE000580D0A0008B50220ADF8000003480023A3
:100CF0001A466946406826F097FA08BD4C01002064
:100D0000FEE7000010B50C4C0A4820604FF4E130BB
:100D100060600020A060E0602061A0610C20606144
:100D2000204602F04AFC2068C16841F02001C16001
:100D300010BD00000010014074C10120014800F006
:100D400013BD00004C120020014800F00DBD000052
:100D5000AC12002001681823CAB2103AB2FBF3F2B9
:100D6000054B6FF30901032A9B5CC36500D9091D7C
:100D7000816508467047000084CD020810B5014621
:100D800000208B698A6A4FF0C07453B1B3F5005FDD
:100D900015D072B1012A0CD0022A0AD0032A09D137
:100DA00004E01AB1012A06D0022A03D1C96AC90196
:100DB00000D5012010BDC96AA142FAD010BD002A99
:100DC000F7D0012AF2D0022AF3D0032AF3D010BDC3
:100DD00030B50468256825F48025256004686360C3
:100DE0008368402B036803D099600068C26030BDFF
:100DF0009A600068C16030BD704701B5009801E09D
:100E0000401E00900028FBD108BD000010B5044C26
:100E10002068C00503D500F077FBA015206010BD49
:100E2000143C014072B6FEE7002200F001B8000059
:100E300030B50E4B054601205C7A002C14D1587A4F
:100E40001C54587A03EB800045605D7A03F108007A
:100E50002A54587A421C5A72303008703A2048702E
:100E60002F208870CC70002030BD000098D0012069
:100E700070B5B3F5804F05D06FF0704140F8221087
:100E8000002070BD50F82240084B8E891C40D1E9EB
:100E9000003543EA05138D6889692D0245EA064548
:100EA0002B430B43234340F82230E9E70000F0CF07
:100EB000F0B50C6850F82430114A1340D1E90125EF
:100EC000D1E903672A433E4332434E6932438E6978
:100ED0003243CE6932430E6A32434E6A32438E6ADF
:100EE0003243CE6A3243CE6B096B32430A431A4314
:100EF000082D01D142F0400240F824200020F0BD2E
:100F00008000F0FF30B500EB820250688D8900F060
:100F10004043D1E9000440EA04108C68240244EA0A
:100F2000054420430C8A074D05EB045420430C7DF7
:100F30006D0105EB04648969204308431843506040
:100F4000002030BD0000F0FF30B5ADF51F7D322030
:100F50002AF0E8FD02F0DAFD01222F492F4810F0B7
:100F60006DFD01460D2813D12DA005F035F84FF485
:100F700080500090304B00220921274810F0B8FA29
:100F8000010006D101222449244810F057FD0146F2
:100F900049B12AA005F020F80DF51F7D0020BDE81D
:100FA00030402AF0E5BD1C492AA005F015F80025BF
:100FB0000A222EA168469C9510F07EFD80B92FA4D0
:100FC0002046FFF7C0F902469CAB2146684610F068
:100FD000ACFF684610F074FA2FA09C9904F0FCFF57
:100FE000012222A1684610F067FD0028D4D14021DB
:100FF0008CA8FFF79DF99DAB3F228CA968469D9573
:1010000010F084FE684610F05BFA8CAA28A09D9927
:1010100004F0E2FFC0E7000055010020708E0120BF
:101020005B46535D204E6F2046532C206D6B6673DC
:101030002E2E2E0D0A000000C80100205B46535DD5
:10104000206D6F756E74206661696C65643A202549
:10105000640D0A005B46535D206D6F756E74204F02
:101060004B206F6E2025730D0A000000303A2F6868
:10107000656C6C6F2E7478740000000048656C6CB1
:101080006F2C204661744673202B20467265655292
:10109000544F53210D0A00005B46535D207772695F
:1010A00074652025752062797465730D0A0000004F
:1010B0005B46535D207265616420257520627974FA
:1010C00065733A2025730D0A00000000FEB500206C
:1010D000224C0090019002902078214D00EB4000BE
:1010E00005EB40000A228088401C010A8DF80010A0
:1010F0008DF801006946BA2000F052F8002820DB84
:101100009DF802009DF80310032200EB012087B236
:101110009DF804009DF8051000EB012086B22078B0
:1011200000EB400005EB40008088801D010A8DF82F
:1011300000108DF801006946BA2000F031F800284F
:1011400001DA0020FEBD9DF80200324600F00303E4
:10115000394604A004F040FF0120FEBD10C001206C
:101160009CCD02083C3C2D4754502D494E464F2DF6
:101170003E3E20585F4D4158203D2025642C20598B
:101180005F4D4158203D2025642C2054524947474B
:101190004552203D203078253032780A000000008A
:1011A000F0B587B00D460221ADF8041000240121EE
:1011B000ADF80240ADF80E108DF800008DF80C006F
:1011C000901EADF81000A81C16460295059002214D
:1011D000684602F089FB0746022803D0641C052CF0
:1011E000F5DB01E0052C06DB28883B4641BAB21E40
:1011F000024804F0F1FE07B03846F0BDF4BA050825
:1012000038B50020009011480025007800EB40011F
:101210000F4800EB41008088010A8DF800108DF81E
:1012200001006C1E0BE003226946BA20FFF7B8FFED
:1012300044B2002C08DC294606A004F0CDFE284666
:101240006D1CEDB20528EED3204638BD10C001203C
:101250009CCD02083C3C2D4754502D4552524F52D4
:101260002D3E3E20475450206932632074657374CC
:10127000206661696C65642074696D652025642E43
:101280000A000000FEB50024ADF8024016460F46E5
:101290008DF80000ADF8042002910121684602F0AB
:1012A00023FB0546012803D0641C052CF5DB01E077
:1012B000052C06DB38882B4641BAB21E024804F0E2
:1012C0008BFE2846FEBD000044BB050810B502F0A9
:1012D00001FBFFF795FF040004D506A004F07CFE97
:1012E000204610BD00F01CF802F082FAFFF7EEFE77
:1012F000002010BD3C3C2D4754502D4552524F52BA
:101300002D3E3E2049324320636F6D6D756E6963DB
:101310006174696F6E204552524F52210A000000DD
:1013200030B5484985B00822D1E90201CDE9030171
:1013300003A9BA20FFF734FF050003D542A004F04B
:101340004BFE7BE09DF80E104A4C352918D09DF8D5
:101350001120002A35D09DF812009DF8133000921C
:10136000CDE90130372A9DF810309DF80F2042A0BA
:1013700042D004F031FE9DF80E00392850D05DE0D7
:101380009DF811009DF812309DF813208DE80D0096
:101390009DF810309DF80F2043A004F01DFE9DF82D
:1013A0000E0035284AD19DF80F00362846D19DF809
:1013B0001000382842D19DF8110038283ED1022073
:1013C0003BE09DF812209DF81300CDE900029DF846
:1013D00010309DF80F2040A004F0FEFD9DF80E0097
:1013E00039282BD19DF80F00312827D19DF8100006
:1013F000312823D1012020E004F0EEFD9DF80E00FD
:1014000039281BD19DF80F00312817D19DF8100005
:10141000342813D19DF8110037280FD103200CE098
:101420009DF80F00312809D19DF81000352805D10D
:101430009DF81100372801D10420207005B02846FE
:1014400030BD00008CCD02083C3C2D4754502D454A
:1014500052524F522D3E3E204754502072656164D7
:101460002076657273696F6E206661696C65640AC7
:101470000000000010C001203C3C2D4754502D4975
:101480004E464F2D3E3E20494333205665727369C8
:101490006F6E3A2025632563256325635F2530320F
:1014A00078253032780A00003C3C2D4754502D49B5
:1014B0004E464F2D3E3E204943312056657273699A
:1014C0006F6E3A2025632563256325635F253032DF
:1014D00078253032780A00003C3C2D4754502D4985
:1014E0004E464F2D3E3E2049433220566572736969
:1014F0006F6E3A202563256325635F25303278259A
:101500003032780A0000000000F012B80148B0F94B
:101510000600704710C001200148B0F90200704772
:1015200010C001200148B0F90400704710C001202C
:101530002DE9F04342A099B00068189028210DF1E0
:1015400030080DA8FEF7F4FE3E4F00250C22386847
:101550000C90BA2081460CA9FFF722FE010005D5A8
:1015600039A004F039FD19B0BDE8F0839DF83200D0
:101570000028F8D0010658D500F00F04052C54D8E7
:10158000012C14D902AE2421301DFEF7D1FE78685B
:1015900002906FF0050000EBC40202A94846FFF775
:1015A000FFFDE200B11C0FA8083AFEF79AFE324890
:1015B00014BB35E008EBC5012F4BCA78143302F099
:1015C0000F025A552D4B8A88C9881B78082B12D2D6
:1015D000DFE803F004070A0D1A1D2023C0E90321E8
:1015E00009E0C0E9031206E0C2F5F072F6E7C16057
:1015F000C2F5F07101616D1CA542DBDB8189418080
:10160000018A818001210EE0C1F54871E6E7C1F54C
:101610004871E6E7C2F5F072F6E7C1F54871E6E712
:10162000018909B10021C1800481032218A948461B
:10163000FFF728FE002896DA11A004F0CDFC92E70F
:10164000814E00008CCD02083C3C2D4754502D4566
:1016500052524F522D3E3E20493243207472616EE9
:1016600073666572206572726F722E206572726E7B
:101670006F3A25640A200A0010C0012004000020EF
:101680003C3C2D4754502D494E464F2D3E3E20495F
:10169000324320777269746520656E645F636D64A0
:1016A000206572726F72210A000000002DE9F0417E
:1016B0000446876D00F0D8FA064694F835000025F8
:1016C000022806D08020606584F834500120BDE8EF
:1016D000F0812068016821F01601016020684169ED
:1016E00021F080014161206C08B9A06C20B1206814
:1016F000016821F0080101602068016821F0010102
:1017000001600CE000F0B0FA801B052807D920200A
:101710006065032084F8350084F83450D7E72068EA
:101720000068C007EED194F85C103F208840B86094
:10173000012084F8350084F834500020C7E790F881
:101740003510022903D08021416501207047052111
:1017500080F835100068016821F001010160002067
:101760007047406D704700002DE9F84304464FF084
:101770000009CDF8009063484FF41651A56D00683C
:10178000B0FBF1F72E6894F85C10082000FA01F124
:1017900031420FD021680A6852070BD50A6822F03F
:1017A00004020A6094F85C108840A860606D40F004
:1017B0000100606594F85C104FF0010808FA01F030
:1017C000304208D021684969090604D5A860606DD7
:1017D00040F00200606594F85C10042088403042BC
:1017E00008D021680968890704D5A860606D40F0B9
:1017F0000400606594F85C1010208840304218D0D6
:1018000021680968090714D5A860206801684903A0
:1018100004D50068000308D5A16C07E00168C9057C
:1018200003D4016821F008010160216C09B1204650
:10183000884794F85C1020208840304231D02168DD
:101840000968C9062DD5A86094F8350005282068D8
:10185000016806D0490347D5006800031DD4616CB8
:101860001CE021F0160101602068416921F080012F
:101870004161206C08B9A06C20B12068016821F09A
:101880000801016094F85C103F208840A86084F84B
:10189000358084F83490216D1FE0E16B09B120465A
:1018A0008847606D00282BD0606DC00714D00520DC
:1018B00084F835002068016821F00101016000987A
:1018C000401C0090B84203D820680068C007F6D1D9
:1018D00084F8358084F83490E16C002910D001B090
:1018E0002046BDE8F04308470168C905D5D4016822
:1018F00021F01001016084F8358084F83490CCE741
:10190000BDE8F88300C001202DE9F041044600F055
:10191000ABF906465CB1022084F83500002584F856
:1019200034502068016821F0010101600DE00120C0
:10193000BDE8F08100F098F9801B052805D920202A
:101940006065032084F83500F2E720680068C0076E
:10195000F0D12268116820480140D4E901031843FE
:10196000D4E903363343184363691843A369184322
:10197000E3691843236A18430843616A042903D1C1
:10198000D4E90B1319430843106020684069666A64
:1019900020F0070130460E43012704280CD1A06A2D
:1019A0000643E06A40B12046FFF7E8F920B1402045
:1019B000606584F83570BAE7206846612046FFF715
:1019C000C9F994F85C203F2191408160656584F8F5
:1019D00035700020ACE700003F8010F02DE9F041A9
:1019E0000446866D90F83400002501280DD00120B2
:1019F00084F8340094F835700020012F07D084F863
:101A0000340002252846BDE8F0810220FBE70227CA
:101A100084F8357060652046FFF7DAF994F85C10B9
:101A20003F208840B0602068016841F016010160E5
:101A3000206C20B12068016841F008010160206835
:101A4000016841F001010160DCE7000070B5054666
:101A500000F00AF94FEA000400F006F9001BA84262
:101A6000FAD370BD2DE9F84FDFF8BCA100220125A3
:101A70000AF1040B03264FF00F090BF1040E00BF0F
:101A80000B6805FA02F42340A34270D10F7907F0E6
:101A90000307012F01D0022F16D187684FEA4208B1
:101AA00006FA08FC27EA0C07D1F80CC00CFA08FC6F
:101AB0004CEA070CC0F808C04768A7430C79C4F388
:101AC000001494403C4344600C79E443A4070AD0DA
:101AD000C4684FEA420C06FA0CF7BC438F6807FA59
:101AE0000CF72743C7600C7904F00304022C12D1D1
:101AF000D40800EB840CDCF820405707FF0E09FAED
:101B000007F824EA0804D1F8108008FA07F848EA30
:101B10000408CCF8208004684FEA420C06FA0CF75F
:101B2000BC430F7907F0030707FA0CF72743076058
:101B30004C6814F4403F70D03C4C276847F4804711
:101B40002760246822F0030704F480440094384C92
:101B500007EB040CDCF8084897074FEA177809FAF6
:101B600008F7BC43334FB84202D1002724E054E0C9
:101B7000314FB84201D101271EE0304FB84201D1A8
:101B8000022719E02E4FB84201D1032714E02D4F50
:101B9000B84201D104270FE02B4FB84201D10527ED
:101BA0000AE02A4FB84201D1062705E0284FB84283
:101BB00001D1072700E0082707FA08F72743CCF8E8
:101BC0000878DAF800405746D1F804C09C435FEA31
:101BD000CC3C00D51C433C60DBF800405F46D1F8AC
:101BE00004C09C435FEA8C3C00D51C433C60DEF89B
:101BF00000407746D1F804C09C435FEACC2C00D566
:101C00001C433C60084F0C373C68D1F804C09C432F
:101C10005FEA8C2C00D51C433C60521C102AFFF458
:101C20002FAFBDE8F88F0000003C0140443802406F
:101C30000030014000000240000402400008024061
:101C4000000C024000100240001402400018024044
:101C5000001C02400069084000D0012070470AB112
:101C6000816170470904FBE7014880687047000004
:101C700004C00120024881680278114481607047E5
:101C800004C00120094810B5016841F400710160E9
:101C9000016841F480610160032000F09FF80F208B
:101CA00000F006F800F050F8002010BD003C0240A3
:101CB00030B505461F4887B00024016841F0040193
:101CC0000160006806A900F00400009001A800F07F
:101CD000CFF90498A8B100F0EBF940001649174A73
:101CE000B0FBF1F11648491E026040F2E732C0E94C
:101CF0000324C0E90114846101F030FB040003D027
:101D000015E000F0D5F9E9E70D4801F055FB0400B6
:101D10000DD11E2000F034F8102D07D200222946E4
:101D20001E2000F03BF80748056000E0012407B0E2
:101D3000204630BD4038024040420F0000080040BD
:101D4000B8C1012008C001200C4882B0016841F4EC
:101D500080410160006800F4804000900748001F47
:101D6000016841F0805101600068002200F080505D
:101D700000900F21901E02B000F010B844380240CD
:101D8000002809DB00F01F0201219140400980007A
:101D900000F1E020C0F8001170470000F0B40E4BD5
:101DA0001B680C46C3F30223C3F10705042D00D9B9
:101DB0000425191D072901D2002300E0DB1E01269E
:101DC00006FA05F1491E214099409E40761E1640B4
:101DD0003143F0BC04F010B90CED00E0064900F00E
:101DE000070208684FF6FF03184040EA0220034A42
:101DF00010430860704700000CED00E00000FA0599
:101E00002DE9F843054600684FF00109C1074FF07E
:101E1000000601D1400727D5DFF80C81C8F86860BB
:101E2000FFF722FF0746414C05E000BFFFF71CFF0C
:101E3000C01B022857D820680001F7D468688101C8
:101E4000287A41EA0070394984310860C8F86890FE
:101E5000FFF70AFF074604E0FFF706FFC01B022852
:101E600041D820680001F7D52878800752D52F483F
:101E70004030016841F08051016000682C4C00F056
:101E800080500090206840F480702060FFF7ECFEE6
:101E9000074604E0FFF7E8FEC01B022823D82068AD
:101EA000C005F7D5214C7034206810F4407020D064
:101EB000A98901F4407181421BD020681D4920F49A
:101EC0004070C1F800900E6020602068C00710D0FC
:101ED000FFF7CAFE064641F2883707E0FFF7C4FE67
:101EE000801BB84202D90320BDE8F8832068800730
:101EF000F4D5E9680D48C1F301220830032A0BD05C
:101F0000016821F4F81101602068A989C1F30B016F
:101F1000084320600020E7E70268074B22F4F8122C
:101F200019400A430260EFE70000474200380240D0
:101F300000700040400E4742FFFCFF0F2DE9F047C4
:101F40000E46050065D0DFF81481D8F80000F7B21E
:101F500000F00700B04207D288F80070D8F80000FF
:101F600000F00700B04254D128683D4C810712D5DB
:101F7000400703D5206840F4E0502060287800072F
:101F800003D5206840F4604020602068A96820F0F4
:101F9000F000084320602878C0072DD030496868D9
:101FA0000839012812D0022813D0032811D009685B
:101FB000890700292DDA216821F0030101432160FE
:101FC000FFF752FE814641F2883A0EE00968890324
:101FD000EFE709688901ECE7FFF746FEA0EB09018E
:101FE000514502D90320BDE8F0872068696800F0F8
:101FF0000C00B0EB810FEFD1D8F80010404601F093
:102000000701B14207D90770006800F00700B0422D
:1020100001D00120E7E72878400705D52068E96866
:1020200020F4E050084320602878000706D5206897
:10203000296920F4604040EAC100206000F058F8AF
:102040002168084AC1F30311515CC8400649086081
:1020500006480068FFF72CFE0020C4E7003C024061
:10206000083802406CCD020800C0012008C00120E1
:102070000F2202600C4A136803F0030343601368E5
:1020800003F0F0038360136803F4E053C360126845
:102090004FF4E05303EAD20202610448006800F002
:1020A000070008607047000008380240003C02400A
:1020B0000448054900680968044AC1F38221515C5B
:1020C000C840704700C00120083802407CCD02089B
:1020D0000448054900680968044AC1F34231515C6B
:1020E000C840704700C00120083802407CCD02087B
:1020F000154810B5006810F00C02144813D04110B8
:10210000042A0FD0082A0ED10F4C241F22682368FE
:1021100002F03F025B0207D52068C0F38810A0FBE5
:10212000010106E0084610BD2168C1F38811A1FB3A
:1021300000010023FEF7A4F82168C1F30141491C06
:102140004900B0FBF1F010BD083802400024F40053
:102150002DE9F84F04006ED02078DFF84C93C007CB
:10216000A9F104054AD009F104000168C1F3810115
:10217000012908D00068C0F3810002280AD1D9F8EB
:102180000000400206D52868800337D56068002823
:10219000E1D033E06068B0F5803F10D0B0F5A02FFB
:1021A000286810D020F480302860286820F480202F
:1021B00028606068A8B1FFF757FD06460DE0286863
:1021C00040F48030F4E740F480202860F7E700BF57
:1021D000FFF74AFD801B642873D828688003F7D571
:1021E0000CE0FFF741FD064605E000BFFFF73CFDB0
:1021F000801B6428F0D828688003F7D42078DFF8A3
:10220000AC8280074FF0000A3ED5A748001D016848
:1022100011F00C0F08D00068C0F3810002280BD128
:10222000D9F80000400207D42868800716D5E06876
:10223000012800D112E033E1E068B8B10120C8F80C
:102240000000FFF711FD064605E000BFFFF70CFD9B
:10225000801B0228C0D828688007F7D52868216924
:1022600020F0F80040EAC10028600DE0C8F800A0A6
:10227000FFF7FAFC064604E0FFF7F6FC801B022895
:102280001FD828688007F7D42078000722D5864F0A
:1022900087486169703771B101210160FFF7E4FC83
:1022A000064604E0FFF7E0FC801B022809D83868E6
:1022B0008007F7D50EE0C0F800A0FFF7D5FC064672
:1022C00005E082E0FFF7D0FC801B02287DD838684B
:1022D0008007F7D42078400768D5DFF8CCB1002715
:1022E0000BF13C0BDBF80000C0000BD4DBF8001056
:1022F00041F08051CBF80010DBF80000012700F01E
:10230000805000906B4E3068C00510D4306840F4A7
:1023100080703060FFF7A8FC009005E0FFF7A4FC98
:102320000099401A022850D83068C005F6D55E4E94
:10233000A0686C3601280FD00528306810D020F036
:1023400001003060306820F004003060A068B8B14F
:10235000FFF78AFC00900FE0306840F00100F4E7DE
:1023600040F004003060F7E7FFF77EFC0099411A67
:1023700041F28830814266D830688007F4D50EE09B
:10238000FFF772FC009007E0FFF76EFC0099411A1E
:1023900041F28830814256D830688007F4D42FB19A
:1023A000DBF8001021F08051CBF80010A069C8B311
:1023B0003D49091D0968C1F3810102294AD002285B
:1023C000504607D0C8F8600000E03CE0FFF74CFC46
:1023D00004463BE04746C8F86000FFF745FC064668
:1023E00005E000BFFFF740FC801B02282BD82868BF
:1023F0008001F7D4D4E907010843A16A2E4A4908AD
:1024000002EB0141626A41EA8211084394F82C1000
:1024100040EA0161C9F8001001203866FFF724FC8A
:10242000044606E03EE000BFFFF71EFC001B02284A
:1024300009D828688001F7D534E000BFFFF714FC05
:10244000001B022802D90320BDE8F88F286880010C
:10245000F4D427E00128F7D0D9F80000E26900F4AD
:10246000800191421CD1226A00F03F01914217D1B4
:1024700047F6C071626A0140B1EB821F10D1A26AB7
:102480004FF0FF3300F4403103EB5202B1EB024F47
:1024900006D194F82C1000F07060B0EB016F01D001
:1024A0000120D1E70020CFE7043802400000474276
:1024B000800E4742007000400000FFFF10B500682A
:1024C0000B4641680D480140080CD870C1F3042444
:1024D0005C7001F03F049C70C1F34231197052B935
:1024E00002F0C6FDD870587802F0C2FD5870987896
:1024F00002F0BEFD9870002010BD00003FFFFF00FD
:1025000010B50B460168896A596001680969C1F311
:102510000E019960006801680E480140C1F3054052
:102520001870C1F306245C7001F07F049C70402495
:1025300004EA1141D97052B902F09AFD1870587826
:1025400002F096FD5870987802F092FD9870002085
:1025500010BD00007F7F7F0070B5040002D0607F57
:1025600010B106E0012070BD00202077204600F069
:1025700049F8022060772168CA2048622168532008
:102580004862204602F088FDFF25042618BB20681B
:1025900081681B4A11408160216888686268104325
:1025A000D4E904231A43104388602168E068086175
:1025B00020680169228941EA024101612068C168FD
:1025C00021F08001C16020688068800607D4204621
:1025D00000F00EF918B1206845626677C2E72068FE
:1025E000016C21F4802101642068016CA26911430F
:1025F00001642068456201206077002070BD000002
:10260000BFFF8FFF1FB5002100910191029103913F
:102610000068084988420CD102200090C001039054
:102620006846FFF7EDFB08B1FEF7FCFB024901200D
:1026300008601FBD002800403C0E47422DE9F047CE
:102640000446007F0B4601281FD04FF0010984F893
:102650001C9002206077DAB19878D97840EA014579
:1026600058781978000240EA413005432168CA20B1
:102670004862216853204862204602F00DFD002682
:10268000FF274FF0040860BB1AE00220BDE8F08786
:102690005878C10603D500F0EF000A305870D8789A
:1026A00002F0EFFC0204587802F0EBFC42EA002250
:1026B000987802F0E6FC0243187842EA4035D5E704
:1026C0000F480540206845602068C16821F08001FE
:1026D000C1602068806880060AD4204600F088F82F
:1026E00030B12068476284F81D8026770120CDE74D
:1026F0002068476284F81D9026770020C6E7000016
:102700003FFFFF002DE9F0470446007F0D460128FA
:1027100027D04FF0010A84F81CA0022060772068BF
:10272000002680684FEA4060F2B1002800DBEE70BE
:10273000A878297840EA01476878E978000240EAF9
:10274000014007432168CA2048622168532048623B
:10275000204602F0A1FC4FF0FF084FF00409A0BB97
:1027600016E00220BDE8F087002800DBEE70287834
:1027700002F087FC0204687802F083FC42EA00223F
:10278000A87802F07EFC0243E87842EA0047D9E7E5
:1027900016480740206807602068816821F480217E
:1027A0008160D5E90301084321688A681043886085
:1027B0002068C16821F08001C160206880688006BF
:1027C0000BD4204600F014F838B12168C1F82480F9
:1027D00084F81D9026770120C4E72168C1F8248081
:1027E00084F81DA026770020BCE700007F7F7F00D3
:1027F00070B504460068C16821F0A001C160FFF710
:1028000033FA05464FF47A7607E000BFFFF72CFA5B
:10281000401BB04201D9032070BD2068C06880060B
:10282000F4D5002070BD10B50446006B2168CA6B5A
:1028300022F49D72CA63226840F23A519163216882
:10284000CA6A22F00102CA62010613D52168CA6A67
:1028500022F00802CA6210F0300F01D0E06B02E0F3
:10286000800707D0206CFEF721FF18B1A06B40F065
:102870008040A063012084F83400002020632046BB
:1028800000F07EF9062801D0052803D1206802F067
:10289000F9FDA063A06B002800D0012010BD10B589
:1028A000FDF7D9FD10BD00002DE9FE4304460026CA
:1028B00003200D4684F83400606C03285ED0B5F523
:1028C000805F5BD04FF4006700204FF08068BD420E
:1028D0001FD18146009001900021206802F00FFC7A
:1028E000800113D46946204602F0F6FF07000DD19F
:1028F0000198400334D5B4F850000104206802F078
:1029000039FC070002D10221206823E0A06B384384
:1029100028E01DB1A06B40F0006023E081460090EC
:1029200001900021206802F0EAFB8001EED46946A4
:10293000204602F0D1FF0700E8D10198C0030FD56F
:10294000B4F850000104206802F014FC0700DDD147
:102950000021206802F05BFC0700D7D14F46D5E785
:102960004746D3E7A063A06B144F4FF0010848B16E
:102970002068876384F8348001260EE0A06B40F065
:102980008050EFE7211DD4E9050C0EC9CDE90050B8
:10299000CDF808C0206802F0BBFB4FF4007120683E
:1029A00002F01CFC28B121688F63A16B0143A16375
:1029B000012684F834803046BDE8FE83FF054000E0
:1029C00070470000F0B5426E920F0A70426EC2F37B
:1029D00083624A70426EC2F301628A70426E120CC8
:1029E000CA70B0F86420120A0A7190F864204A7123
:1029F000826E120DCA80826EC2F303420A72B0F870
:102A00006820C2F3C0324A72B0F86820C2F3803244
:102A10008A72B0F86820C2F34032CA72B0F86820F7
:102A2000C2F300320A7300264E73426C4FF40075F5
:102A3000012462B1012A3AD0026847499163816B4F
:102A400041F08051816380F834400120F0BDB0F83E
:102A50006820C36E9205120D42EA93720A61C26E3B
:102A6000C2F3C2620A75C26EC2F302624A75C26ED6
:102A7000C2F342528A75C26EC2F38242CA75C26EF6
:102A8000C2F3C2320A760A69521C42650B7E03F019
:102A900007039B1C9A4042650B7A03F00F0704FA68
:102AA00007F383655B0A5A43C0E917250EE090F8E7
:102AB0006820C36E9206920A42EA13420A610A69CA
:102AC000521C92024265C0E91652056630F86C2F1E
:102AD000C2F3803201F8192F0288C2F3C6124A707D
:102AE000027802F07F028A704268D20FCA70426890
:102AF000C2F341720A714268C2F382624A7142684B
:102B0000C2F383528A714268C2F34052CA710E7294
:102B10004268C2F300424A728288C2F3C0328A72AB
:102B20008288C2F38032CA728288C2F340320A734A
:102B30008288C2F300324A738288C2F381228A7388
:102B40008288C2F30122CA730079C0F34600087478
:102B50004C740020F0BD0000FF054000426C0A608C
:102B6000826C4A60C26C8A60026DCA60426D0A6102
:102B7000826D4A61C26D8A61006EC8610020704733
:102B800070B50446B0F8500000250104206802F03A
:102B900048FC18B1A16B0143A16304E00021206847
:102BA00002F0ADFA0546C5F3432070BDF8B5056BDC
:102BB00004460068416B09041BD5290719D5D4E9DF
:102BC0000A56002E14D00027206802F0BBFA05F840
:102BD000010B010A05F8011B010C05F8021B000E90
:102BE000361F7F1C05F8010C082FEDD3C4E90A56E7
:102BF000F8BD416B4FF00006C9054FF0010744D501
:102C0000390281632068C16B4CF23A329143C1634F
:102C10002068C16A21F00101C16228071DD515F0A5
:102C2000220F09D0206802F02DFC28B1A16B0143CE
:102C3000A1632046FFF7C4FE216840F23A50886342
:102C400084F834702663A80703D0204600F0C0FA49
:102C5000F8BD204600F0C0FAF8BD2806FCD5A8064D
:102C600009D5206802F00EFC28B1A16B0143A163D5
:102C70002046FFF7A5FEA807EED12068C16A21F023
:102C80000801C16284F83470E3E7416B490424D53C
:102C9000290722D5D4E90856002EDDD05FF00007C1
:102CA00015F8010B009015F8011B361F40EA0120B2
:102CB000009015F8021B40EA0140009015F8011C35
:102CC00040EA016000906946206802F04EFA7F1CDD
:102CD000082FE5D3C4E90856F8BD416B40F23A220B
:102CE0001142F9D0416B890703D5A16B41F0020174
:102CF000A163416B090703D5A16B41F00801A163F2
:102D0000416B890603D5A16B41F02001A163416BA2
:102D1000C90603D5A16B41F01001A163416B890580
:102D200003D5A16B41F00801A16340F23A718163C0
:102D30002068C16B40F23A329143C163206802F0CF
:102D4000A1FBA16B0843A063280706D584F8347063
:102D500026632046FFF734FEF8BD2806FCD515F0A3
:102D6000300F0CD0E16B11480865E06BFEF7E7FC13
:102D70000028F1D0E06BBDE8F84002F08BBDA80759
:102D80000CD0216C0A480865206CFEF7D8FC00289E
:102D9000E2D0206CBDE8F84002F053BDA66384F891
:102DA000347026632046FFF77AFDF8BD9558000879
:102DB0004358000870B504000ED094F83400002584
:102DC00018B92577204600F04BF8032084F834002A
:102DD000204600F00BF808B1012070BDA563256303
:102DE000012084F83400002070BD0000FEB50025ED
:102DF000044676200095CDE9015029460B460A4647
:102E0000206802F085F928BB134E46F8A05F2068C1
:102E100002F090F901253560204602F041FE28B10C
:102E200084F83450A16B0143A16313E0204602F003
:102E3000C0FD0028F4D14FF40071206802F0CEF9F3
:102E4000002808D0226805499163A16B0143A16362
:102E500084F834500120FEBD00802542FF0540006B
:102E60002DE9F04F87B0054614216846FDF760FA5A
:102E70004F49286888427CD14EA003F0ADF85548F0
:102E80000068544940F400600860086800F400607D
:102E9000059051A003F0A0F84E48143800684D4941
:102EA00040F0040014390860086800F00400059040
:102EB000086840F0080008600868032600F0080071
:102EC00005904FF4F8500090022001900120CDE9C8
:102ED00002060C24694604944A48FEF7C3FD4AA042
:102EE00003F07AF804270220CDE900700120CDE933
:102EF0000206694604944D48FEF7B4FD4CA003F069
:102F00006BF8554C53484FF00068C4E900080020A6
:102F1000A060E06038022061C4E90976800004F115
:102F200014014FF480494FF0200A4FF4003B81E830
:102F3000010EC60247022046C4E90B67FEF7E4FC17
:102F400008B1FDF76FFF45A003F046F82C64414837
:102F5000A563414C4830603404F11401C4E9000811
:102F60004020A0600020E0604FF48060206180007D
:102F700000E01AE081E8010E0420606214310320B1
:102F800081E8C1002046FEF7BFFC08B1FDF74AFF0B
:102F90003CA003F021F8EC63002206213120A56358
:102FA000FEF7FCFE3120FEF7EBFE07B0BDE8F08F28
:102FB000002C01405B53445D2048414C5F53445F0B
:102FC0004D7370496E69743A20656E7465720D0AAE
:102FD00000000000443802405B53445D2048414CEF
:102FE0005F53445F4D7370496E69743A205344498E
:102FF0004F20636C6F636B20656E61626C65640D5E
:103000000A000000000802405B53445D2048414C28
:103010005F53445F4D7370496E69743A204750495D
:103020004F4320696E697465640D0A00000C02400C
:103030005B53445D2048414C5F53445F4D7370497E
:103040006E69743A204750494F4420696E6974652F
:10305000640D0A00586402404C1200205B53445D2A
:103060002048414C5F53445F4D7370496E69743A18
:1030700020444D4120525820696E697465640D0AE0
:10308000000000005B53445D2048414C5F53445FA7
:103090004D7370496E69743A20444D412054582054
:1030A000696E697465640D0A000000002DE9F0473F
:1030B00086B01F460446154639B194F834000128FD
:1030C00007D0022006B0BDE8F087A06B40F000609A
:1030D00008E00020A063E36DEA199A4204D9A06BCE
:1030E00040F00070A06369E0032284F83420226875
:1030F0008146D0622268D36B40F22A363343D363D1
:10310000236C2F4ADA63236C2E4ADA64226C106532
:10311000226C9060206C0068026822F0C00202609D
:1031200020680A46266C4FEA472800F180014FEAE2
:1031300098033046FEF752FCDFF88CA0012670B1F0
:103140002068C16B21F49571C1632168C1F838A072
:10315000A06B40F08040A06384F834602EE01B48F0
:103160000660606C012800D06D024FF0FF30CDE9A1
:1031700000089020029002200596CDE903096946D7
:10318000206801F0A6FF012F06D98220206329467E
:10319000206802F0B7F805E0812020632946206806
:1031A00002F0C9F800288DD02268C2F838A0A16BBF
:1031B0000143A16384F83460C4F83090012081E7B2
:1031C000015800089D570008FF0540008C852542E6
:1031D00010B5FDF721FC10BD10B5FDF783FD10BD46
:1031E0002DE9F04F5FEA010B87B01E4604461146F9
:1031F00007D094F83400012807D0022007B0BDE8BA
:10320000F08FA06B40F0006008E00025A563E26D40
:103210008819904204D9A06B40F00070A06356E07A
:10322000032084F834002068C5622068C26B40F235
:103230001A2942EA0902C263E26B2D48D063E26BAD
:103240002C48D064E06B0565606C012800D0490211
:103250004FF09008012E05D9A0202063206802F0CD
:103260002BF904E0C4F83080206802F03EF9DFF862
:1032700088A0012730B12268C2F838A0A16B0143B1
:10328000A16321E01D480760E16B40208860E06B8E
:103290000068016821F0C00141F04001016022682E
:1032A0007602B30859468032E06BFEF797FB80B197
:1032B0002068C16B21EA0901C1632168C1F838A007
:1032C000A06B40F08040A06384F834702563012037
:1032D00094E74FF0FF30CDE90006CDE90285CDE956
:1032E00004576946206801F0F4FE002086E70000DC
:1032F000875800089D570008FF0540008C8525422F
:1033000070B515460E46040003D094F8490010B17C
:1033100007E0012070BD002084F84800204600F03E
:103320001AF804F108012068FDF7C2FD3146A268D1
:103330002068FDF7E7FDD4E901022946236BFDF77C
:1033400097FDA168206850F8212042F0010240F862
:103350002120002070BD70477047704710B50400F1
:1033600003D094F83D0010B107E0012010BD00200B
:1033700084F83C00204600F01EF8022084F83D004E
:10338000211D206802F000FD012084F8460084F829
:103390003E0084F83F0084F8400084F8410084F83F
:1033A000420084F8430084F8440084F8450084F81F
:1033B0003D00002010BD704790F83D10012901D05C
:1033C00001207047022180F83D100168CA6842F070
:1033D0000102CA6000681149884214D0B0F1804FE0
:1033E00011D00F4988420ED00E4988420BD00E49A9
:1033F000884208D00D49884205D00D49884202D044
:103400000C49884204D1816801F00701062903D0E4
:10341000016841F001010160002070470000014097
:103420000004004000080040000C0040000401407F
:103430000040014000180040704770B50446006825
:1034400001694FF00005C943890715D4C168C94314
:10345000890711D4E91E0161012020772068806965
:103460008007204602D0FFF7E7FF04E000F098F85D
:10347000204600F096F8257720680169C94349077E
:1034800017D4C168C943490713D46FF0040101611F
:10349000022020772068806910F4407F204602D007
:1034A000FFF7CAFF04E000F07BF8204600F079F84F
:1034B000257720680169C943090716D4C168C94343
:1034C000090712D46FF008010161042020772068F9
:1034D000C0698007204602D0FFF7AEFF04E000F08D
:1034E0005FF8204600F05DF8257720680169C94340
:1034F000C90617D4C168C943C90613D46FF01001B7
:103500000161082020772068C06910F4407F2046C0
:1035100002D0FFF791FF04E000F042F8204600F0EF
:1035200040F8257720680169C943C90708D1C168F7
:10353000C943C90704D1891E0161204600F032F851
:1035400020680169C943090609D4C168C94309064D
:1035500005D46FF0800101612046FFF7FDFE206871
:103560000169C943490609D4C168C943490605D45C
:103570006FF040010161204600F01EF820680169EB
:10358000C94389060BD4C168C943890607D46FF0C3
:10359000200101612046BDE87040FFF7DEBE70BD2E
:1035A0007047704700680349884201D1FEF762BB4B
:1035B0007047000000080040704770B5040004D058
:1035C00094F83D00002510B106E0012070BD84F89C
:1035D0003C50204600F022F8242084F83D0020686A
:1035E000C16821F40051C160204602F031FC20681E
:1035F000016921F4904101612068416921F02A01AB
:1036000041612068C16841F40051C16025642020F7
:1036100084F83D0084F83E00002070BD30B51E489F
:1036200087B0016841F010010160006800F01000EF
:10363000059019481438016841F0010101600168E2
:1036400001F001010591016841F00101016000688C
:10365000072400F0010005904FF400700090022054
:103660000190012002900320CDE903040B4D69462F
:103670002846FEF7F7F92815009069460494284675
:10368000FEF7F0F9012200212520FEF787FB252017
:10369000FEF776FB07B030BD443802400000024020
:1036A0002DE9F843044690F83D001F4616460D46A6
:1036B00020284CD1C5B1BEB194F83C00012846D0B9
:1036C000012084F83C004FF00008C4F8408021201D
:1036D00084F83D00FEF7C8FAA6848146E684A06817
:1036E000B0F5805F03D004E00120BDE8F8832069D5
:1036F00028B12E465FF0000584F83C800EE00026DD
:10370000FAE78021204602F029FCA0B9AEB116F8F4
:10371000010B21684860E08C401EE084E08C4B4641
:103720004FF0000200970028EBD14FF040012046F7
:1037300002F014FC30B10320D7E735F8020BC0F3D8
:103740000800E6E7202084F83D000020CDE70220B5
:10375000CBE7FEE770B5234886B00021026842F04F
:1037600008020260026802F008020592026842F054
:1037700008020260026802F008020592026842F044
:1037800008020260026802F008020592026842F034
:1037900040020260006801AA00F04000059080200D
:1037A00000901120032482E813000F4E6946304632
:1037B000FEF758F90820009069463046FEF752F9A6
:1037C00040250120CDE900500220CDE902046946E0
:1037D0003046FEF747F9694604480095FEF742F97E
:1037E00006B070BD30380240000C024000180240A4
:1037F00000B585B04FF4807000904FF488100190B0
:10380000002002900320039069460648FEF72AF93B
:10381000012211461720FEF7C1FA1720FEF7B0FA71
:1038200005B000BD0018024070B514460D460646AE
:1038300010F0BCFF46F0010010F08EFF10F0DAFF30
:1038400088B110F0C9FF012070BD012C03D110F028
:103850004BFF10F0C1FF10F05BFF641E05F8010B79
:10386000A4B210F025FF002CEFD110F0B5FF00201E
:1038700070BD00002DE9F04186B04FF48074012046
:10388000CDE9004002200325CDE90205DFF83880AC
:1038900069464046FEF7E6F80C4EA00330600C4F38
:1038A0003846FDF7AAFA402030603846FDF7A5FA01
:1038B0000020CDE90040CDE9020569464046FEF70B
:1038C000D1F806B0BDE8F08100180240180C0240A3
:1038D000FFFF0F0010B5FFF73DFFFFF7CBFFBDE87F
:1038E0001040FFF785BF000070B50E460546002466
:1038F00019E000BF04EB440105EB81008278D20798
:1039000007D08288836815F821001946FFF78CFFDD
:1039100006E00279836815F82100194600F007F8DF
:10392000641C002802D1B442E4D1204670BD2DE9C8
:10393000F04116460D46804610F04EFF00244FF42D
:103940007A7710F033FF404610F006FF10F052FF78
:1039500018B1641CA4B2BC42F3D3BC4206D00BE045
:10396000287810F0F9FE10F045FF20B110F034FF78
:103970000120BDE8F0816D1C761EF6B2F0D210F089
:103980002BFF0020F5E70000064B012806D0022897
:1039900006D1012240211846FEF761B90022F9E75D
:1039A000704700000014024008B5084C4FF0FF3586
:1039B000A0680028FCD02A46694628F063FD01284B
:1039C000F6D19DF80000FFF7DFFFF1E710000020BF
:1039D00019F0C6FD1FF000FD1FF022FD20F0DCF9FC
:1039E0001CF0ECF9054620F0D7F91CF04EFE03263A
:1039F00090FBF6F004B220F0CFF91CF046FE90FBED
:103A0000F6F001B2224628461FF075FA20F0C4F9FC
:103A10001DF02FFF4042C11700EB91708210002370
:103A2000092128461BF004FE284619F077FF0646B8
:103A300023A11AF0DDFD244C0022304661681FF0FE
:103A4000E8FB20F0A9F91CF020FE4142C81701EB69
:103A5000107003110022092130461BF0E9FD2846B1
:103A600021F05EF9206020F097F91CF00EFE0C2189
:103A700090FBF1F005B220F08FF91CF006FE062154
:103A800090FBF1F001B22A4620681FF034FA20F0D2
:103A900083F91CF0FAFDC11700EB1170031100222D
:103AA000092120681BF0C4FD00231C22074920685F
:103AB0001BF0F0FC052028F035F822F053F9F9E767
:103AC000436F6F6C000000001000002055A4020836
:103AD0000D4808B5016841F48001016000680022CA
:103AE00000F48000009007213B20FEF757F93B20AF
:103AF000FEF746F9002207214520FEF74FF9BDE801
:103B000008404520FEF73CB93038024010B509495D
:103B10000948FDF789F9074C641E207007A002F0E0
:103B20005BFA21780EA002F057FABDE8104015A00C
:103B300002F052BA55010020E0BA05085B46415434
:103B400046535D203D3D3D3D3D204641544653207A
:103B5000494E4954203D3D3D3D3D0D0A00000000C9
:103B60005B46415446535D204C696E6B44726976E6
:103B7000657220737461747573203D2025640D0A8D
:103B8000000000005B46415446535D202D2D2D2D35
:103B90002D2D2D2D2D2D2D2D2D2D2D2D2D2D2D2D55
:103BA0002D2D2D2D2D2D2D2D2D0D0A007CB5002216
:103BB0000121042028F0A0FA0F490024182588606C
:103BC000CDE90054234680220CA10F4828F05AFE6C
:103BD000CDE900544FF4007500232A460BA10E488E
:103BE00028F050FE0820CDE9000400232A460BA14E
:103BF0000C4828F047FE7CBD100000204C45445F77
:103C00005461736B00000000A93900084C56474C02
:103C10005F5461736B000000D139000846535F5454
:103C200061736B00490F0008F0B587B01421684636
:103C3000FCF77EFB1B480024016841F02001016075
:103C40000068194F00F020000590012240213846FD
:103C5000FEF705F8012280213846FEF700F8012220
:103C6000160231463846FDF7FAFF40200090012544
:103C7000CDE90154694638460394FDF7F3FE8020F0
:103C80000090CDE90154694638460394FDF7EAFEF9
:103C90000096CDE90154694638460394FDF7E2FEEB
:103CA00007B0F0BD303802400014024010B586B0B5
:103CB00014216846FCF73CFB1C4800241A49059473
:103CC000C0E900147F218160FF21C0E90314446131
:103CD0008461FEF741FC08B1FDF7A4F80C208DF8D3
:103CE00000008DF801408DF80240039400226946DF
:103CF0000E480494FEF706FD08B1FDF793F8012085
:103D00008DF814008DF815008DF8160019208DF827
:103D10001700002205A90548FEF790FC002801D0F5
:103D2000FDF780F806B010BD0028004000C2012059
:103D300010B50AA002F050F9114800220F49C0E95D
:103D400000128260C26076210261C0E90521BDE8EF
:103D5000104013460BA002F03FB900005B53445DD6
:103D6000204D585F5344494F5F53445F496E697417
:103D70003A20626567696E0D0A000000002C014060
:103D8000C81100205B53445D204D585F5344494F98
:103D90005F53445F496E69743A20436C6F636B44B0
:103DA00069763D256C752C20427573576964653DB5
:103DB00025752C20466C6F774374726C3D25750D0C
:103DC0000A000000FEE7FEE7044B4FF4007108B163
:103DD000012200E000221846FDF741BF0014024016
:103DE00070B51C46154600F027F9044905FB04F0A0
:103DF0000989BDE8704000F045B8000004000020CB
:103E000001B5009801E0401E00900028FBD108BDDC
:103E1000194818B44FF020410160194A1749416010
:103E20001368002143F0010313601268042302F0B9
:103E30000102009200F150029C06C2E90031C2E981
:103E400002311161C2E9051408228360C0E903123E
:103E50001022C0E905211202C161C0E90912C16244
:103E60000163416381631102C16300F1500218BC18
:103E70001146FFF745BA00005C010020040100A0D4
:103E80003838024010B54FF0D0434FF43054002280
:103E90001C8001E05980521C8242FBD310BD0000FF
:103EA0002D4810B5016886B041F008010160016835
:103EB00001F008010591016841F0100101600168FD
:103EC00001F010010591016841F0200101600168D5
:103ED00001F020010591016841F040010160006896
:103EE00000F0400005901C480830016841F00101D5
:103EF00001600068694600F0010005900120019012
:103F00000290032003904FF4806000901348FDF767
:103F1000A9FD4FF40060124C009069462046FDF761
:103F2000A1FD022001900C2004904CF2337000900F
:103F300069460C48FDF796FD4FF680700090694683
:103F40000948FDF78FFD40F20120009069462046A8
:103F5000FDF788FD06B010BD303802400018024061
:103F600000140240000C02400010024010B5072867
:103F700042D8234AC4074FF4F07110704FF44873CD
:103F80003BD05380A2F804104FF0D0414FF4585367
:103F90000B80400148804FF4285008800020488062
:103FA00042F6012008800020488042F60220088066
:103FB0005088401EC0F307234B8042F603230B803A
:103FC000C0B248804FF42C5008800020488042F650
:103FD000013008800020488042F602300880908836
:103FE000401EC0F307224A8042F603320A80C0B264
:103FF00048804FF43050088010BD51809380C3E753
:104000000400002010B5FFF74BFFFFF701FF00F0A1
:10401000FDFF00F040F8074C2078FFF7A7FF0021D4
:10402000A38862880846FFF7DBFEBDE81040012048
:10403000FFF7CABE0400002030B54FF0D0444FF463
:1040400028552580050A658042F601252580C5B2E0
:10405000658042F6022525801044401E020A6280D7
:104060006A1C2280C0B260804FF42C502080080A65
:10407000608042F601302080C8B2608042F6023093
:104080002080C818401E010A618042F60331218059
:10409000C0B2608030BD38B54FF0D0404FF47041B1
:1040A0000180552141804FF201010180AA21418008
:1040B0004FF202010180522141804FF20301018041
:1040C000082141804FF204010180012141804FF419
:1040D000304101800D2141804BF2010101800D2111
:1040E00041804BF2020101800D2141804FF43141AA
:1040F00001800D2141804BF2011101800D21418091
:104100004BF2021101800D2141804FF432410180B8
:10411000002141804BF201210180002141804BF2BE
:1041200002210180002141804FF436410180442169
:1041300041804BF201610180442141804BF20261D8
:104140000180442141804FF4374101803421418076
:104150004BF201710180342141804BF202710180E8
:10416000342141804FF438410180342141804BF6A5
:1041700001010180342242804A1C028034234380A2
:104180004FF43F430380012343804FF433430380C4
:104190000F2343804BF2013303800F2343804BF204
:1041A000023303800F2343804FF4394303803423C9
:1041B00043804BF601130380342343804BF60213F4
:1041C0000380342343804FF4354303800823438026
:1041D0004BF201530380082343804BF202530380C8
:1041E000082343804FF442430380032343804FF46A
:1041F0003A430380342343804BF601230380342366
:1042000043804BF602230380342343804FF43C4326
:104210000380002444805C1C0480782545809D1C1C
:104220000580002545804FF43D45058000254580EB
:104230004BF601550580782545804BF602550580E3
:10424000002545804FF43E450580002545804BF60E
:1042500001650580642545804FF4514505800025A2
:1042600045804DF201150580332545804DF202153C
:104270000580002545804DF20315058034254580D5
:104280004DF204150580002545804DF20515058089
:104290003A2545804DF206150580002545804DF2F2
:1042A000071505804A2545804DF208150580002533
:1042B00045804DF2091505805C2545804DF20A15B3
:1042C0000580002545804DF20B1505808125458030
:1042D0004DF20C150580002545804DF20D15058029
:1042E000A62545804DF20E150580002545804DF22E
:1042F0000F150580E52545804DF210150580012537
:1043000045804DF211150580132545804DF212159B
:104310000580012545804DF2131505805425458003
:104320004DF214150580012545804DF215150580C7
:10433000822545804DF216150580012545804DF2F8
:1043400017150580CA2545804DF2181505800225F0
:1043500045804DF219150580002545804DF21A154E
:104360000580022545804DF21B15058001254580FD
:104370004DF21C150580022545804DF21D15058066
:10438000342545804DF21E150580022545804DF2ED
:104390001F150580672545804DF2201505800225F3
:1043A00045804DF221150580842545804DF222156A
:1043B0000580022545804DF223150580A425458002
:1043C0004DF224150580022545804DF22515058006
:1043D000B72545804DF226150580022545804DF212
:1043E00027150580CF2545804DF22815058002252B
:1043F00045804DF229150580DE2545804DF22A15B0
:104400000580022545804DF22B150580F22545805B
:104410004DF22C150580022545804DF22D150580A5
:10442000FE2545804DF22E150580032545804DF271
:104430002F150580102545804DF230150580032588
:1044400045804DF231150580332545804DF23215FA
:104450000580032545804DF2331505806D25458087
:104460004FF452450580002545804DF20125058019
:10447000332545804DF202250580002545804DF20B
:1044800003250580342545804DF20425058000254F
:1044900045804DF2052505803A2545804DF20625DB
:1044A0000580002545804DF2072505804A25458079
:1044B0004DF208250580002545804DF2092505802F
:1044C0005C2545804DF20A250580002545804DF28A
:1044D0000B250580812545804DF20C2505800025A2
:1044E00045804DF20D250580A62545804DF20E250F
:1044F0000580002545804DF20F250580E525458086
:104500004DF210250580012545804DF211250580CD
:10451000132545804DF212250580012545804DF279
:1045200013250580542545804DF21425058001256D
:1045300045804DF215250580822545804DF21625D2
:104540000580012545804DF217250580CA25458047
:104550004DF218250580022545804DF2192505806C
:10456000002545804DF21A250580022545804DF233
:104570001B250580012545804DF21C25058002255F
:1045800045804DF21D250580342545804DF21E25C0
:104590000580022545804DF21F2505806725458051
:1045A0004DF220250580022545804DF2212505800C
:1045B000842545804DF222250580022545804DF257
:1045C00023250580A42545804DF22425058002255C
:1045D00045804DF225250580B72545804DF22625DD
:1045E0000580022545804DF227250580CF25458091
:1045F0004DF228250580022545804DF229250580AC
:10460000DE2545804DF22A250580022545804DF2A4
:104610002B250580F22545804DF22C2505800225AD
:1046200045804DF22D250580FE2545804DF22E2535
:104630000580032545804DF22F25058010254580F6
:104640004DF230250580032545804DF2312505804A
:10465000332545804DF232250580032545804DF2F6
:10466000332505806D2545804FF453450580002591
:1046700045804DF201350580332545804DF20235E8
:104680000580002545804DF20335058034254580A1
:104690004DF204350580002545804DF20535058035
:1046A0003A2545804DF206350580002545804DF2BE
:1046B000073505804A2545804DF2083505800025DF
:1046C00045804DF2093505805C2545804DF20A355F
:1046D0000580002545804DF20B35058081254580FC
:1046E0004DF20C350580002545804DF20D350580D5
:1046F000A62545804DF20E350580002545804DF2FA
:104700000F350580E52545804DF2103505800125E2
:1047100045804DF211350580132545804DF2123547
:104720000580012545804DF21335058054254580CF
:104730004DF214350580012545804DF21535058073
:10474000822545804DF216350580012545804DF2C4
:1047500017350580CA2545804DF21835058002259C
:1047600045804DF219350580002545804DF21A35FA
:104770000580022545804DF21B35058001254580C9
:104780004DF21C350580022545804DF21D35058012
:10479000342545804DF21E350580022545804DF2B9
:1047A0001F350580672545804DF22035058002259F
:1047B00045804DF221350580842545804DF2223516
:1047C0000580022545804DF223350580A4254580CE
:1047D0004DF224350580022545804DF225350580B2
:1047E000B72545804DF226350580022545804DF2DE
:1047F00027350580CF2545804DF2283505800225D7
:1048000045804DF229350580DE2545804DF22A355B
:104810000580022545804DF22B350580F225458027
:104820004DF22C350580022545804DF22D35058051
:10483000FE2545804DF22E350580032545804DF23D
:104840002F350580102545804DF230350580032534
:1048500045804DF231350580332545804DF23235A6
:104860000580032545804DF2333505806D25458053
:104870004FF454450580002545804DF201450580E3
:10488000332545804DF202450580002545804DF2D7
:1048900003450580342545804DF2044505800025FB
:1048A00045804DF2054505803A2545804DF2064587
:1048B0000580002545804DF2074505804A25458045
:1048C0004DF208450580002545804DF209450580DB
:1048D0005C2545804DF20A450580002545804DF256
:1048E0000B450580812545804DF20C45058000254E
:1048F00045804DF20D450580A62545804DF20E45BB
:104900000580002545804DF20F450580E525458051
:104910004DF210450580012545804DF21145058079
:10492000132545804DF212450580012545804DF245
:1049300013450580542545804DF214450580012519
:1049400045804DF215450580822545804DF216457E
:104950000580012545804DF217450580CA25458013
:104960004DF218450580022545804DF21945058018
:10497000002545804DF21A450580022545804DF2FF
:104980001B450580012545804DF21C45058002250B
:1049900045804DF21D450580342545804DF21E456C
:1049A0000580022545804DF21F450580672545801D
:1049B0004DF220450580022545804DF221450580B8
:1049C000842545804DF222450580022545804DF223
:1049D00023450580A42545804DF224450580022508
:1049E00045804DF225450580B72545804DF2264589
:1049F0000580022545804DF227450580CF2545805D
:104A00004DF228450580022545804DF22945058057
:104A1000DE2545804DF22A450580022545804DF270
:104A20002B450580F22545804DF22C450580022559
:104A300045804DF22D450580FE2545804DF22E45E1
:104A40000580032545804DF22F45058010254580C2
:104A50004DF230450580032545804DF231450580F6
:104A6000332545804DF232450580032545804DF2C2
:104A7000334505806D2545804FF45545058000255B
:104A800045804DF201550580332545804DF2025594
:104A90000580002545804DF203550580342545806D
:104AA0004DF204550580002545804DF205550580E1
:104AB0003A2545804DF206550580002545804DF28A
:104AC000075505804A2545804DF20855058000258B
:104AD00045804DF2095505805C2545804DF20A550B
:104AE0000580002545804DF20B55058081254580C8
:104AF0004DF20C550580002545804DF20D55058081
:104B0000A62545804DF20E550580002545804DF2C5
:104B10000F550580E52545804DF21055058001258E
:104B200045804DF211550580132545804DF21255F3
:104B30000580012545804DF213550580542545809B
:104B40004DF214550580012545804DF2155505801F
:104B5000822545804DF216550580012545804DF290
:104B600017550580CA2545804DF218550580022548
:104B700045804DF219550580002545804DF21A55A6
:104B80000580022545804DF21B5505800125458095
:104B90004DF21C550580022545804DF21D550580BE
:104BA000342545804DF21E550580022545804DF285
:104BB0001F550580672545804DF22055058002254B
:104BC00045804DF221550580842545804DF22255C2
:104BD0000580022545804DF223550580A42545809A
:104BE0004DF224550580022545804DF2255505805E
:104BF000B72545804DF226550580022545804DF2AA
:104C000027550580CF2545804DF228550580022582
:104C100045804DF229550580DE2545804DF22A5507
:104C20000580022545804DF22B550580F2254580F3
:104C30004DF22C550580022545804DF22D550580FD
:104C4000FE2545804DF22E550580032545804DF209
:104C50002F550580102545804DF2305505800325E0
:104C600045804DF231550580332545804DF2325552
:104C70000580032545804DF2335505806D2545801F
:104C80004FF456450580002545804DF201650580AD
:104C9000332545804DF202650580002545804DF2A3
:104CA00003650580342545804DF2046505800025A7
:104CB00045804DF2056505803A2545804DF2066533
:104CC0000580002545804DF2076505804A25458011
:104CD0004DF208650580002545804DF20965058087
:104CE0005C2545804DF20A650580002545804DF222
:104CF0000B650580812545804DF20C6505800025FA
:104D000045804DF20D650580A62545804DF20E6566
:104D10000580002545804DF20F650580E52545801D
:104D20004DF210650580012545804DF21165058025
:104D3000132545804DF212650580012545804DF211
:104D400013650580542545804DF2146505800125C5
:104D500045804DF215650580822545804DF216652A
:104D60000580012545804DF217650580CA254580DF
:104D70004DF218650580022545804DF219650580C4
:104D8000002545804DF21A650580022545804DF2CB
:104D90001B650580012545804DF21C6505800225B7
:104DA00045804DF21D650580342545804DF21E6518
:104DB0000580022545804DF21F65058067254580E9
:104DC0004DF220650580022545804DF22165058064
:104DD000842545804DF222650580022545804DF2EF
:104DE00023650580A42545804DF2246505800225B4
:104DF00045804DF225650580B72545804DF2266535
:104E00000580022545804DF227650580CF25458028
:104E10004DF228650580022545804DF22965058003
:104E2000DE2545804DF22A650580022545804DF23C
:104E30002B650580F22545804DF22C650580022505
:104E400045804DF22D650580FE2545804DF22E658D
:104E50000580032545804DF22F650580102545808E
:104E60004DF230650580032545804DF231650580A2
:104E7000332545804DF232650580032545804DF28E
:104E8000336505806D2545804FF4704505805525B7
:104E900045804FF201050580AA2545804FF20205A5
:104EA0000580522545804FF2030505800825458081
:104EB0004FF204050580002545804FF435450580F7
:104EC000502545804FF431450580CC2545804BF277
:104ED00001150580002545804FF4364505800525E0
:104EE00045804FF437450580772545804BF20175A5
:104EF0000580772545804D1E058001254580018070
:104F00000321418002804180511C018003214180A6
:104F1000038002214180048000214180991C01808E
:104F2000002141804FF43D410180012141804BF639
:104F300001510180842141804BF6025101801C21E6
:104F400041804BF6035101801C2141804BF60451F6
:104F50000180002141804FF449410180D0214180EE
:104F60004CF601110180022141804CF602110180B2
:104F7000502141804CF603110180502141804CF6B4
:104F800004110180502141804FF4585101800021CB
:104F900041804FF454510180002141804FF47F4102
:104FA0000180AA2141804FF6017101805521418085
:104FB0004FF602710180252141804FF60371018077
:104FC000012141804FF47C410180162141804FF640
:104FD00001410180A22141804FF60241018026213A
:104FE00041804FF4685101800622428001805521A2
:104FF00041804FF4885101806FF07F410091491E3C
:105000000091FCD14FF42451018038BD70B50B4D97
:105010004FF40064002221462846FCF720FE40F6AB
:10502000FF263046FEF7ECFE012221462846FCF71B
:1050300016FE3046BDE87040FEF7E2BE00140240A6
:1050400010B5084B14465A8890420AD29A88914269
:1050500007D200F009F82146BDE810400120FEF714
:1050600011BF10BD0400002001231A46FEF7E4BF63
:10507000010901EB810100F00F0000EB4100C0B21B
:105080007047002102E00A38C0B2491C0A28FAD24F
:10509000090740EA1160704770B504460068C168AE
:1050A000490614D44FF0FF31C160FCF7DDFD054621
:1050B0004FF47A7607E000BFFCF7D6FD401BB04204
:1050C00001D9032070BD2068C0684006F4D50020D7
:1050D00070BD0A6842624A688262D1E902231A43BB
:1050E000D1E904310B43C16A1A4321F0F70111439E
:1050F000C16200207047006800F003007047084458
:10510000406970470148FDF751BD0000C8110020FB
:1051100070B50DF1100C11439CE870002343194346
:1051200029434268314347F6FF639A430A4342608A
:10513000002070BD10B5032101600220FCF786FC41
:10514000002010BDD0F8800070470A688260D1E965
:1051500001231A43D1E903310B43C1681A436FF3AA
:105160000B011143C160002070470968C0F880102E
:105170000020704710B586B004463720CDE90010F6
:1051800040200290002003904FF480600490694614
:105190002046FFF7DAFF41F288323721204600F03F
:1051A000BDF906B010BD000010B504460A4886B02F
:1051B00001432920CDE900104020029000200390F7
:1051C0004FF48060049069462046FFF7BEFF2046FA
:1051D00000F05CFA06B010BD0000108010B586B07B
:1051E00004461020CDE900104020029000200390DA
:1051F0004FF48060049069462046FFF7A6FF41F215
:1052000088321021204600F089F906B010BD10B593
:1052100086B004460620CDE9001040200290002010
:1052200003904FF48060049069462046FFF78DFF9D
:1052300041F288320621204600F070F906B010BD18
:1052400030B585B000240546009401944FF4806089
:105250000294CDE9034069462846FFF776FF0B48E4
:105260004FF4FA510068B0FBF1F041F28831484345
:10527000401E03D24FF0004005B030BD696B0906F7
:10528000F6D5C520A8632046F6E7000000C001203F
:1052900070B585B004464FF4D570009001A9082080
:1052A0004025002681E86100C0010490694620463F
:1052B000FFF74BFF12484FF4FA510068B0FBF1F0D2
:1052C00041F288314843401E03D24FF0004005B000
:1052D00070BD616B11F0450FF5D00905F3D4606B1B
:1052E000400701D5042003E0606BC00702D0012015
:1052F000A063ECE7606B400600D5A5633046E6E7A7
:1053000000C0012010B586B004461220CDE900107F
:1053100040200290002003904FF480600490694682
:105320002046FFF712FF41F288321221204600F09A
:10533000F5F806B010BD10B586B004461120CDE9D1
:10534000001040200290002003904FF480600490F1
:1053500069462046FFF7F9FE41F2883211212046C6
:1053600000F0DCF806B010BD10B586B0044607208A
:10537000CDE9002040200290002003904FF480608F
:10538000049069462046FFF7E0FE41F2883207218B
:10539000204600F0C3F806B010BD10B586B0044634
:1053A00000210220CDE90010C020CDE902014FF418
:1053B0008060049069462046FFF7C7FE204600F053
:1053C0003DF906B010BD10B586B004460920CDE900
:1053D0000010C0200290002003904FF480600490E1
:1053E00069462046FFF7B1FE204600F027F906B0D7
:1053F00010BD10B586B0044600213320CDE9001061
:105400004020CDE902010001049069462046FFF7E3
:105410009CFE41F288323321204600F07FF806B02E
:1054200010BD10B586B004460D20CDE90010402017
:105430000290002003904FF480600490694620465B
:10544000FFF783FE41F288320D21204600F066F816
:1054500006B010BD30B585B00C46054600210320CE
:10546000CDE900104020CDE9020100010490694619
:105470002846FFF76AFE22460321284600F028F955
:1054800005B030BD10B586B0044600210C20CDE932
:1054900000104020CDE90201000104906946204639
:1054A000FFF753FE034A0C21204600F037F806B000
:1054B00010BD000000E1F50510B586B004461920C6
:1054C000CDE9001040200290002003904FF480604E
:1054D000049069462046FFF738FE41F288321921D0
:1054E000204600F01BF806B010BD10B586B004468B
:1054F0001820CDE9001040200290002003904FF4C6
:105500008060049069462046FFF71FFE41F2883212
:105510001821204600F002F806B010BD454B10B52A
:105520001B684FF4FA54B3FBF4F353435B1E02D2EF
:105530004FF0004010BD426B12F0450FF6D012053F
:10554000F4D4426B520703D504218163084610BD91
:10555000426BD20702D00121816305E0C52282633C
:105560000269D2B28A4201D0012010BD0021FFF7AA
:10557000C6FD3149084201D1002010BD002802DAE1
:105580004FF0007010BD410001D5402010BD8100DA
:1055900001D5802010BDC10002D54FF4807010BD30
:1055A000010102D54FF4007010BD410102D54FF446
:1055B000806010BDC10102D54FF4006010BD010232
:1055C00002D54FF4805010BD410202D54FF4005077
:1055D00010BD810202D54FF4804010BDC10202D53A
:1055E0004FF4004010BD410302D54FF4003010BD10
:1055F000810302D54FF4802010BDC10302D54FF4C2
:10560000002010BD010402D54FF4801010BD4104EC
:1056100002D54FF4001010BD810402D54FF4800074
:1056200010BD000702D54FF4000010BD4FF48030CC
:1056300010BD000000C0012008E0FFFD12494FF43A
:10564000FA520968B1FBF2F141F288325143491E26
:1056500002D24FF000407047426B12F0450FF6D077
:105660001205F4D4416B490703D504218163084630
:105670007047416BC90703D0012181630846704719
:10568000C52181630020704700C001200F494FF4FD
:10569000FA520968B1FBF2F141F288325143491ED6
:1056A00002D24FF000407047426B12F0450FF6D027
:1056B0001205F4D4416B490703D5042181630846E0
:1056C0007047C521816300207047000000C00120A1
:1056D00030B5204B4FF4FA541B68B3FBF4F341F29E
:1056E000883463435B1E02D24FF0004030BD446BF0
:1056F00014F0450FF6D02405F4D4436B5B0703D5B3
:1057000004218163084630BD436BDB0702D00121D1
:10571000816303E00369DBB28B4201D0012030BD1D
:10572000C52181630021FFF7EAFC10F4604F04D02B
:10573000410406D54FF4005030BD000C108000200D
:1057400030BD000402D54FF4805030BD4FF480309E
:1057500030BD000000C0012010B5064C01202070B3
:10576000FAF780FE18B9207820F001002070207828
:1057700010BD00004C01002070B5054621F0C0FCB2
:10578000044603E0FAF76EFE002806D021F0B8FCCC
:10579000001BA842F6D34FF0FF3070BD10B5846BEC
:1057A000FBF7DFFF022828D0206C416DE06B406DD5
:1057B000012901D001281DD1216810488863206883
:1057C000C16B21F49D71C163A06B40F08040A06368
:1057D0002046FDF7D5F9062801D0052805D1206817
:1057E000FFF750FEA16B0843A063012084F834004A
:1057F000002020632046FDF7E3F810BDFF054000C0
:1058000010B5846B206B822809D12068FFF73AFE1F
:1058100028B1A16B0143A1632046FDF7D1F82068B0
:10582000C16A21F00801C162216840F23A508863E0
:10583000012084F83400002020632046FDF7C8FCD6
:1058400010BD10B5846B40F23A5021688863204641
:10585000FDF796F9012184F8341000212163062810
:1058600001D0052805D12068FFF70CFEA16B084385
:10587000A063A06B0028204602D0FDF7A1F810BD60
:10588000FDF70DF810BD806B0068C16B41F48071AD
:10589000C163704710B5846B40F23A502168886349
:1058A0002046FDF76DF9012184F8341000212163B1
:1058B000062801D0052805D12068FFF7E3FDA16B7C
:1058C0000843A063A06B0028204602D0FDF778F8BB
:1058D00010BDFCF7E4FF10BD2DE9F04788B00D4680
:1058E0000446FCF7C1F90026824600960196374629
:1058F00008212068FFF772FC002829D1B4F8500075
:1059000001042068FFF736FC002821D1401E4FF02B
:105910000808CDE9020830204FF00209CDE904095A
:105920000120CDE9067002A92068FFF7D2FB2068AC
:10593000FFF75FFD00280BD16F462068416B11F027
:105940002A0F08D0416B09071AD5C0F83880082003
:1059500008B0BDE8F087416B890205D5FFF7F2FB7F
:1059600047F82600761C02E0416B8904EAD5FCF773
:105970007BF9A0EB0A00401CDFD14FF00040E7E7C5
:10598000416B890703D5C0F838900220E0E7416BEE
:10599000890603D5202181630846D9E740F23A51B0
:1059A0008163019800BA2860009800BA68600020FE
:1059B000CEE710B590B004460120ADF8380020685D
:1059C000FFF799FB002854D0606C032842D0206870
:1059D000FFF7E3FC00284AD100212068FFF78FFB86
:1059E000606704212068FFF78AFBA0670821206810
:1059F000FFF785FBE0670C212068FFF780FBC4F808
:105A00008000606C032825D00EA92068FFF722FDD6
:105A100000282CD1606C03281CD0BDF8380020650C
:105A200001042068FFF7CFFC002820D10021206866
:105A3000FFF765FB606604212068FFF760FBA06646
:105A400008212068FFF75BFBE0660C212068FFF768
:105A500056FB206704212068FFF751FB000DE0642E
:105A600003A92046FCF7AEFF30B14FF0805010B0D4
:105A700010BD4FF08060FAE7B4F850000023020434
:105A80002068FFF771FC0028F1D104F1100007C86D
:105A90008DE8070094E80F00FFF73AFB0020E6E7E7
:105AA0002DE9F84F0026044600963546B0460068BA
:105AB000FFF7C6FB002827D12068FFF7E9FB4FF06E
:105AC000805B4FF001094FF6FF7748B1A66420686C
:105AD000FFF7B6FB002817D1A06C012802D020E008
